:020000042000DA
:1000000000100010C1010020C9010020CB01002018
:10001000CD010020CF010020D10100200000000010
:10002000000000000000000000000000D3010020DC
:10003000D501002000000000D70100207DEC002049
:10004000DB010020DB010020DB0100204DDB002074
:10005000DB010020DB010020DB010020DB010020B0
:10006000DB010020DB010020DB010020DB010020A0
:10007000DB010020DB010020DB010020DB01002090
:10008000DB010020DB010020DB010020DB01002080
:10009000DB010020DB010020DB010020DB01002070
:1000A000DB010020DB010020DB010020DB01002060
:1000B000DB01002041EF0020DB010020DB010020FC
:1000C000DB010020DB010020DB010020DB01002040
:1000D000DB01002069040120DB010020DB0100209E
:1000E000DB0100208DDA0020DB010020DB01002095
:1000F000DB010020DB010020DB010020DB01002010
:10010000DB010020DB010020DB010020DB010020FF
:10011000DB010020DB0100209DEF002061F00020CA
:10012000DB010020DB010020DB010020DB010020DF
:10013000DB010020DB010020DB010020DB010020CF
:10014000F70700200708002017080020DB01002027
:10015000DB010020DB01002061130020DB01002017
:10016000DB010020DB010020DB010020DB0100209F
:10017000DB010020DB010020DB010020000000008B
:10018000DB010020DB010020DB010020DB0100207F
:10019000DB010020DB010020DB010020DB0100206F
:1001A0000DC10020DB010020DB010020DFF80CD0B6
:1001B00000F076F8004800479DEC01200010001088
:1001C0000648804706480047FEE7FEE7FEE7FEE7F1
:1001D000FEE7FEE7FEE7FEE7FEE7FEE75DED002057
:1001E000AD01002010B5431A934209D28318881834
:1001F00003E010F8011D03F8011D521EF9D210BDD5
:1002000040EA01039B0703D009E008C9121F08C098
:10021000042AFAD203E011F8013B00F8013B521E18
:10022000F9D210BDD2B201E000F8012B491EFBD279
:1002300070470022F6E710B513460A4604461946F1
:10024000FFF7F0FF204610BD421C10F8011B0029EB
:10025000FBD1801A704710B5002200E0521C835C6D
:100260008C5CA34201D1002BF8D1D8B2E1B2401A84
:1002700010BD30B504460020034600E05B1C9342ED
:1002800003D2E05CCD5C401BF8D030BD034611F8D2
:10029000012B00F8012B002AF9D118467047000005
:1002A000064C074D06E0E06840F0010394E80700C3
:1002B00098471034AC42F6D3FFF77CFF042D0220A0
:1002C000342D022070B58D1810F8014B14F0030284
:1002D00001D110F8012B231106D110F8013B03E0E6
:1002E00010F8016B01F8016B521EF9D1B3B110F88F
:1002F000012B04F00C048A1A0C2C04D0A2EB8412FB
:1003000003F1020308E010F8014BA2EB0422F7E727
:1003100012F8014B01F8014B5B1EF9D5A942D3D36A
:10032000002070BD002800DC4042704738B54568A9
:1003300004460146284610F0D5F800282BD0206846
:10034000304A11280DD006DC0B2825D00E2833D0DA
:100350000F2852D112E0282849D0B0F5107F4CD197
:1003600008E09268002A16D02146284601B0BDE870
:1003700030401047214628465268F7E7284603F0E8
:1003800011FD0090406E0468684603F055FD002C96
:1003900001D02846A04738BD284603F003FD009051
:1003A000683003F05BFC009803216C3003F05EFCC6
:1003B000684603F041FD20E0E168486809680D29BE
:1003C00002D0202913D105E0002810DD284619F0BD
:1003D000A9FB06E0002804DD2846BDE8384019F0F6
:1003E000A1BB2846BDE83840022119F0DBBBE0681C
:1003F00018B90021284600F09DF92046BDE8384094
:1004000010F0AABBDC6502202DE9FF410AAF97E896
:100410007000002703958DE8D00000F003F804B0C9
:10042000BDE8F081F0B585B00DF1280C9CE8F00036
:100430004FF0000C8DE8F01000F024F805B0F0BD8E
:10044000F0B5044685B08069B4F90850668A002783
:10045000CDE90265CDE900170490B4F90C00B4F9B8
:100460001060C118B4F90A00B4F90E5010443346B4
:100470002A4600F007F80546616800F07AF905B0F1
:100480002846F0BDF0B585B00C46DDE90D51DFF82A
:1004900054C04C31DDE90A67CDE902C12146CDE9FE
:1004A000006710F0ABFA040018D003F07BFC1022B8
:1004B0002946049010F0F6F9049830220A493430A5
:1004C000FFF790FE084D04990C3D2868486604A883
:1004D00003F0B2FC286841682046884705B02046F2
:1004E000F0BD00002D030020E8650220F0B50446B1
:1004F00080688B4989B051F82050606800287DD011
:10050000052804D006287AD0122879D1AEE0E8690F
:1005100000284FD095E80E008DE80F0004F110017F
:100520000FC906F047FB002655F8260005F014FC1D
:10053000A169E8690A1A216901446069304404F03C
:100540007BFAA169E8690A1A21690144E069801B04
:1005500004F072FAE169E8690A1A616901442069E4
:10056000304404F025FBE169E8690A1A6169014435
:10057000A069801B04F01CFB761C022ED4DBA8684B
:1005800005F0EAFBE069E9696669431A20694218E7
:100590003144801C521E04F05BFBE169E869A269EA
:1005A0000B1A61690144101A401C921E04F050FBA2
:1005B000EE6913E05FF0000655F8260005F0CCFB6D
:1005C000E069831BA069821B60698119206930443E
:1005D00004F094FA761C022EEEDB0226D5E9030124
:1005E000CDE900016169E06908444310A069891CF4
:1005F000821B2069304404F0EBF902E089E012E04C
:100600008AE0D5E90501CDE90001E36960690121CE
:10061000184401EB6001A0699B1E821B20693044D5
:1006200004F0D6F978E0206803F0BCFB0490206861
:1006300011F01EFE40B1A06808B1002008E0049847
:10064000006F28B1012003E00498406F00B1022040
:10065000049901EB8000C56E04A803F0EDFB0023B4
:100660001A462846216803F055FF55E0206803F03C
:1006700099FB0490866EEEB3B0F95C70A168D1B3BB
:10068000032942D05FF0000100EB8101406D0C6C4A
:1006900005F06CFB204605F05FFB05A804F078FB35
:1006A000BDF81410A88B0144ADF81410BDF8181053
:1006B000081AADF81800BDF81600801CADF8160039
:1006C000BDF81A00801EADF81A000498B0F9602039
:1006D000B0F95E1005A805F08FF904A803F0ACFB93
:1006E000022005F0A1FB304603F05CFB3A4605A969
:1006F000079001E00BE006E003F0EAFF0DF11C00BB
:1007000003F09AFB08E00121BEE70221BCE704A840
:10071000F6E7206811F0E2F909B00020F0BD000012
:100720002C2C022000294FF0100101D00FF06ABFDD
:100730000FF0BCBE4FF480720029114601D00FF0BB
:1007400061BF0FF0B3BE08B50023009300F001F8BD
:1007500008BD70B516460C46054619463046049A43
:1007600003F0C0FE024621462846BDE8704000F076
:1007700028B82DE9FF410E4605004FF001041CD0BA
:1007800003F010FB0190876E01A8009703F054FB63
:100790003146684606F080FD78B100980024B842E2
:1007A00008D0284603F0FEFA01900099816601A85E
:1007B00003F042FB284610F0ACFE04B02046BDE832
:1007C000F081F8B515460C46060013D003F0EAFA9E
:1007D0000090032C0BD200EB84006C3003F03EFA47
:1007E000009800EB8400C566304610F092FE684623
:1007F00003F022FBF8BD10B5002000F0B1F9BDE810
:10080000104000F043B810B5012000F0A9F9BDE890
:10081000104000F0CDB8662003F0A7BE1CB5002044
:10082000009001900548064A02210368054803F03C
:100830005FFD05490860084600681CBD3061022064
:1008400035D9012040F50120946102201CB50446F1
:100850004FF6FF700EF05CFB0020009001900748FF
:10086000074A1B210368074803F042FD064941F887
:100870002400084650F824001CBD0000306102200E
:1008800065DA01204CF20120FCCB02202DE9F04F6B
:1008900085B0404D2C79A8780027DFF8FC90DFF870
:1008A000FCA03F493F4E4FF001084FF0460B002897
:1008B00004D0012865D0022863D12EE051F824002D
:1008C000D8B10F2201A902F01BF968798DF80A004E
:1008D000A8798DF80B00E8798DF80C00287A8DF84E
:1008E0000D00687A8DF80E008DF806802C480F22D6
:1008F00001A950F8240002F046FA89F80070CAF8FD
:1009000000702948C0F800B0306810F0010F38D1ED
:10091000306840F00100306033E051F8240008B343
:100920000F2201A902F0ECF8E87A8DF80700A87A06
:100930008DF80800687A8DF80900287A8DF80F0084
:10094000E8798DF81200A8798DF8110068798DF892
:1009500010008DF8068012480F2201A950F82400DB
:1009600002F011FA89F80070CAF800700E48C0F859
:1009700000B0306810F0010F03D1306840F0010082
:1009800030600A48016841F00201016005B0BDE82D
:10099000F08F0000C4CB02202C6002202414004001
:1009A000FCCB022000140040341C004014680040BE
:1009B0002DE9F84FDFF87CA1012750469AF80E1078
:1009C000047C5D4B04290FD05D4ADFF870B1DFF87D
:1009D00074915D4D10684FF00008AAF10C060529CE
:1009E00006D0062959D172E01C705848077099E06A
:1009F00040F63C0110F0DAF900909AF811006728EF
:100A000006D05349534A632848D0652856D089E018
:100A1000D9F800002968401A7321082820D3002043
:100A20002A683318A2F13F521278DA702A68521CF1
:100A30002A60401C0828F3D3601C41EA0020308063
:100A40000820B070444800F0E9F828686421484361
:100A5000D9F80010B0FBF1F100980CF05AFC61E0FD
:100A6000D9F800002A68801AC2B2B2700020002AA9
:100A70000CD92A683318A2F13F521278DA702A682A
:100A8000521C2A60401CB2788242F2D8601C41EAB3
:100A900000203080304800F0C1F843E00F70C5F806
:100AA00000808BF800801770009810F089F82448B7
:100AB0004FF48061006810F0DAFE33E00F70C5F883
:100AC000008002201070009810F07AF82AE09A4610
:100AD0001C709AF800109BF80020914222D140F639
:100AE0003C0110F063F911F0ACF8C5F800809AF8F9
:100AF0000000401C712141EA002030800420B070C9
:100B0000D9F80000F070D9F80000000A3071D9F867
:100B10000000000C7071D9F80000000EB0710E4892
:100B200000F07CF80D48016841F010010160BDE85B
:100B3000F88F0000C4CB0220916102208F61022057
:100B4000346102200C610220686102208D61022064
:100B50008E6102208C610220B8CB02201468004014
:100B600070B4274901EB00142168264D11F0020FE3
:100B7000254900EB400C01EB001305EB8C011FD164
:100B8000224A02EB001216680E711668360A4E7180
:100B90001668360C8E711268120ECA711C4A02EB6E
:100BA000001216680E721668360A4E721668360CF7
:100BB0008E721268120ECA721A6802F00F02CA70A0
:100BC0002268520D25F82C201A68120A8A701149E1
:100BD00050B1086820F010000860081F016841F05B
:100BE0002001016070BC70470B48026842F020028F
:100BF0000260086820F00200086070BC70470000C6
:100C0000B0690040C4CB0220B4690040B86900401C
:100C1000BC690040146800400C68004010B42C49C6
:100C20000A6812F0806F01D000210AE00A6812F011
:100C3000006F01D0012104E0096811F0805F44D009
:100C4000022102884FEA425C224A02EB0113C3F8F8
:100C500000C0121D02EB0112D2F800C02CF00F0CE4
:100C6000C2F800C0D2F800C084784CEA040CC2F884
:100C700000C0C27890F806C0047942EA0C6290F88D
:100C800005C04FEA0C4C4CEA042C42EA0C02DFF897
:100C900048C00CEB011CCCF80020C27990F80AC0C7
:100CA00042EA0C6290F809C0007A4FEA0C4C4CEA18
:100CB00000201043094A02EB01110860186840F057
:100CC0000100186010BC0020704710BC0220704763
:100CD0000868004080690040886900408C690040D5
:100CE00013490A6812F0806F01D000210AE00A68F7
:100CF00012F0006F01D0012104E0096811F0805F5B
:100D000014D00221022242EA40520A4800EB0110AC
:100D10000260094A02EB01110A6822F00F020A6020
:100D2000016841F001010160002070470220704716
:100D30000868004080690040846900407CB5214C0F
:100D40000546216831F8220F4A8D104408804888F2
:100D5000CA8D10444880284604F00AF82168498C5E
:100D6000ADF800104618284606F030F93044401E11
:100D7000ADF8040004F03EF82168898CADF802104B
:100D80000844401EADF80600684611F0FDF804E086
:100D9000284602F0EFF911F091F80028F8D10A2D59
:100DA00004D0BDF804002168401C4884206830F855
:100DB000221F428D891A01804188C28D891A418083
:100DC0007CBD0000F06102202DE9FE4304460E4682
:100DD0001546204606F062FB0746C4EBC4001449E2
:100DE00051F8200007FB0608C4EBC40051F82000AE
:100DF00007FB05090021C4EBC4000D4B03EB800089
:100E00000069CDE90001C4EBC4000291194601EB71
:100E100080004A464146C368204600F08FF9C4EB83
:100E2000C400034901EB80008560BDE8FE8300003B
:100E3000C06D02202DE9F04F85B004460D461646E0
:100E40001F46DDE90F8BDDF838A0204606F026FBB3
:100E50008146C4EBC400264951F82000C4EBC4010C
:100E6000234A02EB8101496809FB0100C4EBC4017C
:100E700002EB8101C96806FB0151C4EBC4021C4BA3
:100E800003EB8202526901FB02000490C4EBC40030
:100E9000194651F82000C4EBC4011A4602EB810147
:100EA000496809FB0100C4EBC40102EB8101C96878
:100EB0000AFB0171C4EBC40203EB8202526901FB1D
:100EC000020003900021C4EBC4001A4602EB80002C
:100ED000C068A0EB08004346CDE900B0029120466F
:100EE000DDE9032100F02AF905B0BDE8F08F00002C
:100EF000C06D02202DE9FE4F04460D4616461F46E2
:100F0000DDF8309003F068FF012810D1002219218C
:100F1000204609F0B5FF4B463A463146284609F0CF
:100F2000DBFB204A1921204609F0AAFF37E0781B95
:100F300000F10108A9EB0600401C0290204606F0D3
:100F4000ADFA8246C4EBC400174951F82000C4EB47
:100F5000C401154A02EB810189680AFB0100C4EB58
:100F6000C40102EB8101C96806FB0151C4EBC40254
:100F70000D4B03EB8202526901FB020BC4EBC4016F
:100F80001A4602EB81010D98C968A1EB0801CDE971
:100F90000010424659462046029B00F023F9BDE866
:100FA000FE8F0000F50E0020C06D0220F8B504464B
:100FB0000D4616461F4603203B4632462946009002
:100FC000204600F081F8F8BDF8B504460D461646F7
:100FD0001F4604203B46324629460090204600F03A
:100FE00073F8F8BDF8B504460D4616461F460220B4
:100FF0003B46324629460090204600F065F8F8BD91
:10100000F8B504460D4616461F4600203B463246BC
:1010100029460090204600F057F8F8BDF8B5044680
:101020000D4616461F4600203B4632462946009094
:10103000204600F049F8F8BD2DE9F04107460C467E
:1010400015461E4632460B49384609F0C4F832466A
:101050000949204609F0BFF83346084A06490548C1
:1010600000F00EF832462946044809F0B4F8BDE80D
:10107000F0810000F88B0220F8A90220F86D022010
:1010800030B50F4C0F4D2C602C46E0606161E2637F
:1010900000242C61AC612C64EC616C626C630124F3
:1010A00004EB03446C642C46246844F001042C6077
:1010B00000BF044C246814F0010FFAD130BD0000C9
:1010C0000002020000B002402DE9F84305460E463A
:1010D00014469846089F22460649284609F085F896
:1010E0003B46002231460348009400F005F8BDE875
:1010F000F8830000F86D022070B5049C4FF4813530
:101100000D4E35603546E860E9630025356135648C
:101110003546EA616B63012505EB04457564354688
:101120002D6845F00105356000BF034D2D6815F0B1
:10113000010FFAD170BD000000B002402DE9F05F50
:1011400007460C4615461E46DDE90B9ADDF8288059
:10115000384609F05BFC83464FF400700D49086087
:101160000846C460C563C0F81090C0F840A0C0F83D
:101170001CB0404666F31F4048640846006840F0D3
:101180000100086000BF0348006810F0010FFAD1A9
:10119000BDE8F09F00B00240F0B505AC70CC4FF454
:1011A0008137DFF83CC0CCF800706746F860F9631F
:1011B0003A613B640527CCF81C7067467C6346EABD
:1011C0000547CCF8447067463F6847F00107CCF804
:1011D000007000BF024F3F6817F0010FFAD1F0BD59
:1011E00000B002402DE9F04707460C4615461E4662
:1011F000DDE90889384609F009FC82460D480E49A8
:1012000008600846C0F83890C463C0F84080C0F851
:1012100034A0304665F31F4048640846006840F03B
:101220000100086000BF0448006810F0010FFAD107
:10123000BDE8F0870002030000B002402DE9F8434A
:1012400005460E4614469846089F00233A4606492E
:1012500028460094FFF750FF22463146024808F026
:10126000C4FFBDE8F8830000F86D0220074AD06291
:101270004A1ED2B2012343EA0222044BDA611A4623
:10128000D26942F02002DA617047000000B00240EB
:101290001EB5034601F07F40B0F17F4F01D11846E3
:1012A0001EBD83F07F40029081F07F400190144882
:1012B000144C206002A8E06001A86061C4F83CD032
:1012C0004FF4803040EA0260E061C2F1FF00002488
:1012D00044EA00600B4C6062002060634FF0011034
:1012E00060642046006840F00100206000BF0548AF
:1012F000006810F0010FFAD1009880F07F40CFE72E
:101300000002020000B0024070B5049C124D134E62
:1013100035603546E8606961EA634FF4803545EA37
:101320000365F561C3F1FF05002646EA05650B4E2E
:10133000756200257563012505EB04457564354626
:101340002D6845F00105356000BF044D2D6815F08E
:10135000010FFAD170BD00000002020000B002408F
:101360000E480F4A4FF000610068904202D90D48C4
:1013700001600CE00C4A904202D90C48016006E082
:101380000B4B0C4A984201D9D16000E091600A48A9
:101390000068C16841F01001C1607047A4CA022012
:1013A000586402400C640240B86002400864024085
:1013B000586002400060024064CA0220014608787A
:1013C00010381823B0FBF3F20848805C4865032A04
:1013D00005D908686FF30900001D086503E0086877
:1013E0006FF309000865086D7047000034EE0120B6
:1013F00030B50468246824F4802405682C600468EF
:1014000063608468402C04D10468A2600468E160D1
:1014100003E00468A1600468E26030BD2DE9FC418E
:10142000002830D0112916D0132910D005460C46BB
:1014300002F0B8FC009000F03FFB0646684602F060
:10144000FBFC20461BF092FB074600241EE0BDE893
:10145000FC4100F0E3BABDE8FC4100F071B921465F
:10146000284600F02CFB019078B100781BF07EFB41
:1014700000F0FF0801A802F0DFFCB84505D12146C5
:10148000284600F0D5FABDE8FC81641CB442E6DBD6
:10149000F9E7F8B50C46050013D0002C11D002F086
:1014A00081FC0090C66B684602F0C6FC2046FEF741
:1014B000CBFE421C2146304602F0E2FC284610F0EA
:1014C00028F8F8BD2DE9FF4145680446284602F09A
:1014D00069FC0190D0F8886001A802F0ADFC0EB163
:1014E000012700E00027214628460EF0FBFF0028D8
:1014F00056D02068112844D006DC0B2863D00E2873
:1015000078D00F282BD14FE0212805D026281AD0DB
:10151000B0F5107F23D139E0E068416800291EDD75
:1015200000680D281BD130460AF03DFA002806DB82
:1015300030460AF038FA0146284600F079FA284683
:1015400000F07EF875E0E068012809D00A2802D092
:101550000B2871D111E00A21284610F09AF86BE0AF
:1015600030460AF020FA002866DB30460AF01BFA03
:101570000146284600F05CFA5BE0284600F060F87F
:101580005AE0FFB9E068007A98BB55E0E06848B1DE
:10159000007A08B1012100E00221284610F079F814
:1015A000BDE8FF810321F8E72E46284602F0FAFB4A
:1015B0000290D0F88400056802A802F03DFC0DB14D
:1015C0003046A84738E0284602F0ECFB0090C06B9C
:1015D00002F096FC0098D0F888000FF0F1FA00981D
:1015E000D0F8940002F012FB684602F025FC23E0DC
:1015F00000E016E0E068416800291DDD016820294F
:101600000FD006DC092910D00A2915D01B2904D1D6
:1016100012E0212910D022290ED02846FFF7FEFE25
:10162000BEE7284600F0EEF806E00FF0D9FBB04226
:1016300002D1284610F0DCF920460FF08DFAAFE712
:1016400038B5040011D002F0ADFB0090D0F888004E
:1016500040B10FF0B5FA00990020C1F8880020468B
:101660000FF057FF684602F0E7FB38BDF0B585B0D4
:10167000B0F90850468A84690296CDE903540027E0
:10168000CDE90017B0F90C10B0F91050B0F90E40C8
:10169000B0F90A00194410442B46224600F002F823
:1016A00005B0F0BD2DE9FF410C461D46DDE90D7189
:1016B000DDE90B36DFF880E0DDF828C06C31CDE9DC
:1016C00000C3CDE902E14FF0FF3321460FF096F958
:1016D00004002DD002F066FB1022394600900FF076
:1016E000E1F800983822154980F88C604C30FEF7FC
:1016F00079FD124E0098361F3168C0F88410002121
:1017000080F89010C586204600F0B5F9684602F0D2
:1017100093FB02F0F2FB0546204602F043FB0090EB
:10172000C563684602F088FB3068416820468847F8
:1017300004B02046BDE8F081C5140020A06202205C
:1017400010B5044600F05DF9010000D0411E2046AE
:10175000BDE8104000F06CB9F8B50546006802F02D
:1017600021FB0090448ED0F88860684602F064FB4C
:1017700006B1012604F00104286810F079FD0EB1CD
:10178000002006E00CB1012003E008B1022000E0D7
:1017900003201B4951F82010686858B302280CD068
:1017A000052802D0122828D103E0284612F024FF91
:1017B00023E0284614F0B5FF1FE06A69E8694FF09E
:1017C000FF33801AA0F1080203EB6204421CAB69EC
:1017D000001B4510A3EB6206C86904F0BDFA06E0E1
:1017E0003219311B284603F027F9641E6D1C002CAA
:1017F000F6DA02E0286810F071F90020F8BD000068
:10180000742102202DE9F14F9EB01E9800287CD053
:1018100002F0C8FA0B901E980FF0C8FB03900B98CB
:10182000B0F9367090F890101891C16B0A9190F849
:101830008C90B0F93410159100F03EF982460B9867
:1018400004ACB0F88E101491B0F982101391C16CF1
:101850001291D0E90012CDE90C12D0F894B0002119
:1018600000EB8102126D44F82120491C0329F7D3B3
:10187000002107AD00EB8102D26D45F82120491C03
:101880000329F7D300210EAE00EB8102126F46F858
:101890002120491C0329F7D30BA802F0CDFA1E988A
:1018A0000FF02BFB02F07EFA1190D0F8008011A807
:1018B00002F0C2FA4FEA284042420FFA88F0414251
:1018C0000CA804F099F85FEA897003D5BDF83200DE
:1018D000C01B01E0BDF83600ADF832001E980FF0D5
:1018E0000CFB014603980222CDE900070292BDF9E4
:1018F0003230BDF93020002009F0E9FF80465FEA70
:10190000C97009D04046189900E077E00AF062FA01
:10191000012140460AF0A6F9002708E039460A9856
:1019200002F022FB0146404609F08FFE7F1C57451E
:10193000F4D30027394654F8272040460AF0B7F977
:101940007F1C032FF6D30024214655F8242040465F
:101950000AF0C4FA641C032CF6D30024214656F87E
:10196000242040460AF01BFA641C032CF6D35FEADD
:101970000B001FD002F016FA169030F8025B00241C
:101980000646012711E000BF06EBD40004F0070172
:10199000007807FA01F1084201D0012200E000229C
:1019A000214640460AF0ABF9641CAC42ECDB16A8B9
:1019B00002F042FA404614990AF0CFF940461299D3
:1019C0000AF089F9404613990AF078FA404610F077
:1019D0000FF840461E990AF0D2F9404615990AF0D0
:1019E00011FA01211E980FF054FE1E9802F0DAF948
:1019F0000B90C0F888800BA802F01EFA1FB0BDE85B
:101A0000F08F38B5002438B102F0CCF90090B0F96D
:101A10003440684602F010FA204638BD10B504463E
:101A2000FFF7EFFF411C2046BDE81040AFF30080F8
:101A300038B50C46050019D002F0B4F9009000F05A
:101A40003BF800B1401E844200DD04460098B0F926
:101A50003410A1420BD08486684602F0EDF9284686
:101A60000FF057FD042128460FF013FE38BD6846DD
:101A700002F0E2F938BDF8B5044602F093F90146E8
:101A80000090B0F9380010B9C86C03F029FA009939
:101A9000CA6AB1F98030126800EB43001618084694
:101AA00010F063FA0546684602F0C6F93246294648
:101AB000204610F04CF8F8BDC06B02F049BA38B5BA
:101AC0000D46002402F06EF90090C06B294602F02A
:101AD0004BFA0546684602F0AFF91DB1284602F000
:101AE00061F90446204638BD2DE9FC5F15460746DE
:101AF000DFF8908028440190D8F800201C460E465C
:101B0000526E2144894652689047D8F80020781BCD
:101B10004946526E824652689047711938190090B2
:101B2000D8F800208946526E52689047D8F80020B5
:101B3000711B8B46526E009852689047002C1ED045
:101B4000D8F80010361B4546496E01984A68314660
:101B500090472A6831465046526E5268904728682E
:101B60003C1B4946406E4268204690472A685946C9
:101B70002046526E526802B0BDE8F05F1047BDE8E3
:101B8000FC9F0000F061022070B505460C46621D06
:101B9000611F284603F00CF86A1D691F204602F0F9
:101BA0004BFF21462846BDE87040042202F066BE85
:101BB0002DE9FC470E465FEA000978D002F0F2F802
:101BC000009090F85470D0F85880456BC46C68460B
:101BD00002F032F9B8F1000F04D0314648464246CF
:101BE000904761E0122E18D006DC082E43D0102E4C
:101BF0003CD0112E06D112E0132E21D01D2E43D041
:101C00001E2E3DD0202E4FDB17B1484612F07FFA32
:101C1000B1B2484617F046FA60B3611C27E04DB3F5
:101C2000284602F0BFF805462146019004F070FAFC
:101C30004419204604F02EFA01462346012210E002
:101C4000C5B1284602F0AEF805462146019004F0E1
:101C50005FFA4419204604F01DFA014623464FF06E
:101C6000FF32484611F05FFD01A81BE0611E4846A7
:101C700000F084FA18E0BCB1611E484600F07EFA1C
:101C8000484612F044FA0FE0484602F08BF8009004
:101C9000012F0ED0012180F854102146484600F053
:101CA0006DFA684602F0C8F848460FF032FCBDE80D
:101CB000FC87002180F85410F3E7FEB54468054620
:101CC000204610F0D5FA0646294620460EF00AFCBA
:101CD000002837D028680F2830D004DC0B2832D0F9
:101CE0000E2853D13AE0A0F58070133804D0A0F547
:101CF00080702D384AD110E020460FF095FD204627
:101D0000002118F0FCFF204602F04CF80190C06F53
:101D100000210FF070FD01A81DE0E86860B1017AB4
:101D200029B10168204600F0E3F8012100E002211A
:101D300020460FF0AEFC29E00321F9E701212046FF
:101D400018F0DDFFFEBD204602F02CF80090343084
:101D500001F084FF684602F06FF817E0B6B1E8685A
:101D60004168002912DD01681B290FD006DC092912
:101D70000CD00A290AD00D2904D107E0212905D069
:101D8000222903D02046FFF713FFFEBD28460EF0A0
:101D9000E3FEFEBDF0B587B00DF1300E9EE8F01009
:101DA0004FF0000E8DE8F05000F028F807B0F0BDBD
:101DB000F0B587B004460DF1080CD4E90567B0F919
:101DC0000850408A8CE8E1000020CDE90010B4F909
:101DD0000C00B4F91060C118B4F90A00B4F90E503F
:101DE000104433462A4600F009F8050002D0618A03
:101DF00000F087F907B02846F0BD0000F0B585B0C7
:101E00000D46DDE90D640F9FDDE90AC141F4805103
:101E1000DFF870E0CDE900C15837CDE902E7294687
:101E20000EF0ECFD05002AD001F0BCFF1022314677
:101E300004900EF037FD04981C2213496030FEF721
:101E4000D1F90499012081F85500601C00D00120CF
:101E500081F88000002C00DC082424B20C870020CC
:101E60004887486304A8641C01F0E6FF2146284621
:101E700016F0C5FD18B928460EF0A2FE002505B0E3
:101E80002846F0BDBB1C0020D862022001488068B3
:101E900070470000D862022038B5002430B101F04C
:101EA00081FF0090846C684601F0C6FF204638BD73
:101EB000F8B515460C4606000ED001F073FF0090F1
:101EC00038B1022C05D200EB8400456730460FF094
:101ED00020FB684601F0B0FFF8BD10B5040006D045
:101EE00000F04CF92046BDE810400FF012BB10BDC9
:101EF0002DE9F04186B00C46060050D001F052FFAB
:101F00000090406B98B301F04DFF03900098806EF5
:101F100003F02CFF804630460FF048F80746039840
:101F200002F077FF0546009890F8601001F0030179
:101F3000012916D002290DD0416EC06A00680844FC
:101F4000241A641E039805F025F80146002C0FDAC8
:101F5000002115E0781B401C00EBD070A4EB60045E
:101F6000F0E7406E791B081A241A641CEAE713E0B4
:101F7000AC4205DC02462146039804F0ABFF014663
:101F8000304600F0FBF803A801F056FF404603F08E
:101F9000EDFE30460FF0BDFA684601F04DFF06B089
:101FA000BDE8F0812DE9F8431D46DDE908491646F4
:101FB0000F465FEA000840D001F0F4FE204900908F
:101FC00081652049C1650021C0E91271E0E90F6512
:101FD0000121047280F81A90017690F844706846E6
:101FE00001F02AFF87B1284615F00DFF054630465F
:101FF00015F009FF0CB1401C6D1C854200DD284620
:102000000146404600F049F840461AF0A9FE404615
:1020100001F0C8FE009000F09CF80B490978884256
:1020200005D10098C16C4046491C00F0A7F86846ED
:1020300001F002FF40460FF06CFABDE8F8830000A3
:10204000652B012061CD0120E4610220022803D22A
:10205000024A02EB8000416170470000D862022012
:102060000149886070470000D862022000294FF0C3
:10207000100101D00EF0C6BA0EF018BA38B50D46F0
:10208000040009D001F08EFE0090856620460FF016
:1020900040FA684601F0D0FE38BD7CB50C4606001B
:1020A0002ED001F07FFE0090B0F93810458FA1428C
:1020B00023D012DD406B80B101F074FE019004F07A
:1020C00069FFA04206DD2146019804F021F8019A3B
:1020D0000021115401A801F0AFFE684601F0ACFEEA
:1020E000611B3046491C16F08AFC304601F05AFE4E
:1020F0000090048730460FF00CFA684601F09CFE11
:102100007CBD38B50C4605000AD001F04BFE0090AE
:1021100018B1046628460FF0FCF9684601F08CFE01
:1021200038BDF8B515460C4606000ED001F03AFE53
:10213000009038B1022C05D200EB8400C566304611
:102140000FF0E7F9684601F077FEF8BD00221AF0BB
:1021500092BA38B50546406B002468B101F022FE02
:1021600000900446E96C03F0D3FF204403F092FF93
:102170000446684601F060FE204638BD1CB50C469A
:1021800001F010FE0090406BF0B101F00BFE0190E9
:1021900004F000FF009991F8542002B10122002CB4
:1021A00000DA0024844200DD0446B1F93800801AC8
:1021B000A04200DA0446C86CA04200D0CC640020E3
:1021C000086501A801F038FE684601F035FE1CBD27
:1021D00030B50246002300240868012816D0136891
:1021E0006FF30E03D1E901052843CD6828430D693B
:1021F00028434D6928438D692843CD6928430D6ADA
:1022000028434D6A28430343136019E013686FF3B2
:102210000E03D1E9070528434D6A28430343546858
:102220006FF30E04D1E901052843CD6828430D69F9
:1022300028434D6928438D69284304431360546043
:10224000002030BD0246506940EA41005061002044
:102250007047F8B506460C4615460020009000274A
:10226000D4E900010843A168491E40EA4110E16831
:1022700040EA412000900098306105F083FB07465A
:1022800009E0681C07D025B105F07CFBC01BA84203
:1022900001D90320F8BDB06910F0200FF1D1002062
:1022A000F8E770B50346154600220024012D1FD023
:1022B0009A6802F070420868401E4E68761E40EA36
:1022C00006168868401E46EA0026C868401E46EA90
:1022D0000036088A401E46EA0046888A401E46EAC2
:1022E0000056087E401E46EA006002439A6022E0E3
:1022F000DA6802F070420868401E4E68761E40EAB6
:1023000006168868401E46EA0026088A401E46EAED
:102310000046087E401E46EA006002439C6804F0C6
:102320007044C868401E0603888A401E46EA005072
:102330000443DA609C60002070BD2DE9F04389B051
:10234000984615460F4606004FF0000428D000F0CE
:10235000BFFB0446304600F08BFB814603A93046A4
:1023600000F014FDF80706D0BDF91C008221001B07
:10237000401B401C08E0B807BDF91800284402D5EE
:1023800040F2022100E002210096CDE901812346BE
:102390001A464946FEF738F804460021FEF7C2F90E
:1023A00009B02046BDE8F08310B50523FFF7C5FF4F
:1023B0000446054A0021FEF7C6F9044920460FF0FD
:1023C00067FA204610BD0000A5420120B5E40120B7
:1023D00010B50823FFF7B1FF0446054A0021FEF7B8
:1023E000B2F9044920460FF053FA204610BD000010
:1023F000F1430120FDE601202DE9F0470446406845
:102400008EB00027804601F0CDFC0090B0F87CA093
:10241000D0F86890D0F88060D0F88850C06D00B1D6
:102420000768684601F008FD05E0696820468847AE
:10243000002843D12D68002DF7D12068172853D0EC
:102440000CDC0F283DD004DC0B2877D00D2825D1DB
:102450008BE0112810D0142820D13BE0262846D04C
:1024600004DC1E2851D0202818D18AE02A2816D052
:10247000B0F5107F12D128E04046E56801F092FCEB
:102480000290697A39B9297A012904D130F87C1F80
:1024900041F48071018002A801F0CEFC75E0404655
:1024A00001F080FC0090E16811B1C0F8841002E0F6
:1024B000D0F88400E060684601F0BEFC0EB0BDE8D4
:1024C000F087D7B34046B8475FE02146404618F052
:1024D00037F9F3E705A9404600F058FCE068069993
:1024E000016007994160E9E7C4F80C90E6E7E0680D
:1024F0000228E3D1CDF83080E0680D9027200A90C3
:102500000AA9A06810F0C4F8D8E7E068012804D050
:102510000021404600F062FBD0E730460FF04EF855
:1025200068B130460FF064FA30460EF029FF98B1DA
:10253000012130460EF066F80EE026E02FE0484616
:102540000FF0A4FA0646404601F02CFC0090C0F8BB
:102550008060684601F070FC0121404600F03EFBBF
:10256000002EABD10020E060A8E75FEA0A700CD42F
:10257000E068C06848B1007A38B140460FF038FAD8
:1025800003E02146404617F02AFB214640460DF065
:10259000A9FF002892D020460EF0DEFA8EE74046D2
:1025A00001F000FC0090703001F058FB684673E7C2
:1025B000F0B587B0B0F908400DF10C0C0C9E87699E
:1025C00045688CE8F000448A0025CDE900150294A6
:1025D000B0F90C10B0F91050B0F90E40B0F90A0083
:1025E000194410442B46224600F002F807B0F0BD13
:1025F0002DE9F0478AB00DF14C0CDDE917849CE819
:102600006006129F45F48055DFF8BCC06034CDE908
:1026100002C4CDE900750EF0F1F904004FD001F0CD
:10262000C1FB3022494604900EF03CF90498282260
:1026300026493430FDF7D6FD0498244FC0F8648055
:10264000A0F87C600026C0F88060C666083FC0F82D
:1026500088607968C16504A801F0EEFB05A92046F1
:1026600000F094FB1A4841F2827103960094CDE980
:102670000110BDF91E00BDF91A10BDF91C20431A46
:10268000BDF918005B1C121A521C0EF0B7F9064671
:102690007868416820468847204601F083FB049013
:1026A000866604A801F0C8FB42F20400054202D18C
:1026B00020460EF0F7FA5146204600F00CFB0AB017
:1026C0002046BDE8F0870000F9230020FC620220CC
:1026D000953000202DE9F041044694B0006800F0E8
:1026E000B7F908B1D94D01E0D84D2C3560681528EF
:1026F0001ED00CDC0B281FD004DC00287ED005285F
:102700007DD12FE10E287BD01228F9D141E1162886
:1027100006D0172808D0182808D01C28F0D109E0C6
:10272000E86914B0BDE8F081286AFAE7686AF8E75A
:10273000A86AF6E76869F4E720680B901C200C9003
:10274000206801F02FFB0390016D0BA88847064617
:1027500003A801F071FB022E0FDB95E807008DE85E
:102760000700D4E904023346A16904F0F1F92069B5
:102770008719A069A0EB06082CE0286803F0ECFAA2
:102780002169E8690A18521E606902F055F9A269C8
:10279000E869111A491C606902F04EF9D4E904078E
:1027A0007F1C394602F08AF93946A06902F086F9A1
:1027B000686803F0D1FA20693946401C02F07EF9BE
:1027C000A0693946401E02F079F9A0692769A0F195
:1027D0000208BF1C286803F0BFFA42463946606908
:1027E00002F02AF9686803F0B7FA60694246394690
:1027F000401C02F021F9686A022802E015E1B0E00D
:1028000000E10BDDA86803F0A7FA61696A6A881C19
:102810008B180146424638465B1E27E0296AB142C2
:1028200026DD6069022E074600F1020801DB37440D
:1028300001E007F10207206901DB304401E000F10B
:10284000020022693B460A444146A2F1010202F01D
:10285000FFF9022E02DBA069821B01E0A269921E31
:10286000A069E9693B46401A4146401C02F0F0F974
:10287000022E02DB6069064401E06669B61CE76966
:1028800028687F1E03F068FA3A463146206902F054
:102890008FF93A463146A06902F08AF9E76968681B
:1028A000BF1E03F059FA20693A463146401C02F037
:1028B0007FF9A0693A463146401E02F079F9E8698D
:1028C000022802DC286A022823DDA86A022802DD29
:1028D000E1690F1A01E0E769BF1EA86803F03CFA3E
:1028E000E969022909DD20693B46421800F1020C22
:1028F00031466046521E02F0ABF9286A022808DD14
:10290000A269E8693B46101A3146401C921E02F04B
:102910009FF9286803F020FAD4E90620216902F023
:102920008BF8686803F018FAD4E906202169401E84
:10293000491C521E02F080F8A86A022811DDA16924
:102940002669E469A1F10208271AA41EB61C7F1C9F
:10295000A86803F001FA234642463946304602F0A1
:1029600077F971E0208A00B2ADF81400A18A09B2AB
:10297000ADF81610228B12B2ADF81820A38B1BB243
:10298000ADF81A302C69ED68CDE9005402F020F85A
:102990005AE0208A298B0844ADF81400A08AADF8CB
:1029A0001600208B298B401AADF81800A08BADF8CB
:1029B0001A00206801F0F6F90390006FF0B10220D0
:1029C00003F032FA039890F87C10C1F3C00100EBD9
:1029D0008100006C03F0C0F90398406B03F0C6F966
:1029E0000398006F01F0DEF903990990B1F95A20BC
:1029F00005A901F06DFE09A801F01EFA03A801F077
:102A00001BFA21E0208AADF81400A08AADF8160068
:102A1000208BADF81800A08BADF81A00A86803F061
:102A20009BF905A802F038F90EE0206801F0BAF928
:102A3000039030F85A1F41F00C01018003A801F007
:102A4000FBF920680FF04AF800206AE6E8660220E9
:102A500038B5002450B101F0A5F9009090F87C0041
:102A6000000700D50124684601F0E6F9204638BD8C
:102A700038B505004FF000040CD001F093F9009038
:102A8000C06D002180680268284690470446684669
:102A900001F0D2F9204638BDF8B50E4605004FF0DA
:102AA00000040CD001F07EF90090C06D31468068C2
:102AB0000268284690470446684601F0BDF9204662
:102AC000F8BD00000148006870470000FC62022069
:102AD00030B587B005004FF000040ED001A900F01A
:102AE00055F9284601F05EF90090B0F95440684667
:102AF00001F0A2F90CB9BDF9044007B0204630BD81
:102B00008C230FF019BA002801D016F0AABE704726
:102B100030B504468BB0006801F044F9009090F89D
:102B20007C10246A006FC1F3C00508B101F03AF9C6
:102B30000690E068029020690390A088401EADF8DE
:102B40001000E089ADF812002089401CADF8140097
:102B5000608AADF81600BDF80800401CADF808000A
:102B6000BDF80A00401CADF80A00BDF80C00401E7C
:102B7000ADF80C000098406B03F0F8F8009808AA34
:102B800002A9B0F95A30069803F01EFC009800EB39
:102B90008500806B08F02AF9009800EB8500006C36
:102BA00008F05CF908AB02AA04A906980DF0B4FD80
:102BB000684601F041F9069810B106A801F03CF909
:102BC0000BB0002030BD10B5040006D018F05EFF39
:102BD0002046BDE8104018F02DBF10BD002801D0E0
:102BE00018F0CCBF704738B50C4600280CD001F067
:102BF000D9F80090816CA14203D08464806E0EF0FD
:102C000088FC684601F018F938BD00000249014807
:102C100008607047C8120220F8620220022803D21E
:102C2000024A02EB8000C16070470000FC62022093
:102C30002DE9FC410D46070028D001F0B3F80190C2
:102C4000C16D8C6800F009F980460198456301A8C0
:102C500001F0F2F8226801213846904706462268C2
:102C600003213846904705462268002138469047A0
:102C70000446384600F0D7F92B46324641463846DE
:102C8000009400F060F938460EF043FCBDE8FC818A
:102C900038B50C4600280ED001F084F8009030F8CA
:102CA0007C1F14B141F0100101E021F010010180FE
:102CB000684601F0C1F838BD38B50D46040009D0AA
:102CC00001F070F800900566684601F0B5F82046FE
:102CD0000EF01FFC38BD7CB50D46040019D001F084
:102CE00061F80090006F0190684601F0A5F8294650
:102CF00001A804F0D1FA00280BD0204601F052F8C8
:102D0000009001990167684601F096F820460EF0A0
:102D100000FC7CBD2DE9FC470D465FEA00094FF041
:102D200000042DD001F03EF80190B0F95440A542C6
:102D300023D000F092F8804601980121A0F8545069
:102D4000C06D856848462A68904707462A6803216F
:102D50004846904706462A6800214846904705465F
:102D6000484600F060F933463A46414648460095E9
:102D700000F0E9F848460EF0CCFB01A801F05CF841
:102D80002046BDE8FC878C230FF00ABD2DE9F34FE8
:102D900085B000270C46B846059801F003F800906E
:102DA000C06D0121856805982A68904782462A6887
:102DB00003210598904704902A68022105989047BE
:102DC00003902A68002105989047064600980FF066
:102DD000CCF8834600980FF0CFF88146009890F821
:102DE0003210890601D5B0F9588000F036F8054652
:102DF0000098C06E10B10EF0EAF807462580678093
:102E0000A4F804A0049AABEB020006EB0802401EF3
:102E10002A4420813A44E280039BA9EB0302521E1C
:102E20006281A4F80CA020827019E681401E6082A5
:102E3000684601F001F8B4F90C000190B4F91000F3
:102E4000029002AA01A9059800F03AF80198A08121
:102E50000298208207B0BDE8F08F10B5014600202F
:102E600091F83220920607D5B1F95400002803D119
:102E7000486B02F03AF8801C10BD70B58AB00C4661
:102E8000054600F08FFF0990C06D866809A800F024
:102E9000D3FF009534B1012C06D0022C0BD0032CAB
:102EA00004D10AE0182000E01620019071686846FD
:102EB00088470AB070BD1520F7E71720F5E7000036
:102EC0002DE9FC4117468846044600F06BFF009050
:102ED000C16D056868468E6800F0AEFF326800215B
:102EE00020469047064620460DF068FF27E000BFC9
:102EF00000F058FF0190B0F900102AB2B0F9043088
:102F0000891A9A1AB0F90230A3EB2543B34210D1C3
:102F100090F82800000605D53868884209DB491E6C
:102F2000396006E0D8F80000904202DC521CC8F874
:102F3000002001A800F080FF20460DF0D7FF04001C
:102F4000D6D1BDE8FC812DE9FF4F83B00E46074680
:102F5000DDF8409000F026FF0190C16D8D68FFF70D
:102F60007CFF044601A800F067FF2A68012138466B
:102F7000904783462A6803213846904782462A684C
:102F80000021384690470546B44207D105998B4544
:102F900004D106998A4501D14D4541D0A41B002694
:102FA000B04638460DF00AFF38E000F0FBFE009016
:102FB000806A010601D5800502E0810528D500065A
:102FC000002825DB24B12246114638460EF09DFB31
:102FD000009890F8280000060AD50698A5EB09028B
:102FE000A0EB0A0004FB16013846761C0EF04FFBDE
:102FF0000098008D80050BD50599A5EB0902ABEB78
:10300000010004FB080108F1010838460EF03FFBFF
:10301000684600F011FF38460DF068FF0700C4D184
:1030200007B0BDE8F08F70B586B0064600F0BAFE76
:103030000590D0E91A4505A800F0FEFE54EA050007
:1030400026D069463046FFF7A1FEACB1BDF9062097
:10305000BDF9041020460EF0EFFABDF90A00BDF9E3
:103060000610421ABDF90800BDF90410521C411A9D
:103070002046491C0EF06BFD002D09D0BDF906005D
:10308000BDF90210421ABDF9041028460EF0D4FA18
:1030900006B070BD2DE9F0430446406889B005468E
:1030A0000DF02BFF814600F07DFE0290D0F84880A5
:1030B000D0F88070466E02A800F0BEFE2068172887
:1030C00053D008DC0E283AD00F2811D014284CD049
:1030D00015283DD149E01E281ED01F282AD02228BD
:1030E00040D0312834D10020E06009B0BDE8F08341
:1030F0006FF070414046884503D007F077FE01F03D
:10310000AFF8002EF1D0D4E902122068CDE9040511
:10311000CDE9061204A81FE0E0680028E5D02FB131
:10312000AF4203D038460EF063FCDEE728460EF0CF
:10313000ADFCDAE7214648460DF0D4F9D5E7E06862
:103140004168002904DD00680928EFD00A2805D06D
:103150005EB12046C4F80490B047C6E728460EF09A
:103160009DFCC2E7C4F80C80BFE720460DF0F4FCDC
:10317000BBE7000010B504460A280FD00D2C11D073
:1031800009480068C0690168204688470748016807
:10319000002907D02046BDE810400847BDE8104090
:1031A00001F0E6B910BD0000F06102201C620220AF
:1031B0002DE9F0430446C56887B090468946002053
:1031C00002F0D2FD064625B1287910B146F0020082
:1031D00001E026F0020002F0C7FD2069012558B188
:1031E000D4E902128DE826000395638822880468DA
:1031F00041464846A0471EE0124F134B214638680F
:103200001B68427CE068984730B9E088012801D00B
:10321000002001E03868806BA288E388A1680095EF
:10322000CDE90410CDE90232019563882288414638
:10323000484607F033F807B03046BDE8F04302F0E7
:1032400093BD0000F0610220E86102202DE9F04703
:103250008146884640F2C32050434FF47A7190FB78
:10326000F1F502FB02F002EBD27100EB61061746AA
:103270000023414648466D1CFEF736FC012413E04E
:1032800004FB04F007FB0700B04206DD3B46224684
:1032900041464846FEF728FC7F1E3B4622464146F3
:1032A0004846FEF721FC641CAC42E9DDBDE8F0872E
:1032B0001CB50024019401AC009400F0E7F81CBD9B
:1032C0002DE9FF4F83B0814606988A46A0EB0A0895
:1032D000109E00200090A2EB09043568934654EA42
:1032E000080018D02046FDF71DF807464046FDF7B8
:1032F00019F887420BDA2046444680464846D146B4
:1033000082465846DDF818B0069001200090002C47
:1033100007DD204606E007B04846BDE8F04F00F064
:103320003BB96042A0420AD04846D9466442C8F13F
:10333000000883464FF0FF37DDF818A000E00127B2
:103340005148B8F1000F11D004EBD4714FEA610B72
:1033500001DACBF1000B4C480068807E88B3002F67
:1033600002DA30682044306000257BE000990029B3
:10337000016821D0897E11B10027804615E007B091
:103380005A4649465046BDE8F04F07F07BB92846FB
:103390006D1C18F00FFD38B9D8F8000009EB0701D3
:1033A000406E4268504690477F1CA742EFDD6D1E7D
:1033B000356007B0BDE8F08F8A7E1AB100278046DD
:1033C00017E019E0486E5A465146036807B0484670
:1033D000BDE8F04F184728466D1C18F0EBFC38B9D3
:1033E000D8F8001009EB0700496E4A68514690472B
:1033F0007F1CA742EFDDDAE700250FE008FB05B0F0
:1034000090FBF4F101EB0A00009951B11E4A09EB5F
:1034100005011268526E526890476D1CA542EDDDA1
:10342000C7E7194909EB05030968496E4A6801466F
:103430001846F1E708FB05B090FBF4F101EB0A0038
:10344000019030683844306018F0B4FC48B90098F6
:1034500090B10D4809EB05010068406E4268019883
:1034600090476D1CA542E5DD3068002F01DA20444D
:103470003060C01B30609CE7034909EB0500096818
:10348000496E4A680199EBE7F06102202DE9FF4798
:103490000F4640491646804609680C981D460A7E2C
:1034A000012A1CD0A8EB0600791B50EA01031CD0AE
:1034B000A2F101091AF0FCF900F58060824603F0E0
:1034C000BCFF00FB09F4504603F0BCFF00FB09F110
:1034D000002C0CDAC4F50070801240420AE0009023
:1034E000324639464046FFF7EBFEBDE8FF8704F55C
:1034F0000074A012002904DAC1F5007189124C424F
:1035000002E001F500718C12002804DD411C01EB82
:10351000D171491003E000EBD0714910401E00EB5F
:10352000D0704210002C04DD601C00EBD070401005
:1035300003E004EBD4704010641E04EBD47308EB7A
:103540000104ADF800403C18ADF80240A8EB0204BD
:103550005B10B21AADF80440ADF808203144FC1AF3
:10356000EA1AADF80C102844ADF80A20ADF80E00A8
:103570000023ADF806401A460421684600F07AF8A8
:103580003946404612F09AFF2946304612F096FF1F
:10359000ABE70000F0610220064A13681A7E012A98
:1035A00005D0521E02EBD272521000F005B85A6ECE
:1035B00052681047F06102202DE9F05F0646884608
:1035C00040F2C32002FB00F14FF47A7091FBF0F758
:1035D00002FB02F102EBD27001EB600B1446B11852
:1035E000234A301B7F1C1268526E13680A464146FC
:1035F0009847012538E000BF05FB05F004FB0401F6
:1036000059451CDDBC4219DD194B06EB050AA6EB3A
:1036100005091B68AAF1010208EB04015B6E09F1C0
:1036200001001B689847124BAAF10102A8EB0401A4
:103630001B6809F101005B6E1B689847641E0C4B08
:103640003219301B1B68924608EB05015B6E814600
:103650001B689847064B5246A8EB05011B68484675
:103660005B6E1B6898476D1CBD42C5DDBDE8F09FD1
:10367000F06102202DE9FF4F43F6FF740F466642CA
:1036800083B09B46814600210BE000BF09EB81001F
:10369000B0F90200A04200DA0446B04200DD06465E
:1036A000491CB942F2DB67480068406900280DD028
:1036B000B0F906101A46A1EB0B01B14200DA0E4632
:1036C000B0F90200801AA04200DD0446B4E0DFF841
:1036D00078A100200546CAF8000088E0781E8542DF
:1036E00001DA6B1C00E0002309EB850C09EB830277
:1036F000BCF90200B2F90210A04244D1A14215D196
:1037000039F92330059A39F9251003EB020C4D4A9B
:1037100005981268084404EB0B01526E604513686B
:1037200001DA62462AE00246604627E02846A446BF
:103730004FF000087A1E0BE008B1401E00E0781E32
:1037400009EB8003B3F90230634504D108F10108A5
:103750009045F1DB2346A34248D01A1B39F92500D6
:10376000A1EB040C059B92EA0C0F09D4354A1844CE
:1037700004EB0B011268526E13680246984735E05D
:103780000FF01AF932E0A14230D001DBA04203DD94
:10379000A0422BDBA14229DCE04688420ADC03463A
:1037A000A04223DC0846A14220DBB8F900C0B2F9F0
:1037B000001008E00B46A14218DCA04216DBB2F96B
:1037C00000C0B8F90010E21AA1EB0C015143002926
:1037D000A0EB030202DD01EB620102E0A1EB62015A
:1037E000491CC01A91FBF0F06044C9E76D1CBD4252
:1037F000FFF674AF0598009004EB0B0001900020D9
:103800008046054613E01149B8F1000F31F915A0C3
:1038100009D0009901EB0A0208440A490968496E77
:103820000B680199984788F0010850466D1C0649BD
:1038300009688D42E7DB641CB4427FF748AF07B0EC
:10384000BDE8F08FF0610220686802208CCE022073
:1038500010B5002002F07EFA6FF07F4002F07CFA93
:10386000012002F0CFFA002002F0D4FA002002F08A
:10387000DBFA002002F078FA0448006802F076FAD9
:10388000BDE81040002002F099BA0000EC6102206F
:10389000014AC2E9000170479C610220014AC2E965
:1038A00000017047A4610220014AC2E9000170478B
:1038B00078620220014AC2E900017047AC6102202F
:1038C000014AC2E900017047806202202DE9F04FF1
:1038D000DFF828B191B04FF0FF35DBF80030B3F9D5
:1038E00022100691DE69B3F92490F469A18981421E
:1038F00006D8E289824203D3471AD4F8008012E046
:10390000D4E9018100296FD00A8882426CD84D88A1
:10391000854269D3801A82B2486800EB8200B0F910
:103920000070B0F90250781C5ED0307EA17C10FB94
:1039300001FA217CCDE90701B3F92A60304607F08E
:10394000B5FAC0B20E90DBF8000007FB0A81A37C39
:10395000826B0127CDE90412CDE90273C069089A90
:10396000C17E807ECDE90001DDE90603494606F00F
:1039700095FC681C18D046F0020007F097FADBF8B7
:103980000000A37C05FB0A81826BCDE90273CDE9BF
:103990000412C069089AC17E807ECDE90001DDE98C
:1039A0000603494606F07AFCDBF800005D46C06974
:1039B000417E007E814214D9022E12D086F004008E
:1039C00007F074FA2868C069027EC37E12FB039177
:1039D000437E857E089A06984B4412FB050206F04A
:1039E0007BFE0E9807F062FADBF80000627C418CE7
:1039F0001144418411B0BDE8F08F0000F061022055
:103A000004480068C069C06909B1027C0A60407C52
:103A100070470000F0610220022008807047C069F2
:103A200082898A4202D8C2898A4210D2806880B1D3
:103A300002888A420DD843888B420AD3406800EB43
:103A40008100A0EB8200B0F90000002801DB01201A
:103A500070470020704700002DE9F043304C0346CA
:103A600087B020681946B0F92A60C069C06900F0C3
:103A700086F8002850D041680088181A01EBC0056C
:103A80003046AF7807F012FA814620686A68012351
:103A9000816BCDE90237CDE90421C169CB7E8A7EF5
:103AA000CDE900230B7EB0F924102A78B0F922006A
:103AB00006F0F4FB2068C069417E027E91421FD966
:103AC000C07E11FB00F812FB00F7022E18D001F0A7
:103AD00064F9064601F044F902F03EF921682A78BB
:103AE000CB69B1F92200DB7E12FB0302B1F924108D
:103AF00001EB0803394406F0EFFD304602F02CF9E3
:103B0000484607F0D3F920686A78C369B0F92210F3
:103B10009B7E12FB0311418407B0BDE8F0830000D7
:103B2000F061022030B50F4C05460B46206829464F
:103B3000C069C06900F023F8002812D041680088ED
:103B400024682A1A0120E46900EBC200085CA47E04
:103B500010FB04F0002B04D011F8321011FB04F11B
:103B6000196030BDF061022001200880704700B567
:103B7000C06900F004F8002800D0012000BD06E074
:103B800002888A4202D842888A4202D2806800288B
:103B9000F6D17047F8B505460C000DD0084600F088
:103BA00015F8060010D000F0FDF8224600902DB167
:103BB0002946FCF717FB04E00020F8BD002103F0C4
:103BC000DCFB684600F038F93046F8BD002801D02B
:103BD0000FF0CAB8704738B50546FFF7F7FF040085
:103BE00009D000F0DFF82A460021009003F0C5FB61
:103BF000684600F021F9204638BD0000024A1060F6
:103C000021F0030050607047D0CC022010B500288E
:103C100014D004460A48406B10F8341000290DD027
:103C200002290BD2042101EBC401415848680EF06F
:103C3000DFFE2046BDE8104017F0B4BD10BD000007
:103C400010CC0220002805D0034AD16B016001B1DD
:103C50004860D0637047000010CC022010B50446C5
:103C60000068FFF7D3FF0020206010BD70B50D463F
:103C70000646002405E000BF06EB8400FFF7EEFFD8
:103C8000641CAC42F8DB70BD2DE9F041044615F030
:103C900097F92848E41C24F00305016C2D1DA94266
:103CA00000D90D46C46B13E054F8042CAA420ED17F
:103CB00084B1216809B162684A60616809B122680B
:103CC0000A60C26BA24231D12168C1632EE0246830
:103CD000002CE9D18046816BC0680F1857F8040C9E
:103CE0003E1A306838B1002017F054FE57F8040C23
:103CF0003E1A3068D0B97068A84217DB3044441BC4
:103D00003046241D17F0FEFDD8F80C10491BC8F8EA
:103D10000C10D8F814102944C8F814107068401B0F
:103D200002D031460EF064FE44F8045C2046BDE843
:103D3000F081000010CC022010B5002415F040F9ED
:103D40000C490F2001EBC002526C1AB101EBC0000C
:103D5000406C08E0401EF5D508E04168A14200D95A
:103D60000C46806810B180680028F6D1A4F10C00E0
:103D700010BD000010CC02200248C1680068081A7B
:103D80007047000010CC0220002138B10449042201
:103D900002EBC000496B085841680C39084670476F
:103DA00010CC02200549CA69521CCA61496B01EB5B
:103DB000C0010A78521C0A7000F056B810CC0220DC
:103DC0007CB506460C460846FFF700FF05001CD0F0
:103DD000DEB13046FFF7D8FFA04200DA044628469D
:103DE000FFF7E0FF00903046FFF7DCFF014601904F
:103DF00022460098FCF7F6F9684600F01DF801A885
:103E000000F01AF83046FFF701FF28467CBD00009D
:103E100010B5FFF791FF64220649B0F5800F04D971
:103E200090FBF2F0096A484310BD096A4143B1FBB7
:103E3000F2F010BD10CC02200A4902684B6B52F818
:103E4000082C03EBC2021378022B03D3CB690BB10E
:103E50005B1ECB611178491E11700021016008467C
:103E60007047000010CC0220002806D0034904222D
:103E700002EBC000496B08580830704710CC022094
:103E80002DE9FC414FF000060B465FEA000834467E
:103E90002BD032B111461846FFF77CFE060000D148
:103EA00001244046FFF77EFF00900788456868467A
:103EB000FFF7C2FFCCB9B9002846091DFFF780FF04
:103EC000050015D0FFF76EFF019040F8276001A8AC
:103ED000FFF7B2FF4046FFF765FF0090456001889D
:103EE000491C01806846FFF7A7FF2046BDE8FC811A
:103EF0003046FFF78BFE0124F7E70820FFF76BBE83
:103F00007CB5050023D0FFF74DFF00904068C0B19D
:103F1000FFF748FF0024019005E0019800EB8400C2
:103F2000FFF79CFE641C00980088A042F5DC01A805
:103F3000FFF782FF0098001DFFF790FE0099002018
:103F400008806846FFF778FF2846FFF75FFE7CBDD4
:103F500038B5002430B1FFF725FF0090048868468B
:103F6000FFF76AFF204638BD38B50D46002448B13A
:103F7000FFF718FF2946009000F016F8044668463F
:103F8000FFF75AFF204638BD38B50D46002448B12A
:103F9000FFF708FF2946009000F018F8044668462D
:103FA000FFF74AFF204638BD38B50D46018800248A
:103FB000A94209D9406838B1FFF7F4FE009050F8E3
:103FC00025406846FFF738FF204638BD10B500246D
:103FD000FFF7EAFF10B1FFF7E5FE0446204610BDEB
:103FE00070B50C46054601F001F8C1B223462846DB
:103FF000BDE87040002200F001B80000F0B52D27A8
:104000001C68B0F1004F08D0002600280DDA651CAE
:104010001D6027704042012408E0651C01261D60D8
:104020006FF000402770491E01E00024091BC9B24F
:104030002AB3491EC9B222E00C46491EC9B29442B5
:1040400005D1124C27781C68651C1D602770104C28
:1040500054F8215090FBF5F4E4B20A2C11D804FB7B
:10406000150011B90EB1641CE4B20A2C02D101246E
:10407000491CC9B21D686F1C30341F602C700029A8
:10408000DAD1196800200870F0BD0000E461022058
:104090006016022010B5002807DD0A682B24531C87
:1040A0000B601470096800220A7010BD2DE9FC5FD6
:1040B00004468946084600F077FE2B4E09EB890737
:1040C000824656F82700019028484FF00108016801
:1040D00041B92649C0F80080091D254808600846F6
:1040E00003F0D2F8204A09EB89015FEA0A0002EBEB
:1040F00081051BD001F0E0FD83464FF07F4001F0C9
:1041000029FE00F0ADF800221146206800F090FB77
:10411000206842880188504601F04CFE46F827404E
:1041200085F80580584601F0C7FD17E046F827409E
:1041300085F805802869464618B101F013FD002076
:10414000286174B10096E868A1684B46421AA868D5
:104150006168411A206801F047FD2861484618F05F
:10416000E3FA0198BDE8FC9F4CCD022034620220A6
:10417000C59C012070B506460D461446104600F059
:1041800013FE0300164804EB84010AD050F8210006
:1041900041688068711A2A1ABDE87040184601F01B
:1041A00007BE00EB8104A268B24201D0012200E008
:1041B0000022E368AB4201D0012300E000231A4350
:1041C0000CD0236943B150F82100816840686A1A15
:1041D000311A184601F0E4FCC4E9026570BD000024
:1041E0004CCD022002480068407C00F003B800007B
:1041F000F061022030B4094900EB800201EB820437
:104200000123637151F8221011B130BC18F08CBA3F
:10421000014630BC0248FFF749BF00004CCD0220E8
:104220009C16022010B5C2B2CBB2D21A00D55242AF
:1042300093B25B43C0F30722C1F30724121B00D5DE
:104240005242000C92B2A0EB114002FB023200B2CB
:10425000002801DA404200B280B200FB002010BD0D
:1042600010B50021084600F055FE43F6FF7250429B
:10427000BDE8104013460146AFF300802DE9FC4134
:1042800007461C4615460E46042006F00FFE8046E3
:104290001148C068C16C006D0F4406440D440444CD
:1042A000ADF80070ADF80450ADF80260ADF806400E
:1042B00068460DF069FE07E023462A463146384637
:1042C00006F00AFA0DF0FAFD0028F5D1404606F096
:1042D000EDFDBDE8FC810000E4610220B0F906308C
:1042E000B0F90420B0F90210B0F90000FFF7C6BF22
:1042F0002DE9F8431C00DDE9089816460F460546EF
:1043000002D10CF03DFD044600962E6843464A4615
:1043100021462846B047060035D00CF025FD8146E1
:10432000698A30460CF06EF930460DF08AFC48463A
:104330000DF087FC4FF000080CE000BFCDF80080C6
:1043400055F81CCF00231A4649462846E047E0B1FD
:104350000DF077FC7F1E002FF0DC1D2148460DF08C
:1043600086FA601C0ED00CF03BFD30B1FFF77CFDEF
:104370008469B44201D02000F8D1B44202D0304662
:104380000DF084FB3046BDE8F88330460CF018FC95
:104390000020F8E72DE9F0411C4616460D46074679
:1043A000022B02DB0020BDE8F0811C20FFF76CFC33
:1043B0000028F8D00DB105610AE0094A52F824102E
:1043C00009B905E011460A68002AFBD109690161B3
:1043D00084618682002101604160C0E90217E2E742
:1043E0000862022070B51D46FFF7D4FF040009D013
:1043F00000F00EF8E068006820B90348006800EBA0
:1044000085008465204670BDF0610220FFF71ABC6C
:1044100070B590B38269022A30DA1E4C54F822102B
:1044200019B944F8220032E019464B68002BFBD141
:1044300006E0CB68C5681B682D68AB4203DD0968E0
:104440000029F6D11AE0C1B1CB68C6681B6836688E
:10445000B3420CD1838A012B05D008E01946DB68F2
:104460001B68AB4203DB0B68002BF7D129B14B680B
:1044700033B118604A68426004E0FFE7012070BD74
:1044800044F822004860884200D1002101600020E9
:1044900070BD00000862022018F04ABC022801DB4F
:1044A00000207047054A52F8200004E0C2681268F4
:1044B0008A42F6D000680028F8D1704708620220CE
:1044C000022801DB00207047054951F8200004E074
:1044D000C16809680029F6D000680028F8D1704743
:1044E00008620220F8B5074615460E460C20FFF775
:1044F00072FB04000AD0FFF755FC05490090C0E9A3
:104500000017068145816846FFF796FC2046F8BDF6
:104510003C2C02202DE9F8431D461646884604002F
:104520000CD0FFF73FFC0090006807686846FFF773
:1045300083FC2B46324641462046B847BDE8F88307
:1045400070B5044601F01CFF051908E000F05EFBA1
:10455000052C01DD052000E0204601F003FF01F0FD
:104560000FFF2C1A002CF1DC70BDFCF7E7BB00003C
:1045700000B500F037FC044909688A8C104488842F
:10458000088C488400BD0000F06102202DE9FC4742
:1045900006005BD000F026FC3B4C81462068B0F959
:1045A000228000F085FC216807468A8CD01B888415
:1045B00041E000BF47F6FF71304602F0CFFC824673
:1045C0000146304602F0A0FC2168054691F82C0017
:1045D00000F0030001283FD0022839D000204A8C87
:1045E000101A4884ADF800006A1E1044ADF80400AB
:1045F000888CADF80200A9F101010844ADF806006D
:104600006A465146304602F0B3F82168BDF8020010
:1046100088845146304601F07BFD064430780A28F4
:104620001CD00D281AD0BDF8000021682844488409
:10463000307818B1761C30780028BBD12068818C86
:1046400039448184818D21F003018185BDE8FC8797
:1046500005EBD5704010C2E72846C0E7206890F807
:104660002C1001F0030101290BD0022909D0018C83
:10467000418431780A29DBD1828C02EB09018184E3
:10468000D6E7A0F82280F4E7F0610220024B1B6815
:1046900059849A84FFF77ABFF06102202DE9F04136
:1046A00007460A4815460E460068B0F92C0040F04F
:1046B000020001F0AFFB04462A4631463846FFF7B8
:1046C000E5FF2046BDE8F04101F0A4BBF061022007
:1046D00047F6FF73AFF300802DE9FC411F4690467B
:1046E00006000D464FF0000416D065B108460DF0E7
:1046F0004DFA040007D002462946684602F09BFCAA
:1047000068460DF043FA3B4642462946304602F0E1
:1047100087F820460DF03AFABDE8FC812DE9FF4FFD
:1047200087B090468946070079D00C68D9F80450C4
:1047300021B228B2401A401C029000F053FB0646FA
:1047400018F00C0F1ED038460A9A029901F0E9FDC4
:1047500008F00C01042904D0082902D00C2911D139
:1047600004E0291400FB1610401C09E02114C1EBE1
:10477000254200FB1620401C00EBD07001EB6000CE
:1047800060F31F4448460DF001FA5FEA000B09D0C0
:104790000246494604A8CDE9044502F04CFC04A8B1
:1047A0000DF0F4F9A6F1010A38460A9A029902F0CE
:1047B000B3FD03900AEB244060F31F45CDE90045AB
:1047C0003846039902F0A0FB18F003010ED001292E
:1047D00028D002290ED1B9F90420B9F90010521AD3
:1047E000101A00EBD07001EB600001E0B9F8000096
:1047F000ADF800006A463846039901F0B9FF384623
:104800000A9A029902F07EFD074406EB244060F309
:104810001F4438780028C7D158460DF0B7F90BB0BF
:10482000BDE8F08FB9F80410081A401CE0E700005A
:104830007CB5064610480068C36C006D5D1884188E
:104840003188681E0844ADF80400ADF80050718846
:10485000601E0844ADF80600ADF8024068460DF051
:1048600093FB06E0224629463046FEF7A1FC0DF0F8
:1048700025FB0028F6D17CBDF06102207CB51446F2
:104880000F4A1268D36C1E18106D4518301BADF816
:1048900000003019ADF80400281BADF802002819FB
:1048A000ADF8060068460DF06FFB06E0224629468B
:1048B0003046FEF7CBFC0DF001FB0028F6D17CBDA5
:1048C000F06102201CB50A460146684602F0CFFCA2
:1048D0002448BDF80010006830F84C2F1144ADF8A2
:1048E0000010BDF8021082881144ADF80210BDF826
:1048F000041002881144ADF80410BDF80610808839
:104900000844ADF8060068460DF03EFB27E000BF06
:10491000BDF900400BE000BFBDF90210204605F0D4
:104920007DFEBDF90610204605F078FEA41CBDF9F9
:104930000400A042F0DABDF902400AE0BDF900002F
:10494000214605F06BFEBDF90400214605F066FE28
:10495000A41CBDF90600A042F0DA0DF0AFFA002861
:10496000D6D11CBDF06102202DE9F04F0C4616494E
:1049700087B00D68DDE91098E96C0F18286D8D1867
:104980000619C418ADF81070ADF81450ADF81260E7
:10499000ADF8164004A80DF0F7FA002811D0DFF8A2
:1049A0002CB04FF0000ACDE90098CDE902BA2B46B1
:1049B00022463946304611F03BFB0DF07FFA0028C5
:1049C000F1D107B0BDE8F08FF061022085A600208C
:1049D0002DE9F04F164C87B02568DDE91098EC6C96
:1049E0002718286DA5184618C418ADF81070ADF832
:1049F0001450ADF81260ADF8164004A80DF0C4FADA
:104A0000002811D0DFF82CB04FF0010ACDE9009852
:104A1000CDE902BA23462A463146384611F008FB52
:104A20000DF04CFA0028F1D107B0BDE8F08F00007E
:104A3000F0610220C5A500202DE9FC41104F04467D
:104A40003B68D86C4518196DADF800500E198418E4
:104A5000ADF80440ADF80260ADF8066068460DF0B0
:104A600093FA08E0386822463146406E03682846CB
:104A700098470DF023FA0028F4D1BDE8FC8100002E
:104A8000F06102202DE9F0410B4C2568EC6C2718F1
:104A9000286DA5184618C41800200DF075FA07E017
:104AA00023462A4631463846FEF702FC0DF006FA48
:104AB0000028F5D1BDE8F081F06102207CB50E4DF3
:104AC0002A68D36C1E18106DADF804604418ADF858
:104AD0000060ADF80640ADF8024068460DF054FAAB
:104AE00007E028682146406E4268304690470DF046
:104AF000E5F90028F5D17CBDF06102202DE9FC41EB
:104B00001C4C2468E66C94F818C03718206DACF182
:104B1000010C4518C418A7EB0C001644ADF80000B2
:104B200006EB0C00ADF80400A5EB0C00ADF802009C
:104B300004EB0C00ADF8060068460DF025FA15E010
:104B400032462946384605F03DFD32462146384674
:104B500005F038FD621E691C384605F093FD621EA3
:104B6000691C304605F08EFD0DF0A8F90028E7D14C
:104B7000BDE8FC81F061022070B50E468EB004469F
:104B80000146154606A802F04FFBBDF81A30642B0B
:104B90000CD1002000900AAB01AA214606A801F022
:104BA000C9FD2A46314601A8FFF742FE0EB070BD8E
:104BB0007CB50E4B1B68DC6C2618186DADF80060D8
:104BC00045188418ADF80460ADF80250ADF8064001
:104BD00068460DF0D9F906E022462946304605F030
:104BE00051FD0DF06BF90028F6D17CBDF06102207B
:104BF00070B50C46054600F0E1F810B10121C0E99E
:104C000000142846BDE870400DF0DAB810B5002455
:104C100000E0012400F004F80028FAD1204610BD7D
:104C2000094810B50068002410B1804700B1012484
:104C30000CF046F800B101240448006810B1804728
:104C400000B10124204610BD14620220106202202F
:104C50002DE9FC410F4C2568EC6C2718286DA51830
:104C60004618C418ADF80070ADF80450ADF80260F5
:104C7000ADF8064068460DF087F907E023462A465E
:104C80003146384605F028FD0DF018F90028F5D119
:104C9000BDE8FC81F0610220B0F90630B0F90420D3
:104CA000B0F90210B0F90000FFF7D2BF08B50B460B
:104CB000002805D0009281888268C08800F001F841
:104CC00008BD10B50828029C30D008DC04FB01F4B4
:104CD00001280AD0022813D0042804D11CE010288F
:104CE00028D020282CD0002010BD04EBD30003F0E6
:104CF0000701105CC1F10701C84000F0010010BDC0
:104D000004EB93000621105C01EA4301C1F10601A6
:104D1000C84000F0030010BD04EB5300D907105C3D
:104D200002D000F00F0010BD000910BD04FB0130DF
:104D3000105C10BD481004FB003032F8100010BDAC
:104D4000881004FB003052F8200010BD034951F8D0
:104D50002000C1688A6A082110470000086202200A
:104D600010B505F0E9FCBDE8104005F095BD000068
:104D700002490968C9694A6800211047F0610220A8
:104D8000024A1268D269526810470000F06102209E
:104D9000002801D00BF0D8BF704710B505F0D4FC47
:104DA000BDE8104005F078BD0021022802D202497A
:104DB00051F8201008467047706202201FB500218C
:104DC0000191029103912A21009169460CF04AFD5C
:104DD000039804B010BD000001480068007C7047D3
:104DE000F061022002480068C069407E7047000000
:104DF000F061022002F07EB870B514460D4605F051
:104E0000E9FC002802D000202860206070BD02F07C
:104E1000CFB810B5044602F0BDF801462046BDE803
:104E2000104002F071B800002DE9F74306464FF03C
:104E30000008019844464746154618B302F05AF850
:104E4000804601980078D8B91CE029467F1C01985B
:104E500002F084F881460146A5EB0905019802F0AD
:104E600053F8A04200DC204604464946019801F070
:104E70004FF901990844019001A802F0B3F808B96C
:104E8000002DE2D10848641E0168498C3180006819
:104E90002144B0F92400708008FB0700B180401E57
:104EA000F080BDE8FE830000F061022001F068BAE6
:104EB0000A490020096891F82C2002F00C02042A0B
:104EC00007D0082A01D00C2A02D1C869007E400808
:104ED0007047C869007E401E70470000F0610220E4
:104EE000417EC07E11FB00F07047017EC07E11FB49
:104EF00000F07047024951F82000006900687047CF
:104F000008620220024951F8200000694068704799
:104F10000862022070B50D4613F046FD044628468F
:104F200013F04AFD204370BD124810B5016821F00E
:104F30000101016010480121816010490160006891
:104F40000F49884200D0FEE701F026FB0D492E20D4
:104F5000087001F01BFA0C4813F0FAFF19F058FE24
:104F600004460021084600F031FF0CF02DFA2046DF
:104F700010BD0000002000E000300240C2A507F490
:104F8000CDB5E8B5E4610220DCCC02202DE9FC417E
:104F900007461C4615460E46012000F0E5FE8046F9
:104FA00011480068C16C006D0F4406440D44044470
:104FB000ADF80070ADF80450ADF80260ADF80640F1
:104FC00068460CF0E1FF07E023462A4631463846A2
:104FD00005F082FB0CF072FF0028F5D1404600F08E
:104FE000C3FEBDE8FC810000F061022010B5011E87
:104FF00001DD024600E04A42064B012053F8204002
:10500000944202D8401C0A28F8DB002900DA401C30
:1050100010BD0000601602201CB520B90C480068C5
:10502000006E002812D0FEF7BDFE0090446968466D
:10503000FEF702FF002C09D02046FEF7B3FE0190D8
:1050400081688968884701A8FEF7F6FE1CBD00004C
:10505000F061022001490A4600F002B801F0FFFFAA
:105060002DE9F04387B015460C465FEA000842D0B0
:10507000002000F079FE814620480068066E404618
:10508000FEF790FE00900068806900F015FE07466C
:1050900040F6FF70C44204D10098B0F90440B0F962
:1050A00006500098611E0289ADF804401144ADF825
:1050B00008104189681E0844ADF80650ADF80A0092
:1050C0000BF01AFC6846FEF7B7FE01A80CF05CFF77
:1050D00006E02A462146404600F07EFB0CF0EEFE3C
:1050E0000028F6D1384600F0E7FD304600F090F990
:1050F000484600F039FE07B0BDE8F083F0610220B9
:105100002DE9FE4F834619488A46194900680C9ECE
:105110009846407C9146002751F82040E168096894
:10512000042903D02468002CF8D100E014B9FFF75B
:10513000C7F904460121E068C26A2046904705008D
:1051400011D02469A0688047401C02D1094C46F068
:1051500001060096CDE9015443464A465146584659
:1051600000F0DAF907463846BDE8FE8FF06102200C
:1051700008620220F423022038B5040018D00D483C
:105180000068006EA04201D100F08CFD2046FEF7C1
:1051900009FE0090406908B101F0B1F8009800687C
:1051A000FFF734F96846FEF747FE2046FEF72EFD6E
:1051B00038BD0000F06102202DE9FF4F0746464848
:1051C00083B099460068DDF840B08A46447C434885
:1051D00000570128204606DD05F026FB80462046C4
:1051E00005F02EFB05E005F00EFB8046204605F09D
:1051F00010FB044617B302A901A8FFF708FEB7F990
:105200000060002E00DA0026B7F90250002D00DA07
:1052100000250199B7F904004144491E14F01DFB13
:10522000804602980119B7F90600491E14F015FBD3
:10523000A8EB0602441B521C641C02E00026354603
:105240004246B9F1000F01D1C4F10009002A01DD85
:10525000002C03DC002007B0BDE8F08F4B46294648
:105260003046CDF800B0FFF74BFF5FEA000909D0E8
:1052700000F094F88046484600F0CAF80027DFF8AE
:1052800060B01FE05146059888470120E3E7E11B25
:10529000414502DA484600F0A5F83FB1EA19314627
:1052A000484600F0D7F84846FFF7B6FE5146059845
:1052B0008847DBF8001009B1002088474846FFF70F
:1052C000C9FE4744A742E2DB4846FFF755FF0020EE
:1052D00000F09EF8BEE70000F06102202862022084
:1052E000D465022038B5002460B1FEF75BFD009064
:1052F000006800698068804706F03CF9044668460B
:10530000FEF79AFD204638BD38B5002808D0FEF7D4
:1053100049FD00F1180400906846FEF78DFD204617
:1053200038BD000038B5002418B907480068006E81
:1053300038B1FEF737FD0090B0F904406846FEF73B
:105340007BFD204638BD0000F061022038B5002406
:1053500018B907480068006E38B1FEF723FD0090C9
:10536000B0F908406846FEF767FD204638BD0000EA
:10537000F061022038B5002418B907480068006EB3
:1053800038B1FEF70FFD0090B0F906406846FEF711
:1053900053FD204638BD0000F061022038B50024DE
:1053A00018B907480068006E38B1FEF7FBFC0090A2
:1053B000B0F90A406846FEF73FFD204638BD0000C0
:1053C000F061022070B50546002428460EF0E2FD8B
:1053D000641C18B1BDE8704000F068B8052CF4DB1F
:1053E00070BD000038B50C4620B908480068006E52
:1053F00000280AD0FEF7D6FC0090B0F90A10A142AE
:1054000000DD44816846FEF717FD38BDF0610220DB
:10541000F8B50F4E05003068046E16D00CB100F0E0
:1054200041FC0BF08FFB2846FEF7BCFC0090316876
:105430000D660068FEF7ECFF6846FEF7FDFC05F020
:10544000BBFD05F0FDFC2046F8BD00F02BFCFAE7A3
:10545000F06102207CB515460C4620B91248006860
:10546000006E00281FD0FEF79DFC2DB20090C58075
:1054700024B2848005F0E4FC0098406980B1FEF716
:1054800091FC009A0190B2F908108180B2F90A20CB
:10549000C28011B10AB10480458001A8FEF7CCFC9E
:1054A0006846FEF7C9FC7CBDF061022001490A464E
:1054B00000F002B801F0FFFF7FB515460C4606006C
:1054C00028D0FEF76FFC40F6FF710190CC4203D16B
:1054D000B0F90440B0F906500289611E1144ADF8DC
:1054E0000840ADF80C104189681E0844ADF80E0064
:1054F000ADF80A5001A8FEF79FFC02A80CF044FD8D
:1055000006E02A462146304600F04EF90CF0D6FC63
:105510000028F6D17FBD00002DE9FF4FDFF8E8B08D
:1055200083B01C46DBF80010DDE9106092464FF0B6
:1055300000084B7C42461299FEF72CFF050060D014
:1055400028698068804706F015F881460AFB09F152
:10555000C91DCF08FEF75CFCF10705D1C11700EBB0
:105560009170801000EB4000002C09DC1FB118384E
:10557000B0FBF7F000E000206442A04200DC0446EB
:10558000F00707D10090DDE903012346524600F001
:105590003FFE8046002C03DC2846FEF737FF30E054
:1055A00004FB07F01830F10702D0FEF70FFB01E013
:1055B000FEF711FB06001CD0FEF7F4FB019005601E
:1055C000039981800499C180A0F808A04481C0F8A3
:1055D0001480C0E9037901A8FEF72EFC1298AE6092
:1055E0002861DBF80000407CA861304607B0BDE8C8
:1055F000F08F2846FEF70AFF5FEA080001D0FEF7A9
:1056000005FB0020F2E70000F0610220014908607C
:1056100070470000D46502202DE9F74F8EB0144684
:1056200089460E98FEF7BEFB0990B0F908B0B0F9B4
:105630000A600068006940680C9009A8FEF7FCFB4E
:10564000564D574F2868407C57F82000C1688A6A39
:10565000082190470790182801D320200790286838
:10566000407C57F820000069069003C80B904D4815
:10567000814201D0012000E000200A90002000F0CB
:1056800086FE00287DD1286809EB0B01B0F90C20BB
:10569000891A491E002902DDABEB010500E05D46D9
:1056A000B0F90810494505DDA1EB090189446D1ADF
:1056B000089101E000210891002D6BDDB0F90E206A
:1056C000A119891A491E002902DDA6EB010800E094
:1056D000B046B0F90A00A04204DD061B3444A8EB32
:1056E000060800E00026B8F1000F53DD089801908D
:1056F0000DA95F46DDF830A00E980091FFF704FE7B
:10570000774300EB870101982B4601EB800200995B
:105710004846CDE900A1214601F032F90090002869
:1057200038D00A98E8B1DDE906322946009800F041
:105730002DFFB0B90698009FDA46D0F810C0BCF132
:10574000000F05D004235A4639463846E04708E0A2
:105750000B993868884701C7AAF101005FEA000A7F
:10576000F6D100990020079ACDE9030105900120A8
:105770000090CDE9010221460346641C2A464846B2
:1057800000E007E004F08AFDA8F10100761C5FEA62
:105790000008ABD111B0BDE8F08F0000F06102202D
:1057A000086202201BA90020F8B515460E460746E0
:1057B000FEF7F8FA009000681621C068426A0020DF
:1057C000904704466846FEF737FB002C03D02A4674
:1057D00031463846A047F8BDF8B515460E4607468F
:1057E000FEF7E0FA009044696846FEF725FB38466C
:1057F000FFF778FD0346082800DD2CB12A46314624
:10580000384617F021FCF8BD2A463146384617F0D5
:10581000BBFDF8BD054910B591E81C0080E81C00EF
:10582000087A002800D0012010BD000074CD0220AD
:1058300010B504460C220849FAF71BFD002809D0D0
:10584000054894E80E0080E80E002046BDE81040B0
:1058500000F010B910BD000074CD022002480068AD
:10586000407C00F003B80000F0610220F8B51D494B
:10587000096809B1002200E002461B498D56012D3E
:105880002EDD1849143151F822305B1C41F82230CA
:10589000012B25D1A1F108030026103953F822402D
:1058A00051F8221053F822707F1C43F82270AF4247
:1058B00001D143F8226053F822708F42F2D03D4666
:1058C000FEF7FEFD009000280AD0C0682121426A40
:1058D00068469047030003D02A462146009898471F
:1058E000F8BD00004062022028620220044A1268CB
:1058F00002B10020002900DC0121024A1154704746
:105900004062022028620220094A126802B1002087
:10591000074A1C3252F82030002B07DBA2F1180393
:1059200043F820104FF0FF3142F82010704700007C
:105930004062022002480068407C00F003B800008A
:10594000F061022038B51449096809B1002200E06D
:1059500002461249895601291CDD0F49143151F8BC
:1059600022305B1E41F8223014D1083951F8224010
:10597000103141F82240FEF7A3FD0090002809D025
:10598000C0682221426A68469047020002D0214640
:105990000098904738BD0000406202202862022033
:1059A00010B5002821D009B30AB3B1F90040B2F90B
:1059B00000309C4200DA23460380B1F90240B2F97C
:1059C00002309C4200DA23464380B1F90440B2F928
:1059D00004309C4200DD23468380B1F90610B2F901
:1059E0000620914200DC1146C18010BD11460A68B4
:1059F00002604968416010BD00280BD003880B4449
:105A00000380838819448180418811444180C18882
:105A10001144C1807047000070B50E4D0446D5E9B1
:105A20000001884209D10C49884201D13C3000E094
:105A30000C3807C884E8070006E090E80E0084E808
:105A40000E0012F0C1FF2860207A002800D001204B
:105A500070BD00006462022080CD02200448D0E9BD
:105A60000010814201D101207047002070470000E2
:105A700064620220054A10B50349116016F096FFD2
:105A8000BDE8104000F0DAB9F10F012018620220E1
:105A900070B5094C0020D4E900218A420AD0D2E92D
:105AA0000056104612F0A8FF2060314628460BF041
:105AB000F9FD012070BD0000846502202DE9FC4144
:105AC000154DDDE908742D68B5F90860864200DDE2
:105AD0003046B5F90C60964200DA3246824219DB54
