:020000042000DA
:1000000000100010C1010020C9010020CB01002018
:10001000CD010020CF010020D10100200000000010
:10002000000000000000000000000000D3010020DC
:10003000D501002000000000D701002039E6002093
:10004000DB010020DB010020DB01002019D50020AE
:10005000DB010020DB010020DB010020DB010020B0
:10006000DB010020DB010020DB010020DB010020A0
:10007000DB010020DB010020DB010020DB01002090
:10008000DB010020DB010020DB010020DB01002080
:10009000DB010020DB010020DB010020DB01002070
:1000A000DB010020DB010020DB010020DB01002060
:1000B000DB010020F1E80020DB010020DB01002053
:1000C000DB010020DB010020DB010020DB01002040
:1000D000DB010020F1F80020DB010020DB01002023
:1000E000DB01002059D40020DB010020DB010020CF
:1000F000DB010020DB010020DB010020DB01002010
:10010000DB010020DB010020DB010020DB010020FF
:10011000DB010020DB0100204DE9002011EA002076
:10012000DB010020DB010020DB010020DB010020DF
:10013000DB010020DB010020DB010020DB010020CF
:10014000F70700200708002017080020DB01002027
:10015000DB010020DB01002005130020DB01002073
:10016000DB010020DB010020DB010020DB0100209F
:10017000DB010020DB010020DB010020000000008B
:10018000DB010020DB010020DB010020DB0100207F
:10019000DB010020DB010020DB010020DB0100206F
:1001A00025BE0020DB010020DB010020DFF80CD0A1
:1001B00000F076F800480047FDE001200010001034
:1001C0000648804706480047FEE7FEE7FEE7FEE7F1
:1001D000FEE7FEE7FEE7FEE7FEE7FEE719E70020A1
:1001E000AD01002010B5431A934209D28318881834
:1001F00003E010F8011D03F8011D521EF9D210BDD5
:1002000040EA01039B0703D009E008C9121F08C098
:10021000042AFAD203E011F8013B00F8013B521E18
:10022000F9D210BDD2B201E000F8012B491EFBD279
:1002300070470022F6E710B513460A4604461946F1
:10024000FFF7F0FF204610BD421C10F8011B0029EB
:10025000FBD1801A704710B5002200E0521C835C6D
:100260008C5CA34201D1002BF8D1D8B2E1B2401A84
:1002700010BD30B504460020034600E05B1C9342ED
:1002800003D2E05CCD5C401BF8D030BD034611F8D2
:10029000012B00F8012B002AF9D118467047000005
:1002A000064C074D06E0E06840F0010394E80700C3
:1002B00098471034AC42F6D3FFF77CFF642102204C
:1002C0009421022070B58D1810F8014B14F0030230
:1002D00001D110F8012B231106D110F8013B03E0E6
:1002E00010F8016B01F8016B521EF9D1B3B110F88F
:1002F000012B04F00C048A1A0C2C04D0A2EB8412FB
:1003000003F1020308E010F8014BA2EB0422F7E727
:1003100012F8014B01F8014B5B1EF9D5A942D3D36A
:10032000002070BD002800DC4042704738B54568A9
:100330000446014628460FF019FB00282BD0206800
:10034000304A11280DD006DC0B2825D00E2833D0DA
:100350000F2852D112E0282849D0B0F5107F4CD197
:1003600008E09268002A16D02146284601B0BDE870
:1003700030401047214628465268F7E7284603F0E8
:1003800031FC0090406E0468684603F075FC002C58
:1003900001D02846A04738BD284603F023FC009032
:1003A000683003F07BFB009803216C3003F07EFB88
:1003B000684603F061FC20E0E168486809680D299F
:1003C00002D0202913D105E0002810DD284618F0BE
:1003D000B5FD06E0002804DD2846BDE8384018F0E9
:1003E000ADBD2846BDE83840022118F0E7BDE06801
:1003F00018B90021284600F09DF92046BDE8384094
:100400000FF0EEBDDC6502202DE9FF410AAF97E851
:100410007000002703958DE8D00000F003F804B0C9
:10042000BDE8F081F0B585B00DF1280C9CE8F00036
:100430004FF0000C8DE8F01000F024F805B0F0BD8E
:10044000F0B5044685B08069B4F90850668A002783
:10045000CDE90265CDE900170490B4F90C00B4F9B8
:100460001060C118B4F90A00B4F90E5010443346B4
:100470002A4600F007F80546616800F07AF905B0F1
:100480002846F0BDF0B585B00C46DDE90D51DFF82A
:1004900054C04C31DDE90A67CDE902C12146CDE9FE
:1004A00000670FF0EFFC040018D003F09BFB102254
:1004B000294604900FF03AFC049830220A4934305F
:1004C000FFF790FE084D04990C3D2868486604A883
:1004D00003F0D2FB286841682046884705B02046D3
:1004E000F0BD00002D030020E8650220F0B50446B1
:1004F00080688B4989B051F82050606800287DD011
:10050000052804D006287AD0122879D1AEE0E8690F
:1005100000284FD095E80E008DE80F0004F110017F
:100520000FC906F0E7F9002655F8260005F0B4FAE1
:10053000A169E8690A1A216901446069304404F03C
:100540005DF9A169E8690A1A21690144E069801B23
:1005500004F054F9E169E8690A1A61690144206903
:10056000304404F007FAE169E8690A1A6169014454
:10057000A069801B04F0FEF9761C022ED4DBA8686B
:1005800005F08AFAE069E9696669431A2069421848
:100590003144801C521E04F03DFAE169E869A26909
:1005A0000B1A61690144101A401C921E04F032FAC1
:1005B000EE6913E05FF0000655F8260005F06CFACE
:1005C000E069831BA069821B60698119206930443E
:1005D00004F076F9761C022EEEDB0226D5E9030143
:1005E000CDE900016169E06908444310A069891CF4
:1005F000821B2069304404F0CDF802E089E012E06B
:100600008AE0D5E90501CDE90001E36960690121CE
:10061000184401EB6001A0699B1E821B20693044D5
:1006200004F0B8F878E0206803F0DCFA0490206861
:1006300011F02AF840B1A06808B1002008E0049841
:10064000006F28B1012003E00498406F00B1022040
:10065000049901EB8000C56E04A803F00DFB002394
:100660001A462846216803F075FE55E0206803F01D
:10067000B9FA0490866EEEB3B0F95C70A168D1B39C
:10068000032942D05FF0000100EB8101406D0C6C4A
:1006900005F00CFA204605F0FFF905A804F05AFA17
:1006A000BDF81410A88B0144ADF81410BDF8181053
:1006B000081AADF81800BDF81600801CADF8160039
:1006C000BDF81A00801EADF81A000498B0F9602039
:1006D000B0F95E1005A805F02FF804A803F0CCFAD5
:1006E000022005F041FA304603F07CFA3A4605A9AB
:1006F000079001E00BE006E003F0F0FE0DF11C00B6
:1007000003F0BAFA08E00121BEE70221BCE704A821
:10071000F6E7206810F0EEFB09B00020F0BD000005
:100720008C20022000294FF0100101D00FF0AEB94B
:100730000FF000B94FF480720029114601D00FF07C
:10074000A5B90FF0F7B808B50023009300F001F841
:1007500008BD70B516460C46054619463046049A43
:1007600003F0E0FD024621462846BDE8704000F057
:1007700028B82DE9FF410E4605004FF001041CD0BA
:1007800003F030FA0190876E01A8009703F074FA25
:100790003146684606F020FC78B100980024B84243
:1007A00008D0284603F01EFA01900099816601A83E
:1007B00003F062FA284610F0E6F804B02046BDE8DF
:1007C000F081F8B515460C46060013D003F00AFA7E
:1007D0000090032C0BD200EB84006C3003F05EF928
:1007E000009800EB8400C566304610F0CCF86846EF
:1007F00003F042FAF8BD10B5002000F083F9BDE81F
:10080000104000F043B810B5012000F07BF9BDE8BE
:10081000104000F0CDB8662003F0C7BD1CB5002025
:10082000009001900548064A02210368054803F03C
:100830007FFC05490860084600681CBD3061022045
:100840004DCD0120A0E90120946102201CB5044691
:100850004FF6FF700EF034F800200090019007482A
:10086000074A1B210368074803F062FC064941F868
:100870002400084650F824001CBD0000306102200E
:100880007DCE0120ACE60120FCCB02202DE9F04F0B
:1008900085B0404D2C79A8780027DFF8FC90DFF870
:1008A000FCA03F493F4E4FF001084FF0460B002897
:1008B00004D0012865D0022863D12EE051F824002D
:1008C000D8B10F2201A902F06DF868798DF80A00FD
:1008D000A8798DF80B00E8798DF80C00287A8DF84E
:1008E0000D00687A8DF80E008DF806802C480F22D6
:1008F00001A950F8240002F098F989F80070CAF8AC
:1009000000702948C0F800B0306810F0010F38D1ED
:10091000306840F00100306033E051F8240008B343
:100920000F2201A902F03EF8E87A8DF80700A87AB4
:100930008DF80800687A8DF80900287A8DF80F0084
:10094000E8798DF81200A8798DF8110068798DF892
:1009500010008DF8068012480F2201A950F82400DB
:1009600002F063F989F80070CAF800700E48C0F808
:1009700000B0306810F0010F03D1306840F0010082
:1009800030600A48016841F00201016005B0BDE82D
:10099000F08F0000C4CB02202C6002202414004001
:1009A000FCCB022000140040341C004014680040BE
:1009B0002DE9F041494D01272946A87B097CDFF844
:1009C00020C104280BD00026DFF81881464C474B85
:1009D000A5F10C02052807D0062877D156E08CF83F
:1009E00000104348077071E0687C672806D04149D1
:1009F000414A63283FD0652843D067E02068D3F898
:100A000000C0A0EB0C004FF0730C082816D3002098
:100A10001C681518A4F13F542478EC701C68641C01
:100A20001C60401C0828F3D3481C4CEA00201080AE
:100A300008209070314800F0C3F847E020681C6837
:100A4000001BC4B294700020002C0CD91C6815182F
:100A5000A4F13F542478EC701C68641C1C60401C9A
:100A600094788442F2D8481C4CEA00201080234835
:100A700000F0A6F82AE00F701E6088F8006017707A
:100A800024E00F701E60022010701FE08CF8001030
:100A90009CF8000098F80010884217D11E609CF85E
:100AA0000000401C712141EA002010800420907059
:100AB0002068D0702068000A10712068000C507106
:100AC0002068000E90710D4800F07AF80C4801681B
:100AD00041F010010160BDE8F0810000C4CB0220AC
:100AE000916102208F6102200C6102206861022066
:100AF0008D6102208E6102208C610220B8CB022021
:100B00001468004070B4274901EB00142168264D99
:100B100011F0020F254900EB400C01EB001305EB2F
:100B20008C011FD1224A02EB001216680E71166862
:100B3000360A4E711668360C8E711268120ECA7122
:100B40001C4A02EB001216680E721668360A4E72C4
:100B50001668360C8E721268120ECA721A6802F08B
:100B60000F02CA702268520D25F82C201A68120A4A
:100B70008A70114950B1086820F010000860081F01
:100B8000016841F02001016070BC70470B480268A9
:100B900042F020020260086820F00200086070BC89
:100BA00070470000B0690040C4CB0220B469004027
:100BB000B8690040BC690040146800400C680040FF
:100BC00010B42C490A6812F0806F01D000210AE0AD
:100BD0000A6812F0006F01D0012104E0096811F0E9
:100BE000805F44D0022102884FEA425C224A02EB35
:100BF0000113C3F800C0121D02EB0112D2F800C0AD
:100C00002CF00F0CC2F800C0D2F800C084784CEA77
:100C1000040CC2F800C0C27890F806C0047942EA19
:100C20000C6290F805C04FEA0C4C4CEA042C42EAE6
:100C30000C02DFF848C00CEB011CCCF80020C27994
:100C400090F80AC042EA0C6290F809C0007A4FEAB4
:100C50000C4C4CEA00201043094A02EB01110860D9
:100C6000186840F00100186010BC0020704710BCEC
:100C70000220704708680040806900408869004091
:100C80008C69004013490A6812F0806F01D000217E
:100C90000AE00A6812F0006F01D0012104E009683F
:100CA00011F0805F14D00221022242EA40520A4829
:100CB00000EB01100260094A02EB01110A6822F000
:100CC0000F020A60016841F00101016000207047D5
:100CD0000220704708680040806900408469004035
:100CE0007CB5214C0546216831F8220F4A8D10440D
:100CF00008804888CA8D10444880284603F01AFFAF
:100D00002168498CADF800104618284605F0FEFF12
:100D10003044401EADF8040003F04EFF2168898C7A
:100D2000ADF802100844401EADF80600684610F009
:100D300037FB04E0284602F06FF910F0CBFA0028E8
:100D4000F8D10A2D04D0BDF804002168401C488465
:100D5000206830F8221F428D891A01804188C28D97
:100D6000891A41807CBD0000F06102202DE9FE431C
:100D700004460E461546204606F030FA0746C4EBF8
:100D8000C400144951F8200007FB0608C4EBC40056
:100D900051F8200007FB05090021C4EBC4000D4BEE
:100DA00003EB80000069CDE90001C4EBC4000291AF
:100DB000194601EB80004A464146C368204600F0D0
:100DC0008FF9C4EBC400034901EB80008560BDE8E6
:100DD000FE830000C06D02202DE9F04F85B004466F
:100DE0000D4616461F46DDE90F8BDDF838A020467C
:100DF00006F0F4F98146C4EBC400264951F82000FE
:100E0000C4EBC401234A02EB8101496809FB0100DC
:100E1000C4EBC40102EB8101C96806FB0151C4EBBC
:100E2000C4021C4B03EB8202526901FB02000490D6
:100E3000C4EBC400194651F82000C4EBC4011A46A3
:100E400002EB8101496809FB0100C4EBC40102EB1C
:100E50008101C9680AFB0171C4EBC40203EB820281
:100E6000526901FB020003900021C4EBC4001A4642
:100E700002EB8000C068A0EB08004346CDE900B05B
:100E800002912046DDE9032100F02AF905B0BDE812
:100E9000F08F0000C06D02202DE9FE4F04460D4684
:100EA00016461F46DDF8309003F078FE012810D179
:100EB00000221921204609F06FFE4B463A46314682
:100EC000284609F0A9FA204A1921204609F064FEB3
:100ED00037E0781B00F10108A9EB0600401C0290E6
:100EE000204606F07BF98246C4EBC400174951F84E
:100EF0002000C4EBC401154A02EB810189680AFB9A
:100F00000100C4EBC40102EB8101C96806FB015179
:100F1000C4EBC4020D4B03EB8202526901FB020BCE
:100F2000C4EBC4011A4602EB81010D98C968A1EB1C
:100F30000801CDE90010424659462046029B00F0C8
:100F400023F9BDE8FE8F0000990E0020C06D02203D
:100F5000F8B504460D4616461F4603203B4632466A
:100F600029460090204600F081F8F8BDF8B5044607
:100F70000D4616461F4604203B4632462946009041
:100F8000204600F073F8F8BDF8B504460D46164645
:100F90001F4602203B46324629460090204600F07C
:100FA00065F8F8BDF8B504460D4616461F46002004
:100FB0003B46324629460090204600F057F8F8BDDF
:100FC000F8B504460D4616461F4600203B463246FD
:100FD00029460090204600F049F8F8BD2DE9F0417F
:100FE00007460C4615461E4632460B49384608F061
:100FF00092FF32460949204608F08DFF3346084AE1
:101000000649054800F00EF832462946044808F023
:1010100082FFBDE8F0810000F88B0220F8A90220D1
:10102000F86D022030B50F4C0F4D2C602C46E0605F
:101030006161E26300242C61AC612C64EC616C6240
:101040006C63012404EB03446C642C46246844F074
:1010500001042C6000BF044C246814F0010FFAD185
:1010600030BD00000002020000B002402DE9F8434C
:1010700005460E4614469846089F224606492846CD
:1010800008F053FF3B46002231460348009400F02D
:1010900005F8BDE8F8830000F86D022070B5049CE7
:1010A0004FF481350D4E35603546E860E963002523
:1010B000356135643546EA616B63012505EB04450E
:1010C000756435462D6845F00105356000BF034D58
:1010D0002D6815F0010FFAD170BD000000B002407C
:1010E0002DE9F05F07460C4615461E46DDE90B9AD2
:1010F000DDF82880384609F029FB83464FF400705C
:101100000D4908600846C460C563C0F81090C0F877
:1011100040A0C0F81CB0404666F31F404864084633
:10112000006840F00100086000BF0348006810F04C
:10113000010FFAD1BDE8F09F00B00240F0B505AC58
:1011400070CC4FF48137DFF83CC0CCF800706746B4
:10115000F860F9633A613B640527CCF81C70674678
:101160007C6346EA0547CCF8447067463F6847F021
:101170000107CCF8007000BF024F3F6817F0010F65
:10118000FAD1F0BD00B002402DE9F04707460C4609
:1011900015461E46DDE90889384609F0D7FA824629
:1011A0000D480E4908600846C0F83890C463C0F87E
:1011B0004080C0F834A0304665F31F4048640846BC
:1011C000006840F00100086000BF0448006810F0AB
:1011D000010FFAD1BDE8F0870002030000B0024021
:1011E0002DE9F84305460E4614469846089F00230D
:1011F0003A46064928460094FFF750FF22463146FA
:10120000024808F092FEBDE8F8830000F86D022065
:10121000074AD0624A1ED2B2012343EA0222044B9B
:10122000DA611A46D26942F02002DA6170470000A2
:1012300000B002401EB5034601F07F40B0F17F4F81
:1012400001D118461EBD83F07F40029081F07F409F
:1012500001901448144C206002A8E06001A860616D
:10126000C4F83CD04FF4803040EA0260E061C2F143
:10127000FF00002444EA00600B4C606200206063C1
:101280004FF0011060642046006840F001002060CB
:1012900000BF0548006810F0010FFAD1009880F0F7
:1012A0007F40CFE70002020000B0024070B5049C0E
:1012B000124D134E35603546E8606961EA634FF4BC
:1012C000803545EA0365F561C3F1FF05002646EA6E
:1012D00005650B4E756200257563012505EB044518
:1012E000756435462D6845F00105356000BF044D35
:1012F0002D6815F0010FFAD170BD00000002020048
:1013000000B002400E480F4A4FF000610068904262
:1013100002D90D4801600CE00C4A904202D90C48F9
:10132000016006E00B4B0C4A984201D9D16000E005
:1013300091600A480068C16841F01001C1607047BF
:10134000A4CA0220586402400C640240B860024003
:1013500008640240586002400060024064CA0220F3
:101360000146087810381823B0FBF3F20848805C77
:101370004865032A05D908686FF30900001D086550
:1013800003E008686FF309000865086D7047000006
:1013900094E2012030B50468246824F480240568B0
:1013A0002C60046863608468402C04D10468A260E7
:1013B0000468E16003E00468A1600468E26030BD95
:1013C0002DE9FC41002830D0112916D0132910D066
:1013D00005460C4602F006FC009000F03FFB064676
:1013E000684602F049FC20461AF0CCFD074600246E
:1013F0001EE0BDE8FC4100F0E3BABDE8FC4100F0AE
:1014000071B92146284600F02CFB019078B1007894
:101410001AF0B8FD00F0FF0801A802F02DFCB84555
:1014200005D12146284600F0D5FABDE8FC81641CB0
:10143000B442E6DBF9E7F8B50C46050013D0002C02
:1014400011D002F0CFFB0090C66B684602F014FC8E
:101450002046FEF7F9FE421C2146304602F030FCE1
:1014600028460FF090FAF8BD2DE9FF414568044683
:10147000284602F0B7FB0190D0F8886001A802F07E
:10148000FBFB0EB1012700E00027214628460EF0A5
:101490006DFA002856D02068112844D006DC0B28AD
:1014A00063D00E2878D00F282BD14FE0212805D00B
:1014B00026281AD0B0F5107F23D139E0E0684168C2
:1014C00000291EDD00680D281BD130460AF0F7F810
:1014D000002806DB30460AF0F2F80146284600F004
:1014E00079FA284600F07EF875E0E068012809D016
:1014F0000A2802D00B2871D111E00A2128460FF0EA
:10150000D4FA6BE030460AF0DAF8002866DB3046A1
:101510000AF0D5F80146284600F05CFA5BE0284660
:1015200000F060F85AE0FFB9E068007A98BB55E037
:10153000E06848B1007A08B1012100E002212846A4
:101540000FF0B3FABDE8FF810321F8E72E462846E5
:1015500002F048FB0290D0F88400056802A802F06F
:101560008BFB0DB13046A84738E0284602F03AFB25
:101570000090C06B02F0E4FB0098D0F888000EF0F9
:1015800063FD0098D0F8940002F060FA684602F01B
:1015900073FB23E000E016E0E068416800291DDDF0
:1015A000016820290FD006DC092910D00A2915D09E
:1015B0001B2904D112E0212910D022290ED028465F
:1015C000FFF7FEFEBEE7284600F0EEF806E00EF05C
:1015D0004BFEB04202D128460FF016FC20460EF01A
:1015E000FFFCAFE738B5040011D002F0FBFA009021
:1015F000D0F8880040B10EF027FD00990020C1F816
:10160000880020460FF0BFF9684602F035FB38BD70
:10161000F0B585B0B0F90850468A84690296CDE9E4
:1016200003540027CDE90017B0F90C10B0F91050A1
:10163000B0F90E40B0F90A00194410442B46224676
:1016400000F002F805B0F0BD2DE9FF410C461D4643
:10165000DDE90D71DDE90B36DFF880E0DDF828C04B
:101660006C31CDE900C3CDE902E14FF0FF332146F3
:101670000EF008FC04002DD002F0B4FA1022394616
:1016800000900EF053FB00983822154980F88C60CA
:101690004C30FEF7A7FD124E0098361F3168C0F897
:1016A0008410002180F89010C586204600F0B5F91E
:1016B000684602F0E1FA02F040FB0546204602F0DF
:1016C00091FA0090C563684602F0D6FA3068416826
:1016D0002046884704B02046BDE8F0816914002008
:1016E000A062022010B5044600F05DF9010000D0B0
:1016F000411E2046BDE8104000F06CB9F8B5054623
:10170000006802F06FFA0090448ED0F88860684656
:1017100002F0B2FA06B1012604F0010428680FF0C5
:10172000B3FF0EB1002006E00CB1012003E008B1C8
:10173000022000E003201B4951F82010686858B3CC
:1017400002280CD0052802D0122828D103E0284610
:1017500012F05EF923E0284614F0EFF91FE06A6901
:10176000E8694FF0FF33801AA0F1080203EB62042E
:10177000421CAB69001B4510A3EB6206C86904F06C
:101780008BF906E03219311B284603F037F8641E46
:101790006D1C002CF6DA02E028680FF0ABFB00208D
:1017A000F8BD0000D41502202DE9F14F9EB01E981F
:1017B00000287CD002F016FA0B901E980EF02FFE37
:1017C00003900B98B0F9367090F890101891C16B97
:1017D0000A9190F88C90B0F93410159100F03EF910
:1017E00082460B9804ACB0F88E101491B0F98210B8
:1017F0001391C16C1291D0E90012CDE90C12D0F80E
:1018000094B0002100EB8102126D44F82120491CA4
:101810000329F7D3002107AD00EB8102D26D45F813
:101820002120491C0329F7D300210EAE00EB8102D1
:10183000126F46F82120491C0329F7D30BA802F0A8
:101840001BFA1E980EF09DFD02F0CCF91190D0F815
:10185000008011A802F010FA4FEA284042420FFA25
:1018600088F041420CA803F067FF5FEA897003D556
:10187000BDF83200C01B01E0BDF83600ADF8320003
:101880001E980EF07EFD014603980222CDE9000766
:101890000292BDF93230BDF93020002009F0A3FEDC
:1018A00080465FEAC97009D04046189900E077E0A9
:1018B0000AF01CF9012140460AF060F8002708E010
:1018C00039460A9802F070FA0146404609F049FD8F
:1018D0007F1C5745F4D30027394654F8272040464B
:1018E0000AF071F87F1C032FF6D30024214655F827
:1018F000242040460AF07EF9641C032CF6D3002411
:10190000214656F8242040460AF0D5F8641C032CE2
:10191000F6D35FEA0B001FD002F064F9169030F89E
:10192000025B00240646012711E000BF06EBD4004D
:1019300004F00701007807FA01F1084201D0012202
:1019400000E00022214640460AF065F8641CAC42E3
:10195000ECDB16A802F090F9404614990AF089F8D9
:10196000404612990AF043F8404613990AF032F9BA
:1019700040460FF049FA40461E990AF08CF840465E
:1019800015990AF0CBF801211E980FF08EF81E98D9
:1019900002F028F90B90C0F888800BA802F06CF9CF
:1019A0001FB0BDE8F08F38B5002438B102F01AF945
:1019B0000090B0F93440684602F05EF9204638BD28
:1019C00010B50446FFF7EFFF411C2046BDE810406C
:1019D000AFF3008038B50C46050019D002F002F9CB
:1019E000009000F03BF800B1401E844200DD044648
:1019F0000098B0F93410A1420BD08486684602F0FA
:101A00003BF928460EF0BFFF042128460FF04DF8A1
:101A100038BD684602F030F938BDF8B5044602F02A
:101A2000E1F801460090B0F9380010B9C86C03F035
:101A3000F7F80099CA6AB1F98030126800EB4300E8
:101A4000161808460FF09DFC0546684602F014F98A
:101A50003246294620460FF086FAF8BDC06B02F0E8
:101A600097B938B50D46002402F0BCF80090C06B61
:101A7000294602F099F90546684602F0FDF81DB1C5
:101A8000284602F0AFF80446204638BD2DE9FC4751
:101A90000E465FEA000978D002F0A4F8009090F8B2
:101AA0005470D0F85880456BC46C684602F0E4F876
:101AB000B8F1000F04D0314648464246904761E0F5
:101AC000122E18D006DC082E43D0102E3CD0112E3A
:101AD00006D112E0132E21D01D2E43D01E2E3DD054
:101AE000202E4FDB17B1484611F01DFDB1B248461C
:101AF00016F0E4FC60B3611C27E04DB3284602F009
:101B000071F805462146019004F0A2F944192046D7
:101B100004F060F901462346012210E0C5B12846D1
:101B200002F060F805462146019004F091F944194D
:101B3000204604F04FF9014623464FF0FF32484655
:101B400010F0FDFF01A81BE0611E484600F084FA7A
:101B500018E0BCB1611E484600F07EFA484611F01C
:101B6000E2FC0FE0484602F03DF80090012F0ED055
:101B7000012180F854102146484600F06DFA68466D
:101B800002F07AF848460EF0FEFEBDE8FC87002120
:101B900080F85410F3E7FEB54468054620460FF080
:101BA00073FD0646294620460DF0E0FE002837D09A
:101BB00028680F2830D004DC0B2832D00E2853D1EF
:101BC0003AE0A0F58070133804D0A0F580702D386D
:101BD0004AD110E020460FF033F82046002118F0DB
:101BE0009AFA204601F0FEFF0190C06F00210FF02D
:101BF0000EF801A81DE0E86860B1017A29B101681A
:101C0000204600F0E3F8012100E0022120460EF01A
:101C10004CFF29E00321F9E70121204618F07BFA67
:101C2000FEBD204601F0DEFF0090343001F036FFAB
:101C3000684602F021F817E0B6B1E868416800296B
:101C400012DD01681B290FD006DC09290CD00A29F6
:101C50000AD00D2904D107E0212905D0222903D07B
:101C60002046FFF713FFFEBD28460EF0B9F9FEBD72
:101C7000F0B587B00DF1300E9EE8F0104FF0000E79
:101C80008DE8F05000F028F807B0F0BDF0B587B04F
:101C900004460DF1080CD4E90567B0F90850408AF4
:101CA0008CE8E1000020CDE90010B4F90C00B4F993
:101CB0001060C118B4F90A00B4F90E50104433464C
:101CC0002A4600F009F8050002D0618A00F087F981
:101CD00007B02846F0BD0000F0B585B00D46DDE93F
:101CE0000D640F9FDDE90AC141F48051DFF870E017
:101CF000CDE900C15837CDE902E729460EF0C2F818
:101D000005002AD001F06EFF1022314604900EF03B
:101D10000DF804981C2213496030FEF763FA049909
:101D2000012081F85500601C00D0012081F880005E
:101D3000002C00DC082424B20C870020488748636C
:101D400004A8641C01F098FF2146284616F063F8A9
:101D500018B928460EF078F9002505B02846F0BDE0
:101D6000971B0020D862022001488068704700005D
:101D7000D862022038B5002430B101F033FF009062
:101D8000846C684601F078FF204638BDF8B51546EA
:101D90000C4606000ED001F025FF009038B1022C51
:101DA00005D200EB8400456730460EF0ECFD684636
:101DB00001F062FFF8BD10B5040006D000F04CF948
:101DC0002046BDE810400EF0DEBD10BD2DE9F0410B
:101DD00086B00C46060050D001F004FF0090406B26
:101DE00098B301F0FFFE03900098806E03F05EFE52
:101DF000804630460EF013FB0746039802F0EBFED8
:101E00000546009890F8601001F00301012916D0F2
:101E100002290DD0416EC06A00680844241A641E6D
:101E2000039804F057FF0146002C0FDA002115E05B
:101E3000781B401C00EBD070A4EB6004F0E7406E10
:101E4000791B081A241A641CEAE713E0AC4205DC8B
:101E500002462146039804F0DDFE0146304600F0BC
:101E6000FBF803A801F008FF404603F01FFE3046D0
:101E70000EF089FD684601F0FFFE06B0BDE8F08176
:101E80002DE9F8431D46DDE9084916460F465FEA8D
:101E9000000840D001F0A6FE20490090816520494D
:101EA000C1650021C0E91271E0E90F6501210472EA
:101EB00080F81A90017690F84470684601F0DCFED4
:101EC00087B1284615F0ABF90546304615F0A7F95D
:101ED0000CB1401C6D1C854200DD28460146404681
:101EE00000F049F840461AF047F9404601F07AFE02
:101EF000009000F09CF80B490978884205D10098C1
:101F0000C16C4046491C00F0A7F8684601F0B4FED9
:101F100040460EF038FDBDE8F88300007D1F01202B
:101F200079C10120E4610220022803D2024A02EBB7
:101F30008000416170470000D8620220014988603A
:101F400070470000D862022000294FF0100101D034
:101F50000DF09CBD0DF0EEBC38B50D46040009D067
:101F600001F040FE0090856620460EF00CFD6846AC
:101F700001F082FE38BD7CB50C4606002ED001F083
:101F800031FE0090B0F93810458FA14223D012DD08
:101F9000406B80B101F026FE019004F09BFEA04250
:101FA00006DD2146019803F053FF019A00211154E8
:101FB00001A801F061FE684601F05EFE611B30463B
:101FC000491C15F028FF304601F00CFE00900487F4
:101FD00030460EF0D8FC684601F04EFE7CBD38B5A8
:101FE0000C4605000AD001F0FDFD009018B1046612
:101FF00028460EF0C8FC684601F03EFE38BDF8B534
:1020000015460C4606000ED001F0ECFD009038B1EC
:10201000022C05D200EB8400C56630460EF0B3FCFE
:10202000684601F029FEF8BD002219F030BD38B530
:102030000546406B002468B101F0D4FD00900446D1
:10204000E96C03F005FF204403F0C4FE0446684633
:1020500001F012FE204638BD1CB50C4601F0C2FD51
:102060000090406BF0B101F0BDFD019004F032FE34
:10207000009991F8542002B10122002C00DA0024CA
:10208000844200DD0446B1F93800801AA04200DA2B
:102090000446C86CA04200D0CC640020086501A8AA
:1020A00001F0EAFD684601F0E7FD1CBD30B50246CF
:1020B000002300240868012816D013686FF30E036C
:1020C000D1E901052843CD6828430D6928434D69AE
:1020D00028438D692843CD6928430D6A28434D6AFA
:1020E00028430343136019E013686FF30E03D1E92B
:1020F000070528434D6A2843034354686FF30E04D1
:10210000D1E901052843CD6828430D6928434D696D
:1021100028438D692843044313605460002030BD78
:102120000246506940EA4100506100207047F8B50E
:1021300006460C461546002000900027D4E9000111
:102140000843A168491E40EA4110E16840EA412085
:1021500000900098306105F0B5FA074609E0681C68
:1021600007D025B105F0AEFAC01BA84201D9032063
:10217000F8BDB06910F0200FF1D10020F8E770B57C
:102180000346154600220024012D1FD09A6802F054
:1021900070420868401E4E68761E40EA061688683F
:1021A000401E46EA0026C868401E46EA0036088AF5
:1021B000401E46EA0046888A401E46EA0056087ECF
:1021C000401E46EA006002439A6022E0DA6802F0AC
:1021D00070420868401E4E68761E40EA06168868FF
:1021E000401E46EA0026088A401E46EA0046087E4F
:1021F000401E46EA006002439C6804F07044C868D0
:10220000401E0603888A401E46EA00500443DA60F6
:102210009C60002070BD2DE9F04389B098461546BA
:102220000F4606004FF0000428D000F0A3FB044640
:10223000304600F08BFB814603A9304600F0F8FCE5
:10224000F80706D0BDF91C008221001B401B401C72
:1022500008E0B807BDF91800284402D540F2022171
:1022600000E002210096CDE9018123461A46494645
:10227000FEF7CAF804460021FEF754FA09B02046DA
:10228000BDE8F08310B50523FFF7C5FF0446054AF6
:102290000021FEF758FA044920460EF005FD2046BD
:1022A00010BD0000BD36012019D9012010B508234A
:1022B000FFF7B1FF0446054A0021FEF744FA04493E
:1022C00020460EF0F1FC204610BD00000938012028
:1022D00061DB01202DE9F047044640688EB00027FD
:1022E000804601F07FFC0090B0F87CA0D0F86890A8
:1022F000D0F88060D0F88850C06D00B1076868469B
:1023000001F0BAFC05E0696820468847002843D1FF
:102310002D68002DF7D12068172853D00CDC0F282A
:102320003DD004DC0B2877D00D2825D18BE0112877
:1023300010D0142820D13BE0262846D004DC1E28EB
:1023400051D0202818D18AE02A2816D0B0F5107F65
:1023500012D128E04046E56801F044FC0290697A19
:1023600039B9297A012904D130F87C1F41F48071F0
:10237000018002A801F080FC75E0404601F032FCCB
:102380000090E16811B1C0F8841002E0D0F8840038
:10239000E060684601F070FC0EB0BDE8F087D7B38E
:1023A0004046B8475FE02146404617F0D5FBF3E7CB
:1023B00005A9404600F03CFCE068069901600799D9
:1023C0004160E9E7C4F80C90E6E7E0680228E3D151
:1023D000CDF83080E0680D9027200A900AA9A06807
:1023E0000FF062FBD8E7E068012804D000214046E6
:1023F00000F046FBD0E730460EF01AFB68B13046DD
:102400000EF002FD30460EF0F5F998B1012130468C
:102410000DF03CFB0EE026E02FE048460EF042FDBA
:102420000646404601F0DEFB0090C0F8806068463A
:1024300001F022FC0121404600F022FB002EABD12E
:102440000020E060A8E75FEA0A700CD4E068C0688A
:1024500048B1007A38B140460EF0D6FC03E0214680
:10246000404616F0C8FD214640460DF07FFA002890
:1024700092D020460DF0B4FD8EE7404601F0B2FB4D
:102480000090703001F00AFB684673E7F0B587B042
:10249000B0F908400DF10C0C0C9E876945688CE87A
:1024A000F000448A0025CDE900150294B0F90C1023
:1024B000B0F91050B0F90E40B0F90A0019441044B8
:1024C0002B46224600F002F807B0F0BD2DE9F04798
:1024D0008AB00DF14C0CDDE917849CE86006129F70
:1024E00045F48055DFF8BCC06034CDE902C4CDE9C5
:1024F00000750DF0C7FC04004FD001F073FB3022D3
:10250000494604900DF012FC0498282226493430E4
:10251000FDF768FE0498244FC0F86480A0F87C6042
:102520000026C0F88060C666083FC0F888607968F9
:10253000C16504A801F0A0FB05A9204600F078FBC6
:102540001A4841F2827103960094CDE90110BDF959
:102550001E00BDF91A10BDF91C20431ABDF9180060
:102560005B1C121A521C0DF08DFC064678684168FF
:1025700020468847204601F035FB0490866604A873
:1025800001F07AFB42F20400054202D120460DF030
:10259000CDFD5146204600F0F0FA0AB02046BDE8D5
:1025A000F0870000D5220020FC620220392F002095
:1025B0002DE9F041044694B0006800F0B7F908B185
:1025C000D94D01E0D84D2C35606815281ED00CDCA3
:1025D0000B281FD004DC00287ED005287DD12FE1F8
:1025E0000E287BD01228F9D141E1162806D01728F1
:1025F00008D0182808D01C28F0D109E0E86914B0E8
:10260000BDE8F081286AFAE7686AF8E7A86AF6E7A1
:102610006869F4E720680B901C200C90206801F09A
:10262000E1FA0390016D0BA88847064603A801F064
:1026300023FB022E0FDB95E807008DE80700D4E9A5
:1026400004023346A16904F023F920698719A069BF
:10265000A0EB06082CE0286803F01EFA2169E8695F
:102660000A18521E606902F0C9F8A269E869111AD5
:10267000491C606902F0C2F8D4E904077F1C39469E
:1026800002F0FEF83946A06902F0FAF8686803F033
:1026900003FA20693946401C02F0F2F8A069394675
:1026A000401E02F0EDF8A0692769A0F10208BF1CE6
:1026B000286803F0F1F942463946606902F09EF855
:1026C000686803F0E9F9606942463946401C02F047
:1026D00095F8686A022802E015E1B0E000E10BDD40
:1026E000A86803F0D9F961696A6A881C8B180146E9
:1026F000424638465B1E27E0296AB14226DD606902
:10270000022E074600F1020801DB374401E007F121
:102710000207206901DB304401E000F10200226978
:102720003B460A444146A2F1010202F073F9022E2F
:1027300002DBA069821B01E0A269921EA069E9691F
:102740003B46401A4146401C02F064F9022E02DB6F
:102750006069064401E06669B61CE76928687F1E67
:1027600003F09AF93A463146206902F003F93A46F5
:102770003146A06902F0FEF8E7696868BF1E03F001
:102780008BF920693A463146401C02F0F3F8A06903
:102790003A463146401E02F0EDF8E869022802DCB4
:1027A000286A022823DDA86A022802DDE1690F1ADF
:1027B00001E0E769BF1EA86803F06EF9E969022924
:1027C00009DD20693B46421800F1020C31466046A3
:1027D000521E02F01FF9286A022808DDA269E86982
:1027E0003B46101A3146401C921E02F013F928682D
:1027F00003F052F9D4E90620216901F0FFFF68686F
:1028000003F04AF9D4E906202169401E491C521EF2
:1028100001F0F4FFA86A022811DDA1692669E469C4
:10282000A1F10208271AA41EB61C7F1CA86803F099
:1028300033F9234642463946304602F0EBF871E060
:10284000208A00B2ADF81400A18A09B2ADF81610C2
:10285000228B12B2ADF81820A38B1BB2ADF81A3040
:102860002C69ED68CDE9005401F094FF5AE0208A0C
:10287000298B0844ADF81400A08AADF81600208B0F
:10288000298B401AADF81800A08BADF81A0020680B
:1028900001F0A8F90390006FF0B1022003F064F991
:1028A000039890F87C10C1F3C00100EB8100006C2C
:1028B00003F0F2F80398406B03F0F8F80398006F08
:1028C00001F090F903990990B1F95A2005A901F096
:1028D00005FE09A801F0D0F903A801F0CDF921E027
:1028E000208AADF81400A08AADF81600208BADF850
:1028F0001800A08BADF81A00A86803F0CDF805A861
:1029000002F0ACF80EE0206801F06CF9039030F8AA
:102910005A1F41F00C01018003A801F0ADF92068B5
:102920000EF0E8FA00206AE6E866022038B50024D6
:1029300050B101F057F9009090F87C00000700D5E5
:102940000124684601F098F9204638BD38B50500E5
:102950004FF000040CD001F045F90090C06D00214B
:1029600080680268284690470446684601F084F96A
:10297000204638BD30B587B005004FF000040ED0BA
:1029800001A900F055F9284601F02CF90090B0F9A2
:102990005440684601F070F90CB9BDF9044007B025
:1029A000204630BD8C230EF0D3BC002801D016F099
:1029B00064B9704730B504468BB0006801F012F975
:1029C000009090F87C10246A006FC1F3C00508B134
:1029D00001F008F90690E068029020690390A08851
:1029E000401EADF81000E089ADF812002089401CAF
:1029F000ADF81400608AADF81600BDF80800401C60
:102A0000ADF80800BDF80A00401CADF80A00BDF89A
:102A10000C00401EADF80C000098406B03F046F827
:102A2000009808AA02A9B0F95A30069803F06CFB86
:102A3000009800EB8500806B08F064F8009800EBCC
:102A40008500006C08F096F808AB02AA04A9069865
:102A50000DF0A6F8684601F00FF9069810B106A827
:102A600001F00AF90BB0002030BD10B5040006D00B
:102A700018F018FA2046BDE8104018F0E7B910BD6C
:102A8000002801D018F086BA704738B50C460028E7
:102A90000CD001F0A7F80090816CA14203D08464AF
:102AA000806E0DF070FF684601F0E6F838BD00005A
:102AB000024901480860704728070220F862022096
:102AC000022803D2024A02EB8000C1607047000076
:102AD000FC6202202DE9FC410D46070028D001F0E0
:102AE00081F80190C16D8C6800F009F98046019869
:102AF000456301A801F0C0F82268012138469047DB
:102B00000646226803213846904705462268002180
:102B1000384690470446384600F0D7F92B463246EF
:102B200041463846009400F060F938460DF02BFF1E
:102B3000BDE8FC8138B50C4600280ED001F052F8F3
:102B4000009030F87C1F14B141F0100101E021F039
:102B500010010180684601F08FF838BD38B50D4688
:102B6000040009D001F03EF800900566684601F0C7
:102B700083F820460DF007FF38BD7CB50D460400F4
:102B800019D001F02FF80090006F0190684601F015
:102B900073F8294601A804F01FFA00280BD020463C
:102BA00001F020F8009001990167684601F064F88F
:102BB00020460DF0E8FE7CBD2DE9FC470D465FEA9E
:102BC00000094FF000042DD001F00CF80190B0F98D
:102BD0005440A54223D000F092F88046019801218C
:102BE000A0F85450C06D856848462A68904707464B
:102BF0002A6803214846904706462A68002148462D
:102C000090470546484600F060F933463A4641464B
:102C10004846009500F0E9F848460DF0B4FE01A8DA
:102C200001F02AF82046BDE8FC878C230EF0C4BFD3
:102C30002DE9F34F85B000270C46B846059800F003
:102C4000D1FF0090C06D0121856805982A689047E2
:102C500082462A6803210598904704902A68022139
:102C60000598904703902A680021059890470646EA
:102C700000980EF086FB834600980EF089FB814693
:102C8000009890F83210890601D5B0F9588000F00C
:102C900036F805460098C06E10B10DF0D1FB07461E
:102CA00025806780A4F804A0049AABEB020006EB31
:102CB0000802401E2A4420813A44E280039BA9EB8B
:102CC0000302521E6281A4F80CA020827019E681D2
:102CD000401E6082684600F0CFFFB4F90C000190FE
:102CE000B4F91000029002AA01A9059800F03AF880
:102CF0000198A0810298208207B0BDE8F08F10B53E
:102D00000146002091F83220920607D5B1F954000F
:102D1000002803D1486B01F088FF801C10BD70B5FE
:102D20008AB00C46054600F05DFF0990C06D8668CC
:102D300009A800F0A1FF009534B1012C06D0022CA7
:102D40000BD0032C04D10AE0182000E016200190DB
:102D50007168684688470AB070BD1520F7E71720EC
:102D6000F5E700002DE9FC4117468846044600F0CF
:102D700039FF0090C16D056868468E6800F07CFFE1
:102D80003268002120469047064620460DF05AFA48
:102D900027E000BF00F026FF0190B0F900102AB232
:102DA000B0F90430891A9A1AB0F90230A3EB25431E
:102DB000B34210D190F82800000605D53868884243
:102DC00009DB491E396006E0D8F80000904202DCB9
:102DD000521CC8F8002001A800F04EFF20460DF05C
:102DE000C9FA0400D6D1BDE8FC812DE9FF4F83B0BC
:102DF0000E460746DDF8409000F0F4FE0190C16DEC
:102E00008D68FFF77CFF044601A800F035FF2A68B3
:102E100001213846904783462A6803213846904767
:102E200082462A680021384690470546B44207D1B9
:102E300005998B4504D106998A4501D14D4541D06C
:102E4000A41B0026B04638460DF0FCF938E000F02F
:102E5000C9FE0090806A010601D5800502E0810567
:102E600028D50006002825DB24B122461146384625
:102E70000DF057FE009890F8280000060AD5069835
:102E8000A5EB0902A0EB0A0004FB16013846761CEC
:102E90000DF009FE0098008D80050BD50599A5EB76
:102EA0000902ABEB010004FB080108F101083846F8
:102EB0000DF0F9FD684600F0DFFE38460DF05AFAD5
:102EC0000700C4D107B0BDE8F08F70B586B00646E4
:102ED00000F088FE0590D0E91A4505A800F0CCFE68
:102EE00054EA050026D069463046FFF7A1FEACB192
:102EF000BDF90620BDF9041020460DF0A9FDBDF96D
:102F00000A00BDF90610421ABDF90800BDF9041007
:102F1000521C411A2046491C0EF025F8002D09D0FC
:102F2000BDF90600BDF90210421ABDF90410284689
:102F30000DF08EFD06B070BD2DE9F04304464068EB
:102F400089B005460DF01DFA814600F04BFE029057
:102F5000D0F84880D0F88070466E02A800F08CFE51
:102F60002068172853D008DC0E283AD00F2811D03B
:102F700014284CD015283DD149E01E281ED01F280A
:102F80002AD0222840D0312834D10020E06009B076
:102F9000BDE8F0836FF070414046884503D007F0EC
:102FA000B1FD01F07DF8002EF1D0D4E902122068C5
:102FB000CDE90405CDE9061204A81FE0E068002869
:102FC000E5D02FB1AF4203D038460DF01DFFDEE74C
:102FD00028460DF067FFDAE7214648460CF0C6FCAC
:102FE000D5E7E0684168002904DD00680928EFD0D2
:102FF0000A2805D05EB12046C4F80490B047C6E761
:1030000028460DF057FFC2E7C4F80C80BFE7204602
:103010000CF0E6FFBBE7000010B504460A280FD00D
:103020000D2C11D009480068C06901682046884706
:1030300007480168002907D02046BDE8104008472E
:10304000BDE8104001F0B4B910BD0000F0610220ED
:103050001C6202202DE9F0430446C56887B0904603
:103060008946002002F020FD064625B1287910B1DE
:1030700046F0020001E026F0020002F015FD206992
:10308000012558B1D4E902128DE826000395638822
:103090002288046841464846A0471EE0124F134B61
:1030A000214638681B68427CE068984730B9E08860
:1030B000012801D0002001E03868806BA288E388F5
:1030C000A1680095CDE90410CDE90232019563882D
:1030D00022884146484606F081FF07B03046BDE8E9
:1030E000F04302F0E1BC0000F0610220E861022040
:1030F0001CB50024019401AC009400F0E7F81CBD5D
:103100002DE9FF4F83B0814606988A46A0EB0A0856
:10311000109E00200090A2EB09043568934654EA03
:10312000080018D02046FDF7FDF807464046FDF799
:10313000F9F887420BDA2046444680464846D14695
:1031400082465846DDF818B0069001200090002C09
:1031500007DD204606E007B04846BDE8F04F00F026
:103160003BB96042A0420AD04846D9466442C8F101
:10317000000883464FF0FF37DDF818A000E0012774
:103180005148B8F1000F11D004EBD4714FEA610B34
:1031900001DACBF1000B4C480068807E88B3002F29
:1031A00002DA30682044306000257BE00099002975
:1031B000016821D0897E11B10027804615E007B053
:1031C0005A4649465046BDE8F04F07F0FBB828463E
:1031D0006D1C17F0FBFF38B9D8F8000009EB0701A8
:1031E000406E4268504690477F1CA742EFDD6D1E3F
:1031F000356007B0BDE8F08F8A7E1AB1002780469F
:1032000017E019E0486E5A465146036807B0484631
:10321000BDE8F04F184728466D1C17F0D7FF38B9A6
:10322000D8F8001009EB0700496E4A6851469047EC
:103230007F1CA742EFDDDAE700250FE008FB05B0B1
:1032400090FBF4F101EB0A00009951B11E4A09EB21
:1032500005011268526E526890476D1CA542EDDD63
:10326000C7E7194909EB05030968496E4A68014631
:103270001846F1E708FB05B090FBF4F101EB0A00FA
:10328000019030683844306017F0A0FF48B90098CA
:1032900090B10D4809EB05010068406E4268019845
:1032A00090476D1CA542E5DD3068002F01DA20440F
:1032B0003060C01B30609CE7034909EB05000968DA
:1032C000496E4A680199EBE7F06102202DE9FF475A
:1032D0000F4640491646804609680C981D460A7EEE
:1032E000012A1CD0A8EB0600791B50EA01031CD070
:1032F000A2F1010919F0E8FC00F58060824603F0B4
:103300003CFF00FB09F4504603F03CFF00FB09F1D1
:10331000002C0CDAC4F50070801240420AE00090E4
:10332000324639464046FFF7EBFEBDE8FF8704F51D
:103330000074A012002904DAC1F5007189124C4210
:1033400002E001F500718C12002804DD411C01EB44
:10335000D171491003E000EBD0714910401E00EB21
:10336000D0704210002C04DD601C00EBD0704010C7
:1033700003E004EBD4704010641E04EBD47308EB3C
:103380000104ADF800403C18ADF80240A8EB02047F
:103390005B10B21AADF80440ADF808203144FC1AB5
:1033A000EA1AADF80C102844ADF80A20ADF80E006A
:1033B0000023ADF806401A460421684600F07AF86A
:1033C0003946404612F086FA2946304612F082FA13
:1033D000ABE70000F0610220064A13681A7E012A5A
:1033E00005D0521E02EBD272521000F005B85A6E90
:1033F00052681047F06102202DE9F05F06468846CA
:1034000040F2C32002FB00F14FF47A7091FBF0F719
:1034100002FB02F102EBD27001EB600B1446B11813
:10342000234A301B7F1C1268526E13680A464146BD
:103430009847012538E000BF05FB05F004FB0401B7
:1034400059451CDDBC4219DD194B06EB050AA6EBFC
:1034500005091B68AAF1010208EB04015B6E09F182
:1034600001001B689847124BAAF10102A8EB040166
:103470001B6809F101005B6E1B689847641E0C4BCA
:103480003219301B1B68924608EB05015B6E8146C2
:103490001B689847064B5246A8EB05011B68484637
:1034A0005B6E1B6898476D1CBD42C5DDBDE8F09F93
:1034B000F06102202DE9FF4F43F6FF740F4666428C
:1034C00083B09B46814600210BE000BF09EB8100E1
:1034D000B0F90200A04200DA0446B04200DD064620
:1034E000491CB942F2DB67480068406900280DD0EA
:1034F000B0F906101A46A1EB0B01B14200DA0E46F4
:10350000B0F90200801AA04200DD0446B4E0DFF802
:1035100078A100200546CAF8000088E0781E8542A0
:1035200001DA6B1C00E0002309EB850C09EB830238
:10353000BCF90200B2F90210A04244D1A14215D157
:1035400039F92330059A39F9251003EB020C4D4A5D
:1035500005981268084404EB0B01526E604513682D
:1035600001DA62462AE00246604627E02846A44681
:103570004FF000087A1E0BE008B1401E00E0781EF4
:1035800009EB8003B3F90230634504D108F1010867
:103590009045F1DB2346A34248D01A1B39F9250098
:1035A000A1EB040C059B92EA0C0F09D4354A184490
:1035B00004EB0B011268526E13680246984735E01F
:1035C0000EF006FC32E0A14230D001DBA04203DD68
:1035D000A0422BDBA14229DCE04688420ADC0346FC
:1035E000A04223DC0846A14220DBB8F900C0B2F9B2
:1035F000001008E00B46A14218DCA04216DBB2F92D
:1036000000C0B8F90010E21AA1EB0C0151430029E7
:10361000A0EB030202DD01EB620102E0A1EB62011B
:10362000491CC01A91FBF0F06044C9E76D1CBD4213
:10363000FFF674AF0598009004EB0B00019000209A
:103640008046054613E01149B8F1000F31F915A085
:1036500009D0009901EB0A0208440A490968496E39
:103660000B680199984788F0010850466D1C06497F
:1036700009688D42E7DB641CB4427FF748AF07B0AE
:10368000BDE8F08FF0610220686802208CCE022035
:1036900010B5002002F0FEF96FF07F4002F0FCF957
:1036A000012002F04FFA002002F054FA002002F04C
:1036B0005BFA002002F0F8F90448006802F0F6F91D
:1036C000BDE81040002002F019BA0000EC610220B1
:1036D000014AC2E9000170479C610220014AC2E927
:1036E00000017047A4610220014AC2E9000170474D
:1036F00078620220014AC2E900017047AC610220F1
:10370000014AC2E900017047806202202DE9F04FB2
:10371000DFF828B191B04FF0FF35DBF80030B3F996
:1037200022100691DE69B3F92490F469A1898142DF
:1037300006D8E289824203D3471AD4F8008012E007
:10374000D4E9018100296FD00A8882426CD84D8863
:10375000854269D3801A82B2486800EB8200B0F9D2
:103760000070B0F90250781C5ED0307EA17C10FB56
:1037700001FA217CCDE90701B3F92A60304607F050
:1037800021FAC0B20E90DBF8000007FB0A81A37C8F
:10379000826B0127CDE90412CDE90273C069089A52
:1037A000C17E807ECDE90001DDE90603494606F0D1
:1037B00015FC681C18D046F0020007F003FADBF88D
:1037C0000000A37C05FB0A81826BCDE90273CDE981
:1037D0000412C069089AC17E807ECDE90001DDE94E
:1037E0000603494606F0FAFBDBF800005D46C069B7
:1037F000417E007E814214D9022E12D086F0040050
:1038000007F0E0F92868C069027EC37E12FB0391CD
:10381000437E857E089A06984B4412FB050206F00B
:10382000FBFD0E9807F0CEF9DBF80000627C418CBE
:103830001144418411B0BDE8F08F0000F061022016
:1038400004480068C069C06909B1027C0A60407C14
:1038500070470000F0610220022008807047C069B4
:1038600082898A4202D8C2898A4210D2806880B195
:1038700002888A420DD843888B420AD3406800EB05
:103880008100A0EB8200B0F90000002801DB0120DC
:1038900070470020704700002DE9F043304C03468C
:1038A00087B020681946B0F92A60C069C06900F085
:1038B00086F8002850D041680088181A01EBC0052E
:1038C0003046AF7807F07EF9814620686A680123A8
:1038D000816BCDE90237CDE90421C169CB7E8A7EB7
:1038E000CDE900230B7EB0F924102A78B0F922002C
:1038F00006F074FB2068C069417E027E91421FD9A8
:10390000C07E11FB00F812FB00F7022E18D001F068
:1039100026F9064601F006F902F0BEF821682A7879
:10392000CB69B1F92200DB7E12FB0302B1F924104E
:1039300001EB0803394406F06FFD304602F0ACF8A5
:10394000484607F03FF920686A78C369B0F9221049
:103950009B7E12FB0311418407B0BDE8F083000099
:10396000F061022030B50F4C05460B462068294611
:10397000C069C06900F023F8002812D041680088AF
:1039800024682A1A0120E46900EBC200085CA47EC6
:1039900010FB04F0002B04D011F8321011FB04F1DD
:1039A000196030BDF061022001200880704700B529
:1039B000C06900F004F8002800D0012000BD06E036
:1039C00002888A4202D842888A4202D2806800284D
:1039D000F6D17047F8B505460C000DD0084600F04A
:1039E00015F8060010D000F0FDF8224600902DB129
:1039F0002946FCF7F7FB04E00020F8BD002103F0A6
:103A00005CFB684600F038F93046F8BD002801D06C
:103A10000EF0B6BB704738B50546FFF7F7FF040058
:103A200009D000F0DFF82A460021009003F045FBA2
:103A3000684600F021F9204638BD0000024A1060B7
:103A400021F0030050607047D0CC022010B5002850
:103A500014D004460A48406B10F8341000290DD0E9
:103A600002290BD2042101EBC401415848680EF031
:103A7000CBF92046BDE8104017F0A0B810BD0000FB
:103A800010CC0220002805D0034AD16B016001B19F
:103A90004860D0637047000010CC022010B5044687
:103AA0000068FFF7D3FF0020206010BD70B50D4601
:103AB0000646002405E000BF06EB8400FFF7EEFF9A
:103AC000641CAC42F8DB70BD2DE9F041044614F0F3
:103AD00083FC2848E41C24F00305016C2D1DA94239
:103AE00000D90D46C46B13E054F8042CAA420ED141
:103AF00084B1216809B162684A60616809B12268CD
:103B00000A60C26BA24231D12168C1632EE02468F1
:103B1000002CE9D18046816BC0680F1857F8040C5F
:103B20003E1A306838B1002017F040F957F8040CFD
:103B30003E1A3068D0B97068A84217DB3044441B85
:103B40003046241D17F0EAF8D8F80C10491BC8F8C5
:103B50000C10D8F814102944C8F814107068401BD1
:103B600002D031460EF050F944F8045C2046BDE81E
:103B7000F081000010CC022010B5002414F02CFCC1
:103B80000C490F2001EBC002526C1AB101EBC000CE
:103B9000406C08E0401EF5D508E04168A14200D91C
:103BA0000C46806810B180680028F6D1A4F10C00A2
:103BB00010BD000010CC02200248C1680068081A3D
:103BC0007047000010CC0220002138B104490422C3
:103BD00002EBC000496B085841680C390846704731
:103BE00010CC02200549CA69521CCA61496B01EB1D
:103BF000C0010A78521C0A7000F056B810CC02209E
:103C00007CB506460C460846FFF700FF05001CD0B1
:103C1000DEB13046FFF7D8FFA04200DA044628465E
:103C2000FFF7E0FF00903046FFF7DCFF0146019010
:103C300022460098FCF7D6FA684600F01DF801A865
:103C400000F01AF83046FFF701FF28467CBD00005F
:103C500010B5FFF791FF64220649B0F5800F04D933
:103C600090FBF2F0096A484310BD096A4143B1FB79
:103C7000F2F010BD10CC02200A4902684B6B52F8DA
:103C8000082C03EBC2021378022B03D3CB690BB1D0
:103C90005B1ECB611178491E11700021016008463E
:103CA0007047000010CC0220002806D003490422EF
:103CB00002EBC000496B08580830704710CC022056
:103CC0002DE9FC414FF000060B465FEA0008344640
:103CD0002BD032B111461846FFF77CFE060000D10A
:103CE00001244046FFF77EFF00900788456868463C
:103CF000FFF7C2FFCCB9B9002846091DFFF780FFC6
:103D0000050015D0FFF76EFF019040F8276001A86D
:103D1000FFF7B2FF4046FFF765FF0090456001885E
:103D2000491C01806846FFF7A7FF2046BDE8FC81DB
:103D30003046FFF78BFE0124F7E70820FFF76BBE44
:103D40007CB5050023D0FFF74DFF00904068C0B15F
:103D5000FFF748FF0024019005E0019800EB840084
:103D6000FFF79CFE641C00980088A042F5DC01A8C7
:103D7000FFF782FF0098001DFFF790FE00990020DA
:103D800008806846FFF778FF2846FFF75FFE7CBD96
:103D900038B5002430B1FFF725FF0090048868464D
:103DA000FFF76AFF204638BD38B50D46002448B1FC
:103DB000FFF718FF2946009000F016F80446684601
:103DC000FFF75AFF204638BD38B50D46002448B1EC
:103DD000FFF708FF2946009000F018F804466846EF
:103DE000FFF74AFF204638BD38B50D46018800244C
:103DF000A94209D9406838B1FFF7F4FE009050F8A5
:103E000025406846FFF738FF204638BD10B500242E
:103E1000FFF7EAFF10B1FFF7E5FE0446204610BDAC
:103E200070B50C46054600F081FFC1B22346284616
:103E3000BDE87040002200F001B80000F0B52D2769
:103E40001C68B0F1004F08D0002600280DDA651C70
:103E50001D6027704042012408E0651C01261D609A
:103E60006FF000402770491E01E00024091BC9B211
:103E70002AB3491EC9B222E00C46491EC9B2944277
:103E800005D1124C27781C68651C1D602770104CEA
:103E900054F8215090FBF5F4E4B20A2C11D804FB3D
:103EA000150011B90EB1641CE4B20A2C02D1012430
:103EB000491CC9B21D686F1C30341F602C7000296A
:103EC000DAD1196800200870F0BD0000E46102201A
:103ED000C00A022010B5002807DD0A682B24531CF5
:103EE0000B601470096800220A7010BD2DE9FC5F98
:103EF00004468946084600F039FE2B4E09EB890737
:103F0000824656F82700019028484FF001080168C2
:103F100041B92649C0F80080091D254808600846B7
:103F200003F052F8204A09EB89015FEA0A0002EB2C
:103F300081051BD001F060FD83464FF07F4001F00A
:103F4000A9FD00F0ADF800221146206800F076FBD4
:103F5000206842880188504601F0CCFD46F8274091
:103F600085F80580584601F047FD17E046F82740E0
:103F700085F805802869464618B101F093FC0020B9
:103F8000286174B10096E868A1684B46421AA86897
:103F90006168411A206801F0C7FC2861484617F0A3
:103FA000CFFD0198BDE8FC9F4CCD02203462022079
:103FB000DD90012070B506460D461446104600F00F
:103FC000D5FD0300164804EB84010AD050F8210007
:103FD00041688068711A2A1ABDE87040184601F0DD
:103FE00087BD00EB8104A268B24201D0012200E04B
:103FF0000022E368AB4201D0012300E000231A4312
:104000000CD0236943B150F82100816840686A1AD6
:10401000311A184601F064FCC4E9026570BD000065
:104020004CCD022002480068407C00F003B800003C
:10403000F061022030B4094900EB800201EB8204F8
:104040000123637151F8221011B130BC17F078BD13
:10405000014630BC0248FFF749BF00004CCD0220AA
:10406000FC0A022010B5C2B2CBB2D21A00D552421D
:1040700093B25B43C0F30722C1F30724121B00D5A0
:104080005242000C92B2A0EB114002FB023200B28D
:10409000002801DA404200B280B200FB002010BDCF
:1040A00010B50021084600F0D5FD43F6FF725042DE
:1040B000BDE8104013460146AFF300802DE9FC41F6
:1040C00007461C4615460E46042006F07BFD80463A
:1040D0001148C068C16C006D0F4406440D4404448F
:1040E000ADF80070ADF80450ADF80260ADF80640D0
:1040F00068460DF055F907E023462A463146384612
:1041000006F08AF90DF0E6F80028F5D1404606F0F1
:1041100059FDBDE8FC810000E4610220B0F90630E1
:10412000B0F90420B0F90210B0F90000FFF7C6BFE3
:104130002DE9F8431C00DDE9089816460F460546B0
:1041400002D10CF061F8044600962E6843464A46B8
:1041500021462846B047060035D00CF049F8814684
:10416000698A30460BF092FC30460CF076FF4846E8
:104170000CF073FF4FF000080CE000BFCDF800809A
:1041800055F81CCF00231A4649462846E047E0B1BF
:104190000CF063FF7F1E002FF0DC1D2148460CF061
:1041A00072FD601C0ED00CF05FF830B1FFF77CFDA3
:1041B0008469B44201D02000F8D1B44202D0304624
:1041C0000CF070FE3046BDE8F88330460BF03CFF43
:1041D0000020F8E72DE9F0411C4616460D4607463B
:1041E000022B02DB0020BDE8F0811C20FFF76CFCF5
:1041F0000028F8D00DB105610AE0094A52F82410F0
:1042000009B905E011460A68002AFBD10969016174
:1042100084618682002101604160C0E90217E2E703
:104220000862022070B51D46FFF7D4FF040009D0D4
:1042300000F00EF8E068006820B90348006800EB61
:1042400085008465204670BDF0610220FFF71ABC2E
:1042500070B590B38269022A30DA1E4C54F82210ED
:1042600019B944F8220032E019464B68002BFBD103
:1042700006E0CB68C5681B682D68AB4203DD0968A2
:104280000029F6D11AE0C1B1CB68C6681B68366850
:10429000B3420CD1838A012B05D008E01946DB68B4
:1042A0001B68AB4203DB0B68002BF7D129B14B68CD
:1042B00033B118604A68426004E0FFE7012070BD36
:1042C00044F822004860884200D1002101600020AB
:1042D00070BD00000862022017F036BF022801DB23
:1042E00000207047054A52F8200004E0C2681268B6
:1042F0008A42F6D000680028F8D170470862022090
:10430000022801DB00207047054951F8200004E035
:10431000C16809680029F6D000680028F8D1704704
:1043200008620220F8B5074615460E460C20FFF736
:1043300072FB04000AD0FFF755FC05490090C0E964
:104340000017068145816846FFF796FC2046F8BDB8
:104350009C2002202DE9F8431D461646884604009D
:104360000CD0FFF73FFC0090006807686846FFF735
:1043700083FC2B46324641462046B847BDE8F883C9
:1043800070B5044601F09CFE051908E000F020FB22
:10439000052C01DD052000E0204601F083FE01F040
:1043A0008FFE2C1A002CF1DC70BDFCF799BC0000CC
:1043B00000B500F0F9FB044909688A8C1044888430
:1043C000088C488400BD0000F06102202DE9FC4704
:1043D00006005BD000F0E8FB3B4C81462068B0F95A
:1043E000228000F005FC216807468A8CD01B888457
:1043F00041E000BF47F6FF71304602F04FFC8246B5
:104400000146304602F020FC2168054691F82C0058
:1044100000F0030001283FD0022839D000204A8C48
:10442000101A4884ADF800006A1E1044ADF804006C
:10443000888CADF80200A9F101010844ADF806002E
:104440006A465146304602F033F82168BDF8020052
:1044500088845146304601F0FBFC064430780A2837
:104460001CD00D281AD0BDF80000216828444884CB
:10447000307818B1761C30780028BBD12068818C48
:1044800039448184818D21F003018185BDE8FC8759
:1044900005EBD5704010C2E72846C0E7206890F8C9
:1044A0002C1001F0030101290BD0022909D0018C45
:1044B000418431780A29DBD1828C02EB09018184A5
:1044C000D6E7A0F82280F4E7F0610220024B1B68D7
:1044D00059849A84FFF77ABFF061022047F6FF7390
:1044E000AFF300802DE9FC411F46904606000D46C3
:1044F0004FF0000416D065B108460CF053FD0400DF
:1045000007D002462946684602F035FC68460CF0A2
:1045100049FD3B4642462946304602F021F82046F6
:104520000CF040FDBDE8FC812DE9FF4F87B09046BF
:104530008946070079D00C68D9F8045021B228B216
:10454000401A401C029000F02FFB064618F00C0F9A
:104550001ED038460A9A029901F083FD08F00C013A
:10456000042904D0082902D00C2911D104E029140F
:1045700000FB1610401C09E02114C1EB254200FB92
:104580001620401C00EBD07001EB600060F31F446C
:1045900048460CF007FD5FEA000B09D00246494689
:1045A00004A8CDE9044502F0E6FB04A80CF0FAFCEF
:1045B000A6F1010A38460A9A029902F04DFD0390CD
:1045C0000AEB244060F31F45CDE9004538460399C6
:1045D00002F03AFB18F003010ED0012928D002297D
:1045E0000ED1B9F90420B9F90010521A101A00EBD3
:1045F000D07001EB600001E0B9F80000ADF80000F8
:104600006A463846039901F053FF38460A9A0299E0
:1046100002F018FD074406EB244060F31F4438788D
:104620000028C7D158460CF0BDFC0BB0BDE8F08F98
:10463000B9F80410081A401CE0E700007CB50646F3
:1046400010480068C36C006D5D1884183188681EBE
:104650000844ADF80400ADF800507188601E0844AD
:10466000ADF80600ADF8024068460CF099FE06E091
:10467000224629463046FEF7EDFC0CF02BFE0028C2
:10468000F6D17CBDF06102201CB50A4601466846A1
:1046900002F08DFC2448BDF80010006830F84C2F63
:1046A0001144ADF80010BDF8021082881144ADF835
:1046B0000210BDF8041002881144ADF80410BDF8D2
:1046C000061080880844ADF8060068460CF068FEC5
:1046D00027E000BFBDF900400BE000BFBDF90210AC
:1046E000204605F03BFEBDF90610204605F036FEDB
:1046F000A41CBDF90400A042F0DABDF902400AE0B2
:10470000BDF90000214605F029FEBDF9040021464F
:1047100005F024FEA41CBDF90600A042F0DA0CF05E
:10472000D9FD0028D6D11CBDF06102202DE9F04F43
:104730000C46164987B00D68DDE91098E96C0F1832
:10474000286D8D180619C418ADF81070ADF8145006
:10475000ADF81260ADF8164004A80CF021FE002858
:1047600011D0DFF82CB04FF0000ACDE90098CDE968
:1047700002BA2B4622463946304610F065FE0CF050
:10478000A9FD0028F1D107B0BDE8F08FF06102204B
:10479000C5A300202DE9F04F164C87B02568DDE950
:1047A0001098EC6C2718286DA5184618C418ADF899
:1047B0001070ADF81450ADF81260ADF8164004A8B2
:1047C0000CF0EEFD002811D0DFF82CB04FF0010AFC
:1047D000CDE90098CDE902BA23462A46314638464B
:1047E00010F032FE0CF076FD0028F1D107B0BDE8E4
:1047F000F08F0000F061022005A300202DE9FC41AC
:10480000104F04463B68D86C4518196DADF8005040
:104810000E198418ADF80440ADF80260ADF80660DA
:1048200068460CF0BDFD08E0386822463146406E0F
:104830000368284698470CF04DFD0028F4D1BDE8E8
:10484000FC810000F06102202DE9F0410B4C25684D
:10485000EC6C2718286DA5184618C41800200CF019
:104860009FFD07E023462A4631463846FEF740FCC6
:104870000CF030FD0028F5D1BDE8F081F061022098
:104880007CB50E4D2A68D36C1E18106DADF804600F
:104890004418ADF80060ADF80640ADF80240684637
:1048A0000CF07EFD07E028682146406E42683046E5
:1048B00090470CF00FFD0028F5D17CBDF06102207F
:1048C0002DE9FC411C4C2468E66C94F818C037189C
:1048D000206DACF1010C4518C418A7EB0C00164470
:1048E000ADF8000006EB0C00ADF80400A5EB0C00E1
:1048F000ADF8020004EB0C00ADF8060068460CF0C1
:104900004FFD15E032462946384605F0FBFC32469D
:104910002146384605F0F6FC621E691C384605F053
:1049200051FD621E691C304605F04CFD0CF0D2FCB6
:104930000028E7D1BDE8FC81F061022070B50E4689
:104940008EB004460146154606A802F00DFBBDF8E0
:104950001A30642B0CD1002000900AAB01AA21462A
:1049600006A801F087FD2A46314601A8FFF766FE3A
:104970000EB070BD7CB50E4B1B68DC6C2618186D34
:10498000ADF8006045188418ADF80460ADF8025029
:10499000ADF8064068460CF003FD06E022462946C5
:1049A000304605F00FFD0CF095FC0028F6D17CBDDB
:1049B000F061022070B50C46054600F0E1F810B138
:1049C0000121C0E900142846BDE870400CF004BC89
:1049D00010B5002400E0012400F004F80028FAD10A
:1049E000204610BD094810B50068002410B180476A
:1049F00000B101240BF0A8FB00B1012404480068B9
:104A000010B1804700B10124204610BD146202207D
:104A1000106202202DE9FC410F4C2568EC6C271830
:104A2000286DA5184618C418ADF80070ADF80450EC
:104A3000ADF80260ADF8064068460CF0B1FC07E046
:104A400023462A463146384605F0E6FC0CF042FC87
:104A50000028F5D1BDE8FC81F0610220B0F90630F4
:104A6000B0F90420B0F90210B0F90000FFF7D2BF8E
:104A700008B50B46002805D0009281888268C0885E
:104A800000F001F808BD10B50828029C30D008DC01
:104A900004FB01F401280AD0022813D0042804D111
:104AA0001CE0102828D020282CD0002010BD04EBBA
:104AB000D30003F00701105CC1F10701C84000F00A
:104AC000010010BD04EB93000621105C01EA4301D4
:104AD000C1F10601C84000F0030010BD04EB530013
:104AE000D907105C02D000F00F0010BD000910BD06
:104AF00004FB0130105C10BD481004FB003032F89C
:104B0000100010BD881004FB003052F8200010BDCA
:104B1000034951F82000C1688A6A08211047000043
:104B20000862022010B505F0A7FCBDE8104005F0B2
:104B300053BD000002490968C9694A68002110474D
:104B4000F0610220024A1268D269526810470000E0
:104B5000F0610220002801D00BF03ABB704710B57D
:104B600005F092FCBDE8104005F036BD002102289A
:104B700002D2024951F820100846704770620220A4
:104B80001FB500210191029103912A2100916946EC
:104B90000CF074F8039804B010BD000001480068E0
:104BA000007C7047F061022002480068C069407EC6
:104BB00070470000F061022002F03CB870B5144666
:104BC0000D4605F0A7FC002802D0002028602060D8
:104BD00070BD02F08DB810B5044602F07BF80146B6
:104BE0002046BDE8104002F02FB801F069BA00007D
:104BF0000A490020096891F82C2002F00C02042ACE
:104C000007D0082A01D00C2A02D1C869007E4008CA
:104C10007047C869007E401E70470000F0610220A6
:104C2000417EC07E11FB00F07047017EC07E11FB0B
:104C300000F07047024951F8200000690068704791
:104C400008620220024951F820000069406870475C
:104C50000862022070B50D4613F0B2F804462846EB
:104C600013F0B6F8204370BD124810B5016821F06A
:104C70000101016010480121816010490160006854
:104C80000F49884200D0FEE701F026FB0D492E2097
:104C9000087001F01BFA0C4813F066FB19F0E8F9F4
:104CA00004460021084600F031FF0BF0C7FD204606
:104CB00010BD0000002000E000300240C2A507F453
:104CC000CDB5E8B5E4610220DCCC02202DE9FC4141
:104CD00007461C4615460E46012000F0E5FE8046BC
:104CE00011480068C16C006D0F4406440D44044433
:104CF000ADF80070ADF80450ADF80260ADF80640B4
:104D000068460CF04DFB07E023462A4631463846FC
:104D100005F082FB0CF0DEFA0028F5D1404600F0E9
:104D2000C3FEBDE8FC810000F061022010B5011E49
:104D300001DD024600E04A42064B012053F82040C4
:104D4000944202D8401C0A28F8DB002900DA401CF3
:104D500010BD0000C00A02201CB520B90C48006834
:104D6000006E002812D0FEF73DFF009044696846AF
:104D7000FEF782FF002C09D02046FEF733FF01909A
:104D800081688968884701A8FEF776FF1CBD00008E
:104D9000F061022001490A4600F002B801F0FFFF6D
:104DA0002DE9F04387B015460C465FEA000842D073
:104DB000002000F079FE814620480068066E4046DB
:104DC000FEF710FF00900068806900F015FE0746AE
:104DD00040F6FF70C44204D10098B0F90440B0F925
:104DE00006500098611E0289ADF804401144ADF8E8
:104DF00008104189681E0844ADF80650ADF80A0055
:104E00000AF0BEFF6846FEF737FF01A80CF0C8FAAB
:104E100006E02A462146404600F07EFB0CF05AFA96
:104E20000028F6D1384600F0E7FD304600F090F952
:104E3000484600F039FE07B0BDE8F083F06102207B
:104E40002DE9FE4F834619488A46194900680C9E91
:104E50009846407C9146002751F82040E168096857
:104E6000042903D02468002CF8D100E014B9FFF71E
:104E700047FA04460121E068C26A204690470500CF
:104E800011D02469A0688047401C02D1094C46F02B
:104E900001060096CDE9015443464A46514658461C
:104EA00000F0DAF907463846BDE8FE8FF0610220CF
:104EB000086202205418022038B5040018D00D48AA
:104EC0000068006EA04201D100F08CFD2046FEF784
:104ED00089FE0090406908B101F0B1F800980068BF
:104EE000FFF7B4F96846FEF7C7FE2046FEF7AEFDB1
:104EF00038BD0000F06102202DE9FF4F074646480B
:104F000083B099460068DDF840B08A46447C434847
:104F100000570128204606DD05F026FB8046204686
:104F200005F02EFB05E005F00EFB8046204605F05F
:104F300010FB044617B302A901A8FFF74AFEB7F910
:104F40000060002E00DA0026B7F90250002D00DACA
:104F500000250199B7F904004144491E13F089FE68
:104F6000804602980119B7F90600491E13F081FE28
:104F7000A8EB0602441B521C641C02E000263546C6
:104F80004246B9F1000F01D1C4F10009002A01DD48
:104F9000002C03DC002007B0BDE8F08F4B4629460B
:104FA0003046CDF800B0FFF74BFF5FEA000909D0AB
:104FB00000F094F88046484600F0CAF80027DFF871
:104FC00060B01FE05146059888470120E3E7E11BE8
:104FD000414502DA484600F0A5F83FB1EA193146EA
:104FE000484600F0D7F84846FFF7B6FE5146059808
:104FF0008847DBF8001009B1002088474846FFF7D2
:10500000C9FE4744A742E2DB4846FFF755FF0020B0
:1050100000F09EF8BEE70000F06102202862022046
:10502000D465022038B5002460B1FEF7DBFD0090A6
:10503000006800698068804706F028F904466846E1
:10504000FEF71AFE204638BD38B5002808D0FEF716
:10505000C9FD00F1180400906846FEF70DFE2046D9
:1050600038BD000038B5002418B907480068006E44
:1050700038B1FEF7B7FD0090B0F904406846FEF77E
:10508000FBFD204638BD0000F061022038B5002449
:1050900018B907480068006E38B1FEF7A3FD00900C
:1050A000B0F908406846FEF7E7FD204638BD00002D
:1050B000F061022038B5002418B907480068006E76
:1050C00038B1FEF78FFD0090B0F906406846FEF754
:1050D000D3FD204638BD0000F061022038B5002421
:1050E00018B907480068006E38B1FEF77BFD0090E4
:1050F000B0F90A406846FEF7BFFD204638BD000003
:10510000F061022070B50546002428460EF04EF9E5
:10511000641C18B1BDE8704000F068B8052CF4DBE1
:1051200070BD000038B50C4620B908480068006E14
:1051300000280AD0FEF756FD0090B0F90A10A142EF
:1051400000DD44816846FEF797FD38BDF06102201E
:10515000F8B50F4E05003068046E16D00CB100F0A3
:1051600041FC0AF033FF2846FEF73CFD0090316811
:105170000D660068FFF76CF86846FEF77DFD05F0E8
:10518000A7FD05F0E9FC2046F8BD00F02BFCFAE78E
:10519000F06102207CB515460C4620B91248006823
:1051A000006E00281FD0FEF71DFD2DB20090C580B7
:1051B00024B2848005F0D0FC0098406980B1FEF7ED
:1051C00011FD009A0190B2F908108180B2F90A200D
:1051D000C28011B10AB10480458001A8FEF74CFDE0
:1051E0006846FEF749FD7CBDF061022001490A4690
:1051F00000F002B801F0FFFF7FB515460C4606002F
:1052000028D0FEF7EFFC40F6FF710190CC4203D1AD
:10521000B0F90440B0F906500289611E1144ADF89E
:105220000840ADF80C104189681E0844ADF80E0026
:10523000ADF80A5001A8FEF71FFD02A80CF0B0F867
:1052400006E02A462146304600F04EF90CF042F8BE
:105250000028F6D17FBD00002DE9FF4FDFF8E8B050
:1052600083B01C46DBF80010DDE9106092464FF079
:1052700000084B7C42461299FEF7ACFF050060D057
:1052800028698068804706F001F881460AFB09F129
:10529000C91DCF08FEF7DCFCF10705D1C11700EBF3
:1052A0009170801000EB4000002C09DC1FB1183811
:1052B000B0FBF7F000E000206442A04200DC0446AE
:1052C000F00707D10090DDE903012346524600F0C4
:1052D0003FFE8046002C03DC2846FEF7B7FF30E097
:1052E00004FB07F01830F10702D0FEF78FFB01E056
:1052F000FEF791FB06001CD0FEF774FC01900560E0
:10530000039981800499C180A0F808A04481C0F865
:105310001480C0E9037901A8FEF7AEFC1298AE60D4
:105320002861DBF80000407CA861304607B0BDE88A
:10533000F08F2846FEF78AFF5FEA080001D0FEF7EB
:1053400085FB0020F2E70000F061022001490860BF
:1053500070470000D46502202DE9F74F8EB0144647
:1053600089460E98FEF73EFC0990B0F908B0B0F9F6
:105370000A600068006940680C9009A8FEF77CFC90
:10538000564D574F2868407C57F82000C1688A6AFC
:10539000082190470790182801D3202007902868FB
:1053A000407C57F820000069069003C80B904D48D8
:1053B000814201D0012000E000200A90002000F08E
:1053C00086FE00287DD1286809EB0B01B0F90C207E
:1053D000891A491E002902DDABEB010500E05D469C
:1053E000B0F90810494505DDA1EB090189446D1AA2
:1053F000089101E000210891002D6BDDB0F90E202D
:10540000A119891A491E002902DDA6EB010800E056
:10541000B046B0F90A00A04204DD061B3444A8EBF4
:10542000060800E00026B8F1000F53DD089801904F
:105430000DA95F46DDF830A00E980091FFF704FE3D
:10544000774300EB870101982B4601EB800200991E
:105450004846CDE900A1214601F032F9009000282C
:1054600038D00A98E8B1DDE906322946009800F004
:105470002DFFB0B90698009FDA46D0F810C0BCF1F5
:10548000000F05D004235A4639463846E04708E065
:105490000B993868884701C7AAF101005FEA000A42
:1054A000F6D100990020079ACDE90301059001206B
:1054B0000090CDE9010221460346641C2A46484675
:1054C00000E007E004F08AFDA8F10100761C5FEA25
:1054D0000008ABD111B0BDE8F08F0000F0610220F0
:1054E000086202205BA60020F8B515460E46074666
:1054F000FEF778FB009000681621C068426A002021
:10550000904704466846FEF7B7FB002C03D02A46B6
:1055100031463846A047F8BDF8B515460E46074651
:10552000FEF760FB009044696846FEF7A5FB38462D
:10553000FFF778FD0346082800DD2CB12A463146E6
:10554000384616F08DFFF8BD2A463146384617F02A
:1055500027F9F8BD054910B591E81C0080E81C004A
:10556000087A002800D0012010BD000074CD022070
:1055700010B504460C220849FAF77BFE002809D032
:10558000054894E80E0080E80E002046BDE8104073
:1055900000F010B910BD000074CD02200248006870
:1055A000407C00F003B80000F0610220F8B51D490E
:1055B000096809B1002200E002461B498D56012D01
:1055C0002EDD1849143151F822305B1C41F822308D
:1055D000012B25D1A1F108030026103953F82240F0
:1055E00051F8221053F822707F1C43F82270AF420A
:1055F00001D143F8226053F822708F42F2D03D4629
:10560000FEF77EFE009000280AD0C0682121426A81
:1056100068469047030003D02A46214600989847E1
:10562000F8BD00004062022028620220044A12688D
:1056300002B10020002900DC0121024A1154704708
:105640004062022028620220094A126802B100204A
:10565000074A1C3252F82030002B07DBA2F1180356
:1056600043F820104FF0FF3142F82010704700003F
:105670004062022002480068407C00F003B800004D
:10568000F061022038B51449096809B1002200E030
:1056900002461249895601291CDD0F49143151F87F
:1056A00022305B1E41F8223014D1083951F82240D3
:1056B000103141F82240FEF723FE0090002809D067
:1056C000C0682221426A68469047020002D0214603
:1056D0000098904738BD00004062022028620220F6
:1056E00010B5002821D009B30AB3B1F90040B2F9CE
:1056F00000309C4200DA23460380B1F90240B2F93F
:1057000002309C4200DA23464380B1F90440B2F9EA
:1057100004309C4200DD23468380B1F90610B2F9C3
:105720000620914200DC1146C18010BD11460A6876
:1057300002604968416010BD00280BD003880B440B
:105740000380838819448180418811444180C18845
:105750001144C1807047000070B50E4D0446D5E974
:105760000001884209D10C49884201D13C3000E057
:105770000C3807C884E8070006E090E80E0084E8CB
:105780000E0012F02DFB2860207A002800D00120A6
:1057900070BD00006462022080CD02200448D0E980
:1057A0000010814201D101207047002070470000A5
:1057B00064620220054A10B50349116016F002FB2D
:1057C000BDE8104000F0DAB965040120186202203B
:1057D00070B5094C0020D4E900218A420AD0D2E9F0
:1057E0000056104612F014FB2060314628460BF09C
:1057F00065F9012070BD0000846502202DE9FC419F
:10580000154DDDE908742D68B5F90860864200DDA4
:105810003046B5F90C60964200DA3246824219DB16
:10582000B5F90A608E4200DD3146B5F90E509D4251
:1058300000DA2B468B420DDB00E02C46E5682D6834
:1058400025B1042D02D02568002DF6D1CDE90074D4
:1058500005F06CF8BDE8FC81F0610220B0F902208F
:10586000B1F906309A4213DCB1F90220B0F90630E2
:105870009A420DDCB0F90020B1F904309A4207DCFD
:10588000B1F90010B0F90400814201DC0120704739
:10589000002070470146024870220068FAF7A2BC57
:1058A000F061022038B5040019D016F0A3FB2046A1
:1058B00016F016FC2046FEF795F900900068FEF7FA
:1058C000E1F80098C068FEF7C1F80098C069FEF7DB
:1058D000BDF86846FEF7D0F92046FEF7B7F838BDA8
:1058E000002801D015F0D4BD704738B5040019D098
:1058F000FEF778F90090007C800710D4204612F063
:105900000BFF6846FEF7B8F9204616F065F9204609
:10591000FEF768F90090018A41F0020101826846B1
:10592000FEF7AAF938BD00002DE9F84304460088C7
:10593000089F91468846D0B36088C0B3E06818B12C
:105940008068002834D002E0E08820282FD107F0BA
:10595000010200211E48FEF73DFC050027D02088EB
:105960006188800048432030FEF755F8060021D0BA
:105970003046AE60FEF736F9009007824461A0F829
:105980000480A0F80690238808EB0301491E0181DA
:1059900061884944491E418105606846FEF76CF9FB
:1059A000E06858B1214630460DF046FE30B1002087
:1059B000BDE8F8832846FEF749FCF8E7B80705D5A7
:1059C000304612F0A9FE304616F006F93046EFE7F1
:1059D000980B0220024970220968FAF703BC000004
:1059E000F061022010B505F06DF805F071F9BDE821
:1059F00010400AF0C5B9000070B504460548022CF5
:105A00000068457C02D24474FFF7ECFF0248046052
:105A1000284670BDF0610220FC6402202DE9F041AF
:105A2000194E050019493068194F407C51F8201073
:105A30008C6917F8048003D012F04AFC60B11FE0B3
:105A40000521FEF74BFC06001AD00020FFF77EFC74
:105A50003046FEF741FC12E030680521407CFEF73D
:105A60003DFC60B9AFF24B00FFF770FC30680849AD
:105A7000407C183151F8200008B1FEF7E9FB3D5594
:105A80004046BDE8F0810000F0610220086202207B
:105A90009465022005F036B805F06CB801498860BD
:105AA00070470000E461022005F08CB803490968E2
:105AB000CA6900B1C861104670470000F061022059
:105AC0000149C86170470000B46102200149486083
:105AD00070470000E461022001490860704700003F
