:020000042000DA
:1000000000100010C1010020C9010020CB01002018
:10001000CD010020CF010020D10100200000000010
:10002000000000000000000000000000D3010020DC
:10003000D501002000000000D70100207DE900204C
:10004000DB010020DB010020DB0100205DD8002067
:10005000DB010020DB010020DB010020DB010020B0
:10006000DB010020DB010020DB010020DB010020A0
:10007000DB010020DB010020DB010020DB01002090
:10008000DB010020DB010020DB010020DB01002080
:10009000DB010020DB010020DB010020DB01002070
:1000A000DB010020DB010020DB010020DB01002060
:1000B000DB01002041EC0020DB010020DB010020FF
:1000C000DB010020DB010020DB010020DB01002040
:1000D000DB01002041FC0020DB010020DB010020CF
:1000E000DB0100209DD70020DB010020DB01002088
:1000F000DB010020DB010020DB010020DB01002010
:10010000DB010020DB010020DB010020DB010020FF
:10011000DB010020DB0100209DEC002061ED0020D0
:10012000DB010020DB010020DB010020DB010020DF
:10013000DB010020DB010020DB010020DB010020CF
:10014000F70700200708002017080020DB01002027
:10015000DB010020DB010020B5120020DB010020C4
:10016000DB010020DB010020DB010020DB0100209F
:10017000DB010020DB010020DB010020000000008B
:10018000DB010020DB010020DB010020DB0100207F
:10019000DB010020DB010020DB010020DB0100206F
:1001A00091BE0020DB010020DB010020DFF80CD035
:1001B00000F076F80048004705E501200010001027
:1001C0000648804706480047FEE7FEE7FEE7FEE7F1
:1001D000FEE7FEE7FEE7FEE7FEE7FEE75DEA00205A
:1001E000AD01002010B5431A934209D28318881834
:1001F00003E010F8011D03F8011D521EF9D210BDD5
:1002000040EA01039B0703D009E008C9121F08C098
:10021000042AFAD203E011F8013B00F8013B521E18
:10022000F9D210BDD2B201E000F8012B491EFBD279
:1002300070470022F6E710B513460A4604461946F1
:10024000FFF7F0FF204610BD421C10F8011B0029EB
:10025000FBD1801A704710B5002200E0521C835C6D
:100260008C5CA34201D1002BF8D1D8B2E1B2401A84
:1002700010BD30B504460020034600E05B1C9342ED
:1002800003D2E05CCD5C401BF8D030BD034611F8D2
:10029000012B00F8012B002AF9D118467047000005
:1002A000064C074D06E0E06840F0010394E80700C3
:1002B00098471034AC42F6D3FFF77CFF6C25022040
:1002C0009C25022070B58D1810F8014B14F0030224
:1002D00001D110F8012B231106D110F8013B03E0E6
:1002E00010F8016B01F8016B521EF9D1B3B110F88F
:1002F000012B04F00C048A1A0C2C04D0A2EB8412FB
:1003000003F1020308E010F8014BA2EB0422F7E727
:1003100012F8014B01F8014B5B1EF9D5A942D3D36A
:10032000002070BD002800DC4042704738B54568A9
:100330000446014628460FF0D7FC00282BD0206841
:10034000304A11280DD006DC0B2825D00E2833D0DA
:100350000F2852D112E0282849D0B0F5107F4CD197
:1003600008E09268002A16D02146284601B0BDE870
:1003700030401047214628465268F7E7284603F0E8
:1003800025FC0090406E0468684603F069FC002C70
:1003900001D02846A04738BD284603F017FC00903E
:1003A000683003F06FFB009803216C3003F072FBA0
:1003B000684603F055FC20E0E168486809680D29AB
:1003C00002D0202913D105E0002810DD284618F0BE
:1003D000ABFF06E0002804DD2846BDE8384018F0F1
:1003E000A3BF2846BDE83840022118F0DDBFE06811
:1003F00018B90021284600F09DF92046BDE8384094
:100400000FF0ACBFCC6502202DE9FF410AAF97E8A1
:100410007000002703958DE8D00000F003F804B0C9
:10042000BDE8F081F0B585B00DF1280C9CE8F00036
:100430004FF0000C8DE8F01000F024F805B0F0BD8E
:10044000F0B5044685B08069B4F90850668A002783
:10045000CDE90265CDE900170490B4F90C00B4F9B8
:100460001060C118B4F90A00B4F90E5010443346B4
:100470002A4600F007F80546616800F07AF905B0F1
:100480002846F0BDF0B585B00C46DDE90D51DFF82A
:1004900054C04C31DDE90A67CDE902C12146CDE9FE
:1004A00000670FF0ADFE040018D003F08FFB1022A0
:1004B000294604900FF0F8FD049830220A493430A0
:1004C000FFF790FE084D04990C3D2868486604A883
:1004D00003F0C6FB286841682046884705B02046DF
:1004E000F0BD00002D030020D8650220F0B50446C1
:1004F00080688B4989B051F82050606800287DD011
:10050000052804D006287AD0122879D1AEE0E8690F
:1005100000284FD095E80E008DE80F0004F110017F
:100520000FC906F01DFA002655F8260005F0EAFA74
:10053000A169E8690A1A216901446069304404F03C
:1005400051F9A169E8690A1A21690144E069801B2F
:1005500004F048F9E169E8690A1A6169014420690F
:10056000304404F0FBF9E169E8690A1A6169014461
:10057000A069801B04F0F2F9761C022ED4DBA86877
:1005800005F0C0FAE069E9696669431A2069421812
:100590003144801C521E04F031FAE169E869A26915
:1005A0000B1A61690144101A401C921E04F026FACD
:1005B000EE6913E05FF0000655F8260005F0A2FA98
:1005C000E069831BA069821B60698119206930443E
:1005D00004F06AF9761C022EEEDB0226D5E903014F
:1005E000CDE900016169E06908444310A069891CF4
:1005F000821B2069304404F0C1F802E089E012E077
:100600008AE0D5E90501CDE90001E36960690121CE
:10061000184401EB6001A0699B1E821B20693044D5
:1006200004F0ACF878E0206803F0D0FA0490206879
:1006300011F020FA40B1A06808B1002008E0049849
:10064000006F28B1012003E00498406F00B1022040
:10065000049901EB8000C56E04A803F001FB0023A0
:100660001A462846216803F069FE55E0206803F029
:10067000ADFA0490866EEEB3B0F95C70A168D1B3A8
:10068000032942D05FF0000100EB8101406D0C6C4A
:1006900005F042FA204605F035FA05A804F04EFAB6
:1006A000BDF81410A88B0144ADF81410BDF8181053
:1006B000081AADF81800BDF81600801CADF8160039
:1006C000BDF81A00801EADF81A000498B0F9602039
:1006D000B0F95E1005A805F065F804A803F0C0FAAB
:1006E000022005F077FA304603F070FA3A4605A981
:1006F000079001E00BE006E003F0E4FE0DF11C00C2
:1007000003F0AEFA08E00121BEE70221BCE704A82D
:10071000F6E7206810F0E4FD09B00020F0BD00000D
:100720009424022000294FF0100101D00FF06CBB7F
:100730000FF0BEBA4FF480720029114601D00FF0BD
:1007400063BB0FF0B5BA08B50023009300F001F8C1
:1007500008BD70B516460C46054619463046049A43
:1007600003F0D4FD024621462846BDE8704000F063
:1007700028B82DE9FF410E4605004FF001041CD0BA
:1007800003F024FA0190876E01A8009703F068FA3D
:100790003146684606F056FC78B100980024B8420D
:1007A00008D0284603F012FA01900099816601A84A
:1007B00003F056FA284610F0AEFA04B02046BDE821
:1007C000F081F8B515460C46060013D003F0FEF98B
:1007D0000090032C0BD200EB84006C3003F052F934
:1007E000009800EB8400C566304610F094FA684625
:1007F00003F036FAF8BD10B5002000F05BF9BDE853
:10080000104000F043B810B5012000F053F9BDE8E6
:10081000104000F0CDB8662003F0BBBD1CB5002031
:10082000009001900548064A02210368054803F03C
:1008300073FC05490860084600681CBD3061022051
:1008400039D10120A8ED0120846102201CB50446A5
:100850004FF6FF700EF0DCF9002000900190074881
:10086000074A1B210368074803F056FC064941F874
:100870002400084650F824001CBD0000306102200E
:1008800069D20120B4EA0120ECCB02202DE9F04F1F
:1008900085B0404D2C79A8780027DFF8FC90DFF870
:1008A000FCA03F493F4E4FF001084FF0460B002897
:1008B00004D0012865D0022863D12EE051F824002D
:1008C000D8B10F2201A902F061F868798DF80A0009
:1008D000A8798DF80B00E8798DF80C00287A8DF84E
:1008E0000D00687A8DF80E008DF806802C480F22D6
:1008F00001A950F8240002F08CF989F80070CAF8B8
:1009000000702948C0F800B0306810F0010F38D1ED
:10091000306840F00100306033E051F8240008B343
:100920000F2201A902F032F8E87A8DF80700A87AC0
:100930008DF80800687A8DF80900287A8DF80F0084
:10094000E8798DF81200A8798DF8110068798DF892
:1009500010008DF8068012480F2201A950F82400DB
:1009600002F057F989F80070CAF800700E48C0F814
:1009700000B0306810F0010F03D1306840F0010082
:1009800030600A48016841F00201016005B0BDE82D
:10099000F08F0000B4CB02202C6002202414004011
:1009A000ECCB022000140040341C004014680040CE
:1009B00030B5364901220B46887B1B7C042802D0C7
:1009C00005285DD104E0324803703248027057E0D8
:1009D000487C3149672808D00023DFF8C0C0304C7C
:1009E000632841D0652846D04AE02E480268D1F8F5
:1009F00000C0A2EB0C042C4A4FF0730C082C16D349
:100A000000200C681518A4F13F542478EC700C6891
:100A1000641C0C60401C0828F3D3581C4CEA0020CE
:100A2000108008209070204800F0A2F828E00068AC
:100A30000C68001BC4B294700020002C0CD90C6808
:100A40001518A4F13F542478EC700C68641C0C60F9
:100A5000401C94788442F2D8581C4CEA0020108044
:100A6000114800F085F80BE08CF800200B600F486F
:100A70000370227004E08CF800200B6002202070CC
:100A80000B48016841F01001016030BDB4CB022079
:100A9000816102207D610220686102207E61022066
:100AA0007C6102200C610220A8CB02207F61022021
:100AB0001468004070B4274901EB00142168264DEA
:100AC00011F0020F254900EB400C01EB001305EB80
:100AD0008C011FD1224A02EB001216680E711668B3
:100AE000360A4E711668360C8E711268120ECA7173
:100AF0001C4A02EB001216680E721668360A4E7215
:100B00001668360C8E721268120ECA721A6802F0DB
:100B10000F02CA702268520D25F82C201A68120A9A
:100B20008A70114950B1086820F010000860081F51
:100B3000016841F02001016070BC70470B480268F9
:100B400042F020020260086820F00200086070BCD9
:100B500070470000B0690040B4CB0220B469004087
:100B6000B8690040BC690040146800400C6800404F
:100B700010B42C490A6812F0806F01D000210AE0FD
:100B80000A6812F0006F01D0012104E0096811F039
:100B9000805F44D0022102884FEA425C224A02EB85
:100BA0000113C3F800C0121D02EB0112D2F800C0FD
:100BB0002CF00F0CC2F800C0D2F800C084784CEAC8
:100BC000040CC2F800C0C27890F806C0047942EA6A
:100BD0000C6290F805C04FEA0C4C4CEA042C42EA37
:100BE0000C02DFF848C00CEB011CCCF80020C279E5
:100BF00090F80AC042EA0C6290F809C0007A4FEA05
:100C00000C4C4CEA00201043094A02EB0111086029
:100C1000186840F00100186010BC0020704710BC3C
:100C200002207047086800408069004088690040E1
:100C30008C69004013490A6812F0806F01D00021CE
:100C40000AE00A6812F0006F01D0012104E009688F
:100C500011F0805F14D00221022242EA40520A4879
:100C600000EB01100260094A02EB01110A6822F050
:100C70000F020A60016841F0010101600020704725
:100C80000220704708680040806900408469004085
:100C90007CB5214C0546216831F8220F4A8D10445D
:100CA00008804888CA8D10444880284603F036FFE3
:100CB0002168498CADF800104618284606F05CF80B
:100CC0003044401EADF8040003F06AFF2168898CAF
:100CD000ADF802100844401EADF80600684610F05A
:100CE00055FD04E0284602F08BF910F0E9FC0028DD
:100CF000F8D10A2D04D0BDF804002168401C4884B6
:100D0000206830F8221F428D891A01804188C28DE7
:100D1000891A41807CBD0000E06102202DE9FE437C
:100D200004460E461546204606F08EFA0746C4EBEA
:100D3000C400144951F8200007FB0608C4EBC400A6
:100D400051F8200007FB05090021C4EBC4000D4B3E
:100D500003EB80000069CDE90001C4EBC4000291FF
:100D6000194601EB80004A464146C368204600F020
:100D70008FF9C4EBC400034901EB80008560BDE836
:100D8000FE830000B06D02202DE9F04F85B00446CF
:100D90000D4616461F46DDE90F8BDDF838A02046CC
:100DA00006F052FA8146C4EBC400264951F82000EF
:100DB000C4EBC401234A02EB8101496809FB01002D
:100DC000C4EBC40102EB8101C96806FB0151C4EB0D
:100DD000C4021C4B03EB8202526901FB0200049027
:100DE000C4EBC400194651F82000C4EBC4011A46F4
:100DF00002EB8101496809FB0100C4EBC40102EB6D
:100E00008101C9680AFB0171C4EBC40203EB8202D1
:100E1000526901FB020003900021C4EBC4001A4692
:100E200002EB8000C068A0EB08004346CDE900B0AB
:100E300002912046DDE9032100F02AF905B0BDE862
:100E4000F08F0000B06D02202DE9FE4F04460D46E4
:100E500016461F46DDF8309003F094FE012810D1AD
:100E600000221921204609F0CDFE4B463A46314674
:100E7000284609F007FB204A1921204609F0C2FE46
:100E800037E0781B00F10108A9EB0600401C029036
:100E9000204606F0D9F98246C4EBC400174951F840
:100EA0002000C4EBC401154A02EB810189680AFBEA
:100EB0000100C4EBC40102EB8101C96806FB0151CA
:100EC000C4EBC4020D4B03EB8202526901FB020B1F
:100ED000C4EBC4011A4602EB81010D98C968A1EB6D
:100EE0000801CDE90010424659462046029B00F019
:100EF00023F9BDE8FE8F0000490E0020B06D0220EE
:100F0000F8B504460D4616461F4603203B463246BA
:100F100029460090204600F081F8F8BDF8B5044657
:100F20000D4616461F4604203B4632462946009091
:100F3000204600F073F8F8BDF8B504460D46164695
:100F40001F4602203B46324629460090204600F0CC
:100F500065F8F8BDF8B504460D4616461F46002054
:100F60003B46324629460090204600F057F8F8BD2F
:100F7000F8B504460D4616461F4600203B4632464D
:100F800029460090204600F049F8F8BD2DE9F041CF
:100F900007460C4615461E4632460B49384608F0B1
:100FA000F0FF32460949204608F0EBFF3346084A75
:100FB0000649054800F00EF832462946044808F074
:100FC000E0FFBDE8F0810000E88B0220E8A90220E4
:100FD000E86D022030B50F4C0F4D2C602C46E060C0
:100FE0006161E26300242C61AC612C64EC616C6291
:100FF0006C63012404EB03446C642C46246844F0C5
:1010000001042C6000BF044C246814F0010FFAD1D5
:1010100030BD00000002020000B002402DE9F8439C
:1010200005460E4614469846089F2246064928461D
:1010300008F0B1FF3B46002231460348009400F01F
:1010400005F8BDE8F8830000E86D022070B5049C47
:101050004FF481350D4E35603546E860E963002573
:10106000356135643546EA616B63012505EB04455E
:10107000756435462D6845F00105356000BF034DA8
:101080002D6815F0010FFAD170BD000000B00240CC
:101090002DE9F05F07460C4615461E46DDE90B9A22
:1010A000DDF82880384609F087FB83464FF400704E
:1010B0000D4908600846C460C563C0F81090C0F8C8
:1010C00040A0C0F81CB0404666F31F404864084684
:1010D000006840F00100086000BF0348006810F09D
:1010E000010FFAD1BDE8F09F00B00240F0B505ACA9
:1010F00070CC4FF48137DFF83CC0CCF80070674605
:10110000F860F9633A613B640527CCF81C706746C8
:101110007C6346EA0547CCF8447067463F6847F071
:101120000107CCF8007000BF024F3F6817F0010FB5
:10113000FAD1F0BD00B002402DE9F04707460C4659
:1011400015461E46DDE90889384609F035FB82461A
:101150000D480E4908600846C0F83890C463C0F8CE
:101160004080C0F834A0304665F31F40486408460C
:10117000006840F00100086000BF0448006810F0FB
:10118000010FFAD1BDE8F0870002030000B0024071
:101190002DE9F84305460E4614469846089F00235D
:1011A0003A46064928460094FFF750FF224631464A
:1011B000024808F0F0FEBDE8F8830000E86D022068
:1011C000074AD0624A1ED2B2012343EA0222044BEC
:1011D000DA611A46D26942F02002DA6170470000F3
:1011E00000B002401EB5034601F07F40B0F17F4FD2
:1011F00001D118461EBD83F07F40029081F07F40F0
:1012000001901448144C206002A8E06001A86061BD
:10121000C4F83CD04FF4803040EA0260E061C2F193
:10122000FF00002444EA00600B4C60620020606311
:101230004FF0011060642046006840F0010020601B
:1012400000BF0548006810F0010FFAD1009880F047
:101250007F40CFE70002020000B0024070B5049C5E
:10126000124D134E35603546E8606961EA634FF40C
:10127000803545EA0365F561C3F1FF05002646EABE
:1012800005650B4E756200257563012505EB044568
:10129000756435462D6845F00105356000BF044D85
:1012A0002D6815F0010FFAD170BD00000002020098
:1012B00000B002400E480F4A4FF0006100689042B3
:1012C00002D90D4801600CE00C4A904202D90C484A
:1012D000016006E00B4B0C4A984201D9D16000E056
:1012E00091600A480068C16841F01001C160704710
:1012F00094CA0220586402400C640240B860024064
:1013000008640240586002400060024054CA022053
:101310000146087810381823B0FBF3F20848805CC7
:101320004865032A05D908686FF30900001D0865A0
:1013300003E008686FF309000865086D7047000056
:101340009CE6012030B50468246824F480240568F4
:101350002C60046863608468402C04D10468A26037
:101360000468E16003E00468A1600468E26030BDE5
:101370002DE9FC41002830D0112916D0132910D0B6
:1013800005460C4602F022FC009000F03FFB0646AA
:10139000684602F065FC20461AF0EAFF0746002482
:1013A0001EE0BDE8FC4100F0E3BABDE8FC4100F0FE
:1013B00071B92146284600F02CFB019078B10078E5
:1013C0001AF0D6FF00F0FF0801A802F049FCB8456A
:1013D00005D12146284600F0D5FABDE8FC81641C01
:1013E000B442E6DBF9E7F8B50C46050013D0002C53
:1013F00011D002F0EBFB0090C66B684602F030FCA7
:101400002046FEF721FF421C2146304602F04CFCEC
:1014100028460FF080FCF8BD2DE9FF4145680446E1
:10142000284602F0D3FB0190D0F8886001A802F0B2
:1014300017FC0EB1012700E00027214628460EF0D8
:1014400053FC002856D02068112844D006DC0B2815
:1014500063D00E2878D00F282BD14FE0212805D05B
:1014600026281AD0B0F5107F23D139E0E068416812
:1014700000291EDD00680D281BD130460AF055F901
:10148000002806DB30460AF050F90146284600F0F5
:1014900079FA284600F07EF875E0E068012809D066
:1014A0000A2802D00B2871D111E00A2128460FF03A
:1014B000F2FC6BE030460AF038F9002866DB304673
:1014C0000AF033F90146284600F05CFA5BE0284652
:1014D00000F060F85AE0FFB9E068007A98BB55E088
:1014E000E06848B1007A08B1012100E002212846F5
:1014F0000FF0D1FCBDE8FF810321F8E72E46284616
:1015000002F064FB0290D0F88400056802A802F0A3
:10151000A7FB0DB13046A84738E0284602F056FB3D
:101520000090C06B02F000FC0098D0F888000EF02C
:1015300049FF0098D0F8940002F07CFA684602F067
:101540008FFB23E000E016E0E068416800291DDD24
:10155000016820290FD006DC092910D00A2915D0EE
:101560001B2904D112E0212910D022290ED02846AF
:10157000FFF7FEFEBEE7284600F0EEF806E00FF0AB
:1015800031F8B04202D128460FF034FE20460EF06A
:10159000E5FEAFE738B5040011D002F017FB00906C
:1015A000D0F8880040B10EF00DFF00990020C1F87E
:1015B000880020460FF0AFFB684602F051FB38BDB3
:1015C000F0B585B0B0F90850468A84690296CDE935
:1015D00003540027CDE90017B0F90C10B0F91050F2
:1015E000B0F90E40B0F90A00194410442B462246C7
:1015F00000F002F805B0F0BD2DE9FF410C461D4694
:10160000DDE90D71DDE90B36DFF880E0DDF828C09B
:101610006C31CDE900C3CDE902E14FF0FF33214643
:101620000EF0EEFD04002DD002F0D0FA1022394663
:1016300000900EF039FD00983822154980F88C6032
:101640004C30FEF7CFFD124E0098361F3168C0F8BF
:101650008410002180F89010C586204600F0B5F96E
:10166000684602F0FDFA02F05CFB0546204602F0F7
:10167000ADFA0090C563684602F0F2FA306841683E
:101680002046884704B02046BDE8F08119140020A8
:101690009062022010B5044600F05DF9010000D010
:1016A000411E2046BDE8104000F06CB9F8B5054673
:1016B000006802F08BFA0090448ED0F8886068468B
:1016C00002F0CEFA06B1012604F00104286810F0F9
:1016D000D1F90EB1002006E00CB1012003E008B101
:1016E000022000E003201B4951F82010686858B31D
:1016F00002280CD0052802D0122828D103E0284661
:1017000012F07CFB23E0284614F00DFC1FE06A6910
:10171000E8694FF0FF33801AA0F1080203EB62047E
:10172000421CAB69001B4510A3EB6206C86904F0BC
:10173000E9F906E03219311B284603F053F8641E1C
:101740006D1C002CF6DA02E028680FF0C9FD0020BD
:10175000F8BD0000DC1902202DE9F14F9EB01E9863
:1017600000287CD002F032FA0B901E980FF020F87F
:1017700003900B98B0F9367090F890101891C16BE7
:101780000A9190F88C90B0F93410159100F03EF960
:1017900082460B9804ACB0F88E101491B0F9821008
:1017A0001391C16C1291D0E90012CDE90C12D0F85E
:1017B00094B0002100EB8102126D44F82120491CF5
:1017C0000329F7D3002107AD00EB8102D26D45F864
:1017D0002120491C0329F7D300210EAE00EB810222
:1017E000126F46F82120491C0329F7D30BA802F0F9
:1017F00037FA1E980EF083FF02F0E8F91190D0F846
:10180000008011A802F02CFA4FEA284042420FFA59
:1018100088F041420CA803F0C5FF5FEA897003D548
:10182000BDF83200C01B01E0BDF83600ADF8320053
:101830001E980EF064FF014603980222CDE90007CE
:101840000292BDF93230BDF93020002009F001FFCD
:1018500080465FEAC97009D04046189900E077E0F9
:101860000AF07AF9012140460AF0BEF8002708E0A4
:1018700039460A9802F08CFA0146404609F0A7FD65
:101880007F1C5745F4D30027394654F8272040469B
:101890000AF0CFF87F1C032FF6D30024214655F819
:1018A000242040460AF0DCF9641C032CF6D3002403
:1018B000214656F8242040460AF033F9641C032CD4
:1018C000F6D35FEA0B001FD002F080F9169030F8D3
:1018D000025B00240646012711E000BF06EBD4009E
:1018E00004F00701007807FA01F1084201D0012253
:1018F00000E00022214640460AF0C3F8641CAC42D6
:10190000ECDB16A802F0ACF9404614990AF0E7F8AF
:10191000404612990AF0A1F8404613990AF090F94E
:1019200040460FF067FC40461E990AF0EAF8404630
:1019300015990AF029F901211E980FF0ACFA1E98AA
:1019400002F044F90B90C0F888800BA802F088F9E7
:101950001FB0BDE8F08F38B5002438B102F036F979
:101960000090B0F93440684602F07AF9204638BD5C
:1019700010B50446FFF7EFFF411C2046BDE81040BC
:10198000AFF3008038B50C46050019D002F01EF9FF
:10199000009000F03BF800B1401E844200DD044698
:1019A0000098B0F93410A1420BD08486684602F04A
:1019B00057F928460FF0AFF9042128460FF06BFACB
:1019C00038BD684602F04CF938BDF8B5044602F05F
:1019D000FDF801460090B0F9380010B9C86C03F06A
:1019E00055F90099CA6AB1F98030126800EB4300DA
:1019F000161808460FF0BBFE0546684602F030F99F
:101A00003246294620460FF0A4FCF8BDC06B02F018
:101A1000B3B938B50D46002402F0D8F80090C06B79
:101A2000294602F0B5F90546684602F019F91DB1DC
:101A3000284602F0CBF80446204638BD2DE9FC4785
:101A40000E465FEA000978D002F0C0F8009090F8E6
:101A50005470D0F85880456BC46C684602F000F9A9
:101A6000B8F1000F04D0314648464246904761E045
:101A7000122E18D006DC082E43D0102E3CD0112E8A
:101A800006D112E0132E21D01D2E43D01E2E3DD0A4
:101A9000202E4FDB17B1484611F03BFFB1B248464C
:101AA00016F002FF60B3611C27E04DB3284602F038
:101AB0008DF805462146019004F000FA44192046AD
:101AC00004F0BEF901462346012210E0C5B12846C4
:101AD00002F07CF805462146019004F0EFF9441924
:101AE000204604F0ADF9014623464FF0FF32484648
:101AF00011F01BFA01A81BE0611E484600F084FAB1
:101B000018E0BCB1611E484600F07EFA484611F06C
:101B100000FF0FE0484602F059F80090012F0ED068
:101B2000012180F854102146484600F06DFA6846BD
:101B300002F096F848460FF0EEF8BDE8FC87002169
:101B400080F85410F3E7FEB54468054620460FF0D0
:101B500091FF0646294620460EF0C6F8002837D0E9
:101B600028680F2830D004DC0B2832D00E2853D13F
:101B70003AE0A0F58070133804D0A0F580702D38BD
:101B80004AD110E020460FF051FA2046002118F00B
:101B9000B8FC204602F01AF80190C06F00210FF047
:101BA0002CFA01A81DE0E86860B1017A29B101684A
:101BB000204600F0E3F8012100E0022120460FF06A
:101BC0006AF929E00321F9E70121204618F099FC80
:101BD000FEBD204601F0FAFF0090343001F052FFC4
:101BE000684602F03DF817E0B6B1E86841680029A0
:101BF00012DD01681B290FD006DC09290CD00A2947
:101C00000AD00D2904D107E0212905D0222903D0CB
:101C10002046FFF713FFFEBD28460EF09FFBFEBDDA
:101C2000F0B587B00DF1300E9EE8F0104FF0000EC9
:101C30008DE8F05000F028F807B0F0BDF0B587B09F
:101C400004460DF1080CD4E90567B0F90850408A44
:101C50008CE8E1000020CDE90010B4F90C00B4F9E3
:101C60001060C118B4F90A00B4F90E50104433469C
:101C70002A4600F009F8050002D0618A00F087F9D1
:101C800007B02846F0BD0000F0B585B00D46DDE98F
:101C90000D640F9FDDE90AC141F48051DFF870E067
:101CA000CDE900C15837CDE902E729460EF0A8FA80
:101CB00005002AD001F08AFF1022314604900EF070
:101CC000F3F904981C2213496030FEF78BFA04994B
:101CD000012081F85500601C00D0012081F88000AF
:101CE000002C00DC082424B20C87002048874863BD
:101CF00004A8641C01F0B4FF2146284616F081FABE
:101D000018B928460EF05EFB002505B02846F0BD48
:101D1000471B0020C862022001488068704700000D
:101D2000C862022038B5002430B101F04FFF0090A6
:101D3000846C684601F094FF204638BDF8B515461E
:101D40000C4606000ED001F041FF009038B1022C85
:101D500005D200EB8400456730460EF0DCFF684694
:101D600001F07EFFF8BD10B5040006D000F04CF97C
:101D70002046BDE810400EF0CEBF10BD2DE9F04169
:101D800086B00C46060050D001F020FF0090406B5A
:101D900098B301F01BFF03900098806E03F0BCFE27
:101DA000804630460EF004FD0746039802F007FF18
:101DB0000546009890F8601001F00301012916D043
:101DC00002290DD0416EC06A00680844241A641EBE
:101DD000039804F0B5FF0146002C0FDA002115E04E
:101DE000781B401C00EBD070A4EB6004F0E7406E61
:101DF000791B081A241A641CEAE713E0AC4205DCDC
:101E000002462146039804F03BFF0146304600F0AD
:101E1000FBF803A801F024FF404603F07DFE3046A6
:101E20000EF079FF684601F01BFF06B0BDE8F081B7
:101E30002DE9F8431D46DDE9084916460F465FEADD
:101E4000000840D001F0C2FE204900908165204981
:101E5000C1650021C0E91271E0E90F65012104723A
:101E600080F81A90017690F84470684601F0F8FE08
:101E700087B1284615F0C9FB0546304615F0C5FB6D
:101E80000CB1401C6D1C854200DD284601464046D1
:101E900000F049F840461AF065FB404601F096FE16
:101EA000009000F09CF80B490978884205D1009811
:101EB000C16C4046491C00F0A7F8684601F0D0FE0E
:101EC00040460EF028FFBDE8F8830000692301209A
:101ED00065C50120D4610220022803D2024A02EB28
:101EE0008000416170470000C8620220014988609B
:101EF00070470000C862022000294FF0100101D095
:101F00000DF082BF0DF0D4BE38B50D46040009D0E7
:101F100001F05CFE0090856620460EF0FCFE6846EF
:101F200001F09EFE38BD7CB50C4606002ED001F0B7
:101F30004DFE0090B0F93810458FA14223D012DD3C
:101F4000406B80B101F042FE019004F0F9FEA04226
:101F500006DD2146019803F0B1FF019A00211154DA
:101F600001A801F07DFE684601F07AFE611B304653
:101F7000491C16F046F9304601F028FE009004870F
:101F800030460EF0C8FE684601F06AFE7CBD38B5EA
:101F90000C4605000AD001F019FE009018B1046645
:101FA00028460EF0B8FE684601F05AFE38BDF8B576
:101FB00015460C4606000ED001F008FE009038B120
:101FC000022C05D200EB8400C56630460EF0A3FE5D
:101FD000684601F045FEF8BD002219F04EBF38B545
:101FE0000546406B002468B101F0F0FD0090044606
:101FF000E96C03F063FF204403F022FF04466846C7
:1020000001F02EFE204638BD1CB50C4601F0DEFD69
:102010000090406BF0B101F0D9FD019004F090FE0A
:10202000009991F8542002B10122002C00DA00241A
:10203000844200DD0446B1F93800801AA04200DA7B
:102040000446C86CA04200D0CC640020086501A8FA
:1020500001F006FE684601F003FE1CBD30B50246E5
:10206000002300240868012816D013686FF30E03BC
:10207000D1E901052843CD6828430D6928434D69FE
:1020800028438D692843CD6928430D6A28434D6A4A
:1020900028430343136019E013686FF30E03D1E97B
:1020A000070528434D6A2843034354686FF30E0421
:1020B000D1E901052843CD6828430D6928434D69BE
:1020C00028438D692843044313605460002030BDC9
:1020D0000246506940EA4100506100207047F8B55F
:1020E00006460C461546002000900027D4E9000162
:1020F0000843A168491E40EA4110E16840EA4120D6
:1021000000900098306105F013FB074609E0681C59
:1021100007D025B105F00CFBC01BA84201D9032054
:10212000F8BDB06910F0200FF1D10020F8E770B5CC
:102130000346154600220024012D1FD09A6802F0A4
:1021400070420868401E4E68761E40EA061688688F
:10215000401E46EA0026C868401E46EA0036088A45
:10216000401E46EA0046888A401E46EA0056087E1F
:10217000401E46EA006002439A6022E0DA6802F0FC
:1021800070420868401E4E68761E40EA061688684F
:10219000401E46EA0026088A401E46EA0046087E9F
:1021A000401E46EA006002439C6804F07044C86820
:1021B000401E0603888A401E46EA00500443DA6047
:1021C0009C60002070BD2DE9F04389B0984615460B
:1021D0000F4606004FF0000428D000F0BFFB044675
:1021E000304600F08BFB814603A9304600F014FD19
:1021F000F80706D0BDF91C008221001B401B401CC3
:1022000008E0B807BDF91800284402D540F20221C1
:1022100000E002210096CDE9018123461A46494695
:10222000FEF7F2F804460021FEF77CFA09B02046DA
:10223000BDE8F08310B50523FFF7C5FF0446054A46
:102240000021FEF780FA044920460EF023FF2046C5
:1022500010BD0000A93A012021DD012010B508239E
:10226000FFF7B1FF0446054A0021FEF76CFA044966
:1022700020460EF00FFF204610BD0000F53B012068
:1022800069DF01202DE9F047044640688EB0002741
:10229000804601F09BFC0090B0F87CA0D0F86890DC
:1022A000D0F88060D0F88850C06D00B107686846EB
:1022B00001F0D6FC05E0696820468847002843D134
:1022C0002D68002DF7D12068172853D00CDC0F287B
:1022D0003DD004DC0B2877D00D2825D18BE01128C8
:1022E00010D0142820D13BE0262846D004DC1E283C
:1022F00051D0202818D18AE02A2816D0B0F5107FB6
:1023000012D128E04046E56801F060FC0290697A4D
:1023100039B9297A012904D130F87C1F41F4807140
:10232000018002A801F09CFC75E0404601F04EFCE3
:102330000090E16811B1C0F8841002E0D0F8840088
:10234000E060684601F08CFC0EB0BDE8F087D7B3C2
:102350004046B8475FE02146404617F0F3FDF3E7FB
:1023600005A9404600F058FCE0680699016007990D
:102370004160E9E7C4F80C90E6E7E0680228E3D1A1
:10238000CDF83080E0680D9027200A900AA9A06857
:102390000FF080FDD8E7E068012804D00021404616
:1023A00000F062FBD0E730460EF00AFD68B130461F
:1023B0000EF020FF30460EF0E5FB98B101213046CB
:1023C0000DF022FD0EE026E02FE048460EF060FF03
:1023D0000646404601F0FAFB0090C0F8806068466F
:1023E00001F03EFC0121404600F03EFB002EABD147
:1023F0000020E060A8E75FEA0A700CD4E068C068DB
:1024000048B1007A38B140460EF0F4FE03E02146B0
:10241000404616F0E6FF214640460DF065FC0028D8
:1024200092D020460DF09AFF8EE7404601F0CEFB99
:102430000090703001F026FB684673E7F0B587B076
:10244000B0F908400DF10C0C0C9E876945688CE8CA
:10245000F000448A0025CDE900150294B0F90C1073
:10246000B0F91050B0F90E40B0F90A001944104408
:102470002B46224600F002F807B0F0BD2DE9F047E8
:102480008AB00DF14C0CDDE917849CE86006129FC0
:1024900045F48055DFF8BCC06034CDE902C4CDE915
:1024A00000750DF0ADFE04004FD001F08FFB30221F
:1024B000494604900DF0F8FD04982822264934304E
:1024C000FDF790FE0498244FC0F86480A0F87C606B
:1024D0000026C0F88060C666083FC0F8886079684A
:1024E000C16504A801F0BCFB05A9204600F094FBDF
:1024F0001A4841F2827103960094CDE90110BDF9AA
:102500001E00BDF91A10BDF91C20431ABDF91800B0
:102510005B1C121A521C0DF073FE06467868416867
:1025200020468847204601F051FB0490866604A8A7
:1025300001F096FB42F20400054202D120460DF064
:10254000B3FF5146204600F00CFB0AB02046BDE820
:10255000F087000085220020EC620220212F00205D
:102560002DE9F041044694B0006800F0B7F908B1D5
:10257000D94D01E0D84D2C35606815281ED00CDCF3
:102580000B281FD004DC00287ED005287DD12FE148
:102590000E287BD01228F9D141E1162806D0172841
:1025A00008D0182808D01C28F0D109E0E86914B038
:1025B000BDE8F081286AFAE7686AF8E7A86AF6E7F2
:1025C0006869F4E720680B901C200C90206801F0EB
:1025D000FDFA0390016D0BA88847064603A801F099
:1025E0003FFB022E0FDB95E807008DE80700D4E9DA
:1025F00004023346A16904F081F920698719A069B2
:10260000A0EB06082CE0286803F07CFA2169E86951
:102610000A18521E606902F0E5F8A269E869111A09
:10262000491C606902F0DEF8D4E904077F1C3946D2
:1026300002F01AF93946A06902F016F9686803F049
:1026400061FA20693946401C02F00EF9A06939464A
:10265000401E02F009F9A0692769A0F10208BF1C19
:10266000286803F04FFA42463946606902F0BAF82A
:10267000686803F047FA606942463946401C02F038
:10268000B1F8686A022802E015E1B0E000E10BDD74
:10269000A86803F037FA61696A6A881C8B180146DA
:1026A000424638465B1E27E0296AB14226DD606952
:1026B000022E074600F1020801DB374401E007F172
:1026C0000207206901DB304401E000F102002269C9
:1026D0003B460A444146A2F1010202F08FF9022E64
:1026E00002DBA069821B01E0A269921EA069E96970
:1026F0003B46401A4146401C02F080F9022E02DBA4
:102700006069064401E06669B61CE76928687F1EB7
:1027100003F0F8F93A463146206902F01FF93A46CB
:102720003146A06902F01AF9E7696868BF1E03F034
:10273000E9F920693A463146401C02F00FF9A069D8
:102740003A463146401E02F009F9E869022802DCE7
:10275000286A022823DDA86A022802DDE1690F1A2F
:1027600001E0E769BF1EA86803F0CCF9E969022916
:1027700009DD20693B46421800F1020C31466046F3
:10278000521E02F03BF9286A022808DDA269E869B6
:102790003B46101A3146401C921E02F02FF9286861
:1027A00003F0B0F9D4E90620216902F01BF868684B
:1027B00003F0A8F9D4E906202169401E491C521EE5
:1027C00002F010F8A86A022811DDA1692669E469FF
:1027D000A1F10208271AA41EB61C7F1CA86803F0EA
:1027E00091F9234642463946304602F007F971E036
:1027F000208A00B2ADF81400A18A09B2ADF8161013
:10280000228B12B2ADF81820A38B1BB2ADF81A3090
:102810002C69ED68CDE9005401F0B0FF5AE0208A40
:10282000298B0844ADF81400A08AADF81600208B5F
:10283000298B401AADF81800A08BADF81A0020685B
:1028400001F0C4F90390006FF0B1022003F0C2F967
:10285000039890F87C10C1F3C00100EB8100006C7C
:1028600003F050F90398406B03F056F90398006F9A
:1028700001F0ACF903990990B1F95A2005A901F0CA
:1028800021FE09A801F0ECF903A801F0E9F921E023
:10289000208AADF81400A08AADF81600208BADF8A0
:1028A0001800A08BADF81A00A86803F02BF905A852
:1028B00002F0C8F80EE0206801F088F9039030F8C3
:1028C0005A1F41F00C01018003A801F0C9F92068EA
:1028D0000EF006FD00206AE6D866022038B5002416
:1028E00050B101F073F9009090F87C00000700D51A
:1028F0000124684601F0B4F9204638BD38B505001A
:102900004FF000040CD001F061F90090C06D00217F
:1029100080680268284690470446684601F0A0F99E
:10292000204638BDF8B50E4605004FF000040CD027
:1029300001F04CF90090C06D31468068026828466D
:1029400090470446684601F08BF92046F8BD000028
:102950000148006870470000EC62022030B587B083
:1029600005004FF000040ED001A900F055F92846EB
:1029700001F02CF90090B0F95440684601F070F96C
:102980000CB9BDF9044007B0204630BD8C230EF0D1
:10299000D5BE002801D016F066BB704730B504469E
:1029A0008BB0006801F012F9009090F87C10246A56
:1029B000006FC1F3C00508B101F008F90690E068A6
:1029C000029020690390A088401EADF81000E089B5
:1029D000ADF812002089401CADF81400608AADF8F3
:1029E0001600BDF80800401CADF80800BDF80A004C
:1029F000401CADF80A00BDF80C00401EADF80C00FC
:102A00000098406B03F088F8009808AA02A9B0F972
:102A10005A30069803F0AEFB009800EB8500806BFF
:102A200008F0A6F8009800EB8500006C08F0D8F8D4
:102A300008AB02AA04A906980DF070FA684601F0E6
:102A40000FF9069810B106A801F00AF90BB00020A2
:102A500030BD10B5040006D018F01AFC2046BDE8C1
:102A6000104018F0E9BB10BD002801D018F088BC58
:102A7000704738B50C4600280CD001F0A7F800903C
:102A8000816CA14203D08464806E0EF044F96846E4
:102A900001F0E6F838BD00000249014808607047BF
:102AA000300B0220E8620220022803D2024A02EB25
:102AB0008000C16070470000EC6202202DE9FC41FB
:102AC0000D46070028D001F081F80190C16D8C6897
:102AD00000F009F980460198456301A801F0C0F8AB
:102AE000226801213846904706462268032138466D
:102AF00090470546226800213846904704463846EC
:102B000000F0D7F92B46324641463846009400F093
:102B100060F938460EF0FFF8BDE8FC8138B50C4688
:102B200000280ED001F052F8009030F87C1F14B14C
:102B300041F0100101E021F010010180684601F030
:102B40008FF838BD38B50D46040009D001F03EF8C5
:102B500000900566684601F083F820460EF0DBF829
:102B600038BD7CB50D46040019D001F02FF8009057
:102B7000006F0190684601F073F8294601A804F03F
:102B800061FA00280BD0204601F020F8009001994E
:102B90000167684601F064F820460EF0BCF87CBD81
:102BA0002DE9FC470D465FEA00094FF000042DD0E7
:102BB00001F00CF80190B0F95440A54223D000F088
:102BC00092F8804601980121A0F85450C06D8568A4
:102BD00048462A68904707462A6803214846904796
:102BE00006462A680021484690470546484600F0B8
:102BF00060F933463A4641464846009500F0E9F808
:102C000048460EF088F801A801F02AF82046BDE8F1
:102C1000FC878C230FF0C6B92DE9F34F85B0002750
:102C20000C46B846059800F0D1FF0090C06D012118
:102C3000856805982A68904782462A680321059886
:102C4000904704902A6802210598904703902A68CB
:102C5000002105989047064600980EF088FD8346AF
:102C600000980EF08BFD8146009890F8321089068E
:102C700001D5B0F9588000F036F805460098C06ECE
:102C800010B10DF0A6FD074625806780A4F804A0CA
:102C9000049AABEB020006EB0802401E2A44208196
:102CA0003A44E280039BA9EB0302521E6281A4F81E
:102CB0000CA020827019E681401E6082684600F0F8
:102CC000CFFFB4F90C000190B4F91000029002AAF1
:102CD00001A9059800F03AF80198A0810298208295
:102CE00007B0BDE8F08F10B50146002091F8322002
:102CF000920607D5B1F95400002803D1486B01F0C2
:102D0000CAFF801C10BD70B58AB00C46054600F0A5
:102D10005DFF0990C06D866809A800F0A1FF0095CD
:102D200034B1012C06D0022C0BD0032C04D10AE0C4
:102D3000182000E0162001907168684688470AB0A4
:102D400070BD1520F7E71720F5E700002DE9FC41DD
:102D500017468846044600F039FF0090C16D0568AB
:102D600068468E6800F07CFF32680021204690475C
:102D7000064620460DF024FC27E000BF00F026FFA9
:102D80000190B0F900102AB2B0F90430891A9A1AE9
:102D9000B0F90230A3EB2543B34210D190F82800DC
:102DA000000605D53868884209DB491E396006E00F
:102DB000D8F80000904202DC521CC8F8002001A89C
:102DC00000F04EFF20460DF093FC0400D6D1BDE884
:102DD000FC812DE9FF4F83B00E460746DDF8409099
:102DE00000F0F4FE0190C16D8D68FFF77CFF044692
:102DF00001A800F035FF2A68012138469047834634
:102E00002A6803213846904782462A6800213846BE
:102E100090470546B44207D105998B4504D10699E0
:102E20008A4501D14D4541D0A41B0026B046384605
:102E30000DF0C6FB38E000F0C9FE0090806A010684
:102E400001D5800502E0810528D50006002825DB94
:102E500024B12246114638460EF059F8009890F8F1
:102E6000280000060AD50698A5EB0902A0EB0A0087
:102E700004FB16013846761C0EF00BF80098008D06
:102E800080050BD50599A5EB0902ABEB010004FB0E
:102E9000080108F1010838460DF0FBFF684600F014
:102EA000DFFE38460DF024FC0700C4D107B0BDE8B2
:102EB000F08F70B586B0064600F088FE0590D0E928
:102EC0001A4505A800F0CCFE54EA050026D0694654
:102ED0003046FFF7A1FEACB1BDF90620BDF90410E4
:102EE00020460DF0ABFFBDF90A00BDF90610421AED
:102EF000BDF90800BDF90410521C411A2046491CB6
:102F00000EF027FA002D09D0BDF90600BDF9021018
:102F1000421ABDF9041028460DF090FF06B070BDAE
:102F20002DE9F0430446406889B005460DF0E7FB03
:102F3000814600F04BFE0290D0F84880D0F88070B7
:102F4000466E02A800F08CFE2068172853D008DCDB
:102F50000E283AD00F2811D014284CD015283DD176
:102F600049E01E281ED01F282AD0222840D0312810
:102F700034D10020E06009B0BDE8F0836FF070410B
:102F80004046884503D007F0F3FD01F07DF8002EA0
:102F9000F1D0D4E902122068CDE90405CDE906128A
:102FA00004A81FE0E0680028E5D02FB1AF4203D0AD
:102FB00038460EF01FF9DEE728460EF069F9DAE729
:102FC000214648460CF090FED5E7E06841680029AC
:102FD00004DD00680928EFD00A2805D05EB120463C
:102FE000C4F80490B047C6E728460EF059F9C2E786
:102FF000C4F80C80BFE720460DF0B0F9BBE7000035
:1030000010B504460A280FD00D2C11D009480068CD
:10301000C06901682046884707480168002907D031
:103020002046BDE810400847BDE8104001F0B4B9A3
:1030300010BD0000E06102200C6202202DE9F04387
:103040000446C56887B090468946002002F062FDBC
:10305000064625B1287910B146F0020001E026F0BD
:10306000020002F057FD2069012558B1D4E902128F
:103070008DE8260003956388228804684146484607
:10308000A0471EE0124F134B214638681B68427C54
:10309000E068984730B9E088012801D0002001E0BD
:1030A0003868806BA288E388A1680095CDE9041098
:1030B000CDE902320195638822884146484606F0F0
:1030C000C3FF07B03046BDE8F04302F023BD000067
:1030D000E0610220D86102201CB50024019401ACFB
:1030E000009400F0E7F81CBD2DE9FF4F83B0814646
:1030F00006988A46A0EB0A08109E00200090A2EBDA
:1031000009043568934654EA080018D02046FDF7B4
:1031100009F907464046FDF705F987420BDA2046D4
:10312000444680464846D14682465846DDF818B0A7
:10313000069001200090002C07DD204606E007B035
:103140004846BDE8F04F00F03BB96042A0420AD0CB
:103150004846D9466442C8F1000883464FF0FF371D
:10316000DDF818A000E001275148B8F1000F11D098
:1031700004EBD4714FEA610B01DACBF1000B4C4840
:103180000068807E88B3002F02DA30682044306007
:1031900000257BE000990029016821D0897E11B1CA
:1031A0000027804615E007B05A4649465046BDE81C
:1031B000F04F07F03DB928466D1C18F0FDF938B9FD
:1031C000D8F8000009EB0701406E4268504690476E
:1031D0007F1CA742EFDD6D1E356007B0BDE8F08FA4
:1031E0008A7E1AB10027804617E019E0486E5A46D9
:1031F0005146036807B04846BDE8F04F18472846D7
:103200006D1C18F0D9F938B9D8F8001009EB07008F
:10321000496E4A68514690477F1CA742EFDDDAE7C6
:1032200000250FE008FB05B090FBF4F101EB0A006C
:10323000009951B11E4A09EB05011268526E52689D
:1032400090476D1CA542EDDDC7E7194909EB050361
:103250000968496E4A6801461846F1E708FB05B05F
:1032600090FBF4F101EB0A000190306838443060C3
:1032700018F0A2F948B9009890B10D4809EB050182
:103280000068406E4268019890476D1CA542E5DDDC
:103290003068002F01DA20443060C01B30609CE7AA
:1032A000034909EB05000968496E4A680199EBE793
:1032B000E06102202DE9FF470F464049164680464F
:1032C00009680C981D460A7E012A1CD0A8EB06004E
:1032D000791B50EA01031CD0A2F1010919F0EAFEA2
:1032E00000F58060824603F07EFF00FB09F4504643
:1032F00003F07EFF00FB09F1002C0CDAC4F500702E
:10330000801240420AE00090324639464046FFF7BC
:10331000EBFEBDE8FF8704F50074A012002904DA73
:10332000C1F5007189124C4202E001F500718C1266
:10333000002804DD411C01EBD171491003E000EBD2
:10334000D0714910401E00EBD0704210002C04DDFB
:10335000601C00EBD070401003E004EBD470401010
:10336000641E04EBD47308EB0104ADF800403C1874
:10337000ADF80240A8EB02045B10B21AADF80440AD
:10338000ADF808203144FC1AEA1AADF80C102844B4
:10339000ADF80A20ADF80E000023ADF806401A463D
:1033A0000421684600F07AF83946404612F088FC5D
:1033B0002946304612F084FCABE70000E0610220B1
:1033C000064A13681A7E012A05D0521E02EBD272F9
:1033D000521000F005B85A6E52681047E0610220A2
:1033E0002DE9F05F0646884640F2C32002FB00F15B
:1033F0004FF47A7091FBF0F702FB02F102EBD2700E
:1034000001EB600B1446B118234A301B7F1C126875
:10341000526E13680A4641469847012538E000BFBE
:1034200005FB05F004FB040159451CDDBC4219DD18
:10343000194B06EB050AA6EB05091B68AAF1010268
:1034400008EB04015B6E09F101001B689847124B01
:10345000AAF10102A8EB04011B6809F101005B6EEF
:103460001B689847641E0C4B3219301B1B68924630
:1034700008EB05015B6E81461B689847064B524678
:10348000A8EB05011B6848465B6E1B6898476D1CDE
:10349000BD42C5DDBDE8F09FE06102202DE9FF4F90
:1034A00043F6FF740F46664283B09B468146002177
:1034B0000BE000BF09EB8100B0F90200A04200DA86
:1034C0000446B04200DD0646491CB942F2DB6748BB
:1034D0000068406900280DD0B0F906101A46A1EB2B
:1034E0000B01B14200DA0E46B0F90200801AA04288
:1034F00000DD0446B4E0DFF878A100200546CAF8F4
:10350000000088E0781E854201DA6B1C00E0002391
:1035100009EB850C09EB8302BCF90200B2F9021039
:10352000A04244D1A14215D139F92330059A39F985
:10353000251003EB020C4D4A05981268084404EB71
:103540000B01526E6045136801DA62462AE00246BA
:10355000604627E02846A4464FF000087A1E0BE09C
:1035600008B1401E00E0781E09EB8003B3F9023079
:10357000634504D108F101089045F1DB2346A342DD
:1035800048D01A1B39F92500A1EB040C059B92EADF
:103590000C0F09D4354A184404EB0B011268526E23
:1035A00013680246984735E00EF008FE32E0A1426B
:1035B00030D001DBA04203DDA0422BDBA14229DC9D
:1035C000E04688420ADC0346A04223DC0846A142CA
:1035D00020DBB8F900C0B2F9001008E00B46A142A8
:1035E00018DCA04216DBB2F900C0B8F90010E21AEC
:1035F000A1EB0C0151430029A0EB030202DD01EB1A
:10360000620102E0A1EB6201491CC01A91FBF0F0DB
:103610006044C9E76D1CBD42FFF674AF0598009089
:1036200004EB0B00019000208046054613E0114991
:10363000B8F1000F31F915A009D0009901EB0A0289
:1036400008440A490968496E0B680199984788F04F
:10365000010850466D1C064909688D42E7DB641C71
:10366000B4427FF748AF07B0BDE8F08FE0610220B9
:10367000586802207CCE022010B5002002F040FAEB
:103680006FF07F4002F03EFA012002F091FA002034
:1036900002F096FA002002F09DFA002002F03AFAB9
:1036A0000448006802F038FABDE81040002002F03B
:1036B0005BBA0000DC610220014AC2E900017047E8
:1036C0008C610220014AC2E9000170479461022026
:1036D000014AC2E90001704768620220014AC2E95A
:1036E000000170479C610220014AC2E90001704755
:1036F000706202202DE9F04FDFF828B191B04FF051
:10370000FF35DBF80030B3F922100691DE69B3F91A
:103710002490F469A189814206D8E289824203D3C8
:10372000471AD4F8008012E0D4E9018100296FD053
:103730000A8882426CD84D88854269D3801A82B249
:10374000486800EB8200B0F90070B0F90250781CB4
:103750005ED0307EA17C10FB01FA217CCDE907010F
:10376000B3F92A60304607F063FAC0B20E90DBF876
:10377000000007FB0A81A37C826B0127CDE90412BC
:10378000CDE90273C069089AC17E807ECDE900014F
:10379000DDE90603494606F057FC681C18D046F0E0
:1037A000020007F045FADBF80000A37C05FB0A8164
:1037B000826BCDE90273CDE90412C069089AC17E1B
:1037C000807ECDE90001DDE90603494606F03CFCB8
:1037D000DBF800005D46C069417E007E814214D95D
:1037E000022E12D086F0040007F022FA2868C06981
:1037F000027EC37E12FB0391437E857E089A069863
:103800004B4412FB050206F03DFE0E9807F010FA3D
:10381000DBF80000627C418C1144418411B0BDE8AA
:10382000F08F0000E061022004480068C069C069B0
:1038300009B1027C0A60407C70470000E061022010
:10384000022008807047C06982898A4202D8C289F2
:103850008A4210D2806880B102888A420DD843889B
:103860008B420AD3406800EB8100A0EB8200B0F9E4
:103870000000002801DB0120704700207047000095
:103880002DE9F043304C034687B020681946B0F963
:103890002A60C069C06900F086F8002850D04168ED
:1038A0000088181A01EBC0053046AF7807F0C0F960
:1038B000814620686A680123816BCDE90237CDE932
:1038C0000421C169CB7E8A7ECDE900230B7EB0F94D
:1038D00024102A78B0F9220006F0B6FB2068C069EF
:1038E000417E027E91421FD9C07E11FB00F812FB7F
:1038F00000F7022E18D001F026F9064601F006F96D
:1039000002F000F921682A78CB69B1F92200DB7E48
:1039100012FB0302B1F9241001EB0803394406F04D
:10392000B1FD304602F0EEF8484607F081F9206814
:103930006A78C369B0F922109B7E12FB031141849F
:1039400007B0BDE8F0830000E061022030B50F4C05
:1039500005460B4620682946C069C06900F023F877
:10396000002812D04168008824682A1A0120E469DE
:1039700000EBC200085CA47E10FB04F0002B04D016
:1039800011F8321011FB04F1196030BDE061022022
:1039900001200880704700B5C06900F004F80028D5
:1039A00000D0012000BD06E002888A4202D8428889
:1039B0008A4202D280680028F6D17047F8B50546E1
:1039C0000C000DD0084600F015F8060010D000F0ED
:1039D000FDF8224600902DB12946FCF703FC04E0D7
:1039E0000020F8BD002103F09EFB684600F038F986
:1039F0003046F8BD002801D00EF0B8BD704738B58C
:103A00000546FFF7F7FF040009D000F0DFF82A466B
:103A10000021009003F087FB684600F021F9204662
:103A200038BD0000024A106021F00300506070476A
:103A3000C0CC022010B5002814D004460A48406BC0
:103A400010F8341000290DD002290BD2042101EB0B
:103A5000C401415848680EF0CDFB2046BDE8104037
:103A600017F0A2BA10BD000000CC0220002805D03B
:103A7000034AD16B016001B14860D0637047000018
:103A800000CC022010B504460068FFF7D3FF0020E9
:103A9000206010BD70B50D460646002405E000BF4D
:103AA00006EB8400FFF7EEFF641CAC42F8DB70BD50
:103AB0002DE9F041044614F085FE2848E41C24F06A
:103AC0000305016C2D1DA94200D90D46C46B13E0FE
:103AD00054F8042CAA420ED184B1216809B162685D
:103AE0004A60616809B122680A60C26BA24231D1A2
:103AF0002168C1632EE02468002CE9D18046816BE7
:103B0000C0680F1857F8040C3E1A306838B100200E
:103B100017F042FB57F8040C3E1A3068D0B97068B1
:103B2000A84217DB3044441B3046241D17F0ECFA42
:103B3000D8F80C10491BC8F80C10D8F814102944F8
:103B4000C8F814107068401B02D031460EF052FBCA
:103B500044F8045C2046BDE8F081000000CC02205F
:103B600010B5002414F02EFE0C490F2001EBC0020A
:103B7000526C1AB101EBC000406C08E0401EF5D554
:103B800008E04168A14200D90C46806810B1806805
:103B90000028F6D1A4F10C0010BD000000CC0220DA
:103BA0000248C1680068081A7047000000CC022073
:103BB000002138B10449042202EBC000496B0858C7
:103BC00041680C390846704700CC02200549CA6993
:103BD000521CCA61496B01EBC0010A78521C0A7081
:103BE00000F056B800CC02207CB506460C460846CC
:103BF000FFF700FF05001CD0DEB13046FFF7D8FF0D
:103C0000A04200DA04462846FFF7E0FF0090304665
:103C1000FFF7DCFF0146019022460098FCF7E2FA2C
:103C2000684600F01DF801A800F01AF83046FFF7CA
:103C300001FF28467CBD000010B5FFF791FF64220C
:103C40000649B0F5800F04D990FBF2F0096A4843A9
:103C500010BD096A4143B1FBF2F010BD00CC022057
:103C60000A4902684B6B52F8082C03EBC202137826
:103C7000022B03D3CB690BB15B1ECB611178491EBC
:103C800011700021016008467047000000CC02203E
:103C9000002806D00349042202EBC000496B0858F3
:103CA0000830704700CC02202DE9FC414FF000069F
:103CB0000B465FEA000834462BD032B11146184655
:103CC000FFF77CFE060000D101244046FFF77EFF8F
:103CD0000090078845686846FFF7C2FFCCB9B90075
:103CE0002846091DFFF780FF050015D0FFF76EFF7E
:103CF000019040F8276001A8FFF7B2FF4046FFF7A8
:103D000065FF009045600188491C01806846FFF707
:103D1000A7FF2046BDE8FC813046FFF78BFE01245B
:103D2000F7E70820FFF76BBE7CB5050023D0FFF74F
:103D30004DFF00904068C0B1FFF748FF002401909C
:103D400005E0019800EB8400FFF79CFE641C0098DE
:103D50000088A042F5DC01A8FFF782FF0098001D53
:103D6000FFF790FE0099002008806846FFF778FF73
:103D70002846FFF75FFE7CBD38B5002430B1FFF761
:103D800025FF009004886846FFF76AFF204638BD8B
:103D900038B50D46002448B1FFF718FF29460090BA
:103DA00000F016F804466846FFF75AFF204638BD73
:103DB00038B50D46002448B1FFF708FF29460090AA
:103DC00000F018F804466846FFF74AFF204638BD61
:103DD00038B50D4601880024A94209D9406838B198
:103DE000FFF7F4FE009050F825406846FFF738FFD3
:103DF000204638BD10B50024FFF7EAFF10B1FFF7E9
:103E0000E5FE0446204610BD70B50C46054600F0A0
:103E1000C3FFC1B223462846BDE87040002200F02F
:103E200001B80000F0B52D271C68B0F1004F08D094
:103E3000002600280DDA651C1D6027704042012411
:103E400008E0651C01261D606FF000402770491EC8
:103E500001E00024091BC9B22AB3491EC9B222E0FD
:103E60000C46491EC9B2944205D1124C27781C68F1
:103E7000651C1D602770104C54F8215090FBF5F420
:103E8000E4B20A2C11D804FB150011B90EB1641C60
:103E9000E4B20A2C02D10124491CC9B21D686F1C6E
:103EA00030341F602C700029DAD1196800200870A6
:103EB000F0BD0000D4610220C80E022010B5002819
:103EC00007DD0A682B24531C0B601470096800225C
:103ED0000A7010BD2DE9FC5F04468946084600F0D3
:103EE00039FE2B4E09EB8907824656F827000190D0
:103EF00028484FF00108016841B92649C0F8008000
:103F0000091D25480860084603F094F8204A09EB8B
:103F100089015FEA0A0002EB81051BD001F0A2FDD6
:103F200083464FF07F4001F0EBFD00F0ADF800223A
:103F30001146206800F076FB2068428801885046D0
:103F400001F00EFE46F8274085F80580584601F03E
:103F500089FD17E046F8274085F805802869464620
:103F600018B101F0D5FC0020286174B10096E86812
:103F7000A1684B46421AA8686168411A206801F09E
:103F800009FD2861484617F0D1FF0198BDE8FC9F64
:103F90003CCD022024620220C994012070B506465F
:103FA0000D461446104600F0D5FD0300164804EBFC
:103FB00084010AD050F8210041688068711A2A1AD9
:103FC000BDE87040184601F0C9BD00EB8104A2684D
:103FD000B24201D0012200E00022E368AB4201D0EE
:103FE000012300E000231A430CD0236943B150F8A9
:103FF0002100816840686A1A311A184601F0A6FC4F
:10400000C4E9026570BD00003CCD02200248006892
:10401000407C00F003B80000E061022030B40949A0
:1040200000EB800201EB82040123637151F822103E
:1040300011B130BC17F07ABF014630BC0248FFF71F
:1040400049BF00003CCD0220040F022010B5C2B2CF
:10405000CBB2D21A00D5524293B25B43C0F30722CF
:10406000C1F30724121B00D55242000C92B2A0EB00
:10407000114002FB023200B2002801DA404200B2D5
:1040800080B200FB002010BD10B50021084600F0F2
:1040900017FE43F6FF725042BDE81040134601463A
:1040A000AFF300802DE9FC4107461C4615460E463D
:1040B000042006F0BDFD80461148C068C16C006D4B
:1040C0000F4406440D440444ADF80070ADF80450AC
:1040D000ADF80260ADF8064068460DF057FB07E00A
:1040E00023462A463146384606F0CCF90DF0E8FA68
:1040F0000028F5D1404606F09BFDBDE8FC8100009C
:10410000D4610220B0F90630B0F90420B0F90210F1
:10411000B0F90000FFF7C6BF2DE9F8431C00DDE948
:10412000089816460F46054602D10CF02BFA0446B5
:1041300000962E6843464A4621462846B047060068
:1041400035D00CF013FA8146698A30460BF05CFEDC
:1041500030460DF078F948460DF075F94FF000083B
:104160000CE000BFCDF8008055F81CCF00231A46A4
:1041700049462846E047E0B10DF065F97F1E002F63
:10418000F0DC1D2148460CF074FF601C0ED00CF0D2
:1041900029FA30B1FFF77CFD8469B44201D02000D8
:1041A000F8D1B44202D030460DF072F83046BDE886
:1041B000F88330460CF006F90020F8E72DE9F041CD
:1041C0001C4616460D460746022B02DB0020BDE8C2
:1041D000F0811C20FFF76CFC0028F8D00DB10561C0
:1041E0000AE0094A52F8241009B905E011460A68A4
:1041F000002AFBD109690161846186820021016086
:104200004160C0E90217E2E7F861022070B51D467F
:10421000FFF7D4FF040009D000F00EF8E068006852
:1042200020B90348006800EB85008465204670BD16
:10423000E0610220FFF71ABC70B590B38269022AD0
:1042400030DA1E4C54F8221019B944F8220032E03A
:1042500019464B68002BFBD106E0CB68C5681B688C
:104260002D68AB4203DD09680029F6D11AE0C1B11F
:10427000CB68C6681B683668B3420CD1838A012BB1
:1042800005D008E01946DB681B68AB4203DB0B680E
:10429000002BF7D129B14B6833B118604A684260EE
:1042A00004E0FFE7012070BD44F822004860884226
:1042B00000D100210160002070BD0000F8610220E3
:1042C00018F038B9022801DB00207047054A52F87F
:1042D000200004E0C26812688A42F6D00068002814
:1042E000F8D17047F8610220022801DB00207047F6
:1042F000054951F8200004E0C16809680029F6D09A
:1043000000680028F8D17047F8610220F8B5074628
:1043100015460E460C20FFF772FB04000AD0FFF78B
:1043200055FC05490090C0E90017068145816846A3
:10433000FFF796FC2046F8BDA42402202DE9F8439F
:104340001D461646884604000CD0FFF73FFC00903F
:10435000006807686846FFF783FC2B4632464146F3
:104360002046B847BDE8F88370B5044601F0DEFE8C
:10437000051908E000F020FB052C01DD052000E018
:10438000204601F0C5FE01F0D1FE2C1A002CF1DC14
:1043900070BDFCF77DBC000000B500F0F9FB0449DE
:1043A00009688A8C10448884088C488400BD000009
:1043B000E06102202DE9FC4706005BD000F0E8FB3D
:1043C0003B4C81462068B0F9228000F047FC216810
:1043D00007468A8CD01B888441E000BF47F6FF71F6
:1043E000304602F091FC82460146304602F062FC03
:1043F0002168054691F82C0000F0030001283FD009
:10440000022839D000204A8C101A4884ADF80000E8
:104410006A1E1044ADF80400888CADF80200A9F1C2
:1044200001010844ADF806006A465146304602F0E4
:1044300075F82168BDF8020088845146304601F0C5
:104440003DFD064430780A281CD00D281AD0BDF84E
:104450000000216828444884307818B1761C3078F0
:104460000028BBD12068818C39448184818D21F062
:1044700003018185BDE8FC8705EBD5704010C2E7DC
:104480002846C0E7206890F82C1001F003010129AC
:104490000BD0022909D0018C418431780A29DBD163
:1044A000828C02EB09018184D6E7A0F82280F4E730
:1044B000E0610220024B1B6859849A84FFF77ABF9F
:1044C000E061022047F6FF73AFF300802DE9FC4165
:1044D0001F46904606000D464FF0000416D065B109
:1044E00008460CF055FF040007D0024629466846EE
:1044F00002F077FC68460CF04BFF3B4642462946EB
:10450000304602F063F820460CF042FFBDE8FC8123
:104510002DE9FF4F87B090468946070079D00C6897
:10452000D9F8045021B228B2401A401C029000F081
:104530002FFB064618F00C0F1ED038460A9A029937
:1045400001F0C5FD08F00C01042904D0082902D0AF
:104550000C2911D104E0291400FB1610401C09E0BD
:104560002114C1EB254200FB1620401C00EBD0704B
:1045700001EB600060F31F4448460CF009FF5FEA5E
:10458000000B09D00246494604A8CDE9044502F0D3
:1045900028FC04A80CF0FCFEA6F1010A38460A9A91
:1045A000029902F08FFD03900AEB244060F31F454F
:1045B000CDE900453846039902F07CFB18F0030171
:1045C0000ED0012928D002290ED1B9F90420B9F959
:1045D0000010521A101A00EBD07001EB600001E0DD
:1045E000B9F80000ADF800006A463846039901F0BA
:1045F00095FF38460A9A029902F05AFD074406EBE5
:10460000244060F31F4438780028C7D158460CF086
:10461000BFFE0BB0BDE8F08FB9F80410081A401CBB
:10462000E0E700007CB5064610480068C36C006DEA
:104630005D1884183188681E0844ADF80400ADF890
:1046400000507188601E0844ADF80600ADF80240C5
:1046500068460DF09BF806E0224629463046FEF7F4
:10466000EDFC0DF02DF80028F6D17CBDE0610220B4
:104670001CB50A460146684602F0CFFC2448BDF846
:104680000010006830F84C2F1144ADF80010BDF850
:10469000021082881144ADF80210BDF8041002889F
:1046A0001144ADF80410BDF8061080880844ADF838
:1046B000060068460DF06AF827E000BFBDF900402B
:1046C0000BE000BFBDF90210204605F07DFEBDF9EC
:1046D0000610204605F078FEA41CBDF90400A04297
:1046E000F0DABDF902400AE0BDF90000214605F00C
:1046F0006BFEBDF90400214605F066FEA41CBDF961
:104700000600A042F0DA0CF0DBFF0028D6D11CBD79
:10471000E06102202DE9F04F0C46164987B00D6884
:10472000DDE91098E96C0F18286D8D180619C4186A
:10473000ADF81070ADF81450ADF81260ADF8164039
:1047400004A80DF023F8002811D0DFF82CB04FF0AA
:10475000000ACDE90098CDE902BA2B462246394637
:10476000304611F067F80CF0ABFF0028F1D107B02C
:10477000BDE8F08FE061022031A400202DE9F04F68
:10478000164C87B02568DDE91098EC6C2718286D69
:10479000A5184618C418ADF81070ADF81450ADF84F
:1047A0001260ADF8164004A80CF0F0FF002811D0FC
:1047B000DFF82CB04FF0010ACDE90098CDE902BA3C
:1047C00023462A463146384611F034F80CF078FF7B
:1047D0000028F1D107B0BDE8F08F0000E0610220B1
:1047E00071A300202DE9FC41104F04463B68D86CB2
:1047F0004518196DADF800500E198418ADF8044035
:10480000ADF80260ADF8066068460CF0BFFF08E046
:10481000386822463146406E0368284698470CF0B7
:104820004FFF0028F4D1BDE8FC810000E0610220C8
:104830002DE9F0410B4C2568EC6C2718286DA51864
:104840004618C41800200CF0A1FF07E023462A46B2
:1048500031463846FEF740FC0CF032FF0028F5D117
:10486000BDE8F081E06102207CB50E4D2A68D36C72
:104870001E18106DADF804604418ADF80060ADF876
:104880000640ADF8024068460CF080FF07E028685B
:104890002146406E4268304690470CF011FF0028D8
:1048A000F5D17CBDE06102202DE9FC411C4C24685F
:1048B000E66C94F818C03718206DACF1010C45185F
:1048C000C418A7EB0C001644ADF8000006EB0C0072
:1048D000ADF80400A5EB0C00ADF8020004EB0C00F1
:1048E000ADF8060068460CF051FF15E03246294647
:1048F000384605F03DFD32462146384605F038FD84
:10490000621E691C384605F093FD621E691C304624
:1049100005F08EFD0CF0D4FE0028E7D1BDE8FC8147
:10492000E061022070B50E468EB004460146154681
:1049300006A802F04FFBBDF81A30642B0CD1002002
:1049400000900AAB01AA214606A801F0C9FD2A463B
:10495000314601A8FFF766FE0EB070BD7CB50E4B68
:104960001B68DC6C2618186DADF8006045188418BB
:10497000ADF80460ADF80250ADF8064068460CF0A2
:1049800005FF06E022462946304605F051FD0CF0B1
:1049900097FE0028F6D17CBDE061022070B50C4680
:1049A000054600F0E1F810B10121C0E900142846E5
:1049B000BDE870400CF006BE10B5002400E00124F4
:1049C00000F004F80028FAD1204610BD094810B5BF
:1049D0000068002410B1804700B101240BF072FD83
:1049E00000B101240448006810B1804700B10124DF
:1049F000204610BD04620220006202202DE9FC4125
:104A00000F4C2568EC6C2718286DA5184618C4189B
:104A1000ADF80070ADF80450ADF80260ADF8064096
:104A200068460CF0B3FE07E023462A463146384676
:104A300005F028FD0CF044FE0028F5D1BDE8FC810E
:104A4000E0610220B0F90630B0F90420B0F902109C
:104A5000B0F90000FFF7D2BF08B50B46002805D01B
:104A6000009281888268C08800F001F808BD10B506
:104A70000828029C30D008DC04FB01F401280AD08D
:104A8000022813D0042804D11CE0102828D02028A4
:104A90002CD0002010BD04EBD30003F00701105C04
:104AA000C1F10701C84000F0010010BD04EB930004
:104AB0000621105C01EA4301C1F10601C84000F083
:104AC000030010BD04EB5300D907105C02D000F0C6
:104AD0000F0010BD000910BD04FB0130105C10BDBB
:104AE000481004FB003032F8100010BD881004FBA1
:104AF000003052F8200010BD034951F82000C16871
:104B00008A6A082110470000F861022010B505F0FC
:104B1000E9FCBDE8104005F095BD000002490968B8
:104B2000C9694A6800211047E0610220024A126800
:104B3000D269526810470000E0610220002801D0CD
:104B40000BF004BD704710B505F0D4FCBDE8104073
:104B500005F078BD0021022802D2024951F8201048
:104B600008467047606202201FB500210191029142
:104B700003912A21009169460CF076FA039804B05B
:104B800010BD000001480068007C7047E061022011
:104B900002480068C069407E70470000E061022062
:104BA00002F07EB870B514460D4605F0E9FC002809
:104BB00002D000202860206070BD02F0CFB810B590
:104BC000044602F0BDF801462046BDE8104002F060
:104BD00071B800002DE9F74306464FF00008019830
:104BE00044464746154618B302F05AF880460198E5
:104BF0000078D8B91CE029467F1C019802F084F89F
:104C000081460146A5EB0905019802F053F8A04240
:104C100000DC204604464946019801F04FF901990D
:104C20000844019001A802F0B3F808B9002DE2D1C0
:104C30000848641E0168498C318000682144B0F93D
:104C40002400708008FB0700B180401EF080BDE8A2
:104C5000FE830000E061022001F068BA0A490020EA
:104C6000096891F82C2002F00C02042A07D0082AC7
:104C700001D00C2A02D1C869007E40087047C8697B
:104C8000007E401E70470000E0610220417EC07E31
:104C900011FB00F07047017EC07E11FB00F07047F1
:104CA000024951F82000006900687047F86102204D
:104CB000024951F82000006940687047F8610220FD
:104CC00070B50D4613F072FA0446284613F076FAD2
:104CD000204370BD124810B5016821F00101016048
:104CE0001048012181601049016000680F49884225
:104CF00000D0FEE701F026FB0D492E20087001F0E0
:104D00001BFA0C4813F026FD19F0B6FB04460021EF
:104D1000084600F031FF0BF059FF204610BD00009F
:104D2000002000E000300240C2A507F4CDB5E8B590
:104D3000D4610220CCCC02202DE9FC4107461C4660
:104D400015460E46012000F0E5FE80461148006839
:104D5000C16C006D0F4406440D440444ADF800706E
:104D6000ADF80450ADF80260ADF8064068460CF0AE
:104D70000DFD07E023462A463146384605F082FB02
:104D80000CF09EFC0028F5D1404600F0C3FEBDE8C3
:104D9000FC810000E061022010B5011E01DD024629
:104DA00000E04A42064B012053F82040944202D8CA
:104DB000401C0A28F8DB002900DA401C10BD000066
:104DC000C80E02201CB520B90C480068006E0028EF
:104DD00012D0FEF7FBFE009044696846FEF740FFE4
:104DE000002C09D02046FEF7F1FE01908168896809
:104DF000884701A8FEF734FF1CBD0000E0610220D7
:104E000001490A4600F002B801F0FFFF2DE9F04326
:104E100087B015460C465FEA000842D0002000F03B
:104E200079FE814620480068066E4046FEF7CEFEB9
:104E300000900068806900F015FE074640F6FF709C
:104E4000C44204D10098B0F90440B0F9065000986B
:104E5000611E0289ADF804401144ADF80810418983
:104E6000681E0844ADF80650ADF80A000BF046F98C
:104E70006846FEF7F5FE01A80CF088FC06E02A461D
:104E80002146404600F07EFB0CF01AFC0028F6D1CB
:104E9000384600F0E7FD304600F090F9484600F053
:104EA00039FE07B0BDE8F083E06102202DE9FE4F36
:104EB000834619488A46194900680C9E9846407CEA
:104EC0009146002751F82040E1680968042903D081
:104ED0002468002CF8D100E014B9FFF705FA044665
:104EE0000121E068C26A20469047050011D024697C
:104EF000A0688047401C02D1094C46F0010600968C
:104F0000CDE9015443464A465146584600F0DAF985
:104F100007463846BDE8FE8FE0610220F8610220B6
:104F20005C1C022038B5040018D00D480068006EE3
:104F3000A04201D100F08CFD2046FEF747FE009014
:104F4000406908B101F0B1F800980068FFF772F904
:104F50006846FEF785FE2046FEF76CFD38BD000072
:104F6000E06102202DE9FF4F0746464883B099468D
:104F70000068DDF840B08A46447C43480057012869
:104F8000204606DD05F026FB8046204605F02EFB78
:104F900005E005F00EFB8046204605F010FB0446B8
:104FA00017B302A901A8FFF708FEB7F90060002EA9
:104FB00000DA0026B7F90250002D00DA0025019929
:104FC000B7F904004144491E14F049F8804602989C
:104FD0000119B7F90600491E14F041F8A8EB0602C2
:104FE000441B521C641C02E0002635464246B9F1BF
:104FF000000F01D1C4F10009002A01DD002C03DCFF
:10500000002007B0BDE8F08F4B4629463046CDF86A
:1050100000B0FFF74BFF5FEA000909D000F094F8F9
:105020008046484600F0CAF80027DFF860B01FE06D
:105030005146059888470120E3E7E11B414502DA24
:10504000484600F0A5F83FB1EA193146484600F05D
:10505000D7F84846FFF7B6FE514605988847DBF873
:10506000001009B1002088474846FFF7C9FE4744B1
:10507000A742E2DB4846FFF755FF002000F09EF80C
:10508000BEE70000E061022018620220C465022031
:1050900038B5002460B1FEF799FD00900068006902
:1050A0008068804706F028F904466846FEF7D8FD78
:1050B000204638BD38B5002808D0FEF787FD00F13E
:1050C000180400906846FEF7CBFD204638BD00006E
:1050D00038B5002418B907480068006E38B1FEF7EB
:1050E00075FD0090B0F904406846FEF7B9FD204612
:1050F00038BD0000E061022038B5002418B9074827
:105100000068006E38B1FEF761FD0090B0F908400C
:105110006846FEF7A5FD204638BD0000E06102208C
:1051200038B5002418B907480068006E38B1FEF79A
:105130004DFD0090B0F906406846FEF791FD20460F
:1051400038BD0000E061022038B5002418B90748D6
:105150000068006E38B1FEF739FD0090B0F90A40E2
:105160006846FEF77DFD204638BD0000E061022064
:1051700070B50546002428460EF00EFB641C18B1DD
:10518000BDE8704000F068B8052CF4DB70BD00008D
:1051900038B50C4620B908480068006E00280AD0CF
:1051A000FEF714FD0090B0F90A10A14200DD448121
:1051B0006846FEF755FD38BDE0610220F8B50F4E98
:1051C00005003068046E16D00CB100F041FC0BF005
:1051D000BBF82846FEF7FAFC009031680D660068BF
:1051E000FFF72AF86846FEF73BFD05F0A7FD05F03E
:1051F000E9FC2046F8BD00F02BFCFAE7E061022054
:105200007CB515460C4620B912480068006E00288F
:105210001FD0FEF7DBFC2DB20090C58024B2848045
:1052200005F0D0FC0098406980B1FEF7CFFC009AF1
:105230000190B2F908108180B2F90A20C28011B140
:105240000AB10480458001A8FEF70AFD6846FEF712
:1052500007FD7CBDE061022001490A4600F002B86A
:1052600001F0FFFF7FB515460C46060028D0FEF77B
:10527000ADFC40F6FF710190CC4203D1B0F904407F
:10528000B0F906500289611E1144ADF80840ADF82E
:105290000C104189681E0844ADF80E00ADF80A50A4
:1052A00001A8FEF7DDFC02A80CF070FA06E02A4621
:1052B0002146304600F04EF90CF002FA0028F6D1F3
:1052C0007FBD00002DE9FF4FDFF8E8B083B01C463A
:1052D000DBF80010DDE9106092464FF000084B7CCF
:1052E00042461299FEF76AFF050060D0286980687F
:1052F000804706F001F881460AFB09F1C91DCF0875
:10530000FEF79AFCF10705D1C11700EB91708010F0
:1053100000EB4000002C09DC1FB11838B0FBF7F09F
:1053200000E000206442A04200DC0446F00707D100
:105330000090DDE903012346524600F03FFE80461F
:10534000002C03DC2846FEF775FF30E004FB07F075
:105350001830F10702D0FEF74DFB01E0FEF74FFBDE
:1053600006001CD0FEF732FC019005600399818095
:105370000499C180A0F808A04481C0F81480C0E955
:10538000037901A8FEF76CFC1298AE602861DBF887
:105390000000407CA861304607B0BDE8F08F284689
:1053A000FEF748FF5FEA080001D0FEF743FB00204C
:1053B000F2E70000E0610220014908607047000048
:1053C000C46502202DE9F74F8EB0144689460E9829
:1053D000FEF7FCFB0990B0F908B0B0F90A6000686C
:1053E000006940680C9009A8FEF73AFC564D574FEB
:1053F0002868407C57F82000C1688A6A08219047D5
:105400000790182801D3202007902868407C57F87F
:1054100020000069069003C80B904D48814201D0DE
:10542000012000E000200A90002000F086FE002805
:105430007DD1286809EB0B01B0F90C20891A491EAF
:10544000002902DDABEB010500E05D46B0F9081074
:10545000494505DDA1EB090189446D1A089101E078
:1054600000210891002D6BDDB0F90E20A119891AD9
:10547000491E002902DDA6EB010800E0B046B0F9A4
:105480000A00A04204DD061B3444A8EB060800E035
:105490000026B8F1000F53DD089801900DA95F4672
:1054A000DDF830A00E980091FFF704FE774300EB83
:1054B000870101982B4601EB800200994846CDE90F
:1054C00000A1214601F032F90090002838D00A9856
:1054D000E8B1DDE906322946009800F02DFFB0B9A9
:1054E0000698009FDA46D0F810C0BCF1000F05D036
:1054F00004235A4639463846E04708E00B99386895
:10550000884701C7AAF101005FEA000AF6D10099B5
:105510000020079ACDE90301059001200090CDE914
:10552000010221460346641C2A46484600E007E083
:1055300004F08AFDA8F10100761C5FEA0008ABD1F7
:1055400011B0BDE8F08F0000E0610220F861022098
:10555000C7A60020F8B515460E460746FEF736FBEF
:10556000009000681621C068426A002090470446F7
:105570006846FEF775FB002C03D02A4631463846B4
:10558000A047F8BDF8B515460E460746FEF71EFBC8
:10559000009044696846FEF763FB3846FFF778FDE4
:1055A0000346082800DD2CB12A463146384617F05C
:1055B0004DF9F8BD2A463146384617F0E7FAF8BDEE
:1055C000054910B591E81C0080E81C00087A002805
:1055D00000D0012010BD000064CD022010B50446AB
:1055E0000C220849FAF745FE002809D0054894E83E
:1055F0000E0080E80E002046BDE8104000F010B913
:1056000010BD000064CD022002480068407C00F01C
:1056100003B80000E0610220F8B51D49096809B12E
:10562000002200E002461B498D56012D2EDD18494F
:10563000143151F822305B1C41F82230012B25D166
:10564000A1F108030026103953F8224051F8221026
:1056500053F822707F1C43F82270AF4201D143F807
:10566000226053F822708F42F2D03D46FEF73CFE96
:10567000009000280AD0C0682121426A68469047FD
:10568000030003D02A46214600989847F8BD000041
:105690003062022018620220044A126802B100201F
:1056A000002900DC0121024A1154704730620220B7
:1056B00018620220094A126802B10020074A1C320F
:1056C00052F82030002B07DBA2F1180343F820101A
:1056D0004FF0FF3142F82010704700003062022086
:1056E00002480068407C00F003B80000E06102203E
:1056F00038B51449096809B1002200E00246124990
:10570000895601291CDD0F49143151F822305B1EE6
:1057100041F8223014D1083951F82240103141F8B3
:105720002240FEF7E1FD0090002809D0C068222148
:10573000426A68469047020002D02146009890478E
:1057400038BD0000306202201862022010B5002827
:1057500021D009B30AB3B1F90040B2F900309C423C
:1057600000DA23460380B1F90240B2F902309C42CC
:1057700000DA23464380B1F90440B2F904309C4278
:1057800000DD23468380B1F90610B2F9062091426C
:1057900000DC1146C18010BD11460A6802604968EC
:1057A000416010BD00280BD003880B440380838820
:1057B00019448180418811444180C1881144C180CD
:1057C0007047000070B50E4D0446D5E900018842CF
:1057D00009D10C49884201D13C3000E00C3807C89F
:1057E00084E8070006E090E80E0084E80E0012F05E
:1057F000EDFC2860207A002800D0012070BD000058
:105800005462022070CD02200448D0E90010814289
:1058100001D101207047002070470000546202202F
:10582000054A10B50349116016F0C2FCBDE81040EE
:1058300000F0DAB9F50701200862022070B5094CC2
:105840000020D4E900218A420AD0D2E9005610464D
:1058500012F0D4FC2060314628460BF025FB0120D5
:1058600070BD0000746502202DE9FC41154DDDE995
:1058700008742D68B5F90860864200DD3046B5F938
:105880000C60964200DA3246824219DBB5F90A60B2
:105890008E4200DD3146B5F90E509D4200DA2B46AE
:1058A0008B420DDB00E02C46E5682D6825B1042D08
:1058B00002D02568002DF6D1CDE9007405F06CF812
:1058C000BDE8FC81E0610220B0F90220B1F90630A8
:1058D0009A4213DCB1F90220B0F906309A420DDC8D
:1058E000B0F90020B1F904309A4207DCB1F9001098
:1058F000B0F90400814201DC0120704700207047AC
:105900000146024870220068FAF76CBCE061022090
:1059100038B5040019D016F063FD204616F0D6FD08
:105920002046FEF753F900900068FEF79FF80098B4
:10593000C068FEF77FF80098C069FEF77BF86846FC
:10594000FEF78EF92046FEF775F838BD002801D025
:1059500015F094BF704738B5040019D0FEF736F93A
:105960000090007C800710D4204613F0CBF86846E6
:10597000FEF776F9204616F025FB2046FEF726F9BD
:105980000090018A41F0020101826846FEF768F941
:1059900038BD00002DE9F84304460088089F914671
:1059A0008846D0B36088C0B3E06818B1806800282A
:1059B00034D002E0E08820282FD107F00102002136
:1059C0001E48FEF7FBFB050027D020886188800079
:1059D00048432030FEF713F8060021D03046AE6071
:1059E000FEF7F4F8009007824461A0F80480A0F864
:1059F0000690238808EB0301491E01816188494410
:105A0000491E418105606846FEF72AF9E06858B1F1
:105A1000214630460EF006F830B10020BDE8F8838C
:105A20002846FEF707FCF8E7B80705D5304613F01F
:105A300069F8304616F0C6FA3046EFE7A00F0220AC
:105A4000024970220968FAF7CDBB0000E06102202C
:105A500010B505F06DF805F071F9BDE810400AF0D9
:105A60004DBB000070B504460548022C0068457C1B
:105A700002D24474FFF7ECFF02480460284670BD70
:105A8000E0610220EC6402202DE9F041194E05008E
:105A900019493068194F407C51F820108C6917F86B
:105AA000048003D012F00AFE60B11FE00521FEF76A
:105AB00009FC06001AD00020FFF77EFC3046FEF7F6
:105AC000FFFB12E030680521407CFEF7FBFB60B96C
:105AD000AFF24B00FFF770FC30680849407C18318A
