:020000040800F2
:1000000000100010C1010008C9010008CB01000860
:10001000CD010008CF010008D10100080000000058
:10002000000000000000000000000000D3010008F4
:10003000D501000800000000D7010008D9F9000828
:10004000DB010008DB010008DB010008A9E800086B
:10005000DB010008DB010008DB010008DB01000810
:10006000DB010008DB010008DB010008DB01000800
:10007000DB010008DB010008DB010008DB010008F0
:10008000DB010008DB010008DB010008DB010008E0
:10009000DB010008DB010008DB010008DB010008D0
:1000A000DB010008DB010008DB010008DB010008C0
:1000B000DB0100089DFC0008DB010008DB010008F3
:1000C000DB010008DB010008DB010008DB010008A0
:1000D000DB010008DB010008DB010008DB01000890
:1000E000DB010008E9E70008DB010008DB0100088C
:1000F000DB010008DB010008DB010008DB01000870
:10010000DB010008DB010008DB010008DB0100085F
:10011000DB010008DB010008F9FC0008BDFD000858
:10012000DB010008DB010008DB010008DB0100083F
:10013000DB010008DB010008DB010008DB0100082F
:10014000430A0008530A0008630A0008DB0100089C
:10015000DB010008DB010008DB010008DB0100080F
:10016000DB010008DB010008DB010008DB010008FF
:10017000DB010008DB010008DB01000800000000D3
:10018000DB010008DB010008DB010008DB010008DF
:10019000DB010008DB010008DB010008DB010008CF
:1001A000EDCC0008DB010008DB010008DFF80CD013
:1001B00000F01EF900480047C11E020800100010A0
:1001C0000648804706480047FEE7FEE7FEE7FEE7F1
:1001D000FEE7FEE7FEE7FEE7FEE7FEE7B9FA000806
:1001E000AD01000810B5431A934209D2831888184C
:1001F00003E010F8011D03F8011D521EF9D210BDD5
:1002000040EA01039B0703D009E008C9121F08C098
:10021000042AFAD203E011F8013B00F8013B521E18
:10022000F9D210BDD2B201E000F8012B491EFBD279
:1002300070470022F6E710B513460A4604461946F1
:10024000FFF7F0FF204610BD421C10F8011B0029EB
:10025000FBD1801A704730B504460020034600E009
:100260005B1C934203D2E05CCD5C401BF8D030BDF8
:10027000034611F8012B00F8012B002AF9D118468A
:10028000704700F0004230F000400AD0C10D01F587
:100290006071C0F3160042EA0151C20840071143E1
:1002A000704700200146704701F0004330B421F050
:1002B000004150EA010206D00A0DA2F56072C1F3B6
:1002C0001301002A02DC30BC00207047440F44EACE
:1002D000C104C100E01830BC00EBC250AFF3008095
:1002E0000029A8BF7047401C490008BF20F001004A
:1002F000704710B4B0FA80FC00FA0CF050EA010428
:1003000004BF10BC704749B1CCF1200421FA04F4B9
:1003100011FA0CF118BF012121430843A3EB0C0192
:10032000CB1D0106000A002BBEBF002010BC704789
:1003300000EBC35010440029A4BF10BC7047401C00
:10034000490008BF20F0010010BC70472DE9F04DB6
:1003500000231A461B1A8A4103DB00200146BDE830
:10036000F08DC1F30A52C1F3130141F480154FF02F
:10037000000BD10702D100186D41521E0027044620
:1003800040F2FF11384601EB620A3E4680460246C3
:1003900000204FF4801100F03DF8C2197141BB18E4
:1003A00046EB0100B4EB030C75EB000C04D3E41A2C
:1003B00065EB000517460E46241908F101006D4152
:1003C00080463428E3DDF91946EB0600091BA841F5
:1003D00003D24FF0FF32134601E0002213461BEB1D
:1003E000070046EB0A51BDE8F04D00F023B80000CD
:1003F000064C074D06E0E06840F0010394E8070072
:1004000098471034AC42F6D3FFF7D4FE10750708B6
:1004100040750708202A04DB203A21FA02F0002167
:10042000704721FA02F3D040C2F120029140084304
:100430001946704710B5002B08DA401C41F1000145
:1004400092185B411A4301D120F0010010BD2DE943
:10045000F04D92469B4611B1B1FA81F202E0B0FA3A
:1004600080F22032904600F044F804460F4640EAFD
:100470000A0041EA0B0153465A46084303D120467D
:100480003946BDE8F08D114653EA010015D0C8F198
:1004900040025046FFF7BEFF05460E4650465946FD
:1004A000424600F026F8084301D0012000E0002079
:1004B000054346EAE0762C4337430A984FEA445313
:1004C000A0EB08004FEAD4240A304FF0000244EABF
:1004D00047544FEAD72502D500200146D1E7010550
:1004E00010196941DDE9084500196941BDE8F04D81
:1004F000A0E7202A04DB203A00FA02F1002070472E
:100500009140C2F1200320FA03F319439040704751
:1005100070B58D1810F8014B14F0030201D110F8DA
:10052000012B231106D110F8013B03E010F8016BF9
:1005300001F8016B521EF9D1B3B110F8012B04F090
:100540000C048A1A0C2C04D0A2EB841203F10203CF
:1005500008E010F8014BA2EB0422F7E712F8014B78
:1005600001F8014B5B1EF9D5A942D3D3002070BD21
:10057000002800DC4042704738B545680446014613
:10058000284610F02BFD00282BD02068304A112877
:100590000DD006DC0B2825D00E2833D00F2852D1E1
:1005A00012E0282849D0B0F5107F4CD108E09268BD
:1005B000002A16D02146284601B0BDE83040104739
:1005C000214628465268F7E7284603F023FC0090AE
:1005D000406E0468684603F067FC002C01D0284692
:1005E000A04738BD284603F015FC0090683003F0A2
:1005F0006DFB009803216C3003F070FB684603F03C
:1006000053FC20E0E168486809680D2902D02029E0
:1006100013D105E0002810DD28461AF091FF06E00E
:10062000002804DD2846BDE838401AF089BF284676
:10063000BDE8384002211AF0C3BFE06818B90021B4
:10064000284600F09DF92046BDE8384011F000B87A
:10065000980800202DE9FF410AAF97E870000027B5
:1006600003958DE8D00000F003F804B0BDE8F081F8
:10067000F0B585B00DF1280C9CE8F0004FF0000CAF
:100680008DE8F01000F024F805B0F0BDF0B5044698
:1006900085B08069B4F90850668A0027CDE9026503
:1006A000CDE900170490B4F90C00B4F91060C1183A
:1006B000B4F90A00B4F90E50104433462A4600F04B
:1006C00007F80546616800F07AF905B02846F0BDE4
:1006D000F0B585B00C46DDE90D51DFF854C04C3162
:1006E000DDE90A67CDE902C12146CDE9006710F0D6
:1006F00001FF040018D003F08DFB1022294604905E
:1007000010F04CFE049830220A493430FFF76AFD9D
:10071000084D04990C3D2868486604A803F0C4FB02
:10072000286841682046884705B02046F0BD000093
:1007300079050008A4080020F0B5044680688B49BC
:1007400089B051F82050606800287DD0052804D079
:1007500006287AD0122879D1AEE0E86900284FD077
:1007600095E80E008DE80F0004F110010FC906F0A6
:100770001FFD002655F8260005F064FCA169E86914
:100780000A1A216901446069304404F019FAA16928
:10079000E8690A1A21690144E069801B04F010FA33
:1007A000E169E8690A1A616901442069304404F08A
:1007B000D9FAE169E8690A1A61690144A069801BF4
:1007C00004F0D0FA761C022ED4DBA86805F03AFCBF
:1007D000E069E9696669431A206942183144801C5E
:1007E000521E04F021FBE169E869A2690B1A6169F4
:1007F0000144101A401C921E04F016FBEE6913E02F
:100800005FF0000655F8260005F01CFCE069831B2C
:10081000A069821B606981192069304404F048FA9C
:10082000761C022EEEDB0226D5E90301CDE900019C
:100830006169E06908444310A069891C821B206932
:10084000304404F089F902E089E012E08AE0D5E959
:100850000501CDE90001E36960690121184401EB5C
:100860006001A0699B1E821B2069304404F074F96A
:1008700078E0206803F0CEFA0490206812F086FA3F
:1008800040B1A06808B1002008E00498006F28B1CA
:10089000012003E00498406F00B10220049901EBAD
:1008A0008000C56E04A803F0FFFA00231A4628460C
:1008B000216803F0D5FE55E0206803F0ABFA049000
:1008C000866EEEB3B0F95C70A168D1B3032942D053
:1008D0005FF0000100EB8101406D0C6C05F0D2FB74
:1008E000204605F0AFFB05A804F03EFBBDF8141050
:1008F000A88B0144ADF81410BDF81810081AADF813
:100900001800BDF81600801CADF81600BDF81A00DE
:10091000801EADF81A000498B0F96020B0F95E109E
:1009200005A805F0E0F904A803F0BEFA022005F0DE
:1009300007FC304603F06EFA3A4605A9079001E03D
:100940000BE006E003F088FF0DF11C0003F0ACFAA9
:1009500008E00121BEE70221BCE704A8F6E7206811
:1009600011F04AFE09B00020F0BD0000EC7207084B
:1009700000294FF0100101D010F0C0BB10F012BBE5
:100980004FF480720029114601D010F0B7BB10F06F
:1009900009BB08B50023009300F001F808BD70B54D
:1009A00016460C46054619463046049A03F040FEAA
:1009B000024621462846BDE8704000F028B82DE9DF
:1009C000FF410E4605004FF001041CD003F022FA4F
:1009D0000190876E01A8009703F066FA31466846D9
:1009E00006F0C2FF78B100980024B84208D028462B
:1009F00003F010FA01900099816601A803F054FAFF
:100A0000284611F014FB04B02046BDE8F081F8B58B
:100A100015460C46060013D003F0FCF90090032C99
:100A20000BD200EB84006C3003F050F9009800EB1F
:100A30008400C566304611F0FAFA684603F034FACD
:100A4000F8BD10B5002000F0F1F8BDE8104000F04E
:100A500043B810B5012000F0E9F8BDE8104000F0FF
:100A6000CDB8662003F027BE1CB500200090019091
:100A70000548064A02210368054803F0DFFC0549E2
:100A80000860084600681CBD20010020F5FE010832
:100A9000942D0708080400201CB504464FF6FF708B
:100AA0000FF0E4F80020009001900748074A1A214F
:100AB0000368074803F0C2FC064941F824000846D1
:100AC00050F824001CBD0000200100202500020871
:100AD000BC2A0708506E00202DE9F04F85B0404D2C
:100AE0002C79A8780027DFF8FC90DFF8FCA03F49BC
:100AF0003F4E4FF001084FF0460B002804D001286C
:100B000065D0022863D12EE051F82400D8B10F221D
:100B100001A902F02DF868798DF80A00A8798DF8FE
:100B20000B00E8798DF80C00287A8DF80D00687AB2
:100B30008DF80E008DF806802C480F2201A950F880
:100B4000240002F058F989F80070CAF800702948AA
:100B5000C0F800B0306810F0010F38D1306840F0B4
:100B60000100306033E051F8240008B30F2201A9DE
:100B700001F0FEFFE87A8DF80700A87A8DF80800EA
:100B8000687A8DF80900287A8DF80F00E8798DF8D9
:100B90001200A8798DF8110068798DF810008DF891
:100BA000068012480F2201A950F8240002F023F910
:100BB00089F80070CAF800700E48C0F800B03068BC
:100BC00010F0010F03D1306840F0010030600A4896
:100BD000016841F00201016005B0BDE8F08F00003E
:100BE000386E00202C00002024140040506E00209D
:100BF00000140040341C0040146800400748817B0A
:100C0000042905D10649007C0870064901200870B6
:100C10000548016841F0100101607047386E0020FE
:100C200002040020000400201468004070B427492A
:100C300001EB00142168264D11F0020F254900EB4D
:100C4000400C01EB001305EB8C011FD1224A02EB93
:100C5000001216680E711668360A4E711668360C48
:100C60008E711268120ECA711C4A02EB00121668CD
:100C70000E721668360A4E721668360C8E7212683C
:100C8000120ECA721A6802F00F02CA702268520D60
:100C900025F82C201A68120A8A70114950B1086888
:100CA00020F010000860081F016841F02001016079
:100CB00070BC70470B48026842F02002026008686E
:100CC00020F00200086070BC70470000B06900406E
:100CD000386E0020B4690040B8690040BC6900402B
:100CE000146800400C68004010B42C490A6812F0E7
:100CF000806F01D000210AE00A6812F0006F01D075
:100D0000012104E0096811F0805F44D002210288CB
:100D10004FEA425C224A02EB0113C3F800C0121DE5
:100D200002EB0112D2F800C02CF00F0CC2F800C088
:100D3000D2F800C084784CEA040CC2F800C0C27833
:100D400090F806C0047942EA0C6290F805C04FEAB8
:100D50000C4C4CEA042C42EA0C02DFF848C00CEBC5
:100D6000011CCCF80020C27990F80AC042EA0C625B
:100D700090F809C0007A4FEA0C4C4CEA002010436E
:100D8000094A02EB01110860186840F00100186080
:100D900010BC0020704710BC02207047086800405B
:100DA00080690040886900408C69004013490A68E6
:100DB00012F0806F01D000210AE00A6812F0006F83
:100DC00001D0012104E0096811F0805F14D00221F4
:100DD000022242EA40520A4800EB01100260094A2E
:100DE00002EB01110A6822F00F020A60016841F06B
:100DF0000101016000207047022070470868004030
:100E000080690040846900407CB5214C054621681A
:100E100031F8220F4A8D104408804888CA8D10444A
:100E20004880284604F090F82168498CADF80010FD
:100E30004618284606F0FAFB3044401EADF8040080
:100E400004F0D6F82168898CADF802100844401EE1
:100E5000ADF80600684611F025FE04E0284602F0D1
:100E6000C1F911F0B9FD0028F8D10A2D04D0BDF860
:100E700004002168401C4884206830F8221F428DFD
:100E8000891A01804188C28D891A41807CBD000089
:100E9000640400202DE9FE4304460E461546204614
:100EA00006F09EFE0746C4EBC400144951F820002A
:100EB00007FB0608C4EBC40051F8200007FB050936
:100EC0000021C4EBC4000D4B03EB80000069CDE9A9
:100ED0000001C4EBC4000291194601EB80004A46B0
:100EE0004146C368204600F0BFF9C4EBC400034983
:100EF00001EB80008560BDE8FE830000CC1000207F
:100F00002DE9F04F85B004460D4616461F46DDE933
:100F10000F8BDDF838A0204606F062FE8146C4EB58
:100F2000C400264951F82000C4EBC401234A02EB57
:100F30008101496809FB0100C4EBC40102EB810196
:100F4000C96806FB0151C4EBC4021C4B03EB8202CF
:100F5000526901FB02000490C4EBC400194651F829
:100F60002000C4EBC4011A4602EB8101496809FB69
:100F70000100C4EBC40102EB8101C9680AFB0171E5
:100F8000C4EBC40203EB8202526901FB020003902E
:100F90000021C4EBC4001A4602EB8000C068A0EB3D
:100FA00008004346CDE900B002912046DDE9032167
:100FB00000F05AF905B0BDE8F08F0000CC10002019
:100FC0002DE9FE4F04460D4616461F46DDF83090CB
:100FD00003F0EEFF012810D10022192120460AF06B
:100FE000ABFA4B463A463146284609F06FFE204A96
:100FF000192120460AF0A0FA37E0781B00F1010819
:10100000A9EB0600401C0290204606F0E9FD82464E
:10101000C4EBC400174951F82000C4EBC401154AC1
:1010200002EB810189680AFB0100C4EBC40102EBF9
:101030008101C96806FB0151C4EBC4020D4B03EBEF
:101040008202526901FB020BC4EBC4011A4602EB97
:1010500081010D98C968A1EB0801CDE90010424655
:1010600059462046029B00F053F9BDE8FE8F000070
:10107000C10F0008CC100020F8B504460D461646F6
:101080001F4603203B46324629460090204600F08A
:10109000B1F8F8BDF8B504460D4616461F460420C3
:1010A0003B46324629460090204600F0A3F8F8BDA2
:1010B000F8B504460D4616461F4602203B4632460A
:1010C00029460090204600F095F8F8BDF8B5044692
:1010D0000D4616461F4600203B46324629460090E4
:1010E000204600F087F8F8BDF8B504460D461646D0
:1010F0001F4600203B46324629460090204600F01D
:1011000079F8F8BD1CB50020009001900548064A0A
:1011100008210368054803F091F90549086008466D
:1011200000681CBD1C010020910C0208DC29070886
:10113000DC0300201CB50020009001900548064A01
:1011400007210368054803F079F905490860084656
:1011500000681CBD20010020190902081829070891
:10116000B40300202DE9F04107460C4615461E4603
:1011700032460B49384609F028FB324609492046D9
:1011800009F023FB3346084A0649054800F00EF8EB
:1011900032462946044809F018FBBDE8F0810000FA
:1011A000042F0020044D00200411002030B50F4C06
:1011B0000F4D2C602C46E0606161E26300242C61DD
:1011C000AC612C64EC616C626C63012404EB03443D
:1011D0006C642C46246844F001042C6000BF044C6D
:1011E000246814F0010FFAD130BD000000020200A3
:1011F00000B002402DE9F84305460E4614469846D5
:10120000089F22460649284609F0E9FA3B46002293
:1012100031460348009400F005F8BDE8F88300006B
:101220000411002070B5049C4FF481350D4E3560DB
:101230003546E860E9630025356135643546EA6185
:101240006B63012505EB0445756435462D6845F053
:101250000105356000BF034D2D6815F0010FFAD16F
:1012600070BD000000B002402DE9F05F07460C465B
:1012700015461E46DDE90B9ADDF82880384609F050
:1012800021FF83464FF400700D4908600846C46092
:10129000C563C0F81090C0F840A0C0F81CB040462C
:1012A00066F31F4048640846006840F0010008608B
:1012B00000BF0348006810F0010FFAD1BDE8F09FAD
:1012C00000B00240F0B505AC70CC4FF48137DFF8C8
:1012D0003CC0CCF800706746F860F9633A613B6443
:1012E0000527CCF81C7067467C6346EA0547CCF8B6
:1012F000447067463F6847F00107CCF8007000BFB4
:10130000024F3F6817F0010FFAD1F0BD00B0024064
:101310002DE9F04707460C4615461E46DDE90889CB
:10132000384609F0CFFE82460D480E49086008464F
:10133000C0F83890C463C0F84080C0F834A030468C
:1013400065F31F4048640846006840F001000860EB
:1013500000BF0448006810F0010FFAD1BDE8F08723
:101360000002030000B002402DE9F84305460E4696
:1013700014469846089F00233A460649284600949A
:10138000FFF750FF22463146024809F028FABDE82F
:10139000F883000004110020074AD0624A1ED2B22E
:1013A000012343EA0222044BDA611A46D26942F071
:1013B0002002DA617047000000B002401EB503460B
:1013C00001F07F40B0F17F4F01D118461EBD83F080
:1013D0007F40029081F07F4001901448144C2060BF
:1013E00002A8E06001A86061C4F83CD04FF48030EE
:1013F00040EA0260E061C2F1FF00002444EA0060BC
:101400000B4C6062002060634FF001106064204666
:10141000006840F00100206000BF0548006810F03F
:10142000010FFAD1009880F07F40CFE70002020060
:1014300000B0024070B5049C124D134E3560354625
:10144000E8606961EA634FF4803545EA0365F56158
:10145000C3F1FF05002646EA05650B4E75620025BF
:101460007563012505EB0445756435462D6845F027
:101470000105356000BF044D2D6815F0010FFAD14C
:1014800070BD00000002020000B002402DE9FC41E6
:10149000002830D0112916D0132910D005460C464B
:1014A00002F0B8FC009000F03FFB0646684602F0F0
:1014B000FBFC20461DF0E0FD074600241EE0BDE8D1
:1014C000FC4100F0E3BABDE8FC4100F071B92146EF
:1014D000284600F02CFB019078B100781DF0CCFD7F
:1014E00000F0FF0801A802F0DFFCB84505D1214655
:1014F000284600F0D5FABDE8FC81641CB442E6DB66
:10150000F9E7F8B50C46050013D0002C11D002F015
:1015100081FC0090C66B684602F0C6FC2046FEF7D0
:1015200093FE421C2146304602F0E2FC284610F0B1
:101530007EFDF8BD2DE9FF4145680446284602F0CE
:1015400069FC0190D0F8886001A802F0ADFC0EB1F2
:10155000012700E00027214628460FF03FFD002824
:1015600056D02068112844D006DC0B2863D00E2802
:1015700078D00F282BD14FE0212805D026281AD06B
:10158000B0F5107F23D139E0E068416800291EDD05
:1015900000680D281BD130460AF087FD002806DBC5
:1015A00030460AF082FD0146284600F079FA2846C6
:1015B00000F07EF875E0E068012809D00A2802D022
:1015C0000B2871D111E00A21284610F0F0FD6BE0E4
:1015D00030460AF06AFD002866DB30460AF065FDF9
:1015E0000146284600F05CFA5BE0284600F060F80F
:1015F0005AE0FFB9E068007A98BB55E0E06848B16E
:10160000007A08B1012100E00221284610F0CFFD48
:10161000BDE8FF810321F8E72E46284602F0FAFBD9
:101620000290D0F88400056802A802F03DFC0DB1DC
:101630003046A84738E0284602F0ECFB0090C06B2B
:1016400002F096FC0098D0F8880010F035F8009869
:10165000D0F8940002F012FB684602F025FC23E06B
:1016600000E016E0E068416800291DDD01682029DE
:101670000FD006DC092910D00A2915D01B2904D166
:1016800012E0212910D022290ED02846FFF7FEFEB5
:10169000BEE7284600F0EEF806E010F02FF9B04261
:1016A00002D1284610F032FF20460FF0D1FFAFE7FD
:1016B00038B5040011D002F0ADFB0090D0F88800DE
:1016C00040B10FF0F9FF00990020C1F888002046D2
:1016D00010F0ADFC684602F0E7FB38BDF0B585B010
:1016E000B0F90850468A84690296CDE90354002770
:1016F000CDE90017B0F90C10B0F91050B0F90E4058
:10170000B0F90A00194410442B46224600F002F8B2
:1017100005B0F0BD2DE9FF410C461D46DDE90D7118
:10172000DDE90B36DFF880E0DDF828C06C31CDE96B
:1017300000C3CDE902E14FF0FF3321460FF0DAFE9E
:1017400004002DD002F066FB1022394600900FF005
:1017500025FE00983822154980F88C604C30FEF741
:1017600041FD124E0098361F3168C0F884100021E8
:1017700080F89010C586204600F0B5F9684602F062
:1017800093FB02F0F2FB0546204602F043FB00907B
:10179000C563684602F088FB306841682046884788
:1017A00004B02046BDE8F08135150008140500207E
:1017B00010B5044600F05DF9010000D0411E20463E
:1017C000BDE8104000F06CB9F8B50546006802F0BD
:1017D00021FB0090448ED0F88860684602F064FBDC
:1017E00006B1012604F00104286811F0CFFA0EB109
:1017F000002006E00CB1012003E008B1022000E067
:1018000003201B4951F82010686858B302280CD0F7
:10181000052802D0122828D103E0284613F04EFDF7
:1018200023E0284616F086F81FE06A69E8694FF061
:10183000FF33801AA0F1080203EB6204421CAB697B
:10184000001B4510A3EB6206C86904F0FBFB06E031
:101850003219311B284603F0B3F9641E6D1C002CAD
:10186000F6DA02E0286810F0C7FE0020F8BD00009C
:10187000BC6707082DE9F14F9EB01E9800287CD068
:1018800002F0C8FA0B901E9810F01EF903900B9806
:10189000B0F9367090F890101891C16B0A9190F8D9
:1018A0008C90B0F93410159100F03EF982460B98F7
:1018B00004ACB0F88E101491B0F982101391C16C81
:1018C0001291D0E90012CDE90C12D0F894B00021A9
:1018D00000EB8102126D44F82120491C0329F7D343
:1018E000002107AD00EB8102D26D45F82120491C93
:1018F0000329F7D300210EAE00EB8102126F46F8E8
:101900002120491C0329F7D30BA802F0CDFA1E9819
:1019100010F081F802F07EFA1190D0F8008011A842
:1019200002F0C2FA4FEA284042420FFA88F04142E0
:101930000CA804F0D8F95FEA897003D5BDF832002D
:10194000C01B01E0BDF83600ADF832001E9810F063
:1019500062F8014603980222CDE900070292BDF920
:101960003230BDF9302000200AF033FB80465FEAB8
:10197000C97009D04046189900E077E00AF0ACFD44
:10198000012140460AF0F0FC002708E039460A9899
:1019900002F04BFB014640460AF0D9F97F1C57453F
:1019A000F4D30027394654F8272040460AF001FDB9
:1019B0007F1C032FF6D30024214655F824204046EF
:1019C0000AF00EFE641C032CF6D30024214656F8C0
:1019D000242040460AF065FD641C032CF6D35FEA20
:1019E0000B001FD002F016FA169030F8025B0024AC
:1019F0000646012711E000BF06EBD40004F0070102
:101A0000007807FA01F1084201D0012200E000222B
:101A1000214640460AF0F5FC641CAC42ECDB16A8FB
:101A200002F042FA404614990AF019FD4046129914
:101A30000AF0D3FC404613990AF0C2FD404610F06C
:101A400065FD40461E990AF01CFD404615990AF0B6
:101A50005BFD01211E9810F0AAFB1E9802F0DAF936
:101A60000B90C0F888800BA802F01EFA1FB0BDE8EA
:101A7000F08F38B5002438B102F0CCF90090B0F9FD
:101A80003440684602F010FA204638BD10B50446CE
:101A9000FFF7EFFF411C2046BDE81040AFF3008088
:101AA00038B50C46050019D002F0B4F9009000F0EA
:101AB0003BF800B1401E844200DD04460098B0F9B6
:101AC0003410A1420BD08486684602F0EDF9284616
:101AD00010F0ADFA0421284610F069FB38BD6846C5
:101AE00002F0E2F938BDF8B5044602F093F9014678
:101AF0000090B0F9380010B9C86C03F0EFFA009903
:101B0000CA6AB1F98030126800EB43001618084623
:101B100010F0B9FF0546684602F0C6F9324629467C
:101B2000204610F0A2FDF8BDC06B02F072BA38B5C5
:101B30000D46002402F06EF90090C06B294602F0B9
:101B400074FA0546684602F0AFF91DB1284602F066
:101B500061F90446204638BD2DE9FC5F154607466D
:101B6000DFF8908028440190D8F800201C460E46EB
:101B7000526E2144894652689047D8F80020781B5D
:101B80004946526E82465268904771193819009042
:101B9000D8F800208946526E52689047D8F8002045
:101BA000711B8B46526E009852689047002C1ED0D5
:101BB000D8F80010361B4546496E01984A683146F0
:101BC00090472A6831465046526E526890472868BE
:101BD0003C1B4946406E4268204690472A68594659
:101BE0002046526E526802B0BDE8F05F1047BDE873
:101BF000FC9F00006404002070B505460C46621D81
:101C0000611F284603F0AEF86A1D691F204602F0E6
:101C1000D7FF21462846BDE87040042202F0F2BEFC
:101C20002DE9FC470E465FEA000978D002F0F2F891
:101C3000009090F85470D0F85880456BC46C68469A
:101C400002F032F9B8F1000F04D03146484642465E
:101C5000904761E0122E18D006DC082E43D0102EDB
:101C60003CD0112E06D112E0132E21D01D2E43D0D0
:101C70001E2E3DD0202E4FDB17B1484613F051F8F1
:101C8000B1B2484618F00AFE60B3611C27E04DB3BC
:101C9000284602F0BFF805462146019004F0E4FB17
:101CA0004419204604F0A2FB01462346012210E01D
:101CB000C5B1284602F0AEF805462146019004F071
:101CC000D3FB4419204604F091FB014623464FF014
:101CD000FF32484612F0DBFA01A81BE0611E4846BD
:101CE00000F084FA18E0BCB1611E484600F07EFAAC
:101CF000484613F016F80FE0484602F08BF80090C3
:101D0000012F0ED0012180F854102146484600F0E2
:101D10006DFA684602F0C8F8484610F088F9BDE848
:101D2000FC87002180F85410F3E7FEB544680546AF
:101D3000204611F02BF80646294620460FF04EF9B2
:101D4000002837D028680F2830D004DC0B2832D088
:101D50000E2853D13AE0A0F58070133804D0A0F5D6
:101D600080702D384AD110E0204610F0EBFA204662
:101D700000211BF015F8204602F04CF80190C06FCE
:101D8000002110F0C6FA01A81DE0E86860B1017AF0
:101D900029B10168204600F0E3F8012100E00221AA
:101DA000204610F004FA29E00321F9E7012120463A
:101DB0001AF0F6FFFEBD204602F02CF800903430F9
:101DC00001F084FF684602F06FF817E0B6B1E868EA
:101DD0004168002912DD01681B290FD006DC0929A2
:101DE0000CD00A290AD00D2904D107E0212905D0F9
:101DF000222903D02046FFF713FFFEBD28460FF02F
:101E000027FCFEBDF0B587B00DF1300E9EE8F01056
:101E10004FF0000E8DE8F05000F028F807B0F0BD4C
:101E2000F0B587B004460DF1080CD4E90567B0F9A8
:101E30000850408A8CE8E1000020CDE90010B4F998
:101E40000C00B4F91060C118B4F90A00B4F90E50CE
:101E5000104433462A4600F009F8050002D0618A92
:101E600000F087F907B02846F0BD0000F0B585B056
:101E70000D46DDE90D640F9FDDE90AC141F4805193
:101E8000DFF870E0CDE900C15837CDE902E7294617
:101E90000FF030FB05002AD001F0BCFF10223146C4
:101EA00004900FF07BFA04981C2213496030FEF76F
:101EB00099F90499012081F85500601C00D0012097
:101EC00081F88000002C00DC082424B20C8700205C
:101ED0004887486304A8641C01F0E6FF21462846B1
:101EE00018F089F918B928460FF0E6FB002505B06F
:101EF0002846F0BD2B1D00084C05002001488068D5
:101F0000704700004C05002038B5002430B101F0C6
:101F100081FF0090846C684601F0C6FF204638BD02
:101F2000F8B515460C4606000ED001F073FF009080
:101F300038B1022C05D200EB84004567304610F022
:101F400076F8684601F0B0FFF8BD10B5040006D081
:101F500000F04CF92046BDE8104010F068B810BD04
:101F60002DE9F04186B00C46060050D001F052FF3A
:101F70000090406B98B301F04DFF03900098806E85
:101F800004F080F8804630460FF09EFD0746039827
:101F900003F03DF80546009890F8601001F0030149
:101FA000012916D002290DD0416EC06A006808448C
:101FB000241A641E039805F01DFB0146002C0FDA5D
:101FC000002115E0781B401C00EBD070A4EB6004EE
:101FD000F0E7406E791B081A241A641CEAE713E044
:101FE000AC4205DC02462146039805F0A3FA0146FF
:101FF000304600F0FBF803A801F056FF404604F01D
:1020000041F8304610F013F8684601F04DFF06B075
:10201000BDE8F0812DE9F8431D46DDE90849164683
:102020000F465FEA000840D001F0F4FE204900901E
:1020300081652049C1650021C0E91271E0E90F65A1
:102040000121047280F81A90017690F84470684675
:1020500001F02AFF87B1284617F01BF905463046E4
:1020600017F017F90CB1401C6D1C854200DD2846A5
:102070000146404600F049F840461DF003F940464D
:1020800001F0C8FE009000F09CF80B4909788842E6
:1020900005D10098C16C4046491C00F0A7F868467D
:1020A00001F002FF40460FF0C2FFBDE8F8830000D8
:1020B000B136010885F2010858040020022803D235
:1020C000024A02EB80004161704700004C0500208D
:1020D00001498860704700004C05002000294FF03E
:1020E000100101D00FF00AB80EF05CBF38B50D46F4
:1020F000040009D001F08EFE0090856620460FF0A6
:1021000096FF684601F0D0FE38BD7CB50C4606004F
:102110002ED001F07FFE0090B0F93810458FA1421B
:1021200023D012DD406B80B101F074FE019005F008
:1021300061FAA04206DD2146019804F095F9019A62
:102140000021115401A801F0AFFE684601F0ACFE79
:10215000611B3046491C18F04EF8304601F05AFE1B
:102160000090048730460FF062FF684601F09CFE45
:102170007CBD38B50C4605000AD001F04BFE00903E
:1021800018B1046628460FF052FF684601F08CFE35
:1021900038BDF8B515460C4606000ED001F03AFEE3
:1021A000009038B1022C05D200EB8400C5663046A1
:1021B0000FF03DFF684601F077FEF8BD00221CF0ED
:1021C000CCBC38B50546406B002468B101F022FE56
:1021D00000900446E96C04F047F9204404F006F945
:1021E0000446684601F060FE204638BD1CB50C462A
:1021F00001F010FE0090406BF0B101F00BFE019079
:1022000005F0F8F9009991F8542002B10122002C50
:1022100000DA0024844200DD0446B1F93800801A57
:10222000A04200DA0446C86CA04200D0CC64002072
:10223000086501A801F038FE684601F035FE1CBDB6
:1022400030B50246002300240868012816D0136820
:102250006FF30E03D1E901052843CD6828430D69CA
:1022600028434D6928438D692843CD6928430D6A69
:1022700028434D6A28430343136019E013686FF342
:102280000E03D1E9070528434D6A284303435468E8
:102290006FF30E04D1E901052843CD6828430D6989
:1022A00028434D6928438D692843044313605460D3
:1022B000002030BD0246506940EA410050610020D4
:1022C0007047F8B506460C461546002000900027DA
:1022D000D4E900010843A168491E40EA4110E168C1
:1022E00040EA412000900098306105F083FE0746E7
:1022F00009E0681C07D025B105F07CFEC01BA84290
:1023000001D90320F8BDB06910F0200FF1D10020F1
:10231000F8E770B50346154600220024012D1FD0B2
:102320009A6802F070420868401E4E68761E40EAC5
:1023300006168868401E46EA0026C868401E46EA1F
:102340000036088A401E46EA0046888A401E46EA51
:102350000056087E401E46EA006002439A6022E072
:10236000DA6802F070420868401E4E68761E40EA45
:1023700006168868401E46EA0026088A401E46EA7D
:102380000046087E401E46EA006002439C6804F056
:102390007044C868401E0603888A401E46EA005002
:1023A0000443DA609C60002070BD2DE9F04389B0E1
:1023B000984615460F4606004FF0000428D000F05E
:1023C000BFFB0446304600F08BFB814603A9304634
:1023D00000F014FDF80706D0BDF91C008221001B97
:1023E000401B401C08E0B807BDF91800284402D57E
:1023F00040F2022100E002210096CDE9018123464E
:102400001A464946FEF726F904460021FEF7B0FABF
:1024100009B02046BDE8F08310B50523FFF7C5FFDE
:102420000446054A0021FEF7B4FA044920460FF09D
:10243000BDFF204610BD0000694F010805090208D4
:1024400010B50823FFF7B1FF0446054A0021FEF747
:10245000A0FA044920460FF0A9FF204610BD000055
:10246000B5500108611802082DE9F047044640689C
:102470008EB00027804601F0CDFC0090B0F87CA023
:10248000D0F86890D0F88060D0F88850C06D00B166
:102490000768684601F008FD05E06968204688473E
:1024A000002843D12D68002DF7D12068172853D07C
:1024B0000CDC0F283DD004DC0B2877D00D2825D16B
:1024C0008BE0112810D0142820D13BE0262846D0DC
:1024D00004DC1E2851D0202818D18AE02A2816D0E2
:1024E000B0F5107F12D128E04046E56801F092FC7B
:1024F0000290697A39B9297A012904D130F87C1F10
:1025000041F48071018002A801F0CEFC75E04046E4
:1025100001F080FC0090E16811B1C0F8841002E085
:10252000D0F88400E060684601F0BEFC0EB0BDE863
:10253000F087D7B34046B8475FE0214640461AF0DF
:102540009FF8F3E705A9404600F058FCE0680699BB
:10255000016007994160E9E7C4F80C90E6E7E0689C
:102560000228E3D1CDF83080E0680D9027200A9052
:102570000AA9A06810F01AFED8E7E068012804D084
:102580000021404600F062FBD0E730460FF0A4FD8A
:1025900068B130460FF0BAFF30460FF07FFC98B1BB
:1025A000012130460EF0AAFD0EE026E02FE048465D
:1025B0000FF0FAFF0646404601F02CFC0090C0F8F0
:1025C0008060684601F070FC0121404600F03EFB4F
:1025D000002EABD10020E060A8E75FEA0A700CD4BF
:1025E000E068C06848B1007A38B140460FF08EFF0D
:1025F00003E02146404619F000F8214640460EF01F
:10260000EDFC002892D020460FF022F88EE74046DD
:1026100001F000FC0090703001F058FB684673E751
:10262000F0B587B0B0F908400DF10C0C0C9E87692D
:1026300045688CE8F000448A0025CDE90015029435
:10264000B0F90C10B0F91050B0F90E40B0F90A0012
:10265000194410442B46224600F002F807B0F0BDA2
:102660002DE9F0478AB00DF14C0CDDE917849CE8A8
:102670006006129F45F48055DFF8BCC06034CDE998
:1026800002C4CDE900750EF035FF04004FD001F013
:10269000C1FB3022494604900EF080FE04982822A7
:1026A00026493430FDF79EFD0498244FC0F864801D
:1026B000A0F87C600026C0F88060C666083FC0F8BD
:1026C00088607968C16504A801F0EEFB05A9204681
:1026D00000F094FB1A4841F2827103960094CDE910
:1026E0000110BDF91E00BDF91A10BDF91C20431AD6
:1026F000BDF918005B1C121A521C0EF0FBFE0646B8
:102700007868416820468847204601F083FB0490A2
:10271000866604A801F0C8FB42F20400054202D11B
:1027200020460FF03BF85146204600F00CFB0AB063
:102730002046BDE8F08700006924000870050020ED
:10274000053100082DE9F041044694B0006800F01E
:10275000B7F908B1D94D01E0D84D2C35606815287E
:102760001ED00CDC0B281FD004DC00287ED00528EE
:102770007DD12FE10E287BD01228F9D141E1162816
:1027800006D0172808D0182808D01C28F0D109E056
:10279000E86914B0BDE8F081286AFAE7686AF8E7EA
:1027A000A86AF6E76869F4E720680B901C200C9093
:1027B000206801F02FFB0390016D0BA888470646A7
:1027C00003A801F071FB022E0FDB95E807008DE8EE
:1027D0000700D4E904023346A16904F0B7FC20697C
:1027E0008719A069A0EB06082CE0286803F02AFCF2
:1027F0002169E8690A18521E606902F0E1F9A269CC
:10280000E869111A491C606902F0DAF9D4E9040791
:102810007F1C394602F016FA3946A06902F012FA16
:10282000686803F00FFC20693946401C02F00AFA80
:10283000A0693946401E02F005FAA0692769A0F197
:102840000208BF1C286803F0FDFB42463946606958
:1028500002F0B6F9686803F0F5FB60694246394654
:10286000401C02F0ADF9686A022802E015E1B0E010
:1028700000E10BDDA86803F0E5FB61696A6A881C6A
:102880008B180146424638465B1E27E0296AB14252
:1028900026DD6069022E074600F1020801DB37449D
:1028A00001E007F10207206901DB304401E000F19B
:1028B000020022693B460A444146A2F1010202F0AD
:1028C000B3FA022E02DBA069821B01E0A269921E0C
:1028D000A069E9693B46401A4146401C02F0A4FA4F
:1028E000022E02DB6069064401E06669B61CE769F6
:1028F00028687F1E03F0A6FB3A463146206902F0A5
:1029000031FA3A463146A06902F02CFAE769686864
:10291000BF1E03F097FB20693A463146401C02F087
:1029200021FAA0693A463146401E02F01BFAE869D6
:10293000022802DC286A022823DDA86A022802DDB8
:10294000E1690F1A01E0E769BF1EA86803F07AFB8E
:10295000E969022909DD20693B46421800F1020CB1
:1029600031466046521E02F05FFA286A022808DDEE
:10297000A269E8693B46101A3146401C921E02F0DB
:1029800053FA286803F05EFBD4E90620216902F0BF
:1029900017F9686803F056FBD4E906202169401E48
:1029A000491C521E02F00CF9A86A022811DDA16927
:1029B0002669E469A1F10208271AA41EB61C7F1C2F
:1029C000A86803F03FFB234642463946304602F0F2
:1029D0002BFA71E0208A00B2ADF81400A18A09B286
:1029E000ADF81610228B12B2ADF81820A38B1BB2D3
:1029F000ADF81A302C69ED68CDE9005402F0ACF85E
:102A00005AE0208A298B0844ADF81400A08AADF85A
:102A10001600208B298B401AADF81800A08BADF85A
:102A20001A00206801F0F6F90390006FF0B102205F
:102A300003F086FB039890F87C10C1F3C00100EB13
:102A40008100006C03F0FEFA0398406B03F01AFB60
:102A50000398006F01F0DEF903990990B1F95A204B
:102A600005A901F0F9FE09A801F01EFA03A801F07A
:102A70001BFA21E0208AADF81400A08AADF81600F8
:102A8000208BADF81800A08BADF81A00A86803F0F1
:102A9000D9FA05A802F0ECF90EE0206801F0BAF9C5
:102AA000039030F85A1F41F00C01018003A801F097
:102AB000FBF920680FF0A0FD00206AE6A4090020C1
:102AC00038B5002450B101F0A5F9009090F87C00D1
:102AD000000700D50124684601F0E6F9204638BD1C
:102AE00038B505004FF000040CD001F093F90090C8
:102AF000C06D0021806802682846904704466846F9
:102B000001F0D2F9204638BDF8B50E4605004FF069
:102B100000040CD001F07EF90090C06D3146806851
:102B20000268284690470446684601F0BDF92046F1
:102B3000F8BD0000014800687047000070050020E3
:102B400030B587B005004FF000040ED001A900F0A9
:102B500055F9284601F05EF90090B0F954406846F6
:102B600001F0A2F90CB9BDF9044007B0204630BD10
:102B70008C230FF06FBF002801D018F06EBA704799
:102B800030B504468BB0006801F044F9009090F82D
:102B90007C10246A006FC1F3C00508B101F03AF956
:102BA0000690E068029020690390A088401EADF86E
:102BB0001000E089ADF812002089401CADF8140027
:102BC000608AADF81600BDF80800401CADF808009A
:102BD000BDF80A00401CADF80A00BDF80C00401E0C
:102BE000ADF80C000098406B03F04CFA009808AA6E
:102BF00002A9B0F95A30069803F0AEFD009800EB38
:102C00008500806B08F04EFC009800EB8500006C9E
:102C100008F080FC08AB02AA04A906980EF0F8FAA6
:102C2000684601F041F9069810B106A801F03CF998
:102C30000BB0002030BD10B5040006D01BF09AF890
:102C40002046BDE810401BF069B810BD002801D037
:102C50001BF006BA704738B50C4600280CD001F0BE
:102C6000D9F80090816CA14203D08464806E0FF08B
:102C7000DEF9684601F018F938BD00000249014844
:102C800008607047F85707086C050020022803D237
:102C9000024A02EB8000C16070470000700500200E
:102CA0002DE9FC410D46070028D001F0B3F8019052
:102CB000C16D8C6800F009F980460198456301A850
:102CC00001F0F2F822680121384690470646226852
:102CD0000321384690470546226800213846904730
:102CE0000446384600F0D7F92B463246414638466E
:102CF000009400F060F938460FF099F9BDE8FC81C6
:102D000038B50C4600280ED001F084F8009030F859
:102D10007C1F14B141F0100101E021F0100101808D
:102D2000684601F0C1F838BD38B50D46040009D039
:102D300001F070F800900566684601F0B5F820468D
:102D40000FF075F938BD7CB50D46040019D001F0BF
:102D500061F80090006F0190684601F0A5F82946DF
:102D600001A804F001FE00280BD0204601F052F823
:102D7000009001990167684601F096F820460FF02F
:102D800056F97CBD2DE9FC470D465FEA00094FF07E
:102D900000042DD001F03EF80190B0F95440A54256
:102DA00023D000F092F8804601980121A0F85450F9
:102DB000C06D856848462A68904707462A680321FF
:102DC0004846904706462A680021484690470546EF
:102DD000484600F060F933463A4641464846009579
:102DE00000F0E9F848460FF022F901A801F05CF87C
:102DF0002046BDE8FC878C2310F060BA2DE9F34F24
:102E000085B000270C46B846059801F003F80090FD
:102E1000C06D0121856805982A68904782462A6816
:102E200003210598904704902A680221059890474D
:102E300003902A68002105989047064600980FF0F5
:102E400022FE834600980FF025FE8146009890F8F8
:102E50003210890601D5B0F9588000F036F80546E1
:102E60000098C06E10B10EF040FE074625806780C6
:102E7000A4F804A0049AABEB020006EB0802401E83
:102E80002A4420813A44E280039BA9EB0302521EAC
:102E90006281A4F80CA020827019E681401E608235
:102EA000684601F001F8B4F90C000190B4F9100083
:102EB000029002AA01A9059800F03AF80198A081B1
:102EC0000298208207B0BDE8F08F10B501460020BF
:102ED00091F83220920607D5B1F95400002803D1A9
:102EE000486B02F000F9801C10BD70B58AB00C462A
:102EF000054600F08FFF0990C06D866809A800F0B4
:102F0000D3FF009534B1012C06D0022C0BD0032C3A
:102F100004D10AE0182000E016200190716868468C
:102F200088470AB070BD1520F7E71720F5E70000C5
:102F30002DE9FC4117468846044600F06BFF0090DF
:102F4000C16D056868468E6800F0AEFF32680021EA
:102F500020469047064620460EF0BEFC27E000BF04
:102F600000F058FF0190B0F900102AB2B0F9043017
:102F7000891A9A1AB0F90230A3EB2543B34210D153
:102F800090F82800000605D53868884209DB491EFC
:102F9000396006E0D8F80000904202DC521CC8F804
:102FA000002001A800F080FF20460EF02DFD040057
:102FB000D6D1BDE8FC812DE9FF4F83B00E46074610
:102FC000DDF8409000F026FF0190C16D8D68FFF79D
:102FD0007CFF044601A800F067FF2A6801213846FB
:102FE000904783462A6803213846904782462A68DC
:102FF0000021384690470546B44207D105998B45D4
:1030000004D106998A4501D14D4541D0A41B002623
:10301000B04638460EF060FC38E000F0FBFE009051
:10302000806A010601D5800502E0810528D50006E9
:10303000002825DB24B12246114638460FF0F3F86C
:10304000009890F8280000060AD50698A5EB09021A
:10305000A0EB0A0004FB16013846761C0FF0A5F819
:103060000098008D80050BD50599A5EB0902ABEB07
:10307000010004FB080108F1010838460FF095F83B
:10308000684600F011FF38460EF0BEFC0700C4D1C0
:1030900007B0BDE8F08F70B586B0064600F0BAFE06
:1030A0000590D0E91A4505A800F0FEFE54EA050097
:1030B00026D069463046FFF7A1FEACB1BDF9062027
:1030C000BDF9041020460FF045F8BDF90A00BDF91E
:1030D0000610421ABDF90800BDF90410521C411A2D
:1030E0002046491C0FF0C1FA002D09D0BDF9060099
:1030F000BDF90210421ABDF9041028460FF02AF853
:1031000006B070BD2DE9F0430446406889B005461D
:103110000EF081FC814600F07DFE0290D0F84880E0
:10312000D0F88070466E02A800F0BEFE2068172816
:1031300053D008DC0E283AD00F2811D014284CD0D8
:1031400015283DD149E01E281ED01F282AD022284C
:1031500040D0312834D10020E06009B0BDE8F083D0
:103160006FF070414046884503D008F09BF901F0AC
:103170001DF9002EF1D0D4E902122068CDE9040532
:10318000CDE9061204A81FE0E0680028E5D02FB1C1
:10319000AF4203D038460FF0B9F9DEE728460FF00A
:1031A00003FADAE7214648460DF018FFD5E7E06854
:1031B0004168002904DD00680928EFD00A2805D0FD
:1031C0005EB12046C4F80490B047C6E728460FF029
:1031D000F3F9C2E7C4F80C80BFE720460EF038FAD6
:1031E000BBE7000010B504460A280FD00D2C11D003
:1031F00009480068C0690168204688470748016897
:10320000002907D02046BDE810400847BDE810401F
:1032100001F072BA10BD0000640400209004002088
:103220002DE9F0430446C56887B0904689460020E2
:1032300002F025FF064625B1287910B146F00200BC
:1032400001E026F0020002F01AFF2069012558B1C2
:10325000D4E902128DE82600039563882288046869
:1032600041464846A0471EE0124F134B214638689E
:103270001B68427CE068984730B9E088012801D09B
:10328000002001E03868806BA288E388A16800957F
:10329000CDE90410CDE902320195638822884146C8
:1032A000484607F0F5FA07B03046BDE8F04302F0B3
:1032B000E6BE0000640400205C0400202DE9F04715
:1032C0008146884640F2C32050434FF47A7190FB08
:1032D000F1F502FB02F002EBD27100EB610617463A
:1032E0000023414648466D1CFEF736FC012413E0DE
:1032F00004FB04F007FB0700B04206DD3B46224614
:1033000041464846FEF728FC7F1E3B462246414682
:103310004846FEF721FC641CAC42E9DDBDE8F087BD
:103320001CB50024019401AC009400F0E7F81CBD2A
:103330002DE9FF4F83B0814606988A46A0EB0A0824
:10334000109E00200090A2EB09043568934654EAD1
:10335000080018D02046FDF70BF907464046FDF758
:1033600007F987420BDA2046444680464846D14654
:1033700082465846DDF818B0069001200090002CD7
:1033800007DD204606E007B04846BDE8F04F00F0F4
:103390003BB96042A0420AD04846D9466442C8F1CF
:1033A000000883464FF0FF37DDF818A000E0012742
:1033B0005148B8F1000F11D004EBD4714FEA610B02
:1033C00001DACBF1000B4C480068807E88B3002FF7
:1033D00002DA30682044306000257BE00099002943
:1033E000016821D0897E11B10027804615E007B021
:1033F0005A4649465046BDE8F04F07F03DBC2846C6
:103400006D1C1AF049FF38B9D8F8000009EB070124
:10341000406E4268504690477F1CA742EFDD6D1E0C
:10342000356007B0BDE8F08F8A7E1AB1002780466C
:1034300017E019E0486E5A465146036807B04846FF
:10344000BDE8F04F184728466D1C1AF025FF38B923
:10345000D8F8001009EB0700496E4A6851469047BA
:103460007F1CA742EFDDDAE700250FE008FB05B07F
:1034700090FBF4F101EB0A00009951B11E4A09EBEF
:1034800005011268526E526890476D1CA542EDDD31
:10349000C7E7194909EB05030968496E4A680146FF
:1034A0001846F1E708FB05B090FBF4F101EB0A00C8
:1034B00001903068384430601AF0EEFE48B9009848
:1034C00090B10D4809EB05010068406E4268019813
:1034D00090476D1CA542E5DD3068002F01DA2044DD
:1034E0003060C01B30609CE7034909EB05000968A8
:1034F000496E4A680199EBE7640400202DE9FF4713
:103500000F4640491646804609680C981D460A7EBB
:10351000012A1CD0A8EB0600791B50EA01031CD03D
:10352000A2F101091CF0A4FC00F58060824604F0C1
:1035300026FB00FB09F4504604F026FB00FB09F1D2
:10354000002C0CDAC4F50070801240420AE00090B2
:10355000324639464046FFF7EBFEBDE8FF8704F5EB
:103560000074A012002904DAC1F5007189124C42DE
:1035700002E001F500718C12002804DD411C01EB12
:10358000D171491003E000EBD0714910401E00EBEF
:10359000D0704210002C04DD601C00EBD070401095
:1035A00003E004EBD4704010641E04EBD47308EB0A
:1035B0000104ADF800403C18ADF80240A8EB02044D
:1035C0005B10B21AADF80440ADF808203144FC1A83
:1035D000EA1AADF80C102844ADF80A20ADF80E0038
:1035E0000023ADF806401A460421684600F07AF838
:1035F0003946404613F0FAFF2946304613F0F6FFED
:10360000ABE7000064040020064A13681A7E012A12
:1036100005D0521E02EBD272521000F005B85A6E5D
:1036200052681047640400202DE9F05F0646884682
:1036300040F2C32002FB00F14FF47A7091FBF0F7E7
:1036400002FB02F102EBD27001EB600B1446B118E1
:10365000234A301B7F1C1268526E13680A4641468B
:103660009847012538E000BF05FB05F004FB040185
:1036700059451CDDBC4219DD194B06EB050AA6EBCA
:1036800005091B68AAF1010208EB04015B6E09F150
:1036900001001B689847124BAAF10102A8EB040134
:1036A0001B6809F101005B6E1B689847641E0C4B98
:1036B0003219301B1B68924608EB05015B6E814690
:1036C0001B689847064B5246A8EB05011B68484605
:1036D0005B6E1B6898476D1CBD42C5DDBDE8F09F61
:1036E000640400202DE9FF4F43F6FF740F46664245
:1036F00083B09B46814600210BE000BF09EB8100AF
:10370000B0F90200A04200DA0446B04200DD0646ED
:10371000491CB942F2DB67480068406900280DD0B7
:10372000B0F906101A46A1EB0B01B14200DA0E46C1
:10373000B0F90200801AA04200DD0446B4E0DFF8D0
:1037400078A100200546CAF8000088E0781E85426E
:1037500001DA6B1C00E0002309EB850C09EB830206
:10376000BCF90200B2F90210A04244D1A14215D125
:1037700039F92330059A39F9251003EB020C4D4A2B
:1037800005981268084404EB0B01526E60451368FB
:1037900001DA62462AE00246604627E02846A4464F
:1037A0004FF000087A1E0BE008B1401E00E0781EC2
:1037B00009EB8003B3F90230634504D108F1010835
:1037C0009045F1DB2346A34248D01A1B39F9250066
:1037D000A1EB040C059B92EA0C0F09D4354A18445E
:1037E00004EB0B011268526E13680246984735E0ED
:1037F0000FF088FE32E0A14230D001DBA04203DDB1
:10380000A0422BDBA14229DCE04688420ADC0346C9
:10381000A04223DC0846A14220DBB8F900C0B2F97F
:10382000001008E00B46A14218DCA04216DBB2F9FA
:1038300000C0B8F90010E21AA1EB0C0151430029B5
:10384000A0EB030202DD01EB620102E0A1EB6201E9
:10385000491CC01A91FBF0F06044C9E76D1CBD42E1
:10386000FFF674AF0598009004EB0B000190002068
:103870008046054613E01149B8F1000F31F915A053
:1038800009D0009901EB0A0208440A490968496E07
:103890000B680199984788F0010850466D1C06494D
:1038A00009688D42E7DB641CB4427FF748AF07B07C
:1038B000BDE8F08F64040020600B0020E070002061
:1038C00010B5002002F0BCFB6FF07F4002F0BAFBA5
:1038D000012002F023FC002002F028FC002002F06E
:1038E0002FFC002002F0CBFB0448006802F0CAFB6A
:1038F000BDE81040002002F0EDBB00006004002095
:10390000014AC2E90001704710040020014AC2E9DF
:103910000001704718040020014AC2E90001704705
:10392000EC040020014AC2E9000170472004002095
:10393000014AC2E900017047F40400202DE9F04F6C
:10394000DFF828B191B04FF0FF35DBF80030B3F964
:1039500022100691DE69B3F92490F469A1898142AD
:1039600006D8E289824203D3471AD4F8008012E0D5
:10397000D4E9018100296FD00A8882426CD84D8831
:10398000854269D3801A82B2486800EB8200B0F9A0
:103990000070B0F90250781C5ED0307EA17C10FB24
:1039A00001FA217CCDE90701B3F92A60304607F01E
:1039B000D9FDC0B20E90DBF8000007FB0A81A37CA2
:1039C000826B0127CDE90412CDE90273C069089A20
:1039D000C17E807ECDE90001DDE90603494606F09F
:1039E00057FF681C18D046F0020007F0BBFDDBF85B
:1039F0000000A37C05FB0A81826BCDE90273CDE94F
:103A00000412C069089AC17E807ECDE90001DDE91B
:103A10000603494606F03CFFDBF800005D46C0693E
:103A2000417E007E814214D9022E12D086F004001D
:103A300007F098FD2868C069027EC37E12FB0391DF
:103A4000437E857E089A06984B4412FB050207F0D8
:103A50003DF90E9807F086FDDBF80000627C418C92
:103A60001144418411B0BDE8F08F000064040020CF
:103A700004480068C069C06909B1027C0A60407CE2
:103A80007047000064040020022008807047C0696D
:103A900082898A4202D8C2898A4210D2806880B163
:103AA00002888A420DD843888B420AD3406800EBD3
:103AB0008100A0EB8200B0F90000002801DB0120AA
:103AC00070470020704700002DE9F043304C03465A
:103AD00087B020681946B0F92A60C069C06900F053
:103AE00086F8002850D041680088181A01EBC005FC
:103AF0003046AF7807F036FD814620686A680123BA
:103B0000816BCDE90237CDE90421C169CB7E8A7E84
:103B1000CDE900230B7EB0F924102A78B0F92200F9
:103B200006F0B6FE2068C069417E027E91421FD930
:103B3000C07E11FB00F812FB00F7022E18D001F036
:103B400018FA064601F0F8F902F07CFA21682A78A2
:103B5000CB69B1F92200DB7E12FB0302B1F924101C
:103B600001EB0803394407F0B1F8304602F06AFA75
:103B7000484607F0F7FC20686A78C369B0F922105C
:103B80009B7E12FB0311418407B0BDE8F083000067
:103B90006404002030B50F4C05460B4620682946CA
:103BA000C069C06900F023F8002812D0416800887D
:103BB00024682A1A0120E46900EBC200085CA47E94
:103BC00010FB04F0002B04D011F8321011FB04F1AB
:103BD000196030BD6404002001200880704700B5E2
:103BE000C06900F004F8002800D0012000BD06E004
:103BF00002888A4202D842888A4202D2806800281B
:103C0000F6D17047F8B505460C000DD0084600F017
:103C100015F8060010D000F0FDF8224600902DB1F6
:103C20002946FCF7DFFA04E00020F8BD002103F08C
:103C300046FF684600F038F93046F8BD002801D04C
:103C40000FF038BE704738B50546FFF7F7FF0400A0
:103C500009D000F0DFF82A460021009003F02FFF82
:103C6000684600F021F9204638BD0000024A106085
:103C700021F0030050607047246F002010B5002829
:103C800014D004460A48406B10F8341000290DD0B7
:103C900002290BD2042101EBC401415848680FF0FE
:103CA0004DFC2046BDE8104019F0B0BE10BD00002C
:103CB000646E0020002805D0034AD16B016001B179
:103CC0004860D06370470000646E002010B5044661
:103CD0000068FFF7D3FF0020206010BD70B50D46CF
:103CE0000646002405E000BF06EB8400FFF7EEFF68
:103CF000641CAC42F8DB70BD2DE9F041044616F0BF
:103D00005BFD2848E41C24F00305016C2D1DA9422D
:103D100000D90D46C46B13E054F8042CAA420ED10E
:103D200084B1216809B162684A60616809B122689A
:103D30000A60C26BA24231D12168C1632EE02468BF
:103D4000002CE9D18046816BC0680F1857F8040C2D
:103D50003E1A306838B1002019F090FF57F8040C73
:103D60003E1A3068D0B97068A84217DB3044441B53
:103D70003046241D19F03AFFD8F80C10491BC8F83A
:103D80000C10D8F814102944C8F814107068401B9F
:103D900002D031460FF0D2FB44F8045C2046BDE867
:103DA000F0810000646E002010B5002416F004FDC0
:103DB0000C490F2001EBC002526C1AB101EBC0009C
:103DC000406C08E0401EF5D508E04168A14200D9EA
:103DD0000C46806810B180680028F6D1A4F10C0070
:103DE00010BD0000646E00200248C1680068081A17
:103DF00070470000646E0020002138B1044904229D
:103E000002EBC000496B085841680C3908467047FE
:103E1000646E00200549CA69521CCA61496B01EBF6
:103E2000C0010A78521C0A7000F056B8646E002077
:103E30007CB506460C460846FFF700FF05001CD07F
:103E4000DEB13046FFF7D8FFA04200DA044628462C
:103E5000FFF7E0FF00903046FFF7DCFF01460190DE
:103E600022460098FCF7BEF9684600F01DF801A84C
:103E700000F01AF83046FFF701FF28467CBD00002D
:103E800010B5FFF791FF64220649B0F5800F04D901
:103E900090FBF2F0096A484310BD096A4143B1FB47
:103EA000F2F010BD646E00200A4902684B6B52F8B4
:103EB000082C03EBC2021378022B03D3CB690BB19E
:103EC0005B1ECB611178491E11700021016008460C
:103ED00070470000646E0020002806D003490422C9
:103EE00002EBC000496B085808307047646E002030
:103EF0002DE9FC414FF000060B465FEA000834460E
:103F00002BD032B111461846FFF77CFE060000D1D7
:103F100001244046FFF77EFF009007884568684609
:103F2000FFF7C2FFCCB9B9002846091DFFF780FF93
:103F3000050015D0FFF76EFF019040F8276001A83B
:103F4000FFF7B2FF4046FFF765FF0090456001882C
:103F5000491C01806846FFF7A7FF2046BDE8FC81A9
:103F60003046FFF78BFE0124F7E70820FFF76BBE12
:103F70007CB5050023D0FFF74DFF00904068C0B12D
:103F8000FFF748FF0024019005E0019800EB840052
:103F9000FFF79CFE641C00980088A042F5DC01A895
:103FA000FFF782FF0098001DFFF790FE00990020A8
:103FB00008806846FFF778FF2846FFF75FFE7CBD64
:103FC0001CB50C46FFF726FF00900188A1421CD9C2
:103FD0004068D0B1FFF71EFF019000EB8400FFF7AF
:103FE00075FE00990888401E80B20880401E019925
:103FF00006E000BF01EB8402526841F82420641CF3
:104000008442F7DD01A8FFF74FFF6846FFF74CFF3A
:104010001CBD38B5002430B1FFF7FCFE00900488C9
:104020006846FFF741FF204638BD38B50D460024ED
:1040300048B1FFF7EFFE2946009000F05BF8044618
:104040006846FFF731FF204638BD38B50D460024DD
:1040500048B1FFF7DFFE2946009000F05DF8044606
:104060006846FFF721FF204638BD2DE9FE439846FC
:1040700091460D460024D0B3FFF7CCFE019007888F
:10408000466801A8FFF710FFBD4230D27EB330462C
:10409000FFF7C0FE009050F825406846FFF704FF88
:1040A00024B12046FFF7A8FE404511D04046FFF757
:1040B000CAFD04000CD03046FFF7ACFE00EB8505CE
:1040C00000902846FFF702FE68462C60FFF7ECFEE2
:1040D000B9F1000F0BD054B12046FFF79BFE4246CA
:1040E00049460290FCF77EF802A8FFF7DDFE204665
:1040F000BDE8FE8338B50D4601880024A94209D9E0
:10410000406838B1FFF786FE009050F825406846B9
:10411000FFF7CAFE204638BD10B50024FFF7EAFFBE
:1041200010B1FFF777FE0446204610BD70B50C466F
:10413000054601F059F8C1B223462846BDE8704053
:10414000002200F001B80000F0B52D271C68B0F186
:10415000004F08D0002600280DDA651C1D6027706E
:104160004042012408E0651C01261D606FF00040FC
:104170002770491E01E00024091BC9B22AB3491E59
:10418000C9B222E00C46491EC9B2944205D1124C74
:1041900027781C68651C1D602770104C54F821504E
:1041A00090FBF5F4E4B20A2C11D804FB150011B908
:1041B0000EB1641CE4B20A2C02D10124491CC9B21C
:1041C0001D686F1C30341F602C700029DAD119680B
:1041D00000200870F0BD000058040020FC5C0708B7
:1041E00010B5002807DD0A682B24531C0B601470DF
:1041F000096800220A7010BD2DE9FC5F044689465B
:10420000084600F0BDFE2B4E09EB8907824656F8A2
:104210002700019028484FF00108016841B926495C
:10422000C0F80080091D25480860084603F05CFBC3
:10423000204A09EB89015FEA0A0002EB81051BD0E5
:1042400001F0B0FE83464FF07F4001F0F9FE00F030
:10425000ADF800221146206800F0AEFB20684288CD
:104260000188504601F032FF46F8274085F8058066
:10427000584601F097FE17E046F8274085F805807C
:104280002869464618B101F0E3FD0020286174B1A9
:104290000096E868A1684B46421AA8686168411A0E
:1042A000206801F017FE286148461AF0AFFC01981B
:1042B000BDE8FC9FA06F0020A8040020E1B6010823
:1042C00070B506460D461446104600F059FE030030
:1042D000164804EB84010AD050F821004168806838
:1042E000711A2A1ABDE87040184601F0EDBE00EBC5
:1042F0008104A268B24201D0012200E00022E368FA
:10430000AB4201D0012300E000231A430CD0236903
:1043100043B150F82100816840686A1A311A184682
:1043200001F0B4FDC4E9026570BD0000A06F00207B
:1043300002480068407C00F003B8000064040020DC
:1043400030B4094900EB800201EB82040123637160
:1043500051F8221011B130BC1AF058BC014630BCE3
:104360000248FFF749BF0000A06F0020385D070832
:1043700010B5C2B2CBB2D21A00D5524293B25B434F
:10438000C0F30722C1F30724121B00D55242000CD0
:1043900092B2A0EB114002FB023200B2002801DA17
:1043A000404200B280B200FB002010BD10B50021D9
:1043B000084600F0ADFE43F6FF725042BDE81040E3
:1043C00013460146AFF300802DE9FC4107461C4629
:1043D00015460E46042007F0C5F880461148C0680F
:1043E000C16C006D0F4406440D440444ADF80070E8
:1043F000ADF80450ADF80260ADF8064068460EF026
:1044000051FB07E023462A463146384606F05EFC5B
:104410000EF0E2FA0028F5D1404607F0A3F8BDE817
:10442000FC81000058040020B0F90630B0F90420E7
:10443000B0F90210B0F90000FFF7C6BF2DE9F8434C
:104440001C00DDE9089816460F46054602D10DF01E
:1044500025FA044600962E6843464A4621462846D9
:10446000B047060035D00DF00DFA8146698A304616
:104470000CF044FE30460EF072F948460EF06FF92B
:104480004FF000080CE000BFCDF8008055F81CCFBD
:1044900000231A4649462846E047E0B10EF05FF98E
:1044A0007F1E002FF0DC1D2148460DF06EFF601CC2
:1044B0000ED00DF023FA30B1FFF70EFD8469B4423F
:1044C00001D02000F8D1B44202D030460EF06CF892
:1044D0003046BDE8F88330460DF0EEF80020F8E7EE
:1044E0002DE9F0411C4616460D460746022B02DB1D
:1044F0000020BDE8F0811C20FFF7FEFB0028F8D06B
:104500000DB105610AE0094A52F8241009B905E025
:1045100011460A68002AFBD109690161846186821B
:10452000002101604160C0E90217E2E77C0400203D
:1045300070B51D46FFF7D4FF040009D000F00EF857
:10454000E068006820B90348006800EB85008465D6
:10455000204670BD64040020FFF7ACBB70B590B37B
:104560008269022A30DA1E4C54F8221019B944F834
:10457000220032E019464B68002BFBD106E0CB68E5
:10458000C5681B682D68AB4203DD09680029F6D1B8
:104590001AE0C1B1CB68C6681B683668B3420CD15B
:1045A000838A012B05D008E01946DB681B68AB4203
:1045B00003DB0B68002BF7D129B14B6833B11860CE
:1045C0004A68426004E0FFE7012070BD44F8220021
:1045D0004860884200D100210160002070BD0000C9
:1045E0007C0400201AF036BE022801DB0020704750
:1045F000054A52F8200004E0C26812688A42F6D0E8
:1046000000680028F8D170477C040020022801DBF4
:1046100000207047054951F8200004E0C16809688E
:104620000029F6D000680028F8D170477C040020EB
:10463000F8B5074615460E460C20FFF704FB0400AC
:104640000AD0FFF7E7FB05490090C0E90017068193
:1046500045816846FFF728FC2046F8BDFC72070834
:104660002DE9F8431D461646884604000CD0FFF796
:10467000D1FB0090006807686846FFF715FC2B46E1
:10468000324641462046B847BDE8F88370B5044637
:1046900002F03EF8051908E000F092FB052C01DD60
:1046A000052000E0204602F025F802F031F82C1A2F
:1046B000002CF1DC70BDFCF7A7BB002200F011B8A4
:1046C0007FB51E4614460D46CDF80CD003AB002234
:1046D0003146FFF739FD22462946684600F09AF830
:1046E0007FBD1FB503ABCDF80CD0FFF72DFD68469D
:1046F00000F010F81FBD000000B500F05FFC044999
:1047000009688A8C10448884088C488400BD0000A5
:10471000640400202DE9FC4706005BD000F04EFC4D
:104720003B4C81462068B0F9228000F0BFFC216834
:1047300007468A8CD01B888441E000BF47F6FF7192
:10474000304602F03BFF82460146304602F00CFF45
:104750002168054691F82C0000F0030001283FD0A5
:10476000022839D000204A8C101A4884ADF8000085
:104770006A1E1044ADF80400888CADF80200A9F15F
:1047800001010844ADF806006A465146304602F081
:10479000BDF92168BDF8020088845146304601F019
:1047A00063FE064430780A281CD00D281AD0BDF8C4
:1047B0000000216828444884307818B1761C30788D
:1047C0000028BBD12068818C39448184818D21F0FF
:1047D00003018185BDE8FC8705EBD5704010C2E779
:1047E0002846C0E7206890F82C1001F00301012949
:1047F0000BD0022909D0018C418431780A29DBD100
:10480000828C02EB09018184D6E7A0F82280F4E7CC
:1048100064040020024B1B6859849A84FFF77ABF16
:10482000640400202DE9F04107460A4815460E466B
:104830000068B0F92C0040F0020001F077FC04465B
:104840002A4631463846FFF7E5FF2046BDE8F041ED
:1048500001F06CBC6404002047F6FF73AFF30080E6
:104860002DE9FC411F46904606000D464FF000041E
:1048700016D065B108460DF017FF040007D00246B8
:104880002946684602F007FF68460DF00DFF3B46DB
:1048900042462946304602F091F920460DF004FFC9
:1048A000BDE8FC812DE9FF4F87B09046894607009F
:1048B00079D00C68D9F8045021B228B2401A401CB3
:1048C000029000F07BFB064618F00C0F1ED0384615
:1048D0000A9A029901F0EEFE08F00C01042904D0B6
:1048E000082902D00C2911D104E0291400FB16106C
:1048F000401C09E02114C1EB254200FB1620401C9E
:1049000000EBD07001EB600060F31F4448460DF0EF
:10491000CBFE5FEA000B09D00246494604A8CDE968
:10492000044502F0B8FE04A80DF0BEFEA6F1010A8F
:1049300038460A9A029903F091F803900AEB244052
:1049400060F31F45CDE900453846039902F00CFE9F
:1049500018F003010ED0012928D002290ED1B9F98F
:104960000420B9F90010521A101A00EBD07001EBB4
:10497000600001E0B9F80000ADF800006A46384672
:10498000039902F0C3F838460A9A029903F05CF8DA
:10499000074406EB244060F31F4438780028C7D151
:1049A00058460DF081FE0BB0BDE8F08FB9F8041049
:1049B000081A401CE0E700007CB506461048006875
:1049C000C36C006D5D1884183188681E0844ADF80A
:1049D0000400ADF800507188601E0844ADF8060070
:1049E000ADF8024068460EF05DF806E02246294622
:1049F0003046FEF715FC0DF0EFFF0028F6D17CBD28
:104A0000640400207CB514460F4A1268D36C1E184B
:104A1000106D4518301BADF800003019ADF80400DA
:104A2000281BADF802002819ADF8060068460EF004
:104A300039F806E0224629463046FEF73FFC0DF0E5
:104A4000CBFF0028F6D17CBD640400201CB50A46CB
:104A50000146684602F03BFF2448BDF8001000689C
:104A600030F84C2F1144ADF80010BDF802108288C8
:104A70001144ADF80210BDF8041002881144ADF8DD
:104A80000410BDF8061080880844ADF8060068469A
:104A90000EF008F827E000BFBDF900400BE000BFB2
:104AA000BDF90210204606F0B3F8BDF90610204605
:104AB00006F0AEF8A41CBDF90400A042F0DABDF97E
:104AC00002400AE0BDF90000214606F0A1F8BDF958
:104AD0000400214606F09CF8A41CBDF90600A04283
:104AE000F0DA0DF079FF0028D6D11CBD6404002057
:104AF0002DE9F04F0C46164987B00D68DDE9109896
:104B0000E96C0F18286D8D180619C418ADF81070CF
:104B1000ADF81450ADF81260ADF8164004A80DF0D1
:104B2000C1FF002811D0DFF82CB04FF0000ACDE90A
:104B30000098CDE902BA2B4622463946304612F09B
:104B40000FFB0DF049FF0028F1D107B0BDE8F08F51
:104B50006404002079AC00082DE9F04F164C87B0B2
:104B60002568DDE91098EC6C2718286DA518461803
:104B7000C418ADF81070ADF81450ADF81260ADF86F
:104B8000164004A80DF08EFF002811D0DFF82CB0DD
:104B90004FF0010ACDE90098CDE902BA23462A4632
:104BA0003146384612F0DCFA0DF016FF0028F1D13C
:104BB00007B0BDE8F08F000064040020B9AB000826
:104BC0002DE9FC41104F04463B68D86C4518196D1F
:104BD000ADF800500E198418ADF80440ADF802602D
:104BE000ADF8066068460DF05DFF08E038682246C3
:104BF0003146406E0368284698470DF0EDFE0028C8
:104C0000F4D1BDE8FC810000640400202DE9F041EE
:104C10000B4C2568EC6C2718286DA5184618C4188D
:104C200000200DF03FFF07E023462A463146384674
:104C3000FEF776FB0DF0D0FE0028F5D1BDE8F0813F
:104C4000640400207CB50E4D2A68D36C1E18106DCC
:104C5000ADF804604418ADF80060ADF80640ADF85A
:104C6000024068460DF01EFF07E028682146406EAE
:104C70004268304690470DF0AFFE0028F5D17CBD6C
:104C80006404002070B5094A1268D36C1C18106DBA
:104C9000451800200DF006FF05E029462046FEF7E6
:104CA000B3FC0DF099FE0028F7D170BD640400201C
:104CB0002DE9FC411C4C2468E66C94F818C03718A8
:104CC000206DACF1010C4518C418A7EB0C0016447C
:104CD000ADF8000006EB0C00ADF80400A5EB0C00ED
:104CE000ADF8020004EB0C00ADF8060068460DF0CC
:104CF000D9FE15E032462946384605F05DFF3246BA
:104D00002146384605F058FF621E691C384605F0FA
:104D1000B3FF621E691C304605F0AEFF0DF05CFE6D
:104D20000028E7D1BDE8FC816404002070B50E4680
:104D30008EB004460146154606A802F0A5FDBDF852
:104D40001A30642B0CD1002000900AAB01AA214636
:104D500006A801F0BDFE2A46314601A8FFF72CFE49
:104D60000EB070BD7CB50E4B1B68DC6C2618186D40
:104D7000ADF8006045188418ADF80460ADF8025035
:104D8000ADF8064068460DF08DFE06E02246294645
:104D9000304605F071FF0DF01FFE0028F6D17CBDF6
:104DA0006404002070B50C46054600F0F3F810B11D
:104DB0000121C0E900142846BDE870400DF08EBD09
:104DC00010B5002400E0012400F004F80028FAD116
:104DD000204610BD094810B50068002410B1804776
:104DE00000B101240CF0ECFC00B10124044800687F
:104DF00010B1804700B10124204610BD8804002076
:104E0000840400201CB5002100910191694601F045
:104E10002BF904E0FFF7D4FF08B901F02FFC00984C
:104E20000028F7D001981CBD2DE9FC410F4C2568E6
:104E3000EC6C2718286DA5184618C418ADF800703A
:104E4000ADF80450ADF80260ADF8064068460DF0CC
:104E500029FE07E023462A463146384605F036FF4C
:104E60000DF0BAFD0028F5D1BDE8FC8164040020F6
:104E7000B0F90630B0F90420B0F90210B0F9000022
:104E8000FFF7D2BF08B50B46002805D000928188F5
:104E90008268C08800F001F808BD10B50828029C9F
:104EA00030D008DC04FB01F401280AD0022813D01A
:104EB000042804D11CE0102828D020282CD0002061
:104EC00010BD04EBD30003F00701105CC1F1070132
:104ED000C84000F0010010BD04EB93000621105CF7
:104EE00001EA4301C1F10601C84000F0030010BD12
:104EF00004EB5300D907105C02D000F00F0010BD86
:104F0000000910BD04FB0130105C10BD481004FB0B
:104F1000003032F8100010BD881004FB003052F849
:104F2000200010BD034951F82000C1688A6A082199
:104F3000104700007C04002010B505F0F7FEBDE826
:104F4000104005F0F3BF000002490968C9694A68CA
:104F50000021104764040020024A1268D269526896
:104F60001047000064040020002801D00CF07ABC37
:104F7000704710B505F0E2FEBDE8104005F0D6BF61
:104F80000021022802D2024951F820100846704739
:104F9000E40400201FB500210191029103912A2110
:104FA000009169460DF0ECF9039804B010BD0000C3
:104FB00001480068007C70476404002002480068D3
:104FC000C069407E704700006404002010B90748A3
:104FD0000068C06990F820208A7090F822200A7139
:104FE00090F82120CA7082681047000064040020F5
:104FF00002F0B0BA70B514460D4605F035FF002832
:1050000002D000202860206070BD02F001BB10B506
:10501000044602F0EFFA01462046BDE8104002F0D7
:10502000A3BA00002DE9F74306464FF000080198A7
:1050300044464746154618B302F08CFA804601985C
:105040000078D8B91CE029467F1C019802F0B6FA16
:1050500081460146A5EB0905019802F085FAA042B8
:1050600000DC204604464946019801F0FDF901990B
:105070000844019001A802F0E5FA08B9002DE2D138
:105080000848641E0168498C318000682144B0F9E9
:105090002400708008FB0700B180401EF080BDE84E
:1050A000FE8300006404002001F032BB0A490020A6
:1050B000096891F82C2002F00C02042A07D0082A73
:1050C00001D00C2A02D1C869007E40087047C86927
:1050D000007E401E7047000064040020417EC07EB8
:1050E00011FB00F07047017EC07E11FB00F070479D
:1050F000024951F820000069006870477C040020D4
:10510000024951F820000069406870477C04002083
:1051100070B50D4615F044F80446284615F048F8D9
:10512000204370BD124810B5016821F001010160F3
:105130001048012181601049016000680F498842D0
:1051400000D0FEE701F0F0FB0D492E20087001F0C1
:10515000E5FA0C4815F0F8FA1CF06CFE0446002144
:10516000084600F0BFFF0CF0BDFE204610BD000059
:10517000002000E000300240C2A507F4CDB5E8B53C
:1051800058040020306F00202DE9FC4107461C46E2
:1051900015460E46012000F072FF80461148006857
:1051A000C16C006D0F4406440D440444ADF800701A
:1051B000ADF80450ADF80260ADF8064068460DF059
:1051C00071FC07E023462A463146384605F07EFD4D
:1051D0000DF002FC0028F5D1404600F050FFBDE87C
:1051E000FC8100006404002010B5011E01DD0246B0
:1051F00000E04A42064B012053F82040944202D876
:10520000401C0A28F8DB002900DA401C10BD000011
:10521000FC5C07081CB520B90C480068006E00282B
:1052200012D0FEF7F7FD009044696846FEF73CFE99
:10523000002C09D02046FEF7EDFD019081688968B9
:10524000884701A8FEF730FE1CBD00006404002062
:1052500001490A4600F002B801F0FFFF2DE9F043D2
:1052600087B015460C465FEA000842D0002000F0E7
:1052700006FF814620480068066E4046FEF7CAFDDC
:1052800000900068806900F08DFE074640F6FF70D0
:10529000C44204D10098B0F90440B0F90650009817
:1052A000611E0289ADF804401144ADF8081041892F
:1052B000681E0844ADF80650ADF80A000CF098F8E6
:1052C0006846FEF7F1FD01A80DF0ECFB06E02A466A
:1052D0002146404600F0F0FB0DF07EFB0028F6D1A1
:1052E000384600F05FFE304600F0EAF9484600F02C
:1052F000C6FE07B0BDE8F083640400202DE9FE4F30
:10530000834619488A46194900680C9E9846407C95
:105310009146002751F82040E1680968042903D02C
:105320002468002CF8D100E014B9FFF76FF90446A7
:105330000121E068C26A20469047050011D0246927
:10534000A0688047401C02D1094C46F00106009637
:10535000CDE9015443464A465146584600F034FAD6
:1053600007463846BDE8FE8F640400207C04002018
:105370008C2E0708FEB50546DDE909640020089F6C
:10538000002C05D00097CDE90164284600F01CFAF6
:10539000FEBD000038B5040018D00D480068006E4E
:1053A000A04201D100F0F4FD2046FEF733FD00904D
:1053B000406908B101F04FF900980068FFF7CCF898
:1053C0006846FEF771FD2046FEF758FC38BD000028
:1053D000640400202DE9FF4F0746464883B09946F4
:1053E0000068DDF840B08A46447C434800570128F5
:1053F000204606DD05F062FD8046204605F06AFD88
:1054000005E005F04AFD8046204605F04CFD0446C7
:1054100017B302A901A8FFF7F8FDB7F90060002E45
:1054200000DA0026B7F90250002D00DA00250199B4
:10543000B7F904004144491E15F00BFE804602985E
:105440000119B7F90600491E15F003FEA8EB060284
:10545000441B521C641C02E0002635464246B9F14A
:10546000000F01D1C4F10009002A01DD002C03DC8A
:10547000002007B0BDE8F08F4B4629463046CDF8F6
:1054800000B0FFF73BFF5FEA000909D000F0D4F855
:105490008046484600F014F90027DFF860B01FE0AE
:1054A0005146059888470120E3E7E11B414502DAB0
:1054B000484600F0E5F83FB1EA193146484600F0A9
:1054C00021F94846FFF7A6FE514605988847DBF8C4
:1054D000001009B1002088474846FFF7B9FE47444D
:1054E000A742E2DB4846FFF755FF002000F0E8F84E
:1054F000BEE70000640400209C0400209008002007
:105500002DE9F04786B09946DDE90F460E9F8246A9
:10551000002C30D019480068C36C006D03EB010803
:1055200085180FFA88F1ADF80C10002E01DA30461C
:1055300000E00020621E2844114400B2ADF81010B3
:10554000ADF80E004946B94500DC3946491E08440D
:10555000ADF8120003A80DF0A5FA0AE00097CDE916
:1055600001464B462A464146504612F049F80DF096
:1055700033FA0028F2D106B0BDE8F08764040020B9
:1055800038B5002460B1FEF745FC00900068006962
:105590008068804706F070FB04466846FEF784FC8E
:1055A000204638BD38B5002808D0FEF733FC00F19E
:1055B000180400906846FEF777FC204638BD0000CE
:1055C00038B5002418B907480068006E38B1FEF7F6
:1055D00021FC0090B0F904406846FEF765FC2046C7
:1055E00038BD00006404002038B5002418B907480D
:1055F0000068006E38B1FEF70DFC0090B0F908406D
:105600006846FEF751FC204638BD000064040020C7
:1056100038B5002418B907480068006E38B1FEF7A5
:10562000F9FB0090B0F906406846FEF73DFC2046C5
:1056300038BD00006404002038B5002418B90748BC
:105640000068006E38B1FEF7E5FB0090B0F90A4043
:105650006846FEF729FC204638BD0000640400209F
:1056600070B50546002428460FF080FA641C18B176
:10567000BDE8704000F072B8052CF4DB70BD00008E
:1056800038B50C4620B908480068006E00280AD0DA
:10569000FEF7C0FB0090B0F90A10A14200DD448182
:1056A0006846FEF701FC38BD64040020FEB54FF0EB
:1056B000FF36DDE908458DE8700000F0FFF8FEBD1B
:1056C000F8B50F4E05003068046E16D00CB100F02E
:1056D0005FFC0BF0B3FF2846FEF79CFB009031689F
:1056E0000D660068FEF73AFF6846FEF7DDFB05F041
:1056F000E5FF05F001FF2046F8BD00F049FCFAE7A0
:10570000640400207CB515460C4620B91248006898
:10571000006E00281FD0FEF77DFB2DB20090C580E3
:1057200024B2848005F0E8FE0098406980B1FEF75D
:1057300071FB009A0190B2F908108180B2F90A2039
:10574000C28011B10AB10480458001A8FEF7ACFB0C
:105750006846FEF7A9FB7CBD6404002001490A46A7
:1057600000F002B801F0FFFF7FB515460C460600B9
:1057700028D0FEF74FFB40F6FF710190CC4203D1D9
:10578000B0F90440B0F906500289611E1144ADF829
:105790000840ADF80C104189681E0844ADF80E00B1
:1057A000ADF80A5001A8FEF77FFB02A80DF07AF9C8
:1057B00006E02A462146304600F066F90DF00CF965
:1057C0000028F6D17FBD00002DE9FF4FDFF8E8B0DB
:1057D00083B01C46DBF80010DDE9106092464FF004
:1057E00000084B7C42461299FEF77AFE050060D015
:1057F00028698068804706F03FFA81460AFB09F174
:10580000C91DCF08FEF73CFBF10705D1C11700EB1E
:105810009170801000EB4000002C09DC1FB118389B
:10582000B0FBF7F000E000206442A04200DC044638
:10583000F00707D10090DDE903012346524600F04E
:1058400093FE8046002C03DC2846FEF785FE30E000
:1058500004FB07F01830F10702D0FEF7EFF901E082
:10586000FEF7F1F906001CD0FEF7D4FA01900560AE
:10587000039981800499C180A0F808A04481C0F8F0
:105880001480C0E9037901A8FEF70EFB1298AE6000
:105890002861DBF80000407CA861304607B0BDE815
:1058A000F08F2846FEF758FE5FEA080001D0FEF7A9
:1058B000E5F90020F2E70000640400202DE9FE4F26
:1058C0001F46DDE90D549046894682460C9E0EF037
:1058D00001FD002808D10096CDE901543B4642461F
:1058E0004946504618F080FABDE8FE8F014908602D
:1058F00070470000900800202DE9F74F8EB0144645
:1059000089460E98FEF786FA0990B0F908B0B0F90A
:105910000A600068006940680C9009A8FEF7C4FAA4
:10592000564D574F2868407C57F82000C1688A6A56
:10593000082190470790182801D320200790286855
:10594000407C57F820000069069003C80B904D4832
:10595000814201D0012000E000200A90002000F0E8
:10596000DEFE00287DD1286809EB0B01B0F90C2080
:10597000891A491E002902DDABEB010500E05D46F6
:10598000B0F90810494505DDA1EB090189446D1AFC
:10599000089101E000210891002D6BDDB0F90E2087
:1059A000A119891A491E002902DDA6EB010800E0B1
:1059B000B046B0F90A00A04204DD061B3444A8EB4F
:1059C000060800E00026B8F1000F53DD08980190AA
:1059D0000DA95F46DDF830A00E980091FFF7E2FDBB
:1059E000774300EB870101982B4601EB8002009979
:1059F0004846CDE900A1214601F090F90090002829
:105A000038D00A98E8B1DDE906322946009800F05E
:105A100085FFB0B90698009FDA46D0F810C0BCF1F7
:105A2000000F05D004235A4639463846E04708E0BF
:105A30000B993868884701C7AAF101005FEA000A9C
:105A4000F6D100990020079ACDE9030105900120C5
:105A50000090CDE9010221460346641C2A464846CF
:105A600000E007E004F014FFA8F10100761C5FEAF3
:105A70000008ABD111B0BDE8F08F00006404002035
:105A80007C040020AFAF0008F8B515460E46074667
:105A9000FEF7C0F9009000681621C068426A002035
:105AA000904704466846FEF7FFF9002C03D02A46CB
:105AB00031463846A047F8BDF8B515460E460746AC
:105AC000FEF7A8F9009044696846FEF7EDF93846FC
:105AD000FFF756FD0346082800DD2CB12A46314663
