:020000042000DA
:1000000000100010C1010020C9010020CB01002018
:10001000CD010020CF010020D10100200000000010
:10002000000000000000000000000000D3010020DC
:10003000D501002000000000D7010020397C0020FD
:10004000DB010020DB010020DB0100206D7B0020B4
:10005000DB010020DB010020DB010020DB010020B0
:10006000DB010020DB010020DB010020DB010020A0
:10007000DB010020DB010020DB010020DB01002090
:10008000DB010020DB010020DB010020DB01002080
:10009000DB010020DB010020DB010020DB01002070
:1000A000DB010020DB010020DB010020DB01002060
:1000B000DB0100207D7D0020DB010020DB01002032
:1000C000DB010020DB010020DB010020DB01002040
:1000D000DB010020E9850020DB010020DB0100209E
:1000E000DB010020AD7A0020DB010020DB010020D5
:1000F000DB010020DB010020DB010020DB01002010
:10010000DB010020DB010020DB010020DB010020FF
:10011000DB010020DB010020D97D00209D7E002036
:10012000DB010020DB010020DB010020DB010020DF
:10013000DB010020DB010020DB010020DB010020CF
:100140000D0300201D0300202D030020DB010020F3
:10015000DB010020DB010020DB010020DB010020AF
:10016000DB010020DB010020DB010020DB0100209F
:10017000DB010020DB010020DB010020000000008B
:10018000DB010020DB010020DB010020DB0100207F
:10019000DB010020DB010020DB010020DB0100206F
:1001A000556C0020DB010020DB010020DFF80CD0C3
:1001B00000F06CF800480047F1DF0020001000104C
:1001C0000648804706480047FEE7FEE7FEE7FEE7F1
:1001D000FEE7FEE7FEE7FEE7FEE7FEE7197D00200B
:1001E000AD01002010B5431A934209D28318881834
:1001F00003E010F8011D03F8011D521EF9D210BDD5
:1002000040EA01039B0703D009E008C9121F08C098
:10021000042AFAD203E011F8013B00F8013B521E18
:10022000F9D210BDD2B201E000F8012B491EFBD279
:1002300070470022F6E710B513460A4604461946F1
:10024000FFF7F0FF204610BD421C10F8011B0029EB
:10025000FBD1801A704710B5002200E0521C835C6D
:100260008C5CA34201D1002BF8D1D8B2E1B2401A84
:1002700010BD30B504460020034600E05B1C9342ED
:1002800003D2E05CCD5C401BF8D030BD064C074D7E
:1002900006E0E06840F0010394E807009847103456
:1002A000AC42F6D3FFF786FF3CED01206CED012058
:1002B00070B501EB020410F8015B15F0070301D1E2
:1002C00010F8013B2A1106D110F8012B03E010F8B9
:1002D000016B01F8016B5B1EF9D12B0705D40023DC
:1002E000521E0FD401F8013BFAE710F8013B02F16E
:1002F0000202A1EB030303E013F8015B01F8015BC9
:10030000521EF9D5A142D6D3002070BD10B50020F1
:1003100000F0BAF8BDE8104000F00CB810B50120AC
:1003200000F0B2F8BDE8104000F096B8662001F089
:10033000D4B800002DE9F04F85B0404D2C79A87855
:100340000027DFF8FC90DFF8FCA03F493F4E4FF05C
:1003500001084FF0460B002804D0012865D0022880
:1003600063D12EE051F82400D8B10F2201A900F08A
:10037000B0FC68798DF80A00A8798DF80B00E8794F
:100380008DF80C00287A8DF80D00687A8DF80E0033
:100390008DF806802C480F2201A950F8240000F0A7
:1003A0009BFC89F80070CAF800702948C0F800B0BA
:1003B000306810F0010F38D1306840F00100306033
:1003C00033E051F8240008B30F2201A900F081FCAA
:1003D000E87A8DF80700A87A8DF80800687A8DF819
:1003E0000900287A8DF80F00E8798DF81200A879B5
:1003F0008DF8110068798DF810008DF8068012488C
:100400000F2201A950F8240000F066FC89F8007062
:10041000CAF800700E48C0F800B0306810F0010F44
:1004200003D1306840F0010030600A48016841F0B3
:100430000201016005B0BDE8F08F000024B5022084
:1004400050500220241400403CB50220001400400B
:10045000341C0040146800400748817B042905D102
:100460000649007C087006490120087005480168AB
:1004700041F010010160704724B502208E51022026
:100480008C5102201468004070B4274901EB00141D
:100490002168264D11F0020F254900EB400C01EBBD
:1004A000001305EB8C011FD1224A02EB00121668E3
:1004B0000E711668360A4E711668360C8E71126807
:1004C000120ECA711C4A02EB001216680E721668F0
:1004D000360A4E721668360C8E721268120ECA7286
:1004E0001A6802F00F02CA702268520D25F82C20FB
:1004F0001A68120A8A70114950B1086820F0100079
:100500000860081F016841F02001016070BC70475D
:100510000B48026842F020020260086820F00200E6
:10052000086070BC70470000B069004024B502202C
:10053000B4690040B8690040BC69004014680040DC
:100540000C6800407CB5214C0546216831F8220F2B
:100550004A8D104408804888CA8D10444880284637
:1005600001F048F82168498CADF80010461828467B
:1005700002F0D6FB3044401EADF8040001F06AF8EA
:100580002168898CADF802100844401EADF80600C1
:10059000684608F02DFF04E0284600F0A1FB08F0B3
:1005A000CFFE0028F8D10A2D04D0BDF80400216840
:1005B000401C4884206830F8221F428D891A01802F
:1005C0004188C28D891A41807CBD0000F051022013
:1005D0002DE9FE4304460E461546204602F01EFD58
:1005E0000746C4EBC400144951F8200007FB060875
:1005F000C4EBC40051F8200007FB05090021C4EB3F
:10060000C4000D4B03EB80000069CDE90001C4EB91
:10061000C4000291194601EB80004A464146C36876
:10062000204600F08FF9C4EBC400034901EB8000C1
:100630008560BDE8FE830000BC5702202DE9F04F25
:1006400085B004460D4616461F46DDE90F8BDDF8E2
:1006500038A0204602F0E2FC8146C4EBC4002649E3
:1006600051F82000C4EBC401234A02EB8101496820
:1006700009FB0100C4EBC40102EB8101C96806FB60
:100680000151C4EBC4021C4B03EB8202526901FB13
:1006900002000490C4EBC400194651F82000C4EBDA
:1006A000C4011A4602EB8101496809FB0100C4EB51
:1006B000C40102EB8101C9680AFB0171C4EBC402E9
:1006C00003EB8202526901FB020003900021C4EB9C
:1006D000C4001A4602EB8000C068A0EB0800434645
:1006E000CDE900B002912046DDE9032100F02AF9AE
:1006F00005B0BDE8F08F0000BC5702202DE9FE4F89
:1007000004460D4616461F46DDF8309000F094FF73
:10071000012810D100221921204605F01BFF4B466D
:100720003A463146284605F025FB204A1921204645
:1007300005F010FF37E0781B00F10108A9EB060077
:10074000401C0290204602F069FC8246C4EBC400C3
:10075000174951F82000C4EBC401154A02EB81018E
:1007600089680AFB0100C4EBC40102EB8101C9687E
:1007700006FB0151C4EBC4020D4B03EB820252692C
:1007800001FB020BC4EBC4011A4602EB81010D9878
:10079000C968A1EB0801CDE9001042465946204640
:1007A000029B00F023F9BDE8FE8F0000FD0600204B
:1007B000BC570220F8B504460D4616461F460320D6
:1007C0003B46324629460090204600F081F8F8BDAD
:1007D000F8B504460D4616461F4604203B463246F1
:1007E00029460090204600F073F8F8BDF8B504469D
:1007F0000D4616461F4602203B46324629460090CB
:10080000204600F065F8F8BDF8B504460D461646DA
:100810001F4600203B46324629460090204600F005
:1008200057F8F8BDF8B504460D4616461F46002099
:100830003B46324629460090204600F049F8F8BD74
:100840002DE9F04107460C4615461E4632460B4937
:10085000384605F039F832460949204605F034F8A3
:100860003346084A0649054800F00EF83246294644
:10087000044805F029F8BDE8F0810000F475022075
:10088000F4930220F457022030B50F4C0F4D2C602A
:100890002C46E0606161E26300242C61AC612C6451
:1008A000EC616C626C63012404EB03446C642C46C1
:1008B000246844F001042C6000BF044C246814F048
:1008C000010FFAD130BD00000002020000B002406A
:1008D0002DE9F84305460E4614469846089F2246E1
:1008E0000649284604F0FAFF3B46002231460348F9
:1008F000009400F005F8BDE8F8830000F4570220EA
:1009000070B5049C4FF481350D4E35603546E86076
:10091000E9630025356135643546EA616B6301257D
:1009200005EB0445756435462D6845F001053560D5
:1009300000BF034D2D6815F0010FFAD170BD000006
:1009400000B002402DE9F05F07460C4615461E46F2
:10095000DDE90B9ADDF82880384605F0D5FB8346A3
:100960004FF400700D4908600846C460C563C0F8C4
:100970001090C0F840A0C0F81CB0404666F31F407D
:1009800048640846006840F00100086000BF034862
:10099000006810F0010FFAD1BDE8F09F00B00240EE
:1009A000F0B505AC70CC4FF48137DFF83CC0CCF823
:1009B00000706746F860F9633A613B640527CCF83C
:1009C0001C7067467C6346EA0547CCF8447067466E
:1009D0003F6847F00107CCF8007000BF024F3F6846
:1009E00017F0010FFAD1F0BD00B002402DE9F04739
:1009F00007460C4615461E46DDE90889384605F0CF
:100A000083FB82460D480E4908600846C0F83890BE
:100A1000C463C0F84080C0F834A0304665F31F407E
:100A200048640846006840F00100086000BF0448C0
:100A3000006810F0010FFAD1BDE8F0870002030052
:100A400000B002402DE9F84305460E46144698468C
:100A5000089F00233A46064928460094FFF750FFB6
:100A600022463146024804F039FFBDE8F883000011
:100A7000F4570220074AD0624A1ED2B2012343EA49
:100A80000222044BDA611A46D26942F02002DA618E
:100A90007047000000B002401EB5034601F07F40E1
:100AA000B0F17F4F01D118461EBD83F07F40029008
:100AB00081F07F4001901448144C206002A8E0604F
:100AC00001A86061C4F83CD04FF4803040EA026075
:100AD000E061C2F1FF00002444EA00600B4C606258
:100AE000002060634FF0011060642046006840F011
:100AF0000100206000BF0548006810F0010FFAD126
:100B0000009880F07F40CFE70002020000B0024072
:100B100070B5049C124D134E35603546E86069612E
:100B2000EA634FF4803545EA0365F561C3F1FF05DB
:100B3000002646EA05650B4E7562002575630125A2
:100B400005EB0445756435462D6845F001053560B3
:100B500000BF044D2D6815F0010FFAD170BD0000E3
:100B60000002020000B0024030B50246002300241B
:100B70000868012816D013686FF30E03D1E9010548
:100B80002843CD6828430D6928434D6928438D6962
:100B90002843CD6928430D6A28434D6A28430343FF
:100BA000136019E013686FF30E03D1E907052843BA
:100BB0004D6A2843034354686FF30E04D1E90105DD
:100BC0002843CD6828430D6928434D6928438D6922
:100BD0002843044313605460002030BD024650692E
:100BE00040EA4100506100207047F8B506460C46C7
:100BF0001546002000900027D4E900010843A168B1
:100C0000491E40EA4110E16840EA41200090009806
:100C1000306102F00DFC074609E0681C07D025B1E1
:100C200002F006FCC01BA84201D90320F8BDB06940
:100C300010F0200FF1D10020F8E770B503461546FB
:100C400000220024012D1FD09A6802F0704208682B
:100C5000401E4E68761E40EA06168868401E46EA28
:100C60000026C868401E46EA0036088A401E46EA4A
:100C70000046888A401E46EA0056087E401E46EA24
:100C8000006002439A6022E0DA6802F0704208686D
:100C9000401E4E68761E40EA06168868401E46EAE8
:100CA0000026088A401E46EA0046087E401E46EAA4
:100CB000006002439C6804F07044C868401E06034C
:100CC000888A401E46EA00500443DA609C60002097
:100CD00070BD8C2308F072BB8C2308F055BF000058
:100CE00010B504460A280FD00D2C11D00948006811
:100CF000C06901682046884707480168002907D075
:100D00002046BDE810400847BDE8104000F0E8BBB1
:100D100010BD0000F05102201C52022010B500202E
:100D200001F024FA6FF07F4001F022FA012001F077
:100D30007BFA002001F080FA002001F087FA002001
:100D400001F028FA0448006801F026FABDE81040D6
:100D5000002001F045BA0000EC510220014AC2E92E
:100D6000000170479C510220014AC2E9000170470E
:100D7000A4510220014AC2E9000170476C520220CE
:100D8000014AC2E900017047AC510220014AC2E9A0
:100D900000017047745202202DE9F04FDFF828B1AE
:100DA00091B04FF0FF35DBF80030B3F92210069117
:100DB000DE69B3F92490F469A189814206D8E289F9
:100DC000824203D3471AD4F8008012E0D4E90181AB
:100DD00000296FD00A8882426CD84D88854269D339
:100DE000801A82B2486800EB8200B0F90070B0F956
:100DF0000250781C5ED0307EA17C10FB01FA217C71
:100E0000CDE90701B3F92A60304605F0B9FBC0B25D
:100E10000E90DBF8000007FB0A81A37C826B0127A0
:100E2000CDE90412CDE90273C069089AC17E807EC3
:100E3000CDE90001DDE90603494604F0A7FD681C81
:100E400018D046F0020005F09BFBDBF80000A37C05
:100E500005FB0A81826BCDE90273CDE90412C069FA
:100E6000089AC17E807ECDE90001DDE9060349468E
:100E700004F08CFDDBF800005D46C069417E007E19
:100E8000814214D9022E12D086F0040005F078FBBE
:100E90002868C069027EC37E12FB0391437E857E73
:100EA000089A06984B4412FB050204F063FF0E9863
:100EB00005F066FBDBF80000627C418C1144418444
:100EC00011B0BDE8F08F0000F05102200448006826
:100ED000C069C06909B1027C0A60407C70470000AB
:100EE000F0510220022008807047C06982898A423E
:100EF00002D8C2898A4210D2806880B102888A42B0
:100F00000DD843888B420AD3406800EB8100A0EBE8
:100F10008200B0F90000002801DB012070470020AA
:100F20007047002801D008F0FDBE704738B505466F
:100F3000FFF7F7FF040009D000F0C8F82A460021A7
:100F4000009002F045F8684600F00AF9204638BDE6
:100F5000024A106021F003005060704710B6022072
:100F600010B5002814D004460A48406B10F834101D
:100F700000290DD002290BD2042101EBC4014158F4
:100F8000486808F089FE2046BDE810400BF03ABCE6
:100F900010BD000050B50220002805D0034AD16BD7
:100FA000016001B14860D0637047000050B5022075
:100FB0002DE9F04104460BF0D5F92848E41C24F053
:100FC0000305016C2D1DA94200D90D46C46B13E029
:100FD00054F8042CAA420ED184B1216809B1626888
:100FE0004A60616809B122680A60C26BA24231D1CD
:100FF0002168C1632EE02468002CE9D18046816B12
:10100000C0680F1857F8040C3E1A306838B1002039
:101010000BF0A6FC57F8040C3E1A3068D0B9706883
:10102000A84217DB3044441B3046241D0BF050FC13
:10103000D8F80C10491BC8F80C10D8F81410294423
:10104000C8F814107068401B02D0314608F024FE26
:1010500044F8045C2046BDE8F081000050B5022051
:1010600010B500240BF07EF90C490F2001EBC002F3
:10107000526C1AB101EBC000406C08E0401EF5D57F
:1010800008E04168A14200D90C46806810B1806830
:101090000028F6D1A4F10C0010BD000050B50220CC
:1010A0000248C1680068081A7047000050B5022065
:1010B000002138B10449042202EBC000496B0858F2
:1010C00041680C390846704750B502200549CA6985
:1010D000521CCA61496B01EBC0010A78521C0A70AC
:1010E00000F056B850B502207CB506460C460846BE
:1010F000FFF717FF05001CD0DEB13046FFF7D8FF21
:10110000A04200DA04462846FFF7E0FF0090304690
:10111000FFF7DCFF0146019022460098FFF762F8D6
:10112000684600F01DF801A800F01AF83046FFF7F5
:1011300017FF28467CBD000010B5FFF791FF642221
:101140000649B0F5800F04D990FBF2F0096A4843D4
:1011500010BD096A4143B1FBF2F010BD50B5022049
:101160000A4902684B6B52F8082C03EBC202137851
:10117000022B03D3CB690BB15B1ECB611178491EE7
:1011800011700021016008467047000050B5022030
:10119000002806D00349042202EBC000496B08581E
:1011A0000830704750B5022070B50C46054600F077
:1011B000B7FAC1B223462846BDE87040002200F0CD
:1011C00001B80000F0B52D271C68B0F1004F08D021
:1011D000002600280DDA651C1D602770404201249E
:1011E00008E0651C01261D606FF000402770491E55
:1011F00001E00024091BC9B22AB3491EC9B222E08A
:101200000C46491EC9B2944205D1124C27781C687D
:10121000651C1D602770104C54F8215090FBF5F4AC
:10122000E4B20A2C11D804FB150011B90EB1641CEC
:10123000E4B20A2C02D10124491CC9B21D686F1CFA
:1012400030341F602C700029DAD119680020087032
:10125000F0BD0000E451022080EB012070B506468D
:101260000D461446104600F0DDF90300164804EB65
:1012700084010AD050F8210041688068711A2A1A46
:10128000BDE87040184600F0A9BF00EB8104A268D9
:10129000B24201D0012200E00022E368AB4201D05B
:1012A000012300E000231A430CD0236943B150F816
:1012B0002100816840686A1A311A184600F02CFF34
:1012C000C4E9026570BD00008CB6022010B5C2B240
:1012D000CBB2D21A00D5524293B25B43C0F307227D
:1012E000C1F30724121B00D55242000C92B2A0EBAE
:1012F000114002FB023200B2002801DA404200B283
:1013000080B200FB002010BD10B50021084600F09F
:10131000CBF943F6FF725042BDE810401346014638
:10132000AFF300802DE9FC4107461C4615460E46EA
:10133000042005F025F980461148C068C16C006D95
:101340000F4406440D440444ADF80070ADF8045059
:10135000ADF80260ADF80640684608F049F807E0CD
:1013600023462A463146384604F004FD07F0E8FFDC
:101370000028F5D1404605F003F9BDE8FC810000E6
:10138000E45102202DE9F0411C4616460D46074661
:10139000022B02DB0020BDE8F0811C20FFF708FED5
:1013A0000028F8D00DB105610AE0094A52F824106E
:1013B00009B905E011460A68002AFBD109690161F3
:1013C00084618682002101604160C0E90217E2E782
:1013D0000852022070B51D46FFF7D4FF040009D063
:1013E00000F00EF8E068006820B90348006800EBE0
:1013F00085008465204670BDF0510220FFF7CCBD0A
:1014000070B590B38269022A30DA1E4C54F822106B
:1014100019B944F8220032E019464B68002BFBD181
:1014200006E0CB68C5681B682D68AB4203DD096820
:101430000029F6D11AE0C1B1CB68C6681B683668CE
:10144000B3420CD1838A012B05D008E01946DB6832
:101450001B68AB4203DB0B68002BF7D129B14B684B
:1014600033B118604A68426004E0FFE7012070BDB4
:1014700044F822004860884200D100210160002029
:1014800070BD0000085202200CF018B8022801DBE1
:1014900000207047054951F8200004E0C168096840
:1014A0000029F6D000680028F8D1704708520220C1
:1014B00070B5044601F082F8051908E000F01EF846
:1014C000052C01DD052000E0204601F069F801F05F
:1014D00075F82C1A002CF1DC70BDFFF733B8000052
:1014E00000B500F0AFF8044909688A8C104488847C
:1014F000088C488400BD0000F051022010B5002483
:1015000000E0012400F004F80028FAD1204610BDC4
:10151000094810B50068002410B1804700B10124CB
:1015200007F04CFA00B101240448006810B180476C
:1015300000B10124204610BD145202201052022096
:1015400008B50B46002805D0009281888268C088C3
:1015500000F001F808BD10B50828029C30D008DC66
:1015600004FB01F401280AD0022813D0042804D176
:101570001CE0102828D020282CD0002010BD04EB1F
:10158000D30003F00701105CC1F10701C84000F06F
:10159000010010BD04EB93000621105C01EA430139
:1015A000C1F10601C84000F0030010BD04EB530078
:1015B000D907105C02D000F00F0010BD000910BD6B
:1015C00004FB0130105C10BD481004FB003032F801
:1015D000100010BD881004FB003052F8200010BD30
:1015E000034951F82000C1688A6A082110470000A9
:1015F0000852022002490968C9694A680021104757
:10160000F0510220024A1268D26952681047000065
:10161000F051022010B504F0DDFBBDE8104004F0ED
:10162000B9BC00000021022802D2024951F8201062
:10163000084670476452022001480068007C7047E9
:10164000F051022002480068C069407E70470000E7
:10165000F051022001F014BB70B514460D4604F0A1
:1016600037FC002802D000202860206070BD01F007
:1016700049BB10B5044601F037FB01462046BDE8E2
:10168000104001F007BB0000024951F8200000693A
:101690000068704708520220024951F82000006992
:1016A000406870470852022070B50D460AF048FCA9
:1016B000044628460AF04CFC204370BD124810B581
:1016C000016821F001010160104801218160104989
:1016D000016000680F49884200D0FEE701F02AF857
:1016E0000D492E20087000F06FFF0C480AF002FE32
:1016F0000CF038FC04460021084600F079FD07F0A4
:1017000081FB204610BD0000002000E000300240B8
:10171000C2A507F4CDB5E8B5E45102201CB60220FD
:1017200010B5011E01DD024600E04A42064B0120D1
:1017300053F82040944202D8401C0A28F8DB0029C4
:1017400000DA401C10BD000080EB01201CB520B960
:101750000C480068006E002812D0FFF7B7FC00901C
:1017600044696846FFF7FCFC002C09D02046FFF7CF
:10177000ADFC019081688968884701A8FFF7F0FCFB
:101780001CBD0000F051022001490A4600F002B8D9
:1017900001F0FFFF2DE9F04387B015460C465FEAE4
:1017A000000842D0002000F0F5FC81462048006887
:1017B000066E4046FFF78AFC00900068806900F0E2
:1017C000C3FC074640F6FF70C44204D10098B0F94C
:1017D0000440B0F906500098611E0289ADF804403B
:1017E0001144ADF808104189681E0844ADF8065050
:1017F000ADF80A0006F046FF6846FFF7B1FC01A805
:1018000007F0F6FD06E02A462146404600F03CFB84
:1018100007F096FD0028F6D1384600F095FC3046DA
:1018200000F054F9484600F0B5FC07B0BDE8F0837D
:10183000F05102202DE9FE4F834619488A46194986
:1018400000680C9E9846407C9146002751F8204045
:10185000E1680968042903D02468002CF8D100E06D
:1018600014B9FFF713FE04460121E068C26A20465E
:101870009047050011D02469A0688047401C02D120
:10188000094C46F001060096CDE9015443464A460C
:101890005146584600F09EF907463846BDE8FE8F8F
:1018A000F051022008520220E4DF012038B5040084
:1018B00018D00D480068006EA04201D100F03AFC3B
:1018C0002046FFF703FC0090406908B100F047FE96
:1018D00000980068FFF792FD6846FFF741FC20463C
:1018E000FFF73EFB38BD0000F05102202DE9FF4F0D
:1018F0000746464883B099460068DDF840B08A46FE
:10190000447C434800570128204606DD04F00AFBCA
:101910008046204604F012FB05E004F0F2FA80460F
:10192000204604F0F4FA044617B302A901A8FFF711
:101930009EFEB7F90060002E00DA0026B7F90250CB
:10194000002D00DA00250199B7F904004144491E31
:101950000AF0E5FD804602980119B7F90600491E14
:101960000AF0DDFDA8EB0602441B521C641C02E0D9
:10197000002635464246B9F1000F01D1C4F10009F5
:10198000002A01DD002C03DC002007B0BDE8F08F49
:101990004B4629463046CDF800B0FFF74BFF5FEAD3
:1019A000000909D000F058F88046484600F08EF84B
:1019B0000027DFF860B01FE05146059888470120F6
:1019C000E3E7E11B414502DA484600F069F83FB120
:1019D000EA193146484600F09BF84846FFF7B6FE44
:1019E000514605988847DBF8001009B10020884768
:1019F0004846FFF7C9FE4744A742E2DB4846FFF7E7
:101A000055FF002000F062F8BEE70000F051022010
:101A1000285202206053022038B5002460B1FFF73D
:101A200055FB0090006800698068804705F0F8F871
:101A300004466846FFF794FB204638BD38B50028B9
:101A400008D0FFF743FB00F1180400906846FFF749
:101A500087FB204638BD000038B5002418B9074878
:101A60000068006E38B1FFF731FB0090B0F90A4012
:101A70006846FFF775FB204638BD0000F051022094
:101A800070B505460024284608F064FC641C18B1B3
:101A9000BDE8704000F068B8052CF4DB70BD0000B4
:101AA00038B50C4620B908480068006E00280AD0F6
:101AB000FFF70CFB0090B0F90A10A14200DD448151
:101AC0006846FFF74DFB38BDF0510220F8B50F4EC8
:101AD00005003068046E16D00CB100F02BFB06F048
:101AE000BDFE2846FFF7F2FA009031680D660068E7
:101AF000FFF786FC6846FFF733FB04F0B3FD04F004
:101B000009FD2046F8BD00F015FBFAE7F051022070
:101B10007CB515460C4620B912480068006E0028B6
:101B20001FD0FFF7D3FA2DB20090C58024B2848075
:101B300004F0F0FC0098406980B1FFF7C7FA009A02
:101B40000190B2F908108180B2F90A20C28011B167
:101B50000AB10480458001A8FFF702FB6846FFF741
:101B6000FFFA7CBDF051022001490A4600F002B89C
:101B700001F0FFFF7FB515460C46060028D0FFF7A1
:101B8000A5FA40F6FF710190CC4203D1B0F90440B0
:101B9000B0F906500289611E1144ADF80840ADF855
:101BA0000C104189681E0844ADF80E00ADF80A50CB
:101BB00001A8FFF7D5FA02A807F01AFC06E02A46AA
:101BC0002146304600F048F907F0BAFB0028F6D16C
:101BD0007FBD00002DE9FF4FDFF8E8B083B01C4661
:101BE000DBF80010DDE9106092464FF000084B7CF6
:101BF00042461299FFF7C6FB050060D0286980684D
:101C0000804705F00DF881460AFB09F1C91DCF0890
:101C1000FFF792FAF10705D1C11700EB9170801020
:101C200000EB4000002C09DC1FB11838B0FBF7F0C6
:101C300000E000206442A04200DC0446F00707D127
:101C40000090DDE903012346524600F011FC804676
:101C5000002C03DC2846FFF7D1FB30E004FB07F043
:101C60001830F10702D0FFF75CF901E0FFF75EF9E9
:101C700006001CD0FFF72AFA0190056003998180C5
:101C80000499C180A0F808A04481C0F81480C0E97C
:101C9000037901A8FFF764FA1298AE602861DBF8B7
:101CA0000000407CA861304607B0BDE8F08F2846B0
:101CB000FFF7A4FB5FEA080001D0FFF751F900200D
:101CC000F2E70000F05102202DE9F74F8EB01446E4
:101CD00089460E98FFF7FAF90990B0F908B0B0F903
:101CE0000A600068006940680C9009A8FFF738FA9C
:101CF000564D574F2868407C57F82000C1688A6AC3
:101D0000082190470790182801D3202007902868C1
:101D1000407C57F820000069069003C80B904D489E
:101D2000814201D0012000E000200A90002000F054
:101D30004CFC00287DD1286809EB0B01B0F90C2080
:101D4000891A491E002902DDABEB010500E05D4662
:101D5000B0F90810494505DDA1EB090189446D1A68
:101D6000089101E000210891002D6BDDB0F90E20F3
:101D7000A119891A491E002902DDA6EB010800E01D
:101D8000B046B0F90A00A04204DD061B3444A8EBBB
:101D9000060800E00026B8F1000F53DD0898019016
:101DA0000DA95F46DDF830A00E980091FFF746FEC2
:101DB000774300EB870101982B4601EB80020099E5
:101DC0004846CDE900A1214600F082FD00900028A0
:101DD00038D00A98E8B1DDE906322946009800F0CB
:101DE000A3FCB0B90698009FDA46D0F810C0BCF149
:101DF000000F05D004235A4639463846E04708E02C
:101E00000B993868884701C7AAF101005FEA000A08
:101E1000F6D100990020079ACDE903010590012031
:101E20000090CDE9010221460346641C2A4648463B
:101E300000E007E003F0AAFDA8F10100761C5FEACC
:101E40000008ABD111B0BDE8F08F0000F0510220C6
:101E50000852022017600020F8B515460E460746C6
:101E6000FFF734F9009000681621C068426A00202C
:101E7000904704466846FFF773F9002C03D02A46C2
:101E800031463846A047F8BDF8B515460E46074618
:101E9000FFF71CF9009044696846FFF761F938467E
:101EA000FFF7BAFD0346082800DD2CB12A4631466B
:101EB00038460BF023FBF8BD2A46314638460BF076
:101EC000BDFCF8BD054910B591E81C0080E81C0078
:101ED000087A002800D0012010BD0000B4B602200E
:101EE00010B504460C220849FEF7C3F9002809D0B2
:101EF000054894E80E0080E80E002046BDE810403A
:101F000000F092B810BD0000B4B60220044A126876
:101F100002B10020002900DC0121024A115470475F
:101F20003452022028520220094A126802B10020CD
:101F3000074A1C3252F82030002B07DBA2F11803AD
:101F400043F820104FF0FF3142F820107047000096
:101F50003452022010B5002821D009B30AB3B1F9D8
:101F60000040B2F900309C4200DA23460380B1F908
:101F70000240B2F902309C4200DA23464380B1F9B4
:101F80000440B2F904309C4200DD23468380B1F95D
:101F90000610B2F90620914200DC1146C18010BD46
:101FA00011460A6802604968416010BD00280BD0E4
:101FB00003880B440380838819448180418811443D
:101FC0004180C1881144C1807047000070B50E4D3A
:101FD0000446D5E90001884209D10C49884201D163
:101FE0003C3000E00C3807C884E8070006E090E8C1
:101FF0000E0084E80E0009F0B3FF2860207A002864
:1020000000D0012070BD000058520220C0B602204E
:102010000448D0E90010814201D10120704700201E
:102020007047000058520220054A10B5034911605C
:102030000BF046F9BDE8104000F012B9958A002077
:102040001852022070B5094C0020D4E900218A42C0
:102050000AD0D2E90056104609F09AFF20603146B6
:10206000284606F0B3FF012070BD00001053022087
:102070002DE9FC41154DDDE908742D68B5F90860BE
:10208000864200DD3046B5F90C60964200DA3246F1
:10209000824219DBB5F90A608E4200DD3146B5F99E
:1020A0000E509D4200DA2B468B420DDB00E02C46A1
:1020B000E5682D6825B1042D02D02568002DF6D1E4
:1020C000CDE9007404F010F9BDE8FC81F051022064
:1020D000B0F90220B1F906309A4213DCB1F90220BE
:1020E000B0F906309A420DDCB0F90020B1F90430A5
:1020F0009A4207DCB1F90010B0F90400814201DC1A
:102100000120704700207047014602487022006895
:10211000FEF768B8F0510220002801D00AF01CBE7A
:1021200070470000024970220968FEF75BB80000A2
:10213000F051022010B504F0A3F904F093FABDE8C1
:10214000104006F09FBA000070B504460548022C06
:102150000068457C02D24474FFF7ECFF024804603B
:10216000284670BDF05102209C52022004F0A8B90C
:1021700004F0DEB9034A6FF070411268116304F095
:10218000DDB90000F051022001498860704700006D
:10219000E451022004F0F4B903490968CA6900B1A6
:1021A000C861104670470000F05102200149C86123
:1021B00070470000B4510220014948607047000098
:1021C000E45102200149086070470000B451022028
:1021D0000149486070470000B451022004F0ECB996
:1021E000024909688A7E887610467047F0510220BD
:1021F000094A30B41080094A1180094A1268537C98
:10220000084A52F82330DA68146A0A46A44601469E
:1022100030BC184660470000305202203252022083
:10222000F051022008520220024909680A7E08760D
:1022300010467047F051022003490968B1F92C207B
:102240008885104670470000F05102200349096854
:10225000B1F92A204885104670470000F05102204D
:1022600002480068002800D00047704754530220FD
:1022700002498A6802B98860FFF7F2BF1053022052
:1022800010B5040009D00AF03DFB20460BF0EEF833
:102290002046BDE81040FEF763BE10BD38B50C46C1
:1022A00060B1FEF713FF00908089204201D0012425
:1022B00000E000246846FEF753FF00E001242046BA
:1022C00038BD000038B5054600202860064804687F
:1022D00044B12046FEF7FAFE009000692860684687
:1022E000FEF73EFF204638BD4053022038B50400BB
:1022F0004FF000000D46086011D02046FEF7E6FEC4
:102300000090846844B16846FEF72AFF2046FEF735
:10231000DDFE0090006928606846FEF721FF204638
:1023200038BD0000054910B591E81C0080E81C008C
:10233000087A002800D0012010BD000008B7022054
:1023400010B504460C220849FDF793FF002809D078
:10235000054894E80E0080E80E002046BDE81040D5
:10236000FFF762BE10BD000008B702202DE9F04162
:10237000084E0446056830680168284688470746C5
:102380003068416828468847284420603846BDE8C0
:10239000F0810000F45102202DE9F0411E46069C18
:1023A0001746884605463A46A8687F1C3346D0F84B
:1023B00004C041462846E047641EF4D1BDE8F081E0
:1023C00070B5B0F90040091BB0F904408C422CDD17
:1023D00000F11404B0F902500069521B02FB0040E6
:1023E000CA1800EBE104521ED010B0EBE10501F079
:1023F00007034FF0FF0102F0070221FA03F0C2F1D8
:10240000070201FA02F1CEB221780FD001436D1E0E
:1024100004F8011B002D05DDFF2229462046FDF7AB
:1024200001FF2C4420783043207070BD30400143C0
:10243000217070BD10B5B0F90030B0F90240C91A72
:1024400000F114030069121B02FB003000EBE100F5
:1024500001F0070302788021D9400A43027010BDC1
:10246000B0F90610026951431430FDF7E2BE0000D6
:102470002DE9F843804602F10F000011470003FBED
:1024800007F01C46154689461430FEF74FFD06003E
:1024900013D0FEF71BFE0090A0F80080A0F8029079
:1024A0008580C48006498160012181810761684679
:1024B000FEF756FE3046BDE8F8830020FBE700003B
:1024C000D0EC012070B5B0F90660B0F904400B689B
:1024D00000F1140596421BDD0069A34202FB005087
:1024E00000EBE30214DA641EE010A0EBE30512F83F
:1024F000010B03F00704A040C4B206E045B1083365
:1025000012F8014B23F007036D1E002CF6D004E0F7
:10251000002070BD6006040E5B1C2006FAD5FF2C5F
:1025200007D0184602E06406240E401C6606FAD462
:1025300000E0D81DC443640705D006E012F8014B43
:10254000FF2C09D108306D1EF8D5C01A401C0B6055
:1025500070BD6206140E401C2206FAD4F5E738B5A9
:102560000546FEF7B3FD00908189491E0CB28481B7
:102570006846FEF7F5FD002C02D12846FEF7F0FC78
:1025800038BD000010B54FF480110348FEF7E0FCA1
:102590000248FFF7F9FD10BD000030D060E70120D0
:1025A000044A1268111800BF024A12688A1A002AE7
:1025B000FADC7047085002207047000001480068AC
:1025C000704700000850022070470EB508B102AAFB
:1025D00000E00022002301A9684600F003FB0EBDC5
:1025E000074910B5CC6818B10120C860801E03E00F
:1025F0000020C8606FF07F4003F086F9204610BDD0
:102600002053022010B5082A0EDC0346012A18D0F8
:10261000022A56D0042A76D010F8042B03F8012B96
:10262000491EF9D1012010BD102A08DC4FEA000232
:1026300030F8043B22F8023B491EF9D1F2E70020B2
:1026400010BD10F8042BD207120E491E34D010F81A
:10265000044B491E04F0010442EA84122CD010F805
:10266000044B491E04F0010442EA441224D010F83D
:10267000044B491E04F0010442EA04121CD010F875
:10268000044B491E04F0010442EAC40214D010F8BD
:10269000044B491E04F0010442EA84020CD010F8F5
:1026A000044B491E04F0010442EA440204D010F82D
:1026B000044B04F00104224303F8012B0029C0D18C
:1026C000B0E710F8042B9207120E491E15D010F82F
:1026D000044B491E04F0030442EA04120DD010F822
:1026E000044B491E04F0030442EA840205D010F8AA
:1026F000044B04F003042243491E03F8012B002974
:10270000DFD18FE7FFE710F8042B1207120E491EE6
:1027100005D010F8044B04F00F042243491E03F8BF
:10272000012B0029EFD17DE738B50024009400F09B
:102730001BF838BD0A4810B5816900290ED1012166
:102740008161FFF71FFF03F09FFF054905481C311A
:102750000860BDE81040084600F0FABB10BD00005C
:10276000E451022005C600202DE9F0410D460699EE
:10277000044601B901461F68082A09DC0E46012AF1
:102780001AD0022A5BD0042A7DD0082A13D18DE00A
:10279000102A07DCD3F810C00E46BCF1000F04D09D
:1027A000022389E00020BDE8F08101CCB84726F87B
:1027B000020B6D1EF9D189E001CCB847C0074FEA82
:1027C00010686D1E36D001CCB84748EA801000F082
:1027D000FF086D1E2ED001CCB84748EA401000F02B
:1027E000FF086D1E26D001CCB84748EA001000F063
:1027F000FF086D1E1ED001CCB84748EAC00000F0AB
:10280000FF086D1E16D001CCB84748EA800000F0E2
:10281000FF086D1E0ED001CCB84748EA400000F01A
:10282000FF086D1E06D001CCB84740EA080000F052
:10283000FF086D1E06F8018B002DBDD146E001CCCE
:10284000B84780074FEA10686D1E16D001CCB84714
:1028500048EA001000F0FF086D1E0ED001CCB8470A
:1028600048EA800000F0FF086D1E06D001CCB84792
:1028700040EA080000F0FF086D1E06F8018B002DED
:10288000DDD123E0FFE701CCB84700074FEA10682D
:102890006D1E06D001CCB84740EA080000F0FF08E2
:1028A0006D1E06F8018B002DEDD10FE0D3F810C09E
:1028B000BCF1000F04D001232A462046E04705E082
:1028C00001CCB84706F8010B6D1EF9D101206AE76B
:1028D0002DE9FF4F8DB00020DDF86CA0164600906A
:1028E0001D4604460246CAF8000008AB03A902A828
:1028F00000F078F918B1002011B0BDE8F08F089809
:10290000854200DD0546614F0B9561493868407C82
:1029100051F82010049109690691FEF761FE0590B7
:102920003868407CFEF7B8FE5A498146884204D098
:102930005949894501D0012000E000200A9001CECC
:102940001A9988478346000E079077D0009870BB8D
:102950000D9800EB04084D480068B0F908004045A8
:1029600003DDA0EB0807804600E0002702980499E9
:1029700000EB840000EB8700CDE900010B990D9876
:10298000421809920E9B40461946521EFFF770FBF3
:1029900001200090059818280ADA0298DDE905233D
:1029A00000EB840000EB8700E91B00F079F812E0EF
:1029B0000A9880B1029800EB840000EB8707099821
:1029C000A0EB080849463868884701C7A8F101000C
:1029D0005FEA0008F6D13148C06980B3DDE902073B
:1029E00000EB840007EB8402CDE902022B4C361F7A
:1029F0003046E4692B460299A047FF213068B1EBCD
:102A0000106F02D10298006804E0029A1268B1EBDC
:102A1000126F01D1039A1060029806F10406001D9E
:102A200002900398001D03906D1EE7D10397DAF81A
:102A3000000040F00101CAF8001020E021E0FFE7AB
:102A40000798FF2811D0C0F1FF02029850F8241017
:102A5000584600F023FA039941F82400DAF8000000
:102A600040F00101CAF8001005E00298039950F8FF
:102A7000240041F82400641C6D1E7FF460AF0398AD
:102A80003AE7039941F824B0E8E70000F05102204A
:102A9000085202201760002015600020B451022067
:102AA0002DE9F05F0C1E16DD5E68014600EB840523
:102AB000082A12DC611E012A26D0022A47D0042AE5
:102AC0006AD0082A07D1071917F8010DB04745F851
:102AD000040D641EF8D1BDE8F09F102AFBDC5F698D
:102AE0003FB12246BC46BDE8F04F02235DF804EB3F
:102AF000604701EB440700BF37F8020DB04745F8C7
:102B0000040D641EF8D1E6E700EBE10001F00707D1
:102B100010F801A98146802020FA07F8B5F10405D4
:102B20000AEA0800C7F10701C840B04745F80409A0
:102B30003FB14FEA48604FEA10687F1E641EEFD134
:102B4000C9E719F801A907274FF00108F6E700EBDC
:102B5000A10001F0030710F801A981467900C02007
:102B600020FA01F84FF0060BB5F104050AEA080057
:102B7000ABEB4701C840B04745F804093FB14FEA05
:102B800088604FEA10687F1E641EEFD1A3E7032719
:102B900019F801A9B846F7E700EB6100012710F822
:102BA00001A9A7438146B900F02020FA01F84FF0AF
:102BB000040B2D1F0AEA0800ABEB8701C840B047A1
:102BC00045F804093FB14FEA08704FEA10687F1ECC
:102BD000641EEFD17FE719F801A901274FF00F0814
:102BE000F6E700002DE9F047224C06461F46A06993
:102BF00090468946002540B90120A06104F12001DA
:102C00001D480860084600F0A3F9606930B91B4808
:102C10000068606110B903F077F9606107B138604E
:102C20004EB1A06830B960698000FEF7C1F9A060BC
:102C300000B901253060B9F1000F0AD0E06830B961
:102C400060698000FEF7B4F9E06000B90125C9F8B9
:102C50000000B8F1000F0AD0206930B96069800027
:102C6000FEF7A6F9206100B90125C8F80000284642
:102C7000BDE8F087B4510220A9C5002020520220EF
:102C800003480068C069017EC07E11FB00F07047F8
:102C9000F051022073B5124A01A9009812689047BA
:102CA00000240090C8B10F4900250968C969496925
:102CB00059B10A684AB1019990477CBD6846FFF74F
:102CC00055FB0546FEF796FC04440198401E019012
:102CD000F4D5284600F024F8044420467CBD0000CA
:102CE0000C530220F051022031B50024009808B99D
:102CF00005E0641C6846FFF739FB0028F9D120463F
:102D000038BD0000044AB2F9002002600348B0F95F
:102D1000000008607047000030520220325202204A
:102D200038B5002469460094FEF76CFC0099814296
:102D300000DD0C1A204638BDB0F90030B1F9002092
:102D4000934200DA0280B0F90230B1F902209342D6
:102D500000DA4280B0F90430B1F90420934200DD7A
:102D60008280B0F90620B1F906108A4200DDC180E8
:102D7000704770B5B1F90040B2F900309C4200DDF7
:102D800023460380B1F90250B2F90240A54200DDAA
:102D90002C464480B1F90460B2F90450AE4200DA26
:102DA00035468580B1F90610B2F90620914200DB64
:102DB0001146C1809D4201DBA14201DA002070BDB5
:102DC000012070BD014602480068407C00F002B856
:102DD000F05102202DE9F8430126044689460228D5
:102DE00057DADFF8B480080008F1040530D0012874
:102DF00002D002294DD116E055F8240088B92046AA
:102E0000FEF744FB009010B3C0680D21426A68468B
:102E1000904702003DD049460098904755F824005D
:102E20000026401C33E02046FEF730FB009070B1D6
:102E3000C0680D21426A68469047040029D0D8F83E
:102E4000000000B1804749460098A047002620E0D6
:102E500055F82400012813D12046FEF717FB0090F7
:102E600070B1C0680D21426A68469047070007D0DC
:102E7000D8F8000000B1804749460098B8470026BE
:102E800055F8240008B1012100E00021401A45F85E
:102E900024003046BDE8F883F852022070B5FF23C5
:102EA000B3EB116F2CD0C3B213FB02F500F47F44D7
:102EB00000F47F0354435343000E10FB02F6C2F1AB
:102EC000FF00CAB212FB005201F47F4505FB00442B
:102ED00001F47F0505FB0033090E11FB0065C2F309
:102EE00007204FF47F024FF47F4102EA132201EAE8
:102EF00014214FF07F43084303EA0543104318436E
:102F000070BD2DE9F04F0646DDE90CB915460C46BB
:102F100000208046584519D20B9F4FF0FF0A01CE82
:102F200008CCAAEB106202FB09F2B2FBFAF1CAB2BA
:102F30001946FFF7B3FF20F07F4001C57F1EEED199
:102F4000099804EB800408F10100E2E7BDE8F08F86
:102F500002494A694260486170470000E45102201A
:102F60002DE9F041184C06460D4620689846174654
:102F7000B0F90A10A94224DCB0F90E10A94220DBF6
:102F8000B0F90810B1421CDCB0F90C00B04218DBFB
:102F90002946304602F064FF01463A464046FFF7B4
:102FA0007DFF02F0B9FC034620682A46417C0748B1
:102FB00050F82100C1688C693146A446BDE8F04153
:102FC0006047BDE8F0810000F05102200852022065
:102FD00010B502E000F8011B521E0AB18307F9D1B7
:102FE000930818D001EB014402F0030204EB04241F
:102FF00006E010C01B1F10C040F8084B40F8044CFE
:10300000042BF6DA01E010C05B1E002BFBD102E0BE
:1030100000F8011B521E002AFAD110BD10B501465E
:10302000C1EBC102094B03EB8202D268C1EBC103C1
:10303000064C04EB83031B695A43C1EBC10304EB49
:1030400083035B6902FB03F010BD0000BC57022044
:1030500010B504460CB9012010BD607920B90020DC
:103060002071204600F006F8022060710120607196
:103070000020F1E781B00068A0F18041B1F50C318A
:1030800008D10548016841F480510160006800F4EE
:103090008050009001B070473038024070B504464F
:1030A00000250CB9012070BD94F8390028B9002022
:1030B00084F83800204600F023F8022084F8390014
:1030C0002068056825F44035606805432068056080
:1030D0002068456B25F00705A06805432068456317
:1030E0002068056C6FF30D05E068054320680564F2
:1030F0000020E063012084F839000020D3E70000BD
:1031000081B00068A0F18041B1F52C3108D10548AB
:10311000016841F400010160006800F400000090C3
:1031200001B070473038024031B5002400F080F91A
:10313000044600BF00F07CF9001B00998842F9D3D7
:1031400038BD00002DE9F04186B02C480168002907
:1031500050D1012101602A48016841F0010101605C
:10316000006800F0010000904FF63F00019002243B
:10317000029400270397032504950C26059601A9C0
:10318000204800F049F8202001900294039404950F
:103190000596DFF8748001A9404600F03DF848F23A
:1031A00033100190029403970495059601A91748DE
:1031B00000F032F84FF68370019002940397049563
:1031C000059601A9124800F027F8C020019002944A
:1031D00003970495059601A9404600F01DF84CF2AE
:1031E00003700190029403970495059601A909487C
:1031F00000F012F806B0BDE8F0810000485002204F
:103200003838024000140240001C024000180240FE
:1032100000100240000C0240F8B502460B460025A3
:10322000002400200021E4E0012606FA01F51E68D2
:1032300006EA0504AC4271D15E68022E02D05E68D7
:10324000122E13D1CF0802F1200656F827004E07A0
:10325000F70E0F26BE40B0434F07FF0E1E69BE405B
:103260003043CF0802F1200646F8270010684F00CF
:103270000326BE40B0431E7906F003064F00BE4051
:10328000304310605E68012E08D05E68022E05D0C3
:103290005E68112E02D05E68122E13D190684F0026
:1032A0000326BE40B0434F00DE68BE40304390600E
:1032B000506801268E40B0431E79C6F300168E403A
:1032C00030435060D0684F000326BE40B0434F00EB
:1032D0009E68BE403043D0605E6806F08056B6F10E
:1032E000805FA8D100BF454E366846F48046434F04
:1032F0003E603E46366806F48046009600BF00BF3A
:103300003F4E8F0856F827008E07370F0F26BE4016
:10331000B0433C4EB24202D100262EE068E03A4E65
:10332000B24201D1012628E0384EB24201D1022634
:1033300023E0374EB24201D103261EE0354EB242A1
:1033400001D1042619E0344EB24201D1052614E021
:10335000324EB24201D106260FE0314EB24201D1C7
:1033600007260AE02F4EB24201D1082605E02E4E74
:10337000B24201D1092600E00A268F073F0FBE4066
:1033800030431F4E8F0846F82700284E3068A04370
:103390005E6806F48036B6F5803F00D12043234EA8
:1033A0003060361D3068A0435E6806F40036B6F51E
:1033B000003F00D120431D4E361D3060361D306861
:1033C000A0435E6806F48016B6F5801F00D1204346
:1033D000164E08363060361D3068A0435E6806F42D
:1033E0000016B6F5001F00D12043104E0C36306099
:1033F000491C1029FFF418AFF8BD00004438024002
:103400000838014000000240000402400008024069
:10341000000C02400010024000140240001802405C
:10342000001C02400020024000240240003C0140F9
:103430000148006870470000005002200248006800
:10344000401C0149086070470050022010B50D482B
:10345000006840F400700B4908600846006840F4BA
:10346000806008600846006840F4807008600320AF
:1034700000F01AFC002000F007F800F0BEFB00206E
:1034800010BD0000003C024070B5044600F076FF1D
:103490004FF47A71B0FBF1F5284601F01CFF0022D1
:1034A0002146501E00F0C2FB002070BDF0B504465E
:1034B000154600260022002700BF94F8A00001282E
:1034C00001D10220F0BD012084F8A00000BF02203D
:1034D00084F8A100002237E003EB830000EBC30C6B
:1034E00004F1380000EB8C000069062813D108783D
:1034F0004FF0100C0CFB022C40EA0C60B1F800C03D
:103500000CF47F4C40EA0C00D1F800C00CF47F0CA6
:1035100040EA0C060EE0087840EA0260B1F800C00C
:103520000CF47F4C40EA0C00D1F800C00CF47F0C86
:1035300040EA0C060F1D3946206884304FF0800C9D
:103540000CFB03000664521CAA42C5D3012084F878
:10355000A10000BF002084F8A00000BF00BFB1E7B9
:1035600030B5034600BF93F8A000012801D1022026
:1035700030BD012083F8A00000BF022083F8A10025
:1035800018688430802404FB0200C06800F07F4487
:1035900018688430802505FB0200C46018688430F8
:1035A000802404FB0200C16001201C68606283F873
:1035B000A10000BF002083F8A00000BF00BFD7E734
:1035C00070B504460E46154600BF94F8A0000128C9
:1035D00001D1022070BD012084F8A00000BF0220AC
:1035E00084F8A10005EB850101EBC50204F1380167
:1035F00001EB820034223146FCF7F4FD2A463146C5
:10360000204603F02DFB01202168486284F8A100C8
:1036100000BF002084F8A00000BF00BFDAE710B5AB
:10362000024600BF92F8A000012801D1022010BD7F
:10363000012082F8A00000BF022082F8A1001068DB
:103640008430CB01C05820F0020310688430CC01D4
:10365000035101201368586282F8A10000BF0020C6
:1036600082F8A00000BF00BFE1E710B5024600BF2E
:1036700092F8A000012801D1022010BD012082F89B
:10368000A00000BF022082F8A10010688430CB01A6
:10369000C05840F0100310688430CC010351012061
:1036A0001368586282F8A10000BF002082F8A000D1
:1036B00000BF00BFE1E710B5024600BF92F8A000CE
:1036C000012801D1022010BD012082F8A00000BF16
:1036D000022082F8A10010688430CB01C05840F06D
:1036E000020310688430CC01035101201368586232
:1036F00082F8A10000BF002082F8A00000BF00BF38
:10370000E1E7704710B504462068806B10F0040FA5
:103710001ED02068806B10F0040F19D02068406B19
:1037200020F004002168486304202168C863D4F8AD
:10373000A40040F00100C4F8A400042084F8A10013
:1037400000BF002084F8A00000BF2046FFF7D9FF8B
:103750002068806B10F0020F1ED02068806B10F084
:10376000020F19D02068406B20F0020021684863E6
:1037700002202168C863D4F8A40040F00200C4F815
:10378000A400042084F8A10000BF002084F8A00059
:1037900000BF2046FFF7B5FF2068806B10F0010FD7
:1037A00017D02068806B10F0010F12D02068406B9A
:1037B00020F001002168486301202168C86384F873
:1037C000A10000BF002084F8A00000BF204600F048
:1037D00095F810BD70B50446002500260CB90120EF
:1037E00070BD94F8A10028B9002084F8A0002046FC
:1037F00000F0D4F8022084F8A1002068806920F04D
:10380000704021688861D4E901010843E1680843F8
:103810002169084321688969084321688861206813
:1038200080683549084021688860A08A05042068BE
:103830008068A16929430843216888602068C068BE
:103840002D4908402168C860A08B05042068C06825
:10385000216A294308432168C86020680069264915
:10386000084021680861A08C050420680069A16AED
:103870002943084321680861206840691E490840BF
:1038800021684861A08D050420684069216B2943A7
:1038900008432168486194F83500050294F8360021
:1038A00006042068C06A00F07F402168C86246EACA
:1038B000050094F8341008432168C96A0843216858
:1038C000C8622068406B40F00400216848632068AB
:1038D000406B40F00200216848632068806940F036
:1038E0000100216888610020C4F8A400012084F848
:1038F000A100002074E7000000F800F070B5054654
:10390000002442E0C4EBC400234901EB800040687E
:10391000002839DBC4EBC40001EB8000C068C4EBB5
:10392000C4011D4A02EB810109694843C4EBC4018B
:1039300002EB810149684843C4EBC40102EB8101F9
:103940004969C4EBC402144B53F8222000FB012642
:1039500022463146284600F0BDF82868406A40F00B
:10396000010029684862C4EBC4000B4A02EB8000E6
:1039700041682046FEF7D8FA4FF0FF30C4EBC4018F
:10398000054A02EB81014860641C022CBAD3002175
:10399000284600F07BF870BDBC57022070B586B099
:1039A0000068A0F18041B1F5B4315DD12F480168C4
:1039B00041F080610160006800F08060009070203C
:1039C0000190022402940025039504940E26059686
:1039D00001A92748FFF720FC40F2376001900294CC
:1039E00003950494059601A92248FFF715FC60028F
:1039F0000190029403950494059601A91E48FFF7CF
:103A00000BFC4FF60C7001900294039504940596FC
:103A100001A91A48FFF700FC4FF4C6500190029428
:103A200003950494059601A91548FFF7F5FB40207E
:103A30000190029403950494059601A91148FFF79B
:103A4000EBFB4FF4407001900294039504940596AB
:103A500001A90D48FFF7E0FB01220021582000F0EA
:103A6000E5F8582000F0D4F806B070BD44380240A4
:103A7000001002400020024000140240001C0240DE
:103A800000180240000C024000040240024600BF41
:103A900092F8A000012801D102207047012082F88D
:103AA000A00000BF022082F8A1001068406B40F027
:103AB00001001368586306480160012082F8A100E4
:103AC00000BF002082F8A00000BF00BFE5E70000B3
:103AD000406801402DE9F04104460E46174600BFFC
:103AE00094F8A000012802D10220BDE8F081012055
:103AF00084F8A00000BF022084F8A10007EB870033
:103B000000EBC70104F1380000EB81056E623A4614
:103B10002946204603F0A4F801202168486284F871
:103B2000A10000BF002084F8A00000BF00BFDCE7B8
:103B30002DE9F04104460E46174600BF94F8A00058
:103B4000012802D10220BDE8F081012084F8A00004
:103B500000BF022084F8A10007EB870000EBC7013B
:103B600004F1380000EB81056E613A462946204693
:103B700003F076F801202168486284F8A10000BFB4
:103B8000002084F8A00000BF00BFDCE72DE9F04171
:103B900004460E461746984600BF94F8A000012838
:103BA00002D10220BDE8F081012084F8A00000BF0E
:103BB000022084F8A10008EB880000EBC80104F1A2
:103BC000380000EB81052E60A86A30446860AF6061
:103BD000E86A3844E86042462946204603F040F847
:103BE000022021684862012084F8A10000BF002063
:103BF00084F8A00000BF00BFD4E710B5072000F094
:103C000053F80022BDE810401146501E00F00EB8D7
:103C100000BF00F01F020121914042094FF0E02354
:103C200003EB8202C2F8001100BF70472DE9F05F7C
:103C300080460D461646002703F060FB07463946CE
:103C40002A46334601F00700C0F1070ABAF1040F13
:103C500002D94FF0040A01E0C0F1070AD14600F191
:103C6000040ABAF1070F02D24FF0000A01E0A0F1F6
:103C7000030AD4464FF0010A0AFA09FAAAF1010A26
:103C80000AEA020A0AFA0CFA4FF0010B0BFA0CFBD3
:103C9000ABF1010B0BEA030B4AEA0B042146404649
:103CA00003F034FBBDE8F09F00BF00F00702064BB5
:103CB00019684FF6FF031940044B0B4343EA0221F6
:103CC000014B196000BF70470CED00E00000FA05E1
:103CD00038B5002400BF2348006840F080502149D7
:103CE00008600846006800F08050009000BF00BFE8
:103CF0000121080490FAA0F0B0FA80F01A4A42F8C4
:103D00002010FFF795FB044607E0FFF791FB001B2F
:103D1000B0F57A7F01D9032038BD1448406800F41B
:103D20008030B0F5803FF0D10121480490FAA0F036
:103D3000B0FA80F00C4A42F82010FFF779FB0446F5
:103D400007E0FFF775FB001BB0F57A7F01D9032070
:103D5000E2E70648406800F40030B0F5003FF0D1DB
:103D60000020D9E74038024000000E4200700040B9
:103D7000F8B5044600250026207810F0010F04D184
:103D8000207800F00200022866D10020CB49886626
:103D9000FFF74EFB054606E0FFF74AFB401B642891
:103DA00001D90320F8BDC6480068C0F3C0600028F0
:103DB000F2D1207810F0010F13D047F6C07191FABC
:103DC000A1F1B1FA81F1606888404FF0E04292FAC7
:103DD000A2F2B2FA82F2A16891400843B849843154
:103DE0000860207800F00200022821D1B448843015
:103DF000006800F0E0404FF0E04191FAA1F1B1FA23
:103E000081F120FA01F660688101207B41EA0060BF
:103E100040EA0670AA4984310860A9488C300068DD
:103E200020F01F00E169491E0843A5498C31086054
:103E30000120A2498866FFF7FBFA054606E0FFF776
:103E4000F7FA401B642801D90320ABE79C480068BF
:103E5000C0F3C0600028F2D0207800F004000428ED
:103E600004D0207800F0080008287DD10020934974
:103E70000867FFF7DDFA054606E0FFF7D9FA401BB1
:103E8000642801D903208DE78D480068C0F3407095
:103E90000028F2D1207800F00400042834D18848AA
:103EA0008830006800F0E0404FF0E04191FAA1F165
:103EB000B1FA81F120FA01F647F6C07191FAA1F149
:103EC000B1FA81F1206988404FF0706292FAA2F253
:103ED000B2FA82F26169914008434FF0E04191FAF1
:103EE000A1F1B1FA81F106FA01F108437449883170
:103EF0000860081D006820F4F851206A401E41EA5D
:103F000000206F498C310860207800F008000828F4
:103F100034D16B488830006800F070604FF07061F9
:103F200091FAA1F1B1FA81F120FA01F647F6C071D8
:103F300091FAA1F1B1FA81F1206988404FF07061E6
:103F400091FAA1F1B1FA81F106FA01F108434FF0BB
:103F5000E04292FAA2F2B2FA82F2A16991400843D9
:103F600057498831086000E01CE0081D006820F413
:103F70004030616A084352498C31086001204F4942
:103F80000867FFF755FA054606E0FFF751FA401BB0
:103F9000642801D9032005E749480068C0F3407050
:103FA0000028F2D0207800F0200020287AD100BF2D
:103FB00043484030006840F080504149403108603B
:103FC0000846006800F08050009000BF00BF3D48E8
:103FD000006840F480703B490860FFF729FA054605
:103FE00006E0FFF725FA401B642801D90320D9E633
:103FF0003448006810F4807FF3D031487030006896
:1040000000F44070218D01F4407188424AD02C4860
:104010007030006820F4407601202B4908600020B1
:10402000086027487030066016F0020F13D0FFF7C3
:10403000FFF9054608E0FFF7FBF9401B41F2883124
:10404000884201D90320ADE61D4870300068C0F3F6
:1040500040000028EFD000BF208D00F44070B0F584
:10406000407F0CD116480830006820F4F810174A39
:10407000A16A1140084312490831086007E010485E
:104080000830006820F4F8100D49083108600C4829
:1040900070300068218DC1F30B010843084970316D
:1040A000086000BF207800F01000102803D194F8B9
:1040B0002C00074908604FF0000073E600004742FB
:1040C0000038024000700040400E4742FFFCFF0FE6
:1040D000E011474270B504460E460025A548006829
:1040E00000F00F00B0426ED2A2490E700846006880
:1040F00000F00F00B04201D0012070BD207800F028
:104100000200022807D19C48006820F0F000A16856
:10411000084399490860207810F0010F3ED060688C
:10412000012807D1944808380068C0F34040B8B966
:104130000120E2E76068022802D06068032807D106
:104140008D4808380068C0F3406048B90120D4E7C2
:10415000894808380068C0F3400008B90120CCE75E
:104160008548006820F003006168084382490860C0
:10417000FFF75EF905466068012810D108E0FFF7F7
:1041800057F9401B41F28831884201D90320B4E736
:104190007948006800F00C000428F0D1CAE060689B
:1041A000022811D108E0FFF743F9401B41F28831A2
:1041B000884201D90320A0E76F48006800F00C0096
:1041C0000828F0D1B6E023E06068032810D108E0A9
:1041D000FFF72EF9401B41F28831884201D90320B4
:1041E0008BE76548006800F00C000328F0D1A1E0DF
:1041F00008E0FFF71DF9401B41F28831884201D9E0
:1042000003207AE75C48006810F00C0FF1D191E0D0
:10421000207800F00200022807D15748006820F0FB
:10422000F000A168084354490860207810F0010F9D
:1042300076D06068012807D14F4808380068C0F37D
:104240004040B8B9012058E76068022802D0606891
:10425000032807D1484808380068C0F3406048B9CF
:1042600001204AE7444808380068C0F3400008B914
:10427000012042E74048006820F0030061680843DD
:104280003D490860FFF7D4F805466068012810D161
:1042900008E0FFF7CDF8401B41F28831884201D990
:1042A00003202AE73448006800F00C000428F0D10D
:1042B00036E06068022810D108E0FFF7B9F8401B2B
:1042C00041F28831884201D9032016E72A48006864
:1042D00000F00C000828F0D122E06068032810D11B
:1042E00008E0FFF7A5F8401B41F28831884201D968
:1042F000032002E72048006800F00C000328F0D1FA
:104300000EE008E0FFF794F8401B41F28831884244
:1043100001D90320F1E61848006810F00C0FF1D124
:1043200014490E700846006800F00F00B04201D03A
:104330000120E2E6207800F00400042807D10E48AE
:10434000006820F4E050E16808430B4908602078D9
:1043500000F00800082808D10748006820F46040F1
:10436000216940EAC100044908600020FFF78CF889
:104370000020C2E6003C02400838024010B500F0C0
:1043800045F80949096801F0F001F02292FAA2F219
:10439000B2FA82F2D140054A515CC8400449086033
:1043A0000846006810BD00000838024064E20020A2
:1043B0000450022010B5FFF7E1FF0749096801F436
:1043C000E0514FF4E05292FAA2F2B2FA82F2D140F6
:1043D000024A515CC84010BD0838024064E2002027
:1043E00010B5FFF7CBFF0749096801F460414FF4AE
:1043F000604292FAA2F2B2FA82F2D140024A515CD1
:10440000C84010BD0838024064E2002070B50021A9
:10441000002200230020274C246814F00C0404D050
:10442000042C04D0082C41D103E0234840E0234869
:104430003EE0204C241F246804F03F011D4C241F43
:10444000246814F4800F10D01C4CB4FBF1F5194C07
:10445000241F246847F6C076344096FAA6F6B6FACA
:1044600086F6F44005FB04F20FE0134CB4FBF1F5C3
:10447000104C241F246847F6C076344096FAA6F6FE
:10448000B6FA86F6F44005FB04F20A4C241F2468B1
:1044900004F440344FF4403595FAA5F5B5FA85F5A6
:1044A000EC40641C6300B2FBF3F001E0024800BF83
:1044B00000BF70BD083802400024F40000127A00EA
:1044C00038B504460025207810F0010F66D0F64874
:1044D000006800F00C0004280DD0F348006800F0DC
:1044E0000C00082813D1F048001F006800F4800079
:1044F000B0F5800F0BD1EC4808380068C0F340409D
:1045000000284BD06068002848D1012038BD002029
:10451000E549891F0870FEF78BFF054608E0FEF7A6
:1045200087FF401B41F28831884201D90320EDE723
:10453000DD4808380068C0F340400028EFD12079FA
:10454000D949891F08706068A0B1FEF771FF054660
:1045500008E0FEF76DFF401B41F28831884201D927
:104560000320D3E7D04808380068C0F34040002853
:10457000EFD013E0FEF75CFF054608E0FEF758FFBA
:10458000401B41F28831884201D90320BEE7C6486A
:1045900008380068C0F340400028EFD1207800F0D0
:1045A0000200022869D1C048006810F00C0F0BD03F
:1045B000BD48006800F00C00082821D1BA48001F4F
:1045C000006810F4800F1BD1B74808380068C0F3AA
:1045D000400020B1E068012801D0012096E7B248F0
:1045E0000838006820F0F800F82292FAA2F2B2FA35
:1045F00082F2216991400843AB49083908603CE0E8
:10460000E06828B30120A9490860FEF711FF0546BC
:1046100006E0FEF70DFF401B642801D9032075E773
:10462000A14808380068C0F340000028F1D09E4837
:104630000838006820F0F800F82292FAA2F2B2FAE4
:1046400082F221699140084397490839086014E0D3
:10465000002096490860FEF7EBFE054606E0FEF7EF
:10466000E7FE401B642801D903204FE78E48083835
:104670000068C0F340000028F1D1207800F0080065
:1046800008282CD16069A8B1012089490860FEF78B
:10469000CFFE054606E0FEF7CBFE401B642801D99D
:1046A000032033E780486C300068C0F340000028E6
:1046B000F1D014E000207E490860FEF7B9FE0546FF
:1046C00006E0FEF7B5FE401B642801D903201DE774
:1046D00075486C300068C0F340000028F1D12078A4
:1046E00000F0040004286CD100BF6F483830006827
:1046F00040F080506C49383108600846006800F08E
:104700008050009000BF00BF6A48006840F480708D
:1047100068490860FEF78CFE054606E0FEF788FE55
:10472000401B642801D90320F0E66248006810F4B9
:10473000807FF3D000205C4968310870FEF778FE76
:10474000054608E0FEF774FE401B41F288318842BE
:1047500001D90320DAE6544868300068C0F340000D
:104760000028EFD1207A504968310870A068A0B1C4
:10477000FEF75EFE054608E0FEF75AFE401B41F2DA
:104780008831884201D90320C0E647486830006874
:10479000C0F340000028EFD013E0FEF749FE0546C5
:1047A00008E0FEF745FE401B41F28831884201D9FE
:1047B0000320ABE63C4868300068C0F340000028A6
:1047C000EFD1A069F0B33848006800F00C00082869
:1047D00072D0A069022850D1002034490866FEF743
:1047E00027FE054606E0FEF723FE401B642801D99C
:1047F00003208BE62C4808380068C0F3406000288E
:10480000F1D1D4E90701084347F6C07292FAA2F247
:10481000B2FA82F2616A914008430122A16AC2EBB6
:1048200051014FF4403292FAA2F2B2FA82F2914070
:1048300008434FF0706292FAA2F2B2FA82F2E16A91
:10484000914000E03AE008431749091F0860012041
:1048500016490866FEF7ECFD054606E0FEF7E8FDA2
:10486000401B642801D9032050E60F48083800682F
:10487000C0F340600028F1D020E000200B4908661A
:10488000FEF7D6FD054606E0FEF7D2FD401B642884
:1048900001D903203AE6044808380068C0F34060B4
:1048A0000028F1D10AE007E0083802400000474242
:1048B000800E474200700040012027E6002025E6D8
:1048C0007047014600BF087F012801D102207047D0
:1048D0000120087700BF0220487700BFCA200A687D
:1048E000506253200A68506200BF0868806840F038
:1048F00020000A68906000BFFF200A68506200BF75
:104900000120487700BF0020087700BF00BFDEE726
:104910002DE9F04104460D461646002700BF207FD2
:10492000012802D10220BDE8F0810120207700BFDC
:104930000220607700BFCA202168486253202168A6
:10494000486200BF2068806810F4806F1CD0FEF7BA
:104950006FFD074612E0FEF76BFDC01BB0F57A7FD6
:104960000CD900BFFF202168486200BF0320607798
:1049700000BF0020207700BF0320D4E72068C06874
:10498000C0F380000028E6D12068806820F48060B1
:1049900021688860FEF74CFD074612E0FEF748FDEF
:1049A000C01BB0F57A7F0CD900BFFF202168486298
:1049B00000BF0320607700BF0020207700BF0320E6
:1049C000B1E72068C068C0F380000028E6D0206806
:1049D00045612068806820F00700216888602068B1
:1049E00080683043216888601348006840F4800084
:1049F0001149086010480830006840F480000E49F2
:104A0000083108602068806840F480402168886030
:104A10002068806840F480602168886000BFFF20C3
:104A20002168486200BF0120607700BF0020207726
:104A300000BF00BF77E70000003C01407047000066
:104A400010B504462068C068C0F3802078B12068A3
:104A5000806810F4804F0AD02046FFF7EFFF2068EF
:104A6000C06800F0800060F490602168C8604FF476
:104A70008000024908600120607710BD143C0140AD
:104A80007047000010B504462068C068C0F30020DD
:104A900078B12068806810F4805F0AD02046FFF764
:104AA000EFFF2068C06800F0800060F4C0702168EB
:104AB000C8602068C068C0F3402078B12068806872
:104AC00010F4005F0AD02046FFF7FAFE2068C068A5
:104AD00000F0800060F420702168C8604FF400305E
:104AE000024908600120607710BD0000143C0140BD
:104AF00070B504460B46164600252068806A58604B
:104B000020680069C0F30E009860206800680F49B3
:104B100000EA0105C5F305401870C5F3062058707A
:104B200005F07F00987005F48000000CD8705EB925
:104B3000187802F0E5FF1870587802F0E1FF58701D
:104B4000987802F0DDFF9870002070BD7F7F7F00B5
:104B500010B504460CB9012010BD607F20B90020BB
:104B60002077204600F04EF80220607700BFCA2070
:104B70002168486253202168486200BF204602F045
:104B8000D7FF40B100BFFF202168486200BF04206A
:104B900060770120E0E720688068194908402168B3
:104BA00088602169606808436169084321688968F1
:104BB0000843216888602168E0680861206801690D
:104BC000208941EA0040216808612068C06820F01F
:104BD00080002168C8602068006C20F48020216873
:104BE00008642068006CA16908432168086400BF5C
:104BF000FF202168486200BF012060770020ABE7FA
:104C0000BFFF8FFF10B50068A0F18041B1F52051C2
:104C100014D10B4901200860032200211046FFF740
:104C200005F80320FEF7F4FF032200212920FEF7F8
:104C3000FDFFBDE810402920FEF7EABF10BD0000CF
:104C40003C0E47422DE9F04704460D461646002724
:104C5000B846B94600BF207F012802D10220BDE836
:104C6000F0870120207700BF0220607746BB2068D4
:104C7000806810F0400F00D002E00020E87000BF14
:104C8000E86900B900E000BF287802F044FF03049F
:104C9000687802F040FF43EA0023A87802F03BFF67
:104CA0000343E87843EA004395F8200002F033FF1D
:104CB00043EA0060E9690843696940EA01082DE0B8
:104CC0002068806810F0400F04D0287802F018FFA8
:104CD000804602E00020E87000BFE86928B995F836
:104CE000200002F00DFF804605E095F8200002F05C
:104CF00007FF804600BF28780004697840EA012059
:104D0000A9780843E97840EA014095F8201040EA84
:104D10000160E9690843696940EA0108A9696868AE
:104D200040EA010900BFCA20216848625320216877
:104D3000486200BF686AB0F5807F3CD12068806817
:104D400020F48070216888602068C06800F08000CE
:104D500060F4C0702168C860FEF76AFB074612E085
:104D6000FEF766FBC01BB0F57A7F0CD900BFFF20B1
:104D70002168486200BF0320607700BF00202077D1
:104D800000BF03206BE72068C06810F0010FE7D078
:104D90002068C0F81C802068C0F8449020688068B3
:104DA00040F48070216888602068806840F48050FA
:104DB000216888603CE02068806820F400702168E9
:104DC00088602068C06800F0800060F4207021686E
:104DD000C860FEF72DFB074612E0FEF729FBC01B5B
:104DE000B0F57A7F0CD900BFFF202168486200BF70
:104DF0000320607700BF0020207700BF03202EE74C
:104E00002068C068C0F340000028E6D02068C0F8E1
:104E100020802068C0F848902068806840F40070C6
:104E2000216888602068806840F4005021688860AC
:104E30000D48006840F400300B4908600A4808300B
:104E4000006840F4003008490831086000BFFF20C6
:104E50002168486200BF0120607700BF00202077F2
:104E600000BF00BFFBE60000003C01402DE9F0411F
:104E700004460D461646002700BF207F012802D1B8
:104E80000220BDE8F0810120207700BF022060777A
:104E90004EB9687800F01000102804D1687800F04E
:104EA000EF000A30687086B9E87802F034FE030437
:104EB000687802F030FE43EA0023A87802F02BFE67
:104EC0000343287843EA403711E0687802F018FE7F
:104ED0000746A87802F014FE0746E87800046978CF
:104EE00040EA0120A9780843297840EA413700BF09
:104EF000CA202168486253202168486200BF2046CA
:104F000002F016FE60B100BFFF202168486200BFBA
:104F10000420607700BF0020207700BF0120B0E7A9
:104F200016483840216848602068C06820F080003A
:104F30002168C8602068806810F0200F10D12046DA
:104F400000F0B8F860B100BFFF202168486200BFE0
:104F50000420607700BF0020207700BF012090E789
:104F600000BFFF202168486200BF0120607700BFBA
:104F70000020207700BF00BF83E700003FFFFF0055
:104F80002DE9F04104460D461646002700BF207F5C
:104F9000012802D10220BDE8F0810120207700BF66
:104FA00002206077CEB92068806810F0400F00D0F2
:104FB00002E00020E87000BF287802F0ACFD030496
:104FC000687802F0A8FD43EA0023A87802F0A3FD68
:104FD0000343E87843EA004716E02068806810F051
:104FE000400F04D0287802F08BFD074602E0002035
:104FF000E87000BF28780004697840EA0120A978A9
:105000000843E97840EA014700BFCA2021684862A6
:1050100053202168486200BF204602F089FD60B13C
:1050200000BFFF202168486200BF0420607700BFF6
:105030000020207700BF0120ADE71D4838402168DF
:1050400008602068806820F4802021688860D5E9A5
:105050000301084321688968084321688860206843
:10506000C06820F080002168C8602068806810F067
:10507000200F10D1204600F01DF860B100BFFF20C6
:105080002168486200BF0420607700BF00202077BD
:1050900000BF01207FE700BFFF202168486200BFFA
:1050A0000120607700BF0020207700BF00BF72E7BB
:1050B0007F7F7F0070B5044600252068C06820F01F
:1050C000A0002168C860FEF7B3F9054607E0FEF7C7
:1050D000AFF9401BB0F57A7F01D9032070BD20687D
:1050E000C06810F0200FF2D00020F7E770B504463A
:1050F0000D460CB9012070BD94F82C0028B9002091
:1051000084F82D00204600F011F8022084F82C00CD
:10511000211D2068FBF728FD2946D4E90002FBF792
:105120008CFD012084F82C000020E4E7FEF70AB88B
:1051300070B504460D4694F82C00022800D170BDCD
:10514000022084F82C0029462068FBF747FD012047
:1051500084F82C000020F2E770B504460D46164690
:1051600094F82C00022800D170BD022084F82C0095
:10517000324629462068FBF738FD2868022803D10B
:10518000052084F82C0002E0012084F82C00002087
:10519000EAE710B504460CB9012010BD94F851009F
:1051A00028B9002084F85000204600F037F802208B
:1051B00084F851002068006820F0400021680860F1
:1051C000D4E901010843E1680843216908436169A2
:1051D0000843218B01F400710843E1690843216A07
:1051E0000843A16A0843216808600421A06901EA14
:1051F0001040616A0843216848602168E06A0861DC
:105200002068C06920F400602168C86100206065E2
:10521000012084F851000020BFE7000010B586B0DF
:105220000068002202210323A0F180444FF0050C06
:10523000B4F5605416D11948046844F480440460FD
:10524000006800F4804000904FF4604001900291AB
:1052500003920493CDF814C001A91148FDF7DCFFB7
:1052600006B010BDA0F18044B4F5A834F8D10D48C3
:10527000046844F480140460006800F48010009016
:105280004FF460700190029103920493CDF814C022
:1052900001A90548FDF7C0FF06B010BD4038024027
:1052A000000402404438024000140240042808D19F
:1052B0004FF0E021096941F004014FF0E022116153
:1052C00007E04FF0E021096921F004014FF0E022EE
:1052D00011617047704770B504462546681EB0F1ED
:1052E000807F01D301200FE0681E4FF0E02148616C
:1052F0000F214FF0FF3002F009F800204FF0E021BD
:10530000886107200861002070BD10B5FFF7E2FF3B
:1053100010BD70477047024600BF92F83800012860
:1053200001D102207047012082F8380000BF02201E
:1053300082F839001068406820F0700013685860E7
:10534000106840680B6818431368586010688068DC
:1053500020F0800013689860106880684B681843DC
:1053600013689860012082F8390000BF002082F89D
:10537000380000BF00BFD5E710B504460CB90120C6
:1053800010BD94F8390028B9002084F83800204670
:1053900000F00CF8022084F83900211D206802F08A
:1053A000A7FD012084F839000020E9E782B00068F9
:1053B0001449A0F18042B2F580520DD1086840F046
:1053C00010000860086800F010000190022200211F
:1053D000362002B0FEF72ABCA0F18042B2F5A052FE
:1053E0000DD1086840F020000860086800F0200037
:1053F000019003220021372002B0FEF717BC02B053
:105400007047000040380240704710B504462068DD
:105410000069C0F34000D8B12068C068C0F3400004
:10542000B0B16FF002002168086101202076206889
:10543000806910F0030F03D02046FFF7E5FF05E079
:10544000204600F0ADF8204600F068F900202076F4
:1054500020680069C0F38000D8B12068C068C0F33C
:105460008000B0B16FF0040021680861022020764E
:105470002068806910F4407F03D02046FFF7C4FF06
:1054800005E0204600F08CF8204600F047F90020A7
:10549000207620680069C0F3C000D8B12068C068D9
:1054A000C0F3C000B0B16FF00800216808610420AB
:1054B00020762068C06910F0030F03D02046FFF764
:1054C000A3FF05E0204600F06BF8204600F026F927
:1054D0000020207620680069C0F30010D8B1206851
:1054E000C068C0F30010B0B16FF01000216808610F
:1054F000082020762068C06910F4407F03D0204641
:10550000FFF782FF05E0204600F04AF8204600F051
:1055100005F9002020762068006910F0010F0BD0FB
:105520002068C06810F0010F06D06FF001002168FC
:105530000861204600F01AF920680069C0F3C01025
:1055400058B12068C068C0F3C01030B16FF080005F
:10555000216808612046FFF7DCFE20680069C0F37F
:10556000801058B12068C068C0F3801030B16FF06F
:10557000400021680861204600F0F9F820680069C1
:10558000C0F3401058B12068C068C0F3401030B17B
:105590006FF02000216808612046FFF7BBFE10BDB8
:1055A000704770B504460D46164600BF94F83800A3
:1055B000012801D1022070BD012084F8380000BF0D
:1055C000022084F8390036B1042E1BD0082E31D0C9
:1055D0000C2E5ED145E02946206802F009FD2068C6
:1055E000806940F00800216888612068806920F0A7
:1055F000040021688861206880692969084321685E
:10560000886147E02946206802F02AFD2068806909
:1056100040F40060216888612068806920F480601F
:105620002168886120688069296940EA0120216831
:1056300088612FE02946206802F04EFD2068C0698D
:1056400040F008002168C8612068C06920F00400AB
:105650002168C8612068C069296908432168C86158
:1056600018E02946206802F073FD2068C06940F404
:1056700000602168C8612068C06920F480602168EA
:10568000C8612068C069296940EA01202168C861B1
:1056900000E000BF00BF012084F8390000BF0020F7
:1056A00084F8380000BF00BF85E710B504460CB988
:1056B000012010BD94F8390028B9002084F8380082
:1056C000204600F00DF8022084F83900211D2068E2
:1056D00002F00EFC012084F839000020E9E7000008
:1056E00000B587B00B48016841F080010160006897
:1056F00000F08000019040200290022003900020E2
:10570000049005900920069002A90348FDF784FD46
:1057100007B000BD40380240000002407047000062
:1057200030B504460D4601222946206802F052FC9D
:105730000C492068884203D00B492068884201D177
:10574000012000E0002028B12068406C40F40040B7
:10575000216848642068006840F001002168086002
:10576000002030BD00000140000401407047704738
:1057700010B504460CB9012010BDA06900B100E0CD
:1057800000BF94F8390028B9002084F8380020467A
:1057900000F026F8022084F839002068C06820F460
:1057A00000502168C860204602F00CFE20680069A5
:1057B00020F49040216808612068406920F02A00A8
:1057C000216848612068C06840F400502168C860C2
:1057D0000020E063012084F839000020CCE70000BD
:1057E00000B587B00068A0F18041B1F588311ED1C5
:1057F0001048016841F010010160006800F01000DD
:1058000001904FF4C06002900720069002200390A0
:1058100000200490059002A90748FDF7FDFC012235
:1058200000212520FEF702FA2520FEF7F1F907B046
:1058300000BD00004438024000000240F8B50446B4
:105840000D4616461F4603203B4632462946009029
:105850002046FBF7F7F8F8BDF8B504460D461646A6
:105860001F4604203B463246294600902046FBF75F
:10587000E9F8F8BDF8B504460D4616461F46022065
:105880003B463246294600902046FBF7DBF8F8BD40
:10589000F8B504460D4616461F4600203B463246E4
:1058A000294600902046FBF7CDF8F8BDF8B5044630
:1058B0000D4616461F4600203B46324629460090BC
:1058C0002046FBF7BFF8F8BD10B500BF08C883F04D
:1058D0007F4410C1541E2200F8D110BD30B50346DC
:1058E00000BF01CB00F47F44C5B244EA0544C0F3D5
:1058F00007452C4300F07F4585F07F452C4310C1C0
:10590000541E2200EDD130BD02490A6808601046DD
:1059100070470000785302200449054A0968497C11
:1059200052F821100969096808470000F051022067
:1059300008520220C1B2C0F30722C0F307409142CF
:1059400007D1824205D111200831B1FBF0F0783047
:10595000704701EB8103FF2100EB800002EB820224
:105960007F307F337F32B0FBF1F0B3FBF1F3B2FB5A
:10597000F1F202EB420103EB410100EBC00001EB4D
:1059800080006C28E4D32830704700002DE9F04FE8
:1059900005468DB07B48DDF860901A9C00681E4675
:1059A00017464FF0000A78B11B9B199ACDF8089062
:1059B0000593CDE90324DDE91623CDE9002304682E
:1059C00033463A46284680E0DDE9160201EB060838
:1059D00005EB070C1043A8F10108ACF1010C0128FC
:1059E00006D0C9F108000590002002910990C6E098
:1059F00065480268B2F90A30581A002806DD361ADE
:105A0000002E63DD1946199B00FB0344B2F90E001A
:105A1000A8EB0000002802DD361A002E56DDB2F990
:105A20000C00ACEB0000002800DD3F1AB2F9083092
:105A30000020AB4235DD581B3F1A4B46B9F1080F29
:105A400026D006DC012B0BD0022B11D0042B28D141
:105A500016E0102B1ED0182B1FD0202B21D11CE0BC
:105A600020F0070304EBE0041D4400F0070018E0F9
:105A700020F0030304EBA0041D4400F0030010E039
:105A800020F0010304EB60041D4400F0010008E075
:105A9000044404E004EB400401E004EB800405440A
:105AA0000020002F12DD1B9BDDF864C0CDE904034C
:105AB000CDE90069CDE902C4527C34483B4650F838
:105AC0002200C26854680A462946A0470DB0BDE8C6
:105AD000F08F1799029808440C902B49401E0090B3
