:020000042000DA
:1000000000100010C1010020C9010020CB01002018
:10001000CD010020CF010020D10100200000000010
:10002000000000000000000000000000D3010020DC
:10003000D501002000000000D7010020E1EB0020E6
:10004000DB010020DB010020DB010020C1DA002001
:10005000DB010020DB010020DB010020DB010020B0
:10006000DB010020DB010020DB010020DB010020A0
:10007000DB010020DB010020DB010020DB01002090
:10008000DB010020DB010020DB010020DB01002080
:10009000DB010020DB010020DB010020DB01002070
:1000A000DB010020DB010020DB010020DB01002060
:1000B000DB010020A5EE0020DB010020DB01002099
:1000C000DB010020DB010020DB010020DB01002040
:1000D000DB01002059FE0020DB010020DB010020B5
:1000E000DB01002001DA0020DB010020DB01002021
:1000F000DB010020DB010020DB010020DB01002010
:10010000DB010020DB010020DB010020DB010020FF
:10011000DB010020DB01002001EF0020C5EF002003
:10012000DB010020DB010020E5120020DB010020C4
:10013000DB010020DB010020DB010020DB010020CF
:10014000F70700200708002017080020DB01002027
:10015000DB010020DB010020DB010020DB010020AF
:10016000DB010020DB010020DB010020DB0100209F
:10017000DB010020DB010020DB010020000000008B
:10018000DB010020DB010020DB010020DB0100207F
:10019000DB010020DB010020DB010020DB0100206F
:1001A000EDC10020DB010020DB010020DFF80CD0D6
:1001B00000F076F800480047E1E60120001000104A
:1001C0000648804706480047FEE7FEE7FEE7FEE7F1
:1001D000FEE7FEE7FEE7FEE7FEE7FEE7C1EC0020F4
:1001E000AD01002010B5431A934209D28318881834
:1001F00003E010F8011D03F8011D521EF9D210BDD5
:1002000040EA01039B0703D009E008C9121F08C098
:10021000042AFAD203E011F8013B00F8013B521E18
:10022000F9D210BDD2B201E000F8012B491EFBD279
:1002300070470022F6E710B513460A4604461946F1
:10024000FFF7F0FF204610BD421C10F8011B0029EB
:10025000FBD1801A704710B5002200E0521C835C6D
:100260008C5CA34201D1002BF8D1D8B2E1B2401A84
:1002700010BD30B504460020034600E05B1C9342ED
:1002800003D2E05CCD5C401BF8D030BD034611F8D2
:10029000012B00F8012B002AF9D118467047000005
:1002A000064C074D06E0E06840F0010394E80700C3
:1002B00098471034AC42F6D3FFF77CFF4827022062
:1002C0007827022070B58D1810F8014B14F0030246
:1002D00001D110F8012B231106D110F8013B03E0E6
:1002E00010F8016B01F8016B521EF9D1B3B110F88F
:1002F000012B04F00C048A1A0C2C04D0A2EB8412FB
:1003000003F1020308E010F8014BA2EB0422F7E727
:1003100012F8014B01F8014B5B1EF9D5A942D3D36A
:10032000002070BD002800DC4042704738B54568A9
:100330000446014628460FF0F9FD00282BD020681E
:10034000304A11280DD006DC0B2825D00E2833D0DA
:100350000F2852D112E0282849D0B0F5107F4CD197
:1003600008E09268002A16D02146284601B0BDE870
:1003700030401047214628465268F7E7284603F0E8
:10038000DBFC0090406E0468684603F01FFD002C03
:1003900001D02846A04738BD284603F0CDFC009088
:1003A000683003F025FC009803216C3003F028FC32
:1003B000684603F00BFD20E0E168486809680D29F4
:1003C00002D0202913D105E0002810DD284619F0BD
:1003D000CDF806E0002804DD2846BDE8384019F0D5
:1003E000C5B82846BDE83840022119F0FFB8E068DA
:1003F00018B90021284600F09DF92046BDE8384094
:1004000010F0CEB8C86502202DE9FF410AAF97E889
:100410007000002703958DE8D00000F003F804B0C9
:10042000BDE8F081F0B585B00DF1280C9CE8F00036
:100430004FF0000C8DE8F01000F024F805B0F0BD8E
:10044000F0B5044685B08069B4F90850668A002783
:10045000CDE90265CDE900170490B4F90C00B4F9B8
:100460001060C118B4F90A00B4F90E5010443346B4
:100470002A4600F007F80546616800F07AF905B0F1
:100480002846F0BDF0B585B00C46DDE90D51DFF82A
:1004900054C04C31DDE90A67CDE902C12146CDE9FE
:1004A00000670FF0CFFF040018D003F045FC1022C6
:1004B000294604900FF01AFF049830220A4934307C
:1004C000FFF790FE084D04990C3D2868486604A883
:1004D00003F07CFC286841682046884705B0204628
:1004E000F0BD00002D030020D4650220F0B50446C5
:1004F00080688B4989B051F82050606800287DD011
:10050000052804D006287AD0122879D1AEE0E8690F
:1005100000284FD095E80E008DE80F0004F110017F
:100520000FC906F033FB002655F8260005F0B8FB8E
:10053000A169E8690A1A216901446069304404F03C
:1005400007FAA169E8690A1A21690144E069801B78
:1005500004F0FEF9E169E8690A1A61690144206959
:10056000304404F0B1FAE169E8690A1A61690144AA
:10057000A069801B04F0A8FA761C022ED4DBA868C0
:1005800005F08EFBE069E9696669431A2069421843
:100590003144801C521E04F0F9FAE169E869A2694D
:1005A0000B1A61690144101A401C921E04F0EEFA05
:1005B000EE6913E05FF0000655F8260005F070FBC9
:1005C000E069831BA069821B60698119206930443E
:1005D00004F020FA761C022EEEDB0226D5E9030198
:1005E000CDE900016169E06908444310A069891CF4
:1005F000821B2069304404F077F902E089E012E0C0
:100600008AE0D5E90501CDE90001E36960690121CE
:10061000184401EB6001A0699B1E821B20693044D5
:1006200004F062F978E0206803F086FB049020680B
:1006300011F042FB40B1A06808B1002008E0049826
:10064000006F28B1012003E00498406F00B1022040
:10065000049901EB8000C56E04A803F0B7FB0023EA
:100660001A462846216803F01FFF55E0206803F072
:1006700063FB0490866EEEB3B0F95C70A168D1B3F1
:10068000032942D05FF0000100EB8101406D0C6C4A
:1006900005F01CFB204605F003FB05A804F016FB43
:1006A000BDF81410A88B0144ADF81410BDF8181053
:1006B000081AADF81800BDF81600801CADF8160039
:1006C000BDF81A00801EADF81A000498B0F9602039
:1006D000B0F95E1005A805F034F904A803F076FB24
:1006E000022005F051FB304603F026FB3A4605A9EF
:1006F000079001E00BE006E003F09AFF0DF11C000B
:1007000003F064FB08E00121BEE70221BCE704A876
:10071000F6E7206810F006FF09B00020F0BD0000E9
:100720007026022000294FF0100101D00FF08EBC7E
:100730000FF0E0BB4FF480720029114601D00FF09A
:1007400085BC0FF0D7BB08B50023009300F001F87B
:1007500008BD70B516460C46054619463046049A43
:1007600003F08AFE024621462846BDE8704000F0AC
:1007700028B82DE9FF410E4605004FF001041CD0BA
:1007800003F0DAFA0190876E01A8009703F01EFBD0
:100790003146684606F06CFD78B100980024B842F6
:1007A00008D0284603F0C8FA01900099816601A894
:1007B00003F00CFB284610F0D0FB04B02046BDE847
:1007C000F081F8B515460C46060013D003F0B4FAD4
:1007D0000090032C0BD200EB84006C3003F008FA7D
:1007E000009800EB8400C566304610F0B6FB684602
:1007F00003F0ECFAF8BD10B5002000F073F9BDE885
:10080000104000F043B810B5012000F06BF9BDE8CE
:10081000104000F0CDB8662003F071BE1CB500207A
:10082000009001900548064A02210368054803F03C
:1008300029FD05490860084600681CBD2C6102209E
:100840008DD3012084EF0120806102201CB5044675
:100850004FF6FF700EF00EFB00200090019007484D
:10086000074A1B210368074803F00CFD064941F8BD
:100870002400084650F824001CBD00002C61022012
:10088000BDD4012090EC0120E0CB02202DE9F04FF7
:1008900085B0404D2C79A8780027DFF8FC90DFF870
:1008A000FCA03F493F4E4FF001084FF0460B002897
:1008B00004D0012865D0022863D12EE051F824002D
:1008C000D8B10F2201A902F017F968798DF80A0052
:1008D000A8798DF80B00E8798DF80C00287A8DF84E
:1008E0000D00687A8DF80E008DF806802C480F22D6
:1008F00001A950F8240002F042FA89F80070CAF801
:1009000000702948C0F800B0306810F0010F38D1ED
:10091000306840F00100306033E051F8240008B343
:100920000F2201A902F0E8F8E87A8DF80700A87A0A
:100930008DF80800687A8DF80900287A8DF80F0084
:10094000E8798DF81200A8798DF8110068798DF892
:1009500010008DF8068012480F2201A950F82400DB
:1009600002F00DFA89F80070CAF800700E48C0F85D
:1009700000B0306810F0010F03D1306840F0010082
:1009800030600A48016841F00201016005B0BDE82D
:10099000F08F0000B0CB02202C6002202414004015
:1009A000E0CB022000140040341C004014680040DA
:1009B00070B5374901220B46887B93F810C0042894
:1009C00002D005285DD105E0324880F800C03248E9
:1009D000027056E0487C3149672804D063283FD034
:1009E000652849D04DE02E4B18680A687324801A98
:1009F0002C4A082815D300200B681518A3F13F5383
:100A00001B78EB700B685B1C0B60401C0828F3D351
:100A100044EA0C20108008209070224800F0C0F8B2
:100A20002FE018680D68401B907000201D680E684C
:100A3000AD1B0ED00D681618A5F13F552D78F57039
:100A40000D686D1C0D60401C1D680E68AD1B854255
:100A5000F0D844EA0C201080124800F0A1F810E011
:100A6000114802700020086010490870002210A18F
:100A700011A004F05FFF04E0002214A115A004F00F
:100A800059FF1748016841F01001016070BD000076
:100A9000B0CB02207C6102207861022064610220D8
:100AA00008610220A4CB0220796102207A61022031
:100AB0004D45535341474500446F776E6C6F6164F9
:100AC00020636F6D706C6574652100004552524F54
:100AD00052000000637263206572726F7221000021
:100AE0001468004070B4274901EB00142168264DBA
:100AF00011F0020F254900EB400C01EB001305EB50
:100B00008C011FD1224A02EB001216680E71166882
:100B1000360A4E711668360C8E711268120ECA7142
:100B20001C4A02EB001216680E721668360A4E72E4
:100B30001668360C8E721268120ECA721A6802F0AB
:100B40000F02CA702268520D25F82C201A68120A6A
:100B50008A70114950B1086820F010000860081F21
:100B6000016841F02001016070BC70470B480268C9
:100B700042F020020260086820F00200086070BCA9
:100B800070470000B0690040B0CB0220B46900405B
:100B9000B8690040BC690040146800400C6800401F
:100BA00010B42C490A6812F0806F01D000210AE0CD
:100BB0000A6812F0006F01D0012104E0096811F009
:100BC000805F44D0022102884FEA425C224A02EB55
:100BD0000113C3F800C0121D02EB0112D2F800C0CD
:100BE0002CF00F0CC2F800C0D2F800C084784CEA98
:100BF000040CC2F800C0C27890F806C0047942EA3A
:100C00000C6290F805C04FEA0C4C4CEA042C42EA06
:100C10000C02DFF848C00CEB011CCCF80020C279B4
:100C200090F80AC042EA0C6290F809C0007A4FEAD4
:100C30000C4C4CEA00201043094A02EB01110860F9
:100C4000186840F00100186010BC0020704710BC0C
:100C500002207047086800408069004088690040B1
:100C60008C69004013490A6812F0806F01D000219E
:100C70000AE00A6812F0006F01D0012104E009685F
:100C800011F0805F14D00221022242EA40520A4849
:100C900000EB01100260094A02EB01110A6822F020
:100CA0000F020A60016841F00101016000207047F5
:100CB0000220704708680040806900408469004055
:100CC0007CB5214C0546216831F8220F4A8D10442D
:100CD00008804888CA8D10444880284603F0E6FF03
:100CE0002168498CADF800104618284606F05AF9DC
:100CF0003044401EADF8040004F01AF82168898CD5
:100D0000ADF802100844401EADF80600684610F029
:100D10005FFE04E0284602F029FA10F0F3FD0028F7
:100D2000F8D10A2D04D0BDF804002168401C488485
:100D3000206830F8221F428D891A01804188C28DB7
:100D4000891A41807CBD0000DC6102202DE9FE4350
:100D500004460E461546204606F08CFB0746C4EBBB
:100D6000C400144951F8200007FB0608C4EBC40076
:100D700051F8200007FB05090021C4EBC4000D4B0E
:100D800003EB80000069CDE90001C4EBC4000291CF
:100D9000194601EB80004A464146C368204600F0F0
:100DA0008FF9C4EBC400034901EB80008560BDE806
:100DB000FE830000AC6D02202DE9F04F85B00446A3
:100DC0000D4616461F46DDE90F8BDDF838A020469C
:100DD00006F050FB8146C4EBC400264951F82000C0
:100DE000C4EBC401234A02EB8101496809FB0100FD
:100DF000C4EBC40102EB8101C96806FB0151C4EBDD
:100E0000C4021C4B03EB8202526901FB02000490F6
:100E1000C4EBC400194651F82000C4EBC4011A46C3
:100E200002EB8101496809FB0100C4EBC40102EB3C
:100E30008101C9680AFB0171C4EBC40203EB8202A1
:100E4000526901FB020003900021C4EBC4001A4662
:100E500002EB8000C068A0EB08004346CDE900B07B
:100E600002912046DDE9032100F02AF905B0BDE832
:100E7000F08F0000AC6D02202DE9FE4F04460D46B8
:100E800016461F46DDF8309003F044FF012810D1CC
:100E90000022192120460AF063F84B463A463146B3
:100EA000284609F09DFC204A192120460AF058F8EE
:100EB00037E0781B00F10108A9EB0600401C029006
:100EC000204606F0D7FA8246C4EBC400174951F811
:100ED0002000C4EBC401154A02EB810189680AFBBA
:100EE0000100C4EBC40102EB8101C96806FB01519A
:100EF000C4EBC4020D4B03EB8202526901FB020BEF
:100F0000C4EBC4011A4602EB81010D98C968A1EB3C
:100F10000801CDE90010424659462046029B00F0E8
:100F200023F9BDE8FE8F0000790E0020AC6D022091
:100F3000F8B504460D4616461F4603203B4632468A
:100F400029460090204600F081F8F8BDF8B5044627
:100F50000D4616461F4604203B4632462946009061
:100F6000204600F073F8F8BDF8B504460D46164665
:100F70001F4602203B46324629460090204600F09C
:100F800065F8F8BDF8B504460D4616461F46002024
:100F90003B46324629460090204600F057F8F8BDFF
:100FA000F8B504460D4616461F4600203B4632461D
:100FB00029460090204600F049F8F8BD2DE9F0419F
:100FC00007460C4615461E4632460B49384609F080
:100FD00086F932460949204609F081F93346084A24
:100FE0000649054800F00EF832462946044809F043
:100FF00076F9BDE8F0810000E48B0220E4A902202C
:10100000E46D022030B50F4C0F4D2C602C46E06093
:101010006161E26300242C61AC612C64EC616C6260
:101020006C63012404EB03446C642C46246844F094
:1010300001042C6000BF044C246814F0010FFAD1A5
:1010400030BD00000002020000B002402DE9F8436C
:1010500005460E4614469846089F224606492846ED
:1010600009F047F93B46002231460348009400F05E
:1010700005F8BDE8F8830000E46D022070B5049C1B
:101080004FF481350D4E35603546E860E963002543
:10109000356135643546EA616B63012505EB04452E
:1010A000756435462D6845F00105356000BF034D78
:1010B0002D6815F0010FFAD170BD000000B002409C
:1010C0002DE9F05F07460C4615461E46DDE90B9AF2
:1010D000DDF82880384609F01DFD83464FF4007086
:1010E0000D4908600846C460C563C0F81090C0F898
:1010F00040A0C0F81CB0404666F31F404864084654
:10110000006840F00100086000BF0348006810F06C
:10111000010FFAD1BDE8F09F00B00240F0B505AC78
:1011200070CC4FF48137DFF83CC0CCF800706746D4
:10113000F860F9633A613B640527CCF81C70674698
:101140007C6346EA0547CCF8447067463F6847F041
:101150000107CCF8007000BF024F3F6817F0010F85
:10116000FAD1F0BD00B002402DE9F04707460C4629
:1011700015461E46DDE90889384609F0CBFC824653
:101180000D480E4908600846C0F83890C463C0F89E
:101190004080C0F834A0304665F31F4048640846DC
:1011A000006840F00100086000BF0448006810F0CB
:1011B000010FFAD1BDE8F0870002030000B0024041
:1011C0002DE9F84305460E4614469846089F00232D
:1011D0003A46064928460094FFF750FF224631461A
:1011E000024809F086F8BDE8F8830000E46D0220AB
:1011F000074AD0624A1ED2B2012343EA0222044BBC
:10120000DA611A46D26942F02002DA6170470000C2
:1012100000B002401EB5034601F07F40B0F17F4FA1
:1012200001D118461EBD83F07F40029081F07F40BF
:1012300001901448144C206002A8E06001A860618D
:10124000C4F83CD04FF4803040EA0260E061C2F163
:10125000FF00002444EA00600B4C606200206063E1
:101260004FF0011060642046006840F001002060EB
:1012700000BF0548006810F0010FFAD1009880F017
:101280007F40CFE70002020000B0024070B5049C2E
:10129000124D134E35603546E8606961EA634FF4DC
:1012A000803545EA0365F561C3F1FF05002646EA8E
:1012B00005650B4E756200257563012505EB044538
:1012C000756435462D6845F00105356000BF044D55
:1012D0002D6815F0010FFAD170BD00000002020068
:1012E00000B002402DE9F05F52484FF40161006800
:1012F0000FF080FADFF840A1504B4FF40012DAF8FB
:101300000010994202D94E4B1A600DE04D4B9942A4
:1013100002D94D4B1A6007E0DFF830C14C4B6145F4
:1013200001D9DA6000E09A604A4C2268DFF828C1EF
:10133000DCF8003042F21079A2EB030B474E484D27
:10134000484FDFF82481494B494ACB4544DAD4F869
:101350000090DCF800B0D94508D1086820F01000F2
:101360000860444901200870BDE8F09F002113F88F
:10137000019002F80190491CC9B20929F7D31178EC
:1013800071602968CA6842F08002CA60DCF8001007
:10139000A1F13F5139602168DCF80020891AC8F8B2
:1013A0000010DAF800100A6842F001020A602168B1
:1013B000DCF80020891ADCF800201144CCF8001079
:1013C000DCF8001064225143226891FBF2F1C9B2AB
:1013D000BDE8F05F0BF057BF002113F801A002F841
:1013E00001A0491CC9B20929F7D311787160296895
:1013F000CA6842F08002CA60DCF80010A1F13F51D7
:101400003960C8F800901C490A6842F001020A607D
:10141000DCF800104944CCF80010DCF8001064221D
:101420005143226891FBF2F1C9B2BDE8F05F0BF0C5
:101430002ABF00003061022090CA02205864024096
:101440000C640240B86002400864024058600240E8
:101450000060024008610220246102200010014067
:1014600050CA02204C64024044640240E9600220F9
:10147000D4CB022005610220406402400146087876
:1014800010381823B0FBF3F20848805C4865032A43
:1014900005D908686FF30900001D086503E00868B6
:1014A0006FF309000865086D7047000078E80120B7
:1014B00030B50468246824F4802405682C6004682E
:1014C00063608468402C04D10468A2600468E16011
:1014D00003E00468A1600468E26030BD2DE9FC41CE
:1014E000002830D0112916D0132910D005460C46FB
:1014F00002F022FC009000F03FFB0646684602F036
:1015000065FC20461BF056F8074600241EE0BDE8A7
:10151000FC4100F0E3BABDE8FC4100F071B921469E
:10152000284600F02CFB019078B100781BF042F8BF
:1015300000F0FF0801A802F049FCB84505D121469A
:10154000284600F0D5FABDE8FC81641CB442E6DB15
:10155000F9E7F8B50C46050013D0002C11D002F0C5
:10156000EBFB0090C66B684602F030FC2046FEF7AD
:101570006BFE421C2146304602F04CFC28460FF020
:10158000ECFCF8BD2DE9FF4145680446284602F011
:10159000D3FB0190D0F8886001A802F017FC0EB1CF
:1015A000012700E00027214628460EF0BFFC002856
:1015B00056D02068112844D006DC0B2863D00E28B2
:1015C00078D00F282BD14FE0212805D026281AD01B
:1015D000B0F5107F23D139E0E068416800291EDDB5
:1015E00000680D281BD130460AF04DFA002806DBB2
:1015F00030460AF048FA0146284600F079FA2846B3
:1016000000F07EF875E0E068012809D00A2802D0D1
:101610000B2871D111E00A2128460FF05EFD6BE026
:1016200030460AF030FA002866DB30460AF02BFA22
:101630000146284600F05CFA5BE0284600F060F8BE
:101640005AE0FFB9E068007A98BB55E0E06848B11D
:10165000007A08B1012100E0022128460FF03DFD8B
:10166000BDE8FF810321F8E72E46284602F064FB1F
:101670000290D0F88400056802A802F0A7FB0DB123
:101680003046A84738E0284602F056FB0090C06B71
:1016900002F000FC0098D0F888000EF0B5FF00982A
:1016A000D0F8940002F07CFA684602F08FFB23E049
:1016B00000E016E0E068416800291DDD016820298E
:1016C0000FD006DC092910D00A2915D01B2904D116
:1016D00012E0212910D022290ED02846FFF7FEFE65
:1016E000BEE7284600F0EEF806E00FF09DF8B042A5
:1016F00002D128460FF0A0FE20460EF051FFAFE7C2
:1017000038B5040011D002F017FB0090D0F8880023
:1017100040B10EF079FF00990020C1F88800204602
:101720000FF01BFC684602F051FB38BDF0B585B0E8
:10173000B0F90850468A84690296CDE9035400271F
:10174000CDE90017B0F90C10B0F91050B0F90E4007
:10175000B0F90A00194410442B46224600F002F862
:1017600005B0F0BD2DE9FF410C461D46DDE90D71C8
:10177000DDE90B36DFF880E0DDF828C06C31CDE91B
:1017800000C3CDE902E14FF0FF3321460EF05AFECF
:1017900004002DD002F0D0FA1022394600900EF04D
:1017A000A5FD00983822154980F88C604C30FEF772
:1017B00019FD124E0098361F3168C0F884100021C0
:1017C00080F89010C586204600F0B5F9684602F012
:1017D000FDFA02F05CFB0546204602F0ADFA0090EF
:1017E000C563684602F0F2FA3068416820468847CF
:1017F00004B02046BDE8F081851500208C620220EF
:1018000010B5044600F05DF9010000D0411E2046ED
:10181000BDE8104000F06CB9F8B50546006802F06C
:101820008BFA0090448ED0F88860684602F0CEFAB9
:1018300006B1012604F00104286810F03DFA0EB14B
:10184000002006E00CB1012003E008B1022000E016
:1018500003201B4951F82010686858B302280CD0A7
:10186000052802D0122828D103E0284612F0E8FB10
:1018700023E0284614F079FC1FE06A69E8694FF01C
:10188000FF33801AA0F1080203EB6204421CAB692B
:10189000001B4510A3EB6206C86904F001FA06E0DC
:1018A0003219311B284603F053F8641E6D1C002CBE
:1018B000F6DA02E028680FF035FE0020F8BD0000DF
:1018C000B81B02202DE9F14F9EB01E9800287CD055
:1018D00002F032FA0B901E980FF08CF803900B98E0
:1018E000B0F9367090F890101891C16B0A9190F889
:1018F0008C90B0F93410159100F03EF982460B98A7
:1019000004ACB0F88E101491B0F982101391C16C30
:101910001291D0E90012CDE90C12D0F894B0002158
:1019200000EB8102126D44F82120491C0329F7D3F2
:10193000002107AD00EB8102D26D45F82120491C42
:101940000329F7D300210EAE00EB8102126F46F897
:101950002120491C0329F7D30BA802F037FA1E985F
:101960000EF0EFFF02F0E8F91190D0F8008011A816
:1019700002F02CFA4FEA284042420FFA88F0414226
:101980000CA803F0DEFF5FEA897003D5BDF83200D2
:10199000C01B01E0BDF83600ADF832001E980EF015
:1019A000D0FF014603980222CDE900070292BDF95B
:1019B0003230BDF93020002009F0F9FF80465FEA9F
:1019C000C97009D04046189900E077E00AF072FA31
:1019D000012140460AF0B6F9002708E039460A9886
:1019E00002F08CFA0146404609F09FFE7F1C5745E5
:1019F000F4D30027394654F8272040460AF0C7F9A7
:101A00007F1C032FF6D30024214655F8242040469E
:101A10000AF0D4FA641C032CF6D30024214656F8AD
:101A2000242040460AF02BFA641C032CF6D35FEA0C
:101A30000B001FD002F080F9169030F8025B0024F2
:101A40000646012711E000BF06EBD40004F00701B1
:101A5000007807FA01F1084201D0012200E00022DB
:101A6000214640460AF0BBF9641CAC42ECDB16A8E8
:101A700002F0ACF9404614990AF0DFF94046129999
:101A80000AF099F9404613990AF088FA40460FF097
:101A9000D3FC40461E990AF0E2F9404615990AF037
:101AA00021FA01211E980FF018FB1E9802F044F94C
:101AB0000B90C0F888800BA802F088F91FB0BDE831
:101AC000F08F38B5002438B102F036F90090B0F943
:101AD0003440684602F07AF9204638BD10B5044615
:101AE000FFF7EFFF411C2046BDE81040AFF3008038
:101AF00038B50C46050019D002F01EF9009000F030
:101B00003BF800B1401E844200DD04460098B0F965
:101B10003410A1420BD08486684602F057F928465B
:101B20000FF01BFA042128460FF0D7FA38BD68469B
:101B300002F04CF938BDF8B5044602F0FDF8014654
:101B40000090B0F9380010B9C86C03F067F900993B
:101B5000CA6AB1F98030126800EB430016180846D3
:101B60000FF027FF0546684602F030F93246294655
:101B700020460FF010FDF8BDC06B02F0B3B938B5C8
:101B80000D46002402F0D8F80090C06B294602F000
:101B9000B5F90546684602F019F91DB1284602F06C
:101BA000CBF80446204638BD2DE9FC470E465FEAD7
:101BB000000978D002F0C0F8009090F85470D0F886
:101BC0005880456BC46C684602F000F9B8F1000F0C
:101BD00004D0314648464246904761E0122E18D064
:101BE00006DC082E43D0102E3CD0112E06D112E078
:101BF000132E21D01D2E43D01E2E3DD0202E4FDB84
:101C000017B1484611F0A7FFB1B2484616F06EFF73
:101C100060B3611C27E04DB3284602F08DF80546FD
:101C20002146019004F044FA4419204604F002FAD7
:101C300001462346012210E0C5B1284602F07CF897
:101C400005462146019004F033FA4419204604F079
:101C5000F1F9014623464FF0FF32484611F087FA6A
:101C600001A81BE0611E484600F084FA18E0BCB1F0
:101C7000611E484600F07EFA484611F06CFF0FE006
:101C8000484602F059F80090012F0ED0012180F84B
:101C900054102146484600F06DFA684602F096F866
:101CA00048460FF05AF9BDE8FC87002180F854102F
:101CB000F3E7FEB54468054620460FF0FDFF0646F3
:101CC000294620460EF032F9002837D028680F2820
:101CD00030D004DC0B2832D00E2853D13AE0A0F5E6
:101CE0008070133804D0A0F580702D384AD110E0F0
:101CF00020460FF0BDFA2046002118F024FD2046B2
:101D000002F01AF80190C06F00210FF098FA01A8B4
:101D10001DE0E86860B1017A29B10168204600F051
:101D2000E3F8012100E0022120460FF0D6F929E076
:101D30000321F9E70121204618F005FDFEBD2046EC
:101D400001F0FAFF0090343001F052FF684602F0D3
:101D50003DF817E0B6B1E8684168002912DD016876
:101D60001B290FD006DC09290CD00A290AD00D291D
:101D700004D107E0212905D0222903D02046FFF70E
:101D800013FFFEBD28460EF00BFCFEBDF0B587B07C
:101D90000DF1300E9EE8F0104FF0000E8DE8F0507F
:101DA00000F028F807B0F0BDF0B587B004460DF19B
:101DB000080CD4E90567B0F90850408A8CE8E100C6
:101DC0000020CDE90010B4F90C00B4F91060C1187E
:101DD000B4F90A00B4F90E50104433462A4600F014
:101DE00009F8050002D0618A00F087F907B028469B
:101DF000F0BD0000F0B585B00D46DDE90D640F9F24
:101E0000DDE90AC141F48051DFF870E0CDE900C19D
:101E10005837CDE902E729460EF014FB05002AD019
:101E200001F08AFF1022314604900EF05FFA049808
:101E30001C2213496030FEF7D5F90499012081F87E
:101E40005500601C00D0012081F88000002C00DCCF
:101E5000082424B20C8700204887486304A8641C27
:101E600001F0B4FF2146284616F0EDFA18B92846CD
:101E70000EF0CAFB002505B02846F0BDB31C0020BB
:101E8000C46202200148806870470000C4620220DA
:101E900038B5002430B101F04FFF0090846C6846E3
:101EA00001F094FF204638BDF8B515460C460600F3
:101EB0000ED001F041FF009038B1022C05D200EBAA
:101EC0008400456730460FF048F8684601F07EFF11
:101ED000F8BD10B5040006D000F04CF92046BDE86E
:101EE00010400FF03AB810BD2DE9F04186B00C4615
:101EF000060050D001F020FF0090406B98B301F035
:101F00001BFF03900098806E03F0E0FE8046304691
:101F10000EF070FD0746039802F019FF0546009881
:101F200090F8601001F00301012916D002290DD0AC
:101F3000416EC06A00680844241A641E039805F0C4
:101F400015F80146002C0FDA002115E0781B401C23
:101F500000EBD070A4EB6004F0E7406E791B081A28
:101F6000241A641CEAE713E0AC4205DC0246214671
:101F7000039804F09BFF0146304600F0FBF803A8ED
:101F800001F024FF404603F0A1FE30460EF0E5FFCD
:101F9000684601F01BFF06B0BDE8F0812DE9F8436B
:101FA0001D46DDE9084916460F465FEA000840D0A5
:101FB00001F0C2FE2049009081652049C1650021E1
:101FC000C0E91271E0E90F650121047280F81A90EE
:101FD000017690F84470684601F0F8FE87B1284613
:101FE00015F035FC0546304615F031FC0CB1401CAF
:101FF0006D1C854200DD28460146404600F049F848
:1020000040461AF0D1FB404601F096FE009000F0E9
:102010009CF80B490978884205D10098C16C40466C
:10202000491C00F0A7F8684601F0D0FE40460EF0CB
:1020300094FFBDE8F8830000AD250120A9C7012069
:10204000D0610220022803D2024A02EB80004161E3
:1020500070470000C4620220014988607047000098
:10206000C462022000294FF0100101D00DF0EEBF34
:102070000DF040BF38B50D46040009D001F05CFEFC
:102080000090856620460EF068FF684601F09EFECF
:1020900038BD7CB50C4606002ED001F04DFE0090F8
:1020A000B0F93810458FA14223D012DD406B80B1CA
:1020B00001F042FE019004F059FFA04206DD2146E6
:1020C000019803F0F5FF019A0021115401A801F0D5
:1020D0007DFE684601F07AFE611B3046491C16F011
:1020E000B2F9304601F028FE0090048730460EF029
:1020F00034FF684601F06AFE7CBD38B50C46050029
:102100000AD001F019FE009018B1046628460EF0BE
:1021100024FF684601F05AFE38BDF8B515460C4656
:1021200006000ED001F008FE009038B1022C05D256
:1021300000EB8400C56630460EF00FFF684601F0E4
:1021400045FEF8BD002219F0BABF38B50546406B10
:10215000002468B101F0F0FD00900446E96C03F042
:10216000A7FF204403F066FF0446684601F02EFEF8
:10217000204638BD1CB50C4601F0DEFD0090406BDA
:10218000F0B101F0D9FD019004F0F0FE009991F852
:10219000542002B10122002C00DA0024844200DD28
:1021A0000446B1F93800801AA04200DA0446C86C2F
:1021B000A04200D0CC640020086501A801F006FE12
:1021C000684601F003FE1CBD30B502460023002422
:1021D0000868012816D013686FF30E03D1E90105D2
:1021E0002843CD6828430D6928434D6928438D69EC
:1021F0002843CD6928430D6A28434D6A2843034389
:10220000136019E013686FF30E03D1E90705284343
:102210004D6A2843034354686FF30E04D1E9010566
:102220002843CD6828430D6928434D6928438D69AB
:102230002843044313605460002030BD02465069B7
:1022400040EA4100506100207047F8B506460C4650
:102250001546002000900027D4E900010843A1683A
:10226000491E40EA4110E16840EA41200090009890
:10227000306105F0A3FB074609E0681C07D025B1D3
:1022800005F09CFBC01BA84201D90320F8BDB06932
:1022900010F0200FF1D10020F8E770B50346154685
:1022A00000220024012D1FD09A6802F070420868B5
:1022B000401E4E68761E40EA06168868401E46EAB2
:1022C0000026C868401E46EA0036088A401E46EAD4
:1022D0000046888A401E46EA0056087E401E46EAAE
:1022E000006002439A6022E0DA6802F070420868F7
:1022F000401E4E68761E40EA06168868401E46EA72
:102300000026088A401E46EA0046087E401E46EA2D
:10231000006002439C6804F07044C868401E0603D5
:10232000888A401E46EA00500443DA609C60002020
:1023300070BD2DE9F04389B0984615460F4606005A
:102340004FF0000428D000F0BFFB0446304600F0F8
:102350008BFB814603A9304600F014FDF80706D038
:10236000BDF91C008221001B401B401C08E0B8077F
:10237000BDF91800284402D540F2022100E00221F4
:102380000096CDE9018123461A464946FEF73CF8FE
:1023900004460021FEF7C6F909B02046BDE8F083E7
:1023A00010B50523FFF7C5FF0446054A0021FEF7D7
:1023B000CAF9044920460EF08FFF204610BD0000E8
:1023C000ED3C0120FDDE012010B50823FFF7B1FF31
:1023D0000446054A0021FEF7B6F9044920460EF0EE
:1023E0007BFF204610BD0000393E012045E1012061
:1023F0002DE9F047044640688EB00027804601F082
:102400009BFC0090B0F87CA0D0F86890D0F8806079
:10241000D0F88850C06D00B10768684601F0D6FC5E
:1024200005E0696820468847002843D12D68002DC3
:10243000F7D12068172853D00CDC0F283DD004DCDE
:102440000B2877D00D2825D18BE0112810D0142827
:1024500020D13BE0262846D004DC1E2851D020287D
:1024600018D18AE02A2816D0B0F5107F12D128E0C2
:102470004046E56801F060FC0290697A39B9297A32
:10248000012904D130F87C1F41F48071018002A839
:1024900001F09CFC75E0404601F04EFC0090E168C4
:1024A00011B1C0F8841002E0D0F88400E060684602
:1024B00001F08CFC0EB0BDE8F087D7B34046B847BA
:1024C0005FE02146404617F05FFEF3E705A940466E
:1024D00000F058FCE0680699016007994160E9E75F
:1024E000C4F80C90E6E7E0680228E3D1CDF830802C
:1024F000E0680D9027200A900AA9A0680FF0ECFD73
:10250000D8E7E068012804D00021404600F062FBD3
:10251000D0E730460EF076FD68B130460EF08CFF05
:1025200030460EF051FC98B1012130460DF08EFD81
:102530000EE026E02FE048460EF0CCFF064640466F
:1025400001F0FAFB0090C0F88060684601F03EFCA4
:102550000121404600F03EFB002EABD10020E060A0
:10256000A8E75FEA0A700CD4E068C06848B1007A56
:1025700038B140460EF060FF03E02146404617F0B8
:1025800052F8214640460DF0D1FC002892D020465A
:102590000EF006F88EE7404601F0CEFB009070305A
:1025A00001F026FB684673E7F0B587B0B0F9084044
:1025B0000DF10C0C0C9E876945688CE8F000448A8C
:1025C0000025CDE900150294B0F90C10B0F91050B7
:1025D000B0F90E40B0F90A00194410442B462246C7
:1025E00000F002F807B0F0BD2DE9F0478AB00DF118
:1025F0004C0CDDE917849CE86006129F45F4805579
:10260000DFF8BCC06034CDE902C4CDE900750DF03F
:1026100019FF04004FD001F08FFB3022494604908F
:102620000DF064FE0498282226493430FDF7DAFDC7
:102630000498244FC0F86480A0F87C600026C0F89D
:102640008060C666083FC0F888607968C16504A8E4
:1026500001F0BCFB05A9204600F094FB1A4841F2AA
:10266000827103960094CDE90110BDF91E00BDF9F9
:102670001A10BDF91C20431ABDF918005B1C121A70
:10268000521C0DF0DFFE06467868416820468847F8
:10269000204601F051FB0490866604A801F096FBE9
:1026A00042F20400054202D120460EF01FF85146C6
:1026B000204600F00CFB0AB02046BDE8F087000081
:1026C000F1230020E86202208D3000202DE9F04146
:1026D000044694B0006800F0B7F908B1D94D01E0A4
:1026E000D84D2C35606815281ED00CDC0B281FD067
:1026F00004DC00287ED005287DD12FE10E287BD078
:102700001228F9D141E1162806D0172808D0182838
:1027100008D01C28F0D109E0E86914B0BDE8F081C8
:10272000286AFAE7686AF8E7A86AF6E76869F4E7EA
:1027300020680B901C200C90206801F0FDFA03909B
:10274000016D0BA88847064603A801F03FFB022E47
:102750000FDB95E807008DE80700D4E90402334653
:10276000A16904F0E1F920698719A069A0EB0608C6
:102770002CE0286803F094FA2169E8690A18521ECF
:10278000606902F0E5F8A269E869111A491C6069FC
:1027900002F0DEF8D4E904077F1C394602F01AF98A
:1027A0003946A06902F016F9686803F079FA2069E1
:1027B0003946401C02F00EF9A0693946401E02F06D
:1027C00009F9A0692769A0F10208BF1C286803F075
:1027D00067FA42463946606902F0BAF8686803F061
:1027E0005FFA606942463946401C02F0B1F8686AF7
:1027F000022802E015E1B0E000E10BDDA86803F07B
:102800004FFA61696A6A881C8B180146424638464D
:102810005B1E27E0296AB14226DD6069022E074669
:1028200000F1020801DB374401E007F102072069EB
:1028300001DB304401E000F1020022693B460A441A
:102840004146A2F1010202F0A1F9022E02DBA069C9
:10285000821B01E0A269921EA069E9693B46401A09
:102860004146401C02F092F9022E02DB60690644E8
:1028700001E06669B61CE76928687F1E03F010FA5C
:102880003A463146206902F01FF93A463146A069BE
:1028900002F01AF9E7696868BF1E03F001FA2069BF
:1028A0003A463146401C02F00FF9A0693A463146DB
:1028B000401E02F009F9E869022802DC286A0228B1
:1028C00023DDA86A022802DDE1690F1A01E0E76949
:1028D000BF1EA86803F0E4F9E969022909DD20694F
:1028E0003B46421800F1020C31466046521E02F08F
:1028F0004DF9286A022808DDA269E8693B46101AEA
:102900003146401C921E02F041F9286803F0C8F9D4
:10291000D4E90620216902F01BF8686803F0C0F9C9
:10292000D4E906202169401E491C521E02F010F80D
:10293000A86A022811DDA1692669E469A1F10208EB
:10294000271AA41EB61C7F1CA86803F0A9F9234609
:1029500042463946304602F019F971E0208A00B249
:10296000ADF81400A18A09B2ADF81610228B12B28C
:10297000ADF81820A38B1BB2ADF81A302C69ED68A6
:10298000CDE9005401F0B0FF5AE0208A298B0844B9
:10299000ADF81400A08AADF81600208B298B401AE0
:1029A000ADF81800A08BADF81A00206801F0C4F94A
:1029B0000390006FF0B1022003F0E6F9039890F85D
:1029C0007C10C1F3C00100EB8100006C03F068F9DA
:1029D0000398406B03F07AF90398006F01F0ACF9AB
:1029E00003990990B1F95A2005A901F021FE09A81F
:1029F00001F0ECF903A801F0E9F921E0208AADF833
:102A00001400A08AADF81600208BADF81800A08B3A
:102A1000ADF81A00A86803F043F905A802F0DAF847
:102A20000EE0206801F088F9039030F85A1F41F059
:102A30000C01018003A801F0C9F920680EF072FDB5
:102A400000206AE6D466022038B5002450B101F0B7
:102A500073F9009090F87C00000700D501246846C7
:102A600001F0B4F9204638BD38B505004FF0000438
:102A70000CD001F061F90090C06D002180680268FF
:102A8000284690470446684601F0A0F9204638BD24
:102A9000F8B50E4605004FF000040CD001F04CF9DB
:102AA0000090C06D31468068026828469047044611
:102AB000684601F08BF92046F8BD00000148006827
:102AC00070470000E862022030B587B005004FF083
:102AD00000040ED001A900F055F9284601F02CF9A8
:102AE0000090B0F95440684601F070F90CB9BDF996
:102AF000044007B0204630BD8C230EF041BF0028B3
:102B000001D016F0D2BB704730B504468BB00068D8
:102B100001F012F9009090F87C10246A006FC1F364
:102B2000C00508B101F008F90690E068029020693C
:102B30000390A088401EADF81000E089ADF81200A7
:102B40002089401CADF81400608AADF81600BDF86D
:102B50000800401CADF80800BDF80A00401CADF8A4
:102B60000A00BDF80C00401EADF80C000098406B48
:102B700003F0ACF8009808AA02A9B0F95A300698F8
:102B800003F00EFC009800EB8500806B08F09EF9C6
:102B9000009800EB8500006C08F0D0F908AB02AAA1
:102BA00004A906980DF0DCFA684601F00FF90698C2
:102BB00010B106A801F00AF90BB0002030BD10B525
:102BC000040006D018F086FC2046BDE8104018F03E
:102BD00055BC10BD002801D018F0F4BC704738B5C2
:102BE0000C4600280CD001F0A7F80090816CA1429F
:102BF00003D08464806E0EF0B0F9684601F0E6F808
:102C000038BD000002490148086070470C0D0220E1
:102C1000E4620220022803D2024A02EB8000C16073
:102C200070470000E86202202DE9FC410D460700D4
:102C300028D001F081F80190C16D8C6800F009F98D
:102C400080460198456301A801F0C0F8226801217F
:102C50003846904706462268032138469047054685
:102C600022680021384690470446384600F0D7F9DC
:102C70002B46324641463846009400F060F938460B
:102C80000EF06BF9BDE8FC8138B50C4600280ED07B
:102C900001F052F8009030F87C1F14B141F010019F
:102CA00001E021F010010180684601F08FF838BD85
:102CB00038B50D46040009D001F03EF800900566D5
:102CC000684601F083F820460EF047F938BD7CB520
:102CD0000D46040019D001F02FF80090006F01900C
:102CE000684601F073F8294601A804F0C1FA0028EB
:102CF0000BD0204601F020F800900199016768464A
:102D000001F064F820460EF028F97CBD2DE9FC475F
:102D10000D465FEA00094FF000042DD001F00CF8D9
:102D20000190B0F95440A54223D000F092F88046BB
:102D300001980121A0F85450C06D856848462A6862
:102D4000904707462A6803214846904706462A6866
:102D50000021484690470546484600F060F9334652
:102D60003A4641464846009500F0E9F848460EF0DC
:102D7000F4F801A801F02AF82046BDE8FC878C236E
:102D80000FF032BA2DE9F34F85B000270C46B84654
:102D9000059800F0D1FF0090C06D0121856805986D
:102DA0002A68904782462A68032105989047049034
:102DB0002A6802210598904703902A680021059807
:102DC0009047064600980EF0F4FD834600980EF0FA
:102DD000F7FD8146009890F83210890601D5B0F9C8
:102DE000588000F036F805460098C06E10B10DF01E
:102DF00012FE074625806780A4F804A0049AABEB76
:102E0000020006EB0802401E2A4420813A44E28078
:102E1000039BA9EB0302521E6281A4F80CA020823E
:102E20007019E681401E6082684600F0CFFFB4F959
:102E30000C000190B4F91000029002AA01A90598B3
:102E400000F03AF80198A0810298208207B0BDE80E
:102E5000F08F10B50146002091F83220920607D578
:102E6000B1F95400002803D1486B01F0DCFF801C4D
:102E700010BD70B58AB00C46054600F05DFF0990A4
:102E8000C06D866809A800F0A1FF009534B1012C3F
:102E900006D0022C0BD0032C04D10AE0182000E04D
:102EA000162001907168684688470AB070BD1520E9
:102EB000F7E71720F5E700002DE9FC4117468846A3
:102EC000044600F039FF0090C16D056868468E68C1
:102ED00000F07CFF326800212046904706462046DD
:102EE0000DF090FC27E000BF00F026FF0190B0F944
:102EF00000102AB2B0F90430891A9A1AB0F90230D7
:102F0000A3EB2543B34210D190F82800000605D565
:102F10003868884209DB491E396006E0D8F80000AD
:102F2000904202DC521CC8F8002001A800F04EFFBD
:102F300020460DF0FFFC0400D6D1BDE8FC812DE950
:102F4000FF4F83B00E460746DDF8409000F0F4FED8
:102F50000190C16D8D68FFF77CFF044601A800F069
:102F600035FF2A6801213846904783462A680321A5
:102F70003846904782462A680021384690470546E1
:102F8000B44207D105998B4504D106998A4501D1F0
:102F90004D4541D0A41B0026B04638460DF032FC0A
:102FA00038E000F0C9FE0090806A010601D5800576
:102FB00002E0810528D50006002825DB24B1224641
:102FC000114638460EF0C5F8009890F82800000623
:102FD0000AD50698A5EB0902A0EB0A0004FB16012E
:102FE0003846761C0EF077F80098008D80050BD5DA
:102FF0000599A5EB0902ABEB010004FB080108F100
:10300000010838460EF067F8684600F0DFFE3846E3
:103010000DF090FC0700C4D107B0BDE8F08F70B58B
:1030200086B0064600F088FE0590D0E91A4505A84E
:1030300000F0CCFE54EA050026D069463046FFF782
:10304000A1FEACB1BDF90620BDF9041020460EF07A
:1030500017F8BDF90A00BDF90610421ABDF90800BB
:10306000BDF90410521C411A2046491C0EF093FA77
:10307000002D09D0BDF90600BDF90210421ABDF9B4
:10308000041028460DF0FCFF06B070BD2DE9F0439A
:103090000446406889B005460DF053FC814600F0B7
:1030A0004BFE0290D0F84880D0F88070466E02A89F
:1030B00000F08CFE2068172853D008DC0E283AD088
:1030C0000F2811D014284CD015283DD149E01E28D6
:1030D0001ED01F282AD0222840D0312834D10020E9
:1030E000E06009B0BDE8F0836FF07041404688456C
:1030F00003D007F0EBFE01F07DF8002EF1D0D4E90B
:1031000002122068CDE90405CDE9061204A81FE0EB
:10311000E0680028E5D02FB1AF4203D038460EF06A
:103120008BF9DEE728460EF0D5F9DAE72146484666
:103130000CF0FCFED5E7E0684168002904DD00687A
:103140000928EFD00A2805D05EB12046C4F80490C3
:10315000B047C6E728460EF0C5F9C2E7C4F80C80B0
:10316000BFE720460DF01CFABBE7000010B504468F
:103170000A280FD00D2C11D009480068C0690168D9
:103180002046884707480168002907D02046BDE847
:1031900010400847BDE8104001F0B4B910BD000070
:1031A000DC610220086202202DE9F0430446C56874
:1031B00087B090468946002002F085FD064625B17D
:1031C000287910B146F0020001E026F0020002F07A
:1031D0007AFD2069012558B1D4E902128DE8260054
:1031E000039563882288046841464846A0471EE04C
:1031F000124F134B214638681B68427CE0689847A1
:1032000030B9E088012801D0002001E03868806BE7
:10321000A288E388A1680095CDE90410CDE90232C7
:103220000195638822884146484607F0BBF807B0FD
:103230003046BDE8F04302F046BD0000DC610220EC
:10324000D46102201CB50024019401AC009400F06C
:10325000E7F81CBD2DE9FF4F83B0814606988A46EA
:10326000A0EB0A08109E00200090A2EB090435682C
:10327000934654EA080018D02046FDF753F8074655
:103280004046FDF74FF887420BDA20464446804619
:103290004846D14682465846DDF818B006900120CF
:1032A0000090002C07DD204606E007B04846BDE848
:1032B000F04F00F03BB96042A0420AD04846D946E0
:1032C0006442C8F1000883464FF0FF37DDF818A0CC
:1032D00000E001275148B8F1000F11D004EBD47180
:1032E0004FEA610B01DACBF1000B4C480068807E9D
:1032F00088B3002F02DA30682044306000257BE07C
:1033000000990029016821D0897E11B100278046EB
:1033100015E007B05A4649465046BDE8F04F07F061
:1033200035BA28466D1C18F069FA38B9D8F800008B
:1033300009EB0701406E4268504690477F1CA74248
:10334000EFDD6D1E356007B0BDE8F08F8A7E1AB1E3
:103350000027804617E019E0486E5A465146036838
:1033600007B04846BDE8F04F184728466D1C18F0D6
:1033700045FA38B9D8F8001009EB0700496E4A68D9
:10338000514690477F1CA742EFDDDAE700250FE0AA
:1033900008FB05B090FBF4F101EB0A00009951B174
:1033A0001E4A09EB05011268526E526890476D1C67
:1033B000A542EDDDC7E7194909EB05030968496E28
:1033C0004A6801461846F1E708FB05B090FBF4F1A6
:1033D00001EB0A00019030683844306018F00EFAB2
:1033E00048B9009890B10D4809EB05010068406E9E
:1033F0004268019890476D1CA542E5DD3068002FBA
:1034000001DA20443060C01B30609CE7034909EBBF
:1034100005000968496E4A680199EBE7DC61022002
:103420002DE9FF470F4640491646804609680C982B
:103430001D460A7E012A1CD0A8EB0600791B50EA23
:1034400001031CD0A2F1010919F05EFF00F58060B4
:10345000824603F0DEFF00FB09F4504603F0DEFF76
:1034600000FB09F1002C0CDAC4F500708012404218
:103470000AE00090324639464046FFF7EBFEBDE8D1
:10348000FF8704F50074A012002904DAC1F5007169
:1034900089124C4202E001F500718C12002804DD13
:1034A000411C01EBD171491003E000EBD0714910D0
:1034B000401E00EBD0704210002C04DD601C00EBBD
:1034C000D070401003E004EBD4704010641E04EB95
:1034D000D47308EB0104ADF800403C18ADF802408D
:1034E000A8EB02045B10B21AADF80440ADF8082056
:1034F0003144FC1AEA1AADF80C102844ADF80A2041
:10350000ADF80E000023ADF806401A4604216846C7
:1035100000F07AF83946404612F0F4FC294630466D
:1035200012F0F0FCABE70000DC610220064A1368F1
:103530001A7E012A05D0521E02EBD272521000F000
:1035400005B85A6E52681047DC6102202DE9F05F21
:103550000646884640F2C32002FB00F14FF47A7021
:1035600091FBF0F702FB02F102EBD27001EB600B72
:103570001446B118234A301B7F1C1268526E136820
:103580000A4641469847012538E000BF05FB05F093
:1035900004FB040159451CDDBC4219DD194B06EB47
:1035A000050AA6EB05091B68AAF1010208EB040154
:1035B0005B6E09F101001B689847124BAAF10102EA
:1035C000A8EB04011B6809F101005B6E1B689847BA
:1035D000641E0C4B3219301B1B68924608EB050128
:1035E0005B6E81461B689847064B5246A8EB050167
:1035F0001B6848465B6E1B6898476D1CBD42C5DD65
:10360000BDE8F09FDC6102202DE9FF4F43F6FF7417
:103610000F46664283B09B46814600210BE000BF07
:1036200009EB8100B0F90200A04200DA0446B04282
:1036300000DD0646491CB942F2DB67480068406974
:1036400000280DD0B0F906101A46A1EB0B01B142CB
:1036500000DA0E46B0F90200801AA04200DD0446EE
:10366000B4E0DFF878A100200546CAF8000088E041
:10367000781E854201DA6B1C00E0002309EB850C03
:1036800009EB8302BCF90200B2F90210A04244D156
:10369000A14215D139F92330059A39F9251003EBE8
:1036A000020C4D4A05981268084404EB0B01526E57
:1036B0006045136801DA62462AE00246604627E068
:1036C0002846A4464FF000087A1E0BE008B1401EC1
:1036D00000E0781E09EB8003B3F90230634504D1A2
:1036E00008F101089045F1DB2346A34248D01A1B9C
:1036F00039F92500A1EB040C059B92EA0C0F09D4C3
:10370000354A184404EB0B011268526E13680246E6
:10371000984735E00EF074FE32E0A14230D001DB74
:10372000A04203DDA0422BDBA14229DCE046884217
:103730000ADC0346A04223DC0846A14220DBB8F99C
:1037400000C0B2F9001008E00B46A14218DCA0420C
:1037500016DBB2F900C0B8F90010E21AA1EB0C01B7
:1037600051430029A0EB030202DD01EB620102E0FC
:10377000A1EB6201491CC01A91FBF0F06044C9E75B
:103780006D1CBD42FFF674AF0598009004EB0B0072
:10379000019000208046054613E01149B8F1000F62
:1037A00031F915A009D0009901EB0A0208440A4931
:1037B0000968496E0B680199984788F001085046DE
:1037C0006D1C064909688D42E7DB641CB4427FF733
:1037D00048AF07B0BDE8F08FDC61022054680220DA
:1037E00070CE022010B5002002F058FA6FF07F4032
:1037F00002F056FA012002F0B5FA002002F0BAFAFF
:10380000002002F0C1FA002002F05DFA04480068CE
:1038100002F05CFABDE81040002002F07FBA000020
:10382000D8610220014AC2E9000170478861022084
:10383000014AC2E90001704790610220014AC2E9D1
:103840000001704764620220014AC2E9000170472A
:1038500098610220014AC2E9000170476C620220AF
:103860002DE9F04FDFF828B191B04FF0FF35DBF8CC
:103870000030B3F922100691DE69B3F92490F4699F
:10388000A189814206D8E289824203D3471AD4F83B
:10389000008012E0D4E9018100296FD00A888242B9
:1038A0006CD84D88854269D3801A82B2486800EB93
:1038B0008200B0F90070B0F90250781C5ED0307E02
:1038C000A17C10FB01FA217CCDE90701B3F92A6044
:1038D000304607F05BFBC0B20E90DBF8000007FB40
:1038E0000A81A37C826B0127CDE90412CDE9027322
:1038F000C069089AC17E807ECDE90001DDE906033A
:10390000494606F04FFD681C18D046F0020007F04B
:103910003DFBDBF80000A37C05FB0A81826BCDE94F
:103920000273CDE90412C069089AC17E807ECDE998
:103930000001DDE90603494606F034FDDBF800002E
:103940005D46C069417E007E814214D9022E12D0AC
:1039500086F0040007F01AFB2868C069027EC37E67
:1039600012FB0391437E857E089A06984B4412FB16
:10397000050206F035FF0E9807F008FBDBF80000A3
:10398000627C418C1144418411B0BDE8F08F00008D
:10399000DC61022004480068C069C06909B1027C8A
:1039A0000A60407C70470000DC6102200220088031
:1039B0007047C06982898A4202D8C2898A4210D27D
:1039C000806880B102888A420DD843888B420AD32E
:1039D000406800EB8100A0EB8200B0F900000028F5
:1039E00001DB012070470020704700002DE9F04303
:1039F000304C034687B020681946B0F92A60C06988
:103A0000C06900F086F8002850D041680088181A74
:103A100001EBC0053046AF7807F0B8FA8146206860
:103A20006A680123816BCDE90237CDE90421C169C0
:103A3000CB7E8A7ECDE900230B7EB0F924102A7854
:103A4000B0F9220006F0AEFC2068C069417E027E1B
:103A500091421FD9C07E11FB00F812FB00F7022E25
:103A600018D001F038F9064601F018F902F018F9FB
:103A700021682A78CB69B1F92200DB7E12FB0302B0
:103A8000B1F9241001EB0803394406F0A9FE3046D1
:103A900002F006F9484607F079FA20686A78C369A7
:103AA000B0F922109B7E12FB0311418407B0BDE8E0
:103AB000F0830000DC61022030B50F4C05460B4658
:103AC00020682946C069C06900F023F8002812D098
:103AD0004168008824682A1A0120E46900EBC200CA
:103AE000085CA47E10FB04F0002B04D011F8321007
:103AF00011FB04F1196030BDDC6102200120088057
:103B0000704700B5C06900F004F8002800D001201B
:103B100000BD06E002888A4202D842888A4202D268
:103B200080680028F6D17047F8B505460C000DD026
:103B3000084600F015F8060010D000F0FDF8224607
:103B400000902DB12946FCF74DFB04E00020F8BDA4
:103B5000002103F0FEFB684600F038F93046F8BD5E
:103B6000002801D00EF024BE704738B50546FFF797
:103B7000F7FF040009D000F0DFF82A46002100908A
:103B800003F0E7FB684600F021F9204638BD00004D
:103B9000024A106021F0030050607047B4CC02204C
:103BA00010B5002814D004460A48406B10F83410B1
:103BB00000290DD002290BD2042101EBC401415888
:103BC00048680EF039FC2046BDE8104017F00EBBE7
:103BD00010BD0000F4CB0220002805D0034AD16BB1
:103BE000016001B14860D06370470000F4CB02204F
:103BF00010B504460068FFF7D3FF0020206010BD19
:103C000070B50D460646002405E000BF06EB8400B3
:103C1000FFF7EEFF641CAC42F8DB70BD2DE9F0410C
:103C2000044614F0F1FE2848E41C24F00305016C5E
:103C30002D1DA94200D90D46C46B13E054F8042C85
:103C4000AA420ED184B1216809B162684A606168F4
:103C500009B122680A60C26BA24231D12168C163F6
:103C60002EE02468002CE9D18046816BC0680F18D3
:103C700057F8040C3E1A306838B1002017F0AEFB3C
:103C800057F8040C3E1A3068D0B97068A84217DBA8
:103C90003044441B3046241D17F058FBD8F80C1054
:103CA000491BC8F80C10D8F814102944C8F814108F
:103CB0007068401B02D031460EF0BEFB44F8045C35
:103CC0002046BDE8F0810000F4CB022010B50024AE
:103CD00014F09AFE0C490F2001EBC002526C1AB18D
:103CE00001EBC000406C08E0401EF5D508E04168DB
:103CF000A14200D90C46806810B180680028F6D136
:103D0000A4F10C0010BD0000F4CB02200248C168F1
:103D10000068081A70470000F4CB0220002138B177
:103D20000449042202EBC000496B085841680C3971
:103D300008467047F4CB02200549CA69521CCA6183
:103D4000496B01EBC0010A78521C0A7000F056B8AA
:103D5000F4CB02207CB506460C460846FFF700FF70
:103D600005001CD0DEB13046FFF7D8FFA04200DAD4
:103D700004462846FFF7E0FF00903046FFF7DCFFDF
:103D80000146019022460098FCF72CFA684600F0A4
:103D90001DF801A800F01AF83046FFF701FF284689
:103DA0007CBD000010B5FFF791FF64220649B0F515
:103DB000800F04D990FBF2F0096A484310BD096AEC
:103DC0004143B1FBF2F010BDF4CB02200A49026876
:103DD0004B6B52F8082C03EBC2021378022B03D36F
:103DE000CB690BB15B1ECB611178491E11700021AC
:103DF0000160084670470000F4CB0220002806D07E
:103E00000349042202EBC000496B08580830704790
:103E1000F4CB02202DE9FC414FF000060B465FEA8F
:103E2000000834462BD032B111461846FFF77CFE0D
:103E3000060000D101244046FFF77EFF009007886E
:103E400045686846FFF7C2FFCCB9B9002846091D8E
:103E5000FFF780FF050015D0FFF76EFF019040F8D7
:103E6000276001A8FFF7B2FF4046FFF765FF00900B
:103E700045600188491C01806846FFF7A7FF20467E
:103E8000BDE8FC813046FFF78BFE0124F7E70820F0
:103E9000FFF76BBE7CB5050023D0FFF74DFF009008
:103EA0004068C0B1FFF748FF0024019005E0019889
:103EB00000EB8400FFF79CFE641C00980088A04281
:103EC000F5DC01A8FFF782FF0098001DFFF790FEC8
:103ED0000099002008806846FFF778FF2846FFF722
:103EE0005FFE7CBD38B5002430B1FFF725FF0090A0
:103EF00004886846FFF76AFF204638BD38B50D468E
:103F0000002448B1FFF718FF2946009000F016F88A
:103F100004466846FFF75AFF204638BD38B50D46BF
:103F2000002448B1FFF708FF2946009000F018F878
:103F300004466846FFF74AFF204638BD38B50D46AF
:103F400001880024A94209D9406838B1FFF7F4FE7E
:103F5000009050F825406846FFF738FF204638BDEE
:103F600010B50024FFF7EAFF10B1FFF7E5FE0446A5
:103F7000204610BD70B50C46054600F0D5FFC1B215
:103F800023462846BDE87040002200F001B800003A
:103F9000F0B52D271C68B0F1004F08D0002600288E
:103FA0000DDA651C1D6027704042012408E0651C85
:103FB00001261D606FF000402770491E01E00024BB
:103FC000091BC9B22AB3491EC9B222E00C46491ED8
:103FD000C9B2944205D1124C27781C68651C1D603B
:103FE0002770104C54F8215090FBF5F4E4B20A2CE1
:103FF00011D804FB150011B90EB1641CE4B20A2CEF
:1040000002D10124491CC9B21D686F1C30341F60E5
:104010002C700029DAD1196800200870F0BD00006A
:10402000D0610220A410022010B5002807DD0A6824
:104030002B24531C0B601470096800220A7010BDF9
:104040002DE9FC5F04468946084600F04BFE2B4EE6
:1040500009EB8907824656F82700019028484FF05F
:104060000108016841B92649C0F80080091D2548AA
:104070000860084603F0F4F8204A09EB89015FEA7A
:104080000A0002EB81051BD001F0BAFD83464FF018
:104090007F4001F003FE00F0ADF8002211462068D9
:1040A00000F076FB206842880188504601F032FE1D
:1040B00046F8274085F80580584601F0A1FD17E035
:1040C00046F8274085F805802869464618B101F072
:1040D000EDFC0020286174B10096E868A1684B46A9
:1040E000421AA8686168411A206801F021FD286120
:1040F000484618F03DF80198BDE8FC9F30CD0220FD
:10410000206202200D97012070B506460D46144628
:10411000104600F0E7FD0300164804EB84010AD0C6
:1041200050F8210041688068711A2A1ABDE8704071
:10413000184601F0EDBD00EB8104A268B24201D047
:10414000012200E00022E368AB4201D0012300E03D
:1041500000231A430CD0236943B150F82100816831
:1041600040686A1A311A184601F0BEFCC4E90265BB
:1041700070BD000030CD022002480068407C00F095
:1041800003B80000DC61022030B4094900EB800272
:1041900001EB82040123637151F8221011B130BC8C
:1041A00017F0E6BF014630BC0248FFF749BF0000E8
:1041B00030CD0220E010022010B5C2B2CBB2D21A2C
:1041C00000D5524293B25B43C0F30722C1F30724E8
:1041D000121B00D55242000C92B2A0EB114002FB20
:1041E000023200B2002801DA404200B280B200FB85
:1041F000002010BD10B50021084600F029FE43F64E
:10420000FF725042BDE8104013460146AFF30080F4
:104210002DE9FC4107461C4615460E46042006F0D3
:10422000B5FE80461148C068C16C006D0F4406445D
:104230000D440444ADF80070ADF80450ADF80260D0
:10424000ADF8064068460DF0C3FB07E023462A465A
:104250003146384606F0C4FA0DF054FB0028F5D17B
:10426000404606F093FEBDE8FC810000D0610220CC
:10427000B0F90630B0F90420B0F90210B0F900002E
:10428000FFF7C6BF2DE9F8431C00DDE90898164684
:104290000F46054602D10CF097FA044600962E68A8
:1042A00043464A4621462846B047060035D00CF022
:1042B0007FFA8146698A30460BF0C8FE30460DF021
:1042C000E4F948460DF0E1F94FF000080CE000BFBA
:1042D000CDF8008055F81CCF00231A4649462846E1
:1042E000E047E0B10DF0D1F97F1E002FF0DC1D2179
:1042F00048460CF0E0FF601C0ED00CF095FA30B18F
:10430000FFF77CFD8469B44201D02000F8D1B442AB
:1043100002D030460DF0DEF83046BDE8F883304676
:104320000CF072F90020F8E72DE9F0411C46164622
:104330000D460746022B02DB0020BDE8F0811C2061
:10434000FFF76CFC0028F8D00DB105610AE0094ABE
:1043500052F8241009B905E011460A68002AFBD179
:104360000969016184618682002101604160C0E9C0
:104370000217E2E7F461022070B51D46FFF7D4FF93
:10438000040009D000F00EF8E068006820B9034886
:10439000006800EB85008465204670BDDC6102206A
:1043A000FFF71ABC70B590B38269022A30DA1E4C4E
:1043B00054F8221019B944F8220032E019464B682B
:1043C000002BFBD106E0CB68C5681B682D68AB42AB
:1043D00003DD09680029F6D11AE0C1B1CB68C668CF
:1043E0001B683668B3420CD1838A012B05D008E0E4
:1043F0001946DB681B68AB4203DB0B68002BF7D167
:1044000029B14B6833B118604A68426004E0FFE7A5
:10441000012070BD44F822004860884200D100218C
:104420000160002070BD0000F461022018F0A4B902
:10443000022801DB00207047054A52F8200004E002
:10444000C26812688A42F6D000680028F8D1704726
:10445000F4610220022801DB00207047054951F871
:10446000200004E0C16809680029F6D0006800282F
:10447000F8D17047F4610220F8B5074615460E469C
:104480000C20FFF772FB04000AD0FFF755FC05492A
:104490000090C0E90017068145816846FFF796FC49
:1044A0002046F8BD802602202DE9F8431D46164619
:1044B000884604000CD0FFF73FFC009000680768B6
:1044C0006846FFF783FC2B46324641462046B847F4
:1044D000BDE8F88370B5044601F03EFF051908E019
:1044E00000F020FB052C01DD052000E0204601F056
:1044F00025FF01F031FF2C1A002CF1DC70BDFCF718
:10450000DFBB000000B500F00BFC044909688A8C91
:1045100010448884088C488400BD0000DC610220BF
:104520002DE9FC4706005BD000F0FAFB3B4C8146CE
:104530002068B0F9228000F059FC216807468A8C77
:10454000D01B888441E000BF47F6FF71304602F07F
:10455000F1FC82460146304602F0C2FC2168054665
:1045600091F82C0000F0030001283FD0022839D038
:1045700000204A8C101A4884ADF800006A1E1044CE
:10458000ADF80400888CADF80200A9F101010844DF
:10459000ADF806006A465146304602F0D5F821686B
:1045A000BDF8020088845146304601F081FD064482
:1045B00030780A281CD00D281AD0BDF800002168D8
:1045C00028444884307818B1761C30780028BBD154
:1045D0002068818C39448184818D21F0030181859B
:1045E000BDE8FC8705EBD5704010C2E72846C0E760
:1045F000206890F82C1001F0030101290BD002294A
:1046000009D0018C418431780A29DBD1828C02EBFC
:1046100009018184D6E7A0F82280F4E7DC6102205A
:10462000024B1B6859849A84FFF77ABFDC61022031
:1046300047F6FF73AFF300802DE9FC411F4690461B
:1046400006000D464FF0000416D065B108460CF088
:10465000C1FF040007D002462946684602F0D7FC95
:1046600068460CF0B7FF3B4642462946304602F00A
:10467000C3F820460CF0AEFFBDE8FC812DE9FF4FEA
:1046800087B090468946070079D00C68D9F8045065
:1046900021B228B2401A401C029000F041FB0646AD
:1046A00018F00C0F1ED038460A9A029901F026FE27
:1046B00008F00C01042904D0082902D00C2911D1DA
:1046C00004E0291400FB1610401C09E02114C1EB82
:1046D000254200FB1620401C00EBD07001EB60006F
:1046E00060F31F4448460CF075FF5FEA000B09D0E9
:1046F0000246494604A8CDE9044502F088FC04A816
:104700000CF068FFA6F1010A38460A9A029902F0F5
:10471000EFFD03900AEB244060F31F45CDE900450F
:104720003846039902F0DCFB18F003010ED0012992
:1047300028D002290ED1B9F90420B9F90010521A73
:10474000101A00EBD07001EB600001E0B9F8000036
:10475000ADF800006A463846039901F0F5FF384687
:104760000A9A029902F0BAFD074406EB244060F36E
:104770001F4438780028C7D158460CF02BFF0BB0E7
:10478000BDE8F08FB9F80410081A401CE0E70000FB
:104790007CB5064610480068C36C006D5D1884182F
:1047A0003188681E0844ADF80400ADF800507188E7
:1047B000601E0844ADF80600ADF8024068460DF0F2
:1047C00007F906E0224629463046FEF7EDFC0DF0DB
:1047D00099F80028F6D17CBDDC6102201CB50A46A0
:1047E0000146684602F02FFD2448BDF8001000681D
:1047F00030F84C2F1144ADF80010BDF8021082883B
:104800001144ADF80210BDF8041002881144ADF84F
:104810000410BDF8061080880844ADF8060068460C
:104820000DF0D6F827E000BFBDF900400BE000BF57
:10483000BDF90210204605F075FFBDF906102046AF
:1048400005F070FFA41CBDF90400A042F0DABDF928
:1048500002400AE0BDF90000214605F063FFBDF902
:104860000400214605F05EFFA41CBDF90600A0422D
:10487000F0DA0DF047F80028D6D11CBDDC6102202B
:104880002DE9F04F0C46164987B00D68DDE9109808
:10489000E96C0F18286D8D180619C418ADF8107042
:1048A000ADF81450ADF81260ADF8164004A80DF044
:1048B0008FF8002811D0DFF82CB04FF0000ACDE9B6
:1048C0000098CDE902BA2B4622463946304611F00F
:1048D000D3F80DF017F80028F1D107B0BDE8F08F3C
:1048E000DC6102208DA700202DE9F04F164C87B027
:1048F0002568DDE91098EC6C2718286DA518461876
:10490000C418ADF81070ADF81450ADF81260ADF8E1
:10491000164004A80DF05CF8002811D0DFF82CB088
:104920004FF0010ACDE90098CDE902BA23462A46A4
:104930003146384611F0A0F80CF0E4FF0028F1D120
:1049400007B0BDE8F08F0000DC610220CDA600209A
:104950002DE9FC41104F04463B68D86C4518196D91
:10496000ADF800500E198418ADF80440ADF802609F
:10497000ADF8066068460DF02BF808E0386822466E
:104980003146406E0368284698470CF0BBFF00286C
:10499000F4D1BDE8FC810000DC6102202DE9F0418A
:1049A0000B4C2568EC6C2718286DA5184618C41800
:1049B00000200DF00DF807E023462A463146384620
:1049C000FEF740FC0CF09EFF0028F5D1BDE8F08119
:1049D000DC6102207CB50E4D2A68D36C1E18106D68
:1049E000ADF804604418ADF80060ADF80640ADF8CD
:1049F000024068460CF0ECFF07E028682146406E54
:104A00004268304690470CF07DFF0028F5D17CBD10
:104A1000DC6102202DE9FC411C4C2468E66C94F812
:104A200018C03718206DACF1010C4518C418A7EB5D
:104A30000C001644ADF8000006EB0C00ADF80400C5
:104A4000A5EB0C00ADF8020004EB0C00ADF806007D
:104A500068460CF0BDFF15E032462946384605F0A1
:104A600035FE32462146384605F030FE621E691C8E
:104A7000384605F08BFE621E691C304605F086FE46
:104A80000CF040FF0028E7D1BDE8FC81DC6102208A
:104A900070B50E468EB004460146154606A802F0D3
:104AA000AFFBBDF81A30642B0CD1002000900AAB8C
:104AB00001AA214606A801F029FE2A46314601A88E
:104AC000FFF766FE0EB070BD7CB50E4B1B68DC6C4C
:104AD0002618186DADF8006045188418ADF804600C
:104AE000ADF80250ADF8064068460CF071FF06E0E4
:104AF00022462946304605F049FE0CF003FF002807
:104B0000F6D17CBDDC61022070B50C46054600F094
:104B1000F3F810B10121C0E900142846BDE8704047
:104B20000CF072BE10B5002400E0012400F004F87F
:104B30000028FAD1204610BD094810B500680024AD
:104B400010B1804700B101240BF0DEFD00B101245B
:104B50000448006810B1804700B10124204610BD10
:104B600000620220FC6102201CB50021009101912D
:104B7000694601F09DF804E0FFF7D4FF08B901F0A1
:104B8000A1FB00980028F7D001981CBD2DE9FC413D
:104B90000F4C2568EC6C2718286DA5184618C4180A
:104BA000ADF80070ADF80450ADF80260ADF8064005
:104BB00068460CF00DFF07E023462A46314638468A
:104BC00005F00EFE0CF09EFE0028F5D1BDE8FC813C
:104BD000DC610220B0F90630B0F90420B0F902100F
:104BE000B0F90000FFF7D2BF08B50B46002805D08A
:104BF000009281888268C08800F001F808BD10B575
:104C00000828029C30D008DC04FB01F401280AD0FB
:104C1000022813D0042804D11CE0102828D0202812
:104C20002CD0002010BD04EBD30003F00701105C72
:104C3000C1F10701C84000F0010010BD04EB930072
:104C40000621105C01EA4301C1F10601C84000F0F1
:104C5000030010BD04EB5300D907105C02D000F034
:104C60000F0010BD000910BD04FB0130105C10BD29
:104C7000481004FB003032F8100010BD881004FB0F
:104C8000003052F8200010BD034951F82000C168DF
:104C90008A6A082110470000F461022010B505F06F
:104CA000CFFDBDE8104005F07BBE00000249096859
:104CB000C9694A6800211047DC610220024A126873
:104CC000D269526810470000DC610220002801D040
:104CD0000BF05EBD704710B505F0BAFDBDE81040A1
:104CE00005F05EBE0021022802D2024951F82010D0
:104CF000084670475C6202201FB5002101910291B5
:104D000003912A21009169460CF0D0FA039804B06F
:104D100010BD000001480068007C7047DC61022083
:104D200002480068C069407E70470000DC610220D4
:104D300002F0CCB870B514460D4605F0CFFD002842
:104D400002D000202860206070BD02F01DB910B5AF
:104D5000044602F00BF901462046BDE8104002F07F
:104D6000BFB800002DE9F74306464FF00008019850
:104D700044464746154618B302F0A8F88046019805
:104D80000078D8B91CE029467F1C019802F0D2F8BF
:104D900081460146A5EB0905019802F0A1F8A04261
:104DA00000DC204604464946019801F081F901994A
:104DB0000844019001A802F001F908B9002DE2D1E0
:104DC0000848641E0168498C318000682144B0F9AC
:104DD0002400708008FB0700B180401EF080BDE811
:104DE000FE830000DC61022001F0B6BA0A4900200F
:104DF000096891F82C2002F00C02042A07D0082A36
:104E000001D00C2A02D1C869007E40087047C869E9
:104E1000007E401E70470000DC610220417EC07EA3
:104E200011FB00F07047017EC07E11FB00F070475F
:104E3000024951F82000006900687047F4610220BF
:104E4000024951F82000006940687047F46102206F
:104E500070B50D4613F0CCFA0446284613F0D0FA8C
:104E6000204370BD124810B5016821F001010160B6
:104E70001048012181601049016000680F49884293
:104E800000D0FEE701F074FB0D492E20087001F000
:104E900069FA0C4813F080FD19F0DCFB0446002190
:104EA000084600F043FF0BF0B3FF204610BD0000A2
:104EB000002000E000300240C2A507F4CDB5E8B5FF
:104EC000D0610220C0CC02202DE9FC4107461C46DF
:104ED00015460E46012000F0F6FE80461148006897
:104EE000C16C006D0F4406440D440444ADF80070DD
:104EF000ADF80450ADF80260ADF8064068460CF01D
:104F000067FD07E023462A463146384605F068FC2F
:104F10000CF0F8FC0028F5D1404600F0D4FEBDE8C6
:104F2000FC810000DC61022010B5011E01DD02469B
:104F300000E04A42064B012053F82040944202D838
:104F4000401C0A28F8DB002900DA401C10BD0000D4
:104F5000A41002201CB520B90C480068006E00287F
:104F600012D0FEF7E9FE009044696846FEF72EFF76
:104F7000002C09D02046FEF7DFFE01908168896889
:104F8000884701A8FEF722FF1CBD0000DC6102205B
:104F900001490A4600F002B801F0FFFF2DE9F04395
:104FA00087B015460C465FEA000842D0002000F0AA
:104FB0008AFE814620480068066E4046FEF7BCFE29
:104FC00000900068806900F01BFE074640F6FF7005
:104FD000C44204D10098B0F90440B0F906500098DA
:104FE000611E0289ADF804401144ADF808104189F2
:104FF000681E0844ADF80650ADF80A000BF0A0F9A1
:105000006846FEF7E3FE01A80CF0E2FC06E02A4643
:105010002146404600F07EFB0CF074FC0028F6D1DF
:10502000384600F0EDFD304600F090F9484600F0BB
:105030004AFE07B0BDE8F083DC6102202DE9FE4F97
:10504000834619488A46194900680C9E9846407C58
:105050009146002751F82040E1680968042903D0EF
:105060002468002CF8D100E014B9FFF7F3F90446E6
:105070000121E068C26A20469047050011D02469EA
:10508000A0688047401C02D1094C46F001060096FA
:10509000CDE9015443464A465146584600F0DAF9F4
:1050A00007463846BDE8FE8FDC610220F46102202D
:1050B000381E022038B5040018D00D480068006E74
:1050C000A04201D100F092FD2046FEF735FE00908F
:1050D000406908B101F0E3F800980068FFF760F953
:1050E0006846FEF773FE2046FEF75AFD38BD000005
:1050F000DC6102202DE9FF4F0746464883B0994600
:105100000068DDF840B08A46447C434800570128D7
:10511000204606DD05F00CFC8046204605F014FC18
:1051200005E005F0F4FB8046204605F0F6FB04465A
:1051300017B302A901A8FFF708FEB7F90060002E17
:1051400000DA0026B7F90250002D00DA0025019997
:10515000B7F904004144491E14F0A3F880460298B0
:105160000119B7F90600491E14F09BF8A8EB0602D6
:10517000441B521C641C02E0002635464246B9F12D
:10518000000F01D1C4F10009002A01DD002C03DC6D
:10519000002007B0BDE8F08F4B4629463046CDF8D9
:1051A00000B0FFF74BFF5FEA000909D000F094F868
:1051B0008046484600F0CAF80027DFF860B01FE0DC
:1051C0005146059888470120E3E7E11B414502DA93
:1051D000484600F0A5F83FB1EA193146484600F0CC
:1051E000D7F84846FFF7B6FE514605988847DBF8E2
:1051F000001009B1002088474846FFF7C9FE474420
:10520000A742E2DB4846FFF755FF002000F09EF87A
:10521000BEE70000DC61022014620220C0650220AB
:1052200038B5002460B1FEF787FD00900068006982
:105230008068804706F00EFA04466846FEF7C6FD11
:10524000204638BD38B5002808D0FEF775FD00F1BE
:10525000180400906846FEF7B9FD204638BD0000EE
:1052600038B5002418B907480068006E38B1FEF759
:1052700063FD0090B0F904406846FEF7A7FD2046A4
:1052800038BD0000DC61022038B5002418B9074899
:105290000068006E38B1FEF74FFD0090B0F908408D
:1052A0006846FEF793FD204638BD0000DC61022011
:1052B00038B5002418B907480068006E38B1FEF709
:1052C0003BFD0090B0F906406846FEF77FFD2046A2
:1052D00038BD0000DC61022038B5002418B9074849
:1052E0000068006E38B1FEF727FD0090B0F90A4063
:1052F0006846FEF76BFD204638BD0000DC610220E9
:1053000070B50546002428460EF068FB641C18B1F1
:10531000BDE8704000F068B8052CF4DB70BD0000FB
:1053200038B50C4620B908480068006E00280AD03D
:10533000FEF702FD0090B0F90A10A14200DD4481A1
:105340006846FEF743FD38BDDC610220F8B50F4E1C
:1053500005003068046E16D00CB100F047FC0BF06D
:1053600015F92846FEF7E8FC009031680D660068E4
:10537000FFF718F86846FEF729FD05F08DFE05F0E9
:10538000CFFD2046F8BD00F031FCFAE7DC610220D9
:105390007CB515460C4620B912480068006E0028FE
:1053A0001FD0FEF7C9FC2DB20090C58024B28480C6
:1053B00005F0B6FD0098406980B1FEF7BDFC009A8B
:1053C0000190B2F908108180B2F90A20C28011B1AF
:1053D0000AB10480458001A8FEF7F8FC6846FEF794
:1053E000F5FC7CBDDC61022001490A4600F002B8F0
:1053F00001F0FFFF7FB515460C46060028D0FEF7EA
:105400009BFC40F6FF710190CC4203D1B0F90440FF
:10541000B0F906500289611E1144ADF80840ADF89C
:105420000C104189681E0844ADF80E00ADF80A5012
:1054300001A8FEF7CBFC02A80CF0CAFA06E02A4647
:105440002146304600F04EF90CF05CFA0028F6D107
:105450007FBD00002DE9FF4FDFF8E8B083B01C46A8
:10546000DBF80010DDE9106092464FF000084B7C3D
:1054700042461299FEF758FF050060D028698068FF
:10548000804706F0E7F881460AFB09F1C91DCF08FD
:10549000FEF788FCF10705D1C11700EB9170801071
:1054A00000EB4000002C09DC1FB11838B0FBF7F00E
:1054B00000E000206442A04200DC0446F00707D16F
:1054C0000090DDE903012346524600F071FE80465C
:1054D000002C03DC2846FEF763FF30E004FB07F0F6
:1054E0001830F10702D0FEF73BFB01E0FEF73DFB71
:1054F00006001CD0FEF720FC019005600399818016
:105500000499C180A0F808A04481C0F81480C0E9C3
:10551000037901A8FEF75AFC1298AE602861DBF807
:105520000000407CA861304607B0BDE8F08F2846F7
:10553000FEF736FF5FEA080001D0FEF731FB0020DE
:10554000F2E70000DC6102200149086070470000BA
:10555000C06502202DE9F74F8EB0144689460E989B
:10556000FEF7EAFB0990B0F908B0B0F90A600068EC
:10557000006940680C9009A8FEF728FC564D574F6B
:105580002868407C57F82000C1688A6A0821904743
:105590000790182801D3202007902868407C57F8EE
:1055A00020000069069003C80B904D48814201D04D
:1055B000012000E000200A90002000F0D4FE002826
:1055C0007DD1286809EB0B01B0F90C20891A491E1E
:1055D000002902DDABEB010500E05D46B0F90810E3
:1055E000494505DDA1EB090189446D1A089101E0E7
:1055F00000210891002D6BDDB0F90E20A119891A48
:10560000491E002902DDA6EB010800E0B046B0F912
:105610000A00A04204DD061B3444A8EB060800E0A3
:105620000026B8F1000F53DD089801900DA95F46E0
:10563000DDF830A00E980091FFF704FE774300EBF1
:10564000870101982B4601EB800200994846CDE97D
:1056500000A1214601F080F90090002838D00A9876
:10566000E8B1DDE906322946009800F07BFFB0B9C9
:105670000698009FDA46D0F810C0BCF1000F05D0A4
:1056800004235A4639463846E04708E00B99386803
:10569000884701C7AAF101005FEA000AF6D1009924
:1056A0000020079ACDE90301059001200090CDE983
:1056B000010221460346641C2A46484600E007E0F2
:1056C00004F070FEA8F10100761C5FEA0008ABD17F
:1056D00011B0BDE8F08F0000DC610220F46102200F
:1056E00023AA0020F8B515460E460746FEF724FB10
:1056F000009000681621C068426A00209047044666
:105700006846FEF763FB002C03D02A463146384634
:10571000A047F8BDF8B515460E460746FEF70CFB48
:10572000009044696846FEF751FB3846FFF778FD64
:105730000346082800DD2CB12A463146384617F0CA
:10574000AFF9F8BD2A463146384617F049FBF8BD97
:10575000054910B591E81C0080E81C00087A002873
:1057600000D0012010BD000058CD022010B5044625
:105770000C220849FAF77DFD002809D0054894E875
:105780000E0080E80E002046BDE8104000F016B97B
:1057900010BD000058CD022002480068407C00F097
:1057A00003B80000DC610220F8B51D49096809B1A1
:1057B000002200E002461B498D56012D2EDD1849BE
:1057C000143151F822305B1C41F82230012B25D1D5
:1057D000A1F108030026103953F8224051F8221095
:1057E00053F822707F1C43F82270AF4201D143F876
:1057F000226053F822708F42F2D03D46FEF72AFE17
:10580000009000280AD0C0682121426A684690476B
:10581000030003D02A46214600989847F8BD0000AF
:105820002C62022014620220044A126802B1002095
:10583000002900DC0121024A115470472C62022029
:1058400014620220094A126802B10020074A1C3281
:1058500052F82030002B07DBA2F1180343F8201088
:105860004FF0FF3142F82010704700002C620220F8
:1058700002480068407C00F003B80000DC610220B0
:1058800038B51449096809B1002200E002461249FE
:10589000895601291CDD0F49143151F822305B1E55
:1058A00041F8223014D1083951F82240103141F822
:1058B0002240FEF7CFFD0090002809D0C0682221C9
:1058C000426A68469047020002D0214600989047FD
:1058D00038BD00002C6202201462022010B500289E
:1058E00021D009B30AB3B1F90040B2F900309C42AB
:1058F00000DA23460380B1F90240B2F902309C423B
:1059000000DA23464380B1F90440B2F904309C42E6
:1059100000DD23468380B1F90610B2F906209142DA
:1059200000DC1146C18010BD11460A68026049685A
:10593000416010BD10B506F011FEBDE81040FFF744
:1059400013B900280BD003880B44038083881944C3
:105950008180418811444180C1881144C1807047D1
:1059600070B50E4D0446D5E90001884209D10C49B5
:10597000884201D13C3000E00C3807C884E80700B9
:1059800006E090E80E0084E80E0012F041FD286069
:10599000207A002800D0012070BD00005062022053
:1059A00064CD02200448D0E90010814201D10120D9
:1059B000704700207047000050620220054A10B571
:1059C0000349116016F016FDBDE8104000F0E6B97D
:1059D000390A01200462022070B5094C0020D4E984
:1059E00000218A420AD0D2E90056104612F028FD62
:1059F0002060314628460BF079FB012070BD000085
:105A0000706502202DE9FC41154DDDE908742D6813
:105A1000B5F90860864200DD3046B5F90C60964263
:105A200000DA3246824219DBB5F90A608E4200DDA7
:105A30003146B5F90E509D4200DA2B468B420DDB04
:105A400000E02C46E5682D6825B1042D02D02568BC
:105A5000002DF6D1CDE9007405F04CF9BDE8FC81CC
:105A6000DC610220B0F90220B1F906309A4213DC61
:105A7000B1F90220B0F906309A420DDCB0F90020ED
:105A8000B1F904309A4207DCB1F90010B0F9040012
:105A9000814201DC01207047002070470146024826
:105AA00070220068FAF79EBBDC61022038B5040062
:105AB00019D016F0B7FD204616F02AFE2046FEF754
:105AC0003BF900900068FEF787F80098C068FEF781
:105AD00067F80098C069FEF763F86846FEF776F944
